:100000000C9479130C94AA130C94AA130C94AA13AD
:100010000C94AA130C94AA130C94AA130C94AA136C
:100020000C94AA130C94AA130C94AA130C94AA135C
:100030000C94AA130C94AA130C94AA130C94AA134C
:100040000C94AA130C94248E0C94AA130C94AA1347
:100050000C94AA130C94AA130C944B840C945F82F6
:100060000C94AA130C94648E0C94AA130C94AA13E7
:100070000C94AA130C94AA130C94AA130C94AA130C
:100080000C94AA130C94AA130C94AA130C94AA13FC
:100090000C94AA130C94AA130C94AA130C94AA13EC
:1000A0000C94AA130C94AA130C94AA130C94AA13DC
:1000B0000C94AA130C94AA130C94AA130C94AA13CC
:1000C0000C94AA130C94AA130C94AA130C94AA13BC
:1000D0000C94AA130C94AA130C94AA130C94AA13AC
:1000E0000C94AA13084AD73B3BCE016E84BCBFFDDB
:1000F000C12F3D6C74319ABD56833DDA3D00C77FF8
:1001000011BED9E4BB4C3E916BAAAABE0000008090
:100110003F05A84CCDB2D44EB93836A9020C50B91F
:10012000918688083CA6AAAA2ABE000000803F004B
:100130000C9421140C94FF130C9438150C94F614A1
:100140000C9420140C9424150C94EA130C9451155F
:100150000C941C150C945B150C94E9140C947915F3
:100160000C941B140C940D140C9425140C946F1502
:100170000C9414150C942E150C94EE130C94051479
:100180000C94E6130C9417140C94E0130C940A15B9
:100190000C94F5130C9465150C94FB130C94091432
:1001A0000C9413140C94F1140C9442150C948315B4
:1001B0000C9400150C94DEA40C94F2134E414E499D
:1001C0004E495459494E46CDCCCC3D0AD7233C1715
:1001D000B7D13877CC2B329595E6241FB14F0A0062
:1001E0000020410000C84200401C4620BCBE4CCA52
:1001F0001B0E5AAEC59D744C4556454C494E4700A2
:10020000434F4D4D554E49434154494F4E00445282
:100210005952554E004552524F525300494E464F87
:10022000004543484F002569730025696D20256905
:1002300073002569682025696D202569730025698B
:1002400064202569682025696D202569730025696A
:100250007920256964202569682025696D20256934
:1002600073002C20002C2000203A2073796E635FED
:10027000706C616E5F706F736974696F6E0A0020D5
:100280002063757272656E745F706F736974696FE5
:100290006E3D00656E7175657565696E672022003B
:1002A0005072696E7465722073746F70706564202B
:1002B00064756520746F206572726F72732E2046AC
:1002C000697820746865206572726F7220616E644F
:1002D00020757365204D39393920746F207265732C
:1002E000746172742E202854656D70657261747526
:1002F00072652069732072657365742E205365746E
:10030000206974206166746572207265737461720D
:1003100074696E67290A004E6F20436865636B73CA
:10032000756D2077697468206C696E65206E756DD7
:100330006265722C204C617374204C696E653A20A2
:1003400000636865636B73756D206D69736D6174AF
:1003500063682C204C617374204C696E653A2000F0
:100360004C696E65204E756D626572206973206EF2
:100370006F74204C617374204C696E65204E756DEE
:100380006265722B312C204C617374204C696E6550
:100390003A20004D3131300020496E76616C69643D
:1003A000206578747275646572200000000000009A
:1003B0000000000000000000007A4300007A4300C3
:1003C00000A0430A20736F66745F656E6473746F78
:1003D000705F6D6178203D20000A20736F66745F46
:1003E000656E6473746F705F6D696E203D20000AE6
:1003F00020706F736974696F6E5F736869667420CB
:100400003D200020617869733A0A20686F6D655F4E
:100410006F6666736574203D2000466F7220003C55
:100420003C3C20646F5F626C6F636B696E675F6DED
:100430006F76655F746F0A003E3E3E20646F5F62B8
:100440006C6F636B696E675F6D6F76655F746F006D
:10045000203A2073657475705F666F725F656E64B5
:1004600073746F705F6F725F70726F62655F6D6FD4
:1004700076650A00202063757272656E745F706F16
:10048000736974696F6E3D00203A20636C65616E1C
:100490005F75705F61667465725F656E6473746FBB
:1004A000705F6F725F70726F62655F6D6F76650A05
:1004B00000202063757272656E745F706F7369746B
:1004C000696F6E3D00646F5F70726F62655F72612D
:1004D00069736528006465706C6F793A2000203A72
:1004E000207365745F70726F62655F6465706C6FB6
:1004F0007965640A00202063757272656E745F709E
:100500006F736974696F6E3D00203A203C3C3C205B
:10051000646F5F70726F62655F6D6F76650A002051
:100520002063757272656E745F706F736974696F42
:100530006E3D00203A203E3E3E20646F5F70726F39
:1005400062655F6D6F76650A002020637572726563
:100550006E745F706F736974696F6E3D007265735E
:1005600065745F6265645F6C6576656C0A0020285F
:10057000646F6E65290A004578747261706F6C61F2
:100580007465205B0042696C696E656172204C6520
:1005900076656C696E6720477269643A0A003C3C74
:1005A0003C20646F5F686F6D696E675F6D6F766525
:1005B00028005B00290A002C20002C20003E3E3E33
:1005C00020646F5F686F6D696E675F6D6F76652819
:1005D00000202864697361626C6564290A004142E5
:1005E0004C2041646A7573746D656E74205A0020E6
:1005F000480020570020590042696C696E6561729D
:1006000020477269642058002028656E61626C651D
:1006100064290A0042494C494E45415200417574D3
:100620006F20426564204C6576656C696E673A2080
:100630000020262053616D65205A20617300204EF2
:100640006F7A7A6C65290A0020262041626F7665F0
:100650000020262042656C6F77002D4261636B009D
:100660002028526967687400205A3A0020593A00DD
:1006700050726F6265204F666673657420583A0049
:100680004649585F4D4F554E5445445F50524F4276
:10069000450A0050726F62653A2000436F72650A26
:1006A000004D616368696E6520547970653A200079
:1006B0003C3C3C204732390A0020636F727265630C
:1006C000746564205A3A0047323920756E636F7240
:1006D000726563746564205A3A00203A203E2070A7
:1006E000726F62696E6720636F6D706C6574650A06
:1006F00000202063757272656E745F706F73697429
:10070000696F6E3D00202844525952554E290047CA
:100710003239204175746F20426564204C657665DE
:100720006C696E67003F20284C2C522C462C4229C5
:10073000206F7574206F6620626F756E64732E0A69
:10074000003F2856296572626F7365206C65766577
:100750006C20697320696D706C61757369626C657A
:100760002028302D34292E0A00426164205A207638
:10077000616C75650A004E6F2062696C696E656117
:100780007220677269640A003C3C3C204732390A97
:10079000003E204175746F2D6C6576656C206E6F20
:1007A00074206E65656465642C20736B69700A0043
:1007B0004732380A473239003E204E6F7420686F46
:1007C0006D65642E20456E7175657565696E67206F
:1007D00047323820666F6C6C6F77656420627920D1
:1007E0004732390A00203A203E3E3E204732390A3D
:1007F00000202063757272656E745F706F73697428
:10080000696F6E3D0050726F74656374656420504B
:10081000696E0A005374616E646172642044657687
:10082000696174696F6E3A20002052616E67653AA3
:100830002000204D61783A2000204D696E3A20005A
:100840004D65616E3A200046696E69736865642182
:100850000A002072616E67653A2000206D61783A67
:100860002000206D696E3A2000207369676D613A3F
:100870002000206D65616E3A20003A207A3A20000F
:10088000206F662000205A00205900205800476F32
:10089000696E6720746F3A00436C6F636B7769739E
:1008A000650A00436F756E7465722D00204469728D
:1008B000656374696F6E3A2000202020616E676C5A
:1008C000653A20005374617274696E6720726164C6
:1008D0006975733A2000506F736974696F6E696E41
:1008E00067207468652070726F62652E2E2E0A0074
:1008F0003F4E756D626572206F66206C6567732070
:10090000696E206D6F76656D656E74206E6F7420F4
:10091000706C61757369626C652028302D313529E2
:100920002E0A003F2028582C5929206F7574206FFB
:100930006620626F756E64732E0A003F53616D709E
:100940006C652073697A65206E6F7420706C6175B8
:100950007369626C652028342D3530292E0A004DCC
:100960003438205A2D50726F62652052657065616F
:10097000746162696C69747920546573740A003F0C
:100980002856296572626F7365206C6576656C20E8
:10099000697320696D706C61757369626C6520287C
:1009A000302D34292E0A0020573A0020573A0020D3
:1009B0005A3A0020423A0020436F756E7420413A43
:1009C0000020453A00205A3A0020593A00583A008F
:1009D0003A004361703A00426564204C6576656C6C
:1009E000696E6720004661696C656420746F2065DC
:1009F0006E61626C6520426564204C6576656C6949
:100A00006E670A00526573656E643A200020746F49
:100A10006F206C6F6E6720657874727573696F6E86
:100A20002070726576656E7465640A0020636F6C71
:100A30006420657874727573696F6E207072657664
:100A4000656E7465640A00627573793A2070617529
:100A500073656420666F7220696E7075740A006237
:100A60007573793A2070617573656420666F7220C2
:100A7000757365720A00627573793A2070726F63DC
:100A8000657373696E670A004B494C4C206361754E
:100A900073656420627920746F6F206D75636820C0
:100AA000696E6163746976652074696D65202D20B7
:100AB00063757272656E7420636F6D6D616E643AFA
:100AC00020002020506C616E6E657242756666650E
:100AD0007242797465733A20002046726565204D34
:100AE000656D6F72793A2000436F6D70696C656453
:100AF0003A204A616E20323120323032310A0020F1
:100B00007C20417574686F723A20467261636B7421
:100B1000616C20576F726B730A00323032312D30A6
:100B2000312D32312031303A353000204C61737430
:100B300020557064617465643A20004275696C6484
:100B40003A204A313852465F3231303132315F31EA
:100B50003035305F48410A00467261636B74616CE6
:100B600020576F726B73204A756C696120457874E9
:100B7000656E6465642041424C0A00312E312E3985
:100B80000A004D61726C696E0020536F6674776164
:100B900072652052657365740A002057617463683A
:100BA000646F672052657365740A002042726F7724
:100BB0006E206F75742052657365740A0020457845
:100BC0007465726E616C2052657365740A00506FB3
:100BD00077657255700A0073746172740A003C3C48
:100BE0003C207365745F617869735F69735F6174DA
:100BF0005F686F6D652800203A200A002020637529
:100C00007272656E745F706F736974696F6E3D00A8
:100C10005D203D20003E20686F6D655F6F666673E6
:100C200065745B003E3E3E207365745F6178697356
:100C30005F69735F61745F686F6D652800000048CD
:100C400042000048420000A04100000000576172CD
:100C50006E696E673A20486F6D696E672042756DE8
:100C6000702044697669736F72203C20310A00025B
:100C700002040000A0400000A0400000004000006E
:100C80007A4300007A430000A0433C3C3C20686F5C
:100C90006D65617869732800203A203E20414654F2
:100CA0004552207365745F617869735F69735F6132
:100CB000745F686F6D650A00202063757272656EDF
:100CC000745F706F736974696F6E3D00486F6D6516
:100CD000203220536C6F773A0A004D6F76652041C1
:100CE0007761793A0A00486F6D652031204661735B
:100CF000743A0A003E3E3E20686F6D656178697304
:100D000028006F6B004572726F7220777269746988
:100D10006E6720746F20454550524F4D210A0045A3
:100D20004550524F4D206461746173697A65206546
:100D300072726F722E0A00290A002062797465733C
:100D40003B20637263200053657474696E6773207F
:100D500053746F726564202800290A002062797438
:100D600065733B2063726320002073746F72656447
:100D70002073657474696E67732072657472696537
:100D8000766564202800202863616C63756C61744B
:100D9000656429210A0020213D2000454550524F1D
:100DA0004D20435243206D69736D61746368202D3B
:100DB000202873746F7265642920002053697A6556
:100DC0003A2000496E6465783A2000204D61726CCB
:100DD000696E3D563535290A0028454550524F4D1C
:100DE0003D00454550524F4D2076657273696F6ED8
:100DF000206D69736D61746368200048617264637B
:100E00006F6465642044656661756C742053657415
:100E100074696E6773204C6F616465640A00D00763
:100E20000000D00700003200000010270000000082
:100E30004843000048430000A04100003442000045
:100E4000C8420000C842F0F7FB4300000C433A0AD6
:100E50000020286D6D290020204D383531205A00A2
:100E60005A2D50726F6265204F666673657400205C
:100E7000440020490020204D33303120500050499B
:100E8000442073657474696E67733A0A00205A00CF
:100E9000204A002020473239205720490020204D89
:100EA0003432302053004175746F20426564204C09
:100EB0006576656C696E673A0A00205A0020590011
:100EC00020204D323036205800486F6D65206F6607
:100ED000667365743A0A00204A00205400205300CB
:100EE00020204D323035204200204A3C6A756E6326
:100EF0005F6465763E00416476616E6365643A20A6
:100F0000423C6D696E5F7365676D656E745F746991
:100F10006D655F75733E20533C6D696E5F666565F8
:100F200064726174653E20543C6D696E5F747261D9
:100F300076656C5F66656564726174653E00205419
:100F40000020520020204D32303420500041636395
:100F5000656C65726174696F6E2028756E69747353
:100F60002F7332293A20503C7072696E745F61634E
:100F700063656C3E20523C726574726163745F619C
:100F80006363656C3E20543C74726176656C5F618E
:100F90006363656C3E0A00204500205A002059001A
:100FA00020204D3230312058004D6178696D756DCB
:100FB00020416363656C65726174696F6E2028758A
:100FC0006E6974732F7332293A0A00204500205A43
:100FD0000020590020204D3230332058004D6178D8
:100FE000696D756D2066656564726174657320282E
:100FF000756E6974732F73293A0A00204500205AD0
:101000000020590020204D3932205800537465705B
:10101000732070657220756E69743A0A0020204D45
:101020003230302044300A0020204D32303020440D
:10103000002044697361626C65640A0046696C61F2
:101040006D656E742073657474696E67733A002001
:1010500020473231202020203B007A5F70726F627F
:10106000653A20007A5F6D61783A2000795F6D61A2
:10107000783A2000785F6D696E3A20005265706F93
:101080007274696E6720656E6473746F7020737418
:10109000617475730A000000000100000001000087
:1010A0008000555555000000400033333300AAAA94
:1010B0002A004992240000002000C7711C00999961
:1010C0001900D1451700555515003BB113002449AF
:1010D000120011111100000010000F0F0F00E33873
:1010E0000E0043790D00CCCC0C00C3300C00E8A2FC
:1010F0000B0064210B00AAAA0A00703D0A009DD8CB
:101100000900427B090092240900DCD3080088888A
:1011100008001042080000000800F0C1070087879F
:10112000070075500700711C07003EEB0600A1BCCC
:1011300006006990060066660600703E06006118AB
:10114000060017F4050074D105005BB00500B290ED
:101150000500627205005555050078390500B81E76
:101160000500050505004EEC040087D40400A1BD70
:10117000040090A7040049920400C17D0400EE69B8
:101180000400C7560400444404005C3204000821F3
:10119000040041100400000004003FF00300F8E0E8
:1011A000030026D20300C3C30300CCB503003AA852
:1011B00003000A9B0300388E0300C08103009F7563
:1011C0000300D0690300505E03001D530300344840
:1011D0000300913D03003333030016290300381F39
:1011E000030097150300300C0300030303000BFA00
:1011F000020049F10200BAE802005CE002002DD8CA
:1012000002002DD0020059C80200B0C0020031B95E
:101210000200DAB10200AAAA0200A0A30200BC9C4C
:101220000200FA9502005C8F0200DF8802008282D1
:101230000200457C02002776020027700200436A04
:1012400002007C640200D05E02003F590200C853D5
:10125000020020746F6F206C6F6E67206578747267
:101260007573696F6E2070726576656E7465640A59
:101270000020636F6C6420657874727573696F6E9B
:101280002070726576656E7465640A00FFFDFCFA75
:10129000F8F6F4F2F0EEECEAE9E7E5E3E1E0DEDCB3
:1012A000DAD9D7D5D4D2D0CFCDCBCAC8C7C5C3C25F
:1012B000C0BFBDBCBAB9B7B6B4B3B2B0AFADACAADB
:1012C000A9A8A6A5A4A2A1A09E9D9C9A999897952D
:1012D000949392908F8E8D8B8A898887868483825F
:1012E00081807F7E7D7B7A79787776757473727171
:1012F000706F6E6D6C6B6A69686766656463626166
:10130000605F5E5D5C5B5A5958585756555453524E
:101310005150504F4E4D4C4B4A4A4948474646451E
:101320004443424241403F3E3E3D3C3B3B3A3938DC
:101330003837363535343332323130302F2E2E2D8A
:101340002C2B2B2A2929282727262525242323222D
:10135000212120201F1E1E1D1C1C1B1B1A191918C1
:1013600018171616151514131312121111100F0F4A
:101370000E0E0D0D0C0C0B0A0A09090808070706CA
:1013800006050504040303020201000046696C61BE
:101390006D656E7420757365643A200053746174D2
:1013A000733A20002C204C6F6E67657374206A6F4F
:1013B000623A2000546F74616C2074696D653A2044
:1013C0000053746174733A20002C204661696C6587
:1013D000643A20002C2046696E69736865643A207F
:1013E000005072696E74733A200053746174733ADA
:1013F000200024F4D43050C38E20C2A24017828B28
:101400007011127A910D816CD90AA861E108C75850
:101410006607615143061E4B5D05C145A7041A418D
:101420001104093D9803713931034036DB026533FD
:101430009102D4305402802E1D02632CEE01752AD5
:10144000C501B028A001102781018F2564012B243C
:101450004B01E0223401AC211F018D200D01801FC2
:10146000FC00841EED00971DDF00B81CD200E61BB7
:10147000C600201BBC00641AB200B219A8000A19E9
:10148000A0006A189900D117910040178B00B5167B
:10149000840031167E00B31579003A157300C71425
:1014A0006F0058146A00EE1366008813630025135A
:1014B0005E00C7125B006C12570015125400C11178
:1014C000510070114F0021114B00D61049008D10B2
:1014D00047004610440002104200C00F4000800F39
:1014E0003E00420F3C00060F3B00CB0E3800930E2F
:1014F00037005C0E3500270E3400F30D3200C10DAD
:101500003100900D3000600D2E00320D2D00050DC4
:101510002C00D90C2B00AE0C2900850C29005C0C8A
:101520002700350C27000E0C2600E80B2400C40B06
:101530002400A00B23007D0B23005A0B2100390B44
:101540002100180B2000F80A1F00D90A1E00BB0A50
:101550001E009D0A1D00800A1D00630A1C00470A28
:101560001B002C0A1B00110A1A00F7091A00DD09DA
:101570001900C4091900AB091900920917007B0969
:101580001800630917004C091600360916002009D7
:1015900016000A091500F5081500E0081400CC082B
:1015A0001400B8081400A4081400900813007D0863
:1015B00012006B0813005808120046081200340885
:1015C0001100230811001208110001081100F00792
:1015D0001000E0071000D0071000C0071000B0078F
:1015E0000F00A107100091070E0083070F0074077A
:1015F0000F0065070E0057070E0049070E003B0756
:101600000D002E070E0020070D0013070D00060722
:101610000D00F9060C00ED060D00E0060C00D406E6
:101620000C00C8060C00BC060C00B0060C00A4069A
:101630000B0099060C008D060B0082060B00770646
:101640000B006C060B0061060A0057060B004C06E7
:101650000A0042060A0038060A002E060A0024067E
:101660000A001A060A001006090007060A00FD050E
:101670000900F4050900EB050900E2050900D90598
:101680000900D0050900C7050900BE050900B50518
:101690000800AD050800A50509009C050800940593
:1016A00008008C050800840508007C050800740506
:1016B00008006C050700650508005D050700560574
:1016C00008004E05070047050700400508003805DB
:1016D0000700310507002A050700230507001C0540
:1016E0000600160507000F0507000805060002059D
:1016F0000700FB040600F5040700EE040600E804FA
:101700000600E2040700DB040600D5040600CF044F
:101710000600C9040600C3040600BD040600B704A1
:101720000600B1040500AC040600A6040600A004EF
:1017300005009B04060095040500900406008A0439
:10174000050085040500800406007A040500750480
:101750000500700405006B040500660405006104C3
:1017600005005C04050057040500520405004D0403
:10177000050048040500430405003E0404003A0443
:10178000050035040500300404002C04050027047E
:101790000400230405001E0404001A0404001604B7
:1017A0000500110404000D040400090405000404EC
:1017B000040000040400FC030400F8030400F40324
:1017C0000400F0030400EC030400E8030400E40355
:1017D0000400E0030400DC030400D8030400D40385
:1017E0000400D0030400CC030400C8030300C503B5
:1017F000030024F404D9201BC40C5C0E9804C40913
:101800005F0265077101F405F900FB04B3004804A9
:101810008700C10369005803550003034500BE0259
:101820003A008402310053022A00290225000402F2
:101830002000E4011C00C8011900AF011700980145
:1018400014008401130071011000610110005101A6
:101850000E0043010D0036010B002B010B0020018F
:101860000B00150109000C01090003010800FB0031
:101870000800F3000800EB000700E4000600DE00AB
:101880000600D8000600D2000600CC000500C70004
:101890000500C2000500BD000400B9000400B50049
:1018A0000400B1000400AD000400A9000400A5007C
:1018B0000300A20003009F0004009B0003009800A7
:1018C00003009500020093000300900003008D00C8
:1018D00002008B00030088000200860002008400E2
:1018E0000300810002007F0002007D0002007B00F7
:1018F0000200790002007700010076000200740007
:10190000020072000100710002006F0002006D0011
:1019100001006C0002006A0001006900020067001B
:101920000100660001006500010064000200620021
:10193000010061000100600001005F0002005D0025
:1019400001005C0001005B0001005A000100590029
:101950000100580001005700010056000100550029
:101960000100540001005300000053000100520028
:10197000010051000100500001004F0001004E0025
:1019800000004E0001004D0001004C0001004B0022
:1019900000004B0001004A0001004900010048001E
:1019A000000048000100470001004600000046001A
:1019B0000100450000004500010044000100430013
:1019C000000043000100420000004200010041000D
:1019D000000041000100400001003F0000003F0006
:1019E00001003E0000003E0001003D0000003D00FF
:1019F00001003C0000003C0000003C0001003B00F6
:101A000000003B0001003A0000003A0001003900EC
:101A100000003900010038000000380000003800E4
:101A200001003700000037000100360000003600DA
:101A300000003600010035000000350000003500D0
:101A400001003400000034000000340001003300C5
:101A500000003300000033000100320000003200BB
:101A600000003200010031000000310000003100B0
:101A700001003000000030000000300001002F00A5
:101A800000002F0000002F0000002F0001002E009A
:101A900000002E0000002E0001002D0000002D008F
:101AA00000002D0000002D0001002C0000002C0083
:101AB00000002C0000002C0001002B0000002B0077
:101AC00000002B0000002B0001002A0000002A006B
:101AD00000002A0000002A0001002900000029005F
:101AE0000000290000002900000029000100280052
:101AF0000000280000002800000028000000280046
:101B00000100270000002700000027000000270038
:101B1000000027000100260000002600000026002B
:101B2000000026000000260001002500000025001E
:101B30000000250000002500000025000000250011
:101B40000100240000002400000024000000240004
:101B500000002400010023000000230000002300F7
:101B600000002300000023000000230000002300E9
:101B700001002200000022000000220000002200DC
:101B800000002200000022000100210000002100CE
:101B900000002100000021000000210000002100C1
:101BA00000002100010020000000200000002000B3
:101BB00000002000000020000000200000002000A5
:101BC0000000200001001F0000001F0000001F0097
:101BD00000001F0000001F0000001F0000001F0089
:101BE00001001E0000001E0000001E0000001E007C
:101BF0000000393000003325000087190000B00FC5
:101C00000000DB080000BD040000740200003F017A
:101C1000000023646566696E652044454641554C65
:101C2000545F4B64200023646566696E65204445FB
:101C30004641554C545F4B69200023646566696ECC
:101C4000652044454641554C545F4B702000504937
:101C500044204175746F74756E652066696E697392
:101C6000686564212050757420746865206C617308
:101C700074204B702C204B6920616E64204B6420D3
:101C8000636F6E7374616E74732066726F6D206221
:101C9000656C6F7720696E746F20436F6E6669673D
:101CA00075726174696F6E2E680A00504944204154
:101CB00075746F74756E65206661696C656421204A
:101CC00074696D656F75740A00453120544845523A
:101CD0004D414C2052554E41574159005468657250
:101CE0006D616C2052756E617761790045312048D5
:101CF000656174696E67206661696C65640048653A
:101D00006174696E67206661696C6564005049445E
:101D1000204175746F74756E65206661696C6564C9
:101D2000212054656D706572617475726520746FE1
:101D30006F20686967680A00204B643A2000204BD6
:101D4000693A2000204B703A20000A20436C6173EE
:101D500073696320504944200A002054753A2000DA
:101D6000204B753A2000206D61783A2000206D6983
:101D70006E3A200020643A200020626961733A20A4
:101D800000504944204175746F74756E65207374FA
:101D90006172740A00504944204175746F74756E05
:101DA00065206661696C6564212042616420657804
:101DB000747275646572206E756D6265720A006278
:101DC00065640A002C2073797374656D2073746FD9
:101DD0007070656421204865617465725F49443A9A
:101DE00020004265642068656174696E67206661E1
:101DF000696C65640048656174696E672066616935
:101E00006C65640045312048656174696E672066C1
:101E100061696C65640048656174696E672066611C
:101E2000696C6564001000600350012C0190012270
:101E300001D001180110020E0170020401E002FA43
:101E4000006003F0000004E600B004DC00A005D24E
:101E500000B006C8000008BE00A009B400800BAAAC
:101E600000D00DA00090109600C0138C0070178257
:101E700000901B780010206E00C0246400E02D50FC
:101E80000080353C00A03A2800A03D1400003F002F
:101E900000A03FECFF4531204572723A204D415879
:101EA00054454D50004572723A204D415854454DAD
:101EB0005020424544004D415854454D50207472C5
:101EC00069676765726564004531204572723A2022
:101ED0004D494E54454D50004572723A204D494E81
:101EE00054454D5020424544004D494E54454D50B7
:101EF0002074726967676572656400202F00204254
:101F0000403A0020403A0000002100240027002A27
:101F1000002D003000330001010000040107010A18
:101F20000100002200250028002B002E0031003483
:101F30000002010000050108010B01000020002340
:101F400000260029002C002F0032000001000003B1
:101F5000010601090105050505070508080808022D
:101F60000202020A0A080804040404010101010132
:101F70000101010303030303030303040707070C21
:101F80000C0C0C0C0C0C0C020202020606060606D7
:101F90000606060B0B0B0B0B0B0B0B010210202084
:101FA00008081020401020408002010201080402AD
:101FB0000101020408102040808040201008040223
:101FC000018004020180402010080402010804027C
:101FD0000101020408102040800102040810204082
:101FE0008000000A0B02090C0D0E08070304010013
:101FF00000000000000000000000000000000000E1
:10200000000000000000000000000000001211109D
:1020100000000000000000000000000000000000C0
:102020000000000000000047322F47332062616447
:1020300020706172616D65746572730A003C3C3C8E
:10204000204732380A003E20686F6D696E67206E47
:102050006F74206E65656465642C20736B69700A0B
:10206000003C3C3C204732380A00526169736520CD
:102070005A20286265666F726520686F6D696E67A9
:102080002920746F20003E20656E6473746F707336
:102090002E656E61626C652874727565290A003E52
:1020A0003E3E204732380A00205A3A200020593A52
:1020B000200042656420583A20004D657368207006
:1020C0006F696E742063616E6E6F7420626520723A
:1020D00065736F6C7665640A005072696E74207463
:1020E000696D653A20006F66660021021C021502C8
:1020F0000E020002F70144454255473A004D313186
:10210000332053006F6B00544845524D414C5F5093
:10211000524F54454354494F4E004155544F524538
:10212000504F52545F53445F5354415455530045EC
:102130004D455247454E43595F5041525345520019
:10214000434153455F4C494748545F4252494748D1
:10215000544E45535300544F47474C455F4C4947F5
:1021600048545300534F4654574152455F504F57C0
:102170004552004255494C445F50455243454E54E8
:10218000004C4556454C494E475F44415441005A26
:102190005F50524F4245004155544F4C4556454CB7
:1021A000005052494E545F4A4F420050524F4752DE
:1021B000455353004155544F5245504F52545F546C
:1021C000454D5000564F4C554D45545249430045DE
:1021D0004550524F4D0053455249414C5F584F4E68
:1021E0005F584F4646004649524D574152455F4E53
:1021F000414D453A4D61726C696E204A3138524604
:102200005F3231303132315F313035305F4841201B
:10221000534F555243455F434F44455F55524C3AE7
:1022200068747470733A2F2F6769746875622E63CF
:102230006F6D2F61686172736861632F46574A75CD
:102240006C6961323031384D61726C696E20505268
:102250004F544F434F4C5F56455253494F4E3A31BE
:102260002E30204D414348494E455F545950453A20
:102270004A756C696120457874656E6465642041B7
:10228000424C2045585452554445525F434F554E99
:10229000543A3120555549443A3262363332396224
:1022A000632D393634642D346166302D61396330E5
:1022B0002D6561386536306264343933300A002F59
:1022C0002F2000205400205200416363656C65722A
:1022D0006174696F6E3A2050003F4A206F75742018
:1022E0006F662072616E67652028302E3031207451
:1022F0006F20302E33290A00000020C100007A43ED
:102300000000A043546F6F206661722066726F6D8B
:10231000207265666572656E636520706F696E74A4
:102320000A00FF0101205A00205900580020204DCA
:1023300061783A2000205A00205900580020204D92
:10234000696E3A20004F6E20004F666600536F663C
:102350007420656E6473746F70733A200020466C4D
:102360006F773A2000000136372603FFFFFF353C28
:102370003D38FF0FFFFF312E303EFF13FFFFFF28D8
:10238000390C0809FFFFFF1A1C18FFFF2A08440A2E
:10239000FF43496E76616C69642065787472756478
:1023A00065720A0020643A0020693A0020703A0001
:1023B00043290A0061626C656420286D696E20748F
:1023C000656D702000436F6C64206578747275646D
:1023D00065732061726520004E6F20636173652014
:1023E0006C696768740A004D65736820706F696E68
:1023F000742063616E6E6F74206265207265736F06
:102400006C7665640A004D34323120696E636F72F8
:102410007265637420706172616D65746572207598
:10242000736167650A00454550524F4D204F4B0A76
:10243000003F5A206F7574206F662072616E676569
:1024400020282D323020746F203230290A003A20A3
:102450000050726F6265205A204F66667365740083
:102460004163746976652045787472756465723A63
:102470002000496E76616C696420657874727564B9
:1024800065720A003C3C3C2067636F64655F540AD8
:1024900000203A2041465445520A002020637572BC
:1024A00072656E745F706F736974696F6E3D002042
:1024B0003A204245464F52450A0020206375727209
:1024C000656E745F706F736974696F6E3D003E3E38
:1024D0003E2067636F64655F54280020503A0020F7
:1024E0005A3A0020593A0020583A00656E647374D5
:1024F0006F7073206869743A2000556E6B6E6F7749
:102500006E20636F6D6D616E643A202200203A2068
:102510003C3C3C2072756E5F7A5F70726F62650A38
:1025200000202063757272656E745F706F736974DA
:10253000696F6E3D002044697363726570616E63FC
:10254000793A00326E642050726F6265205A3A0008
:10255000203A203C3C3C2072756E5F7A5F70726F4F
:1025600062650A00202063757272656E745F706F19
:10257000736974696F6E3D00534C4F572050726FF2
:102580006265206661696C210A00317374205072A3
:102590006F6265205A3A00203A203C3C3C2072751C
:1025A0006E5F7A5F70726F62650A002020637572D9
:1025B00072656E745F706F736974696F6E3D00460B
:1025C0004153542050726F6265206661696C210A24
:1025D00000203A203E3E3E2072756E5F7A5F707238
:1025E0006F62650A00202063757272656E745F7099
:1025F0006F736974696F6E3D003C3C3C2070726F74
:1026000062655F70740A0050726F62696E6720665F
:1026100061696C65640A0050524F42494E475F46FB
:1026200041494C45440A00205A3A200020593A209A
:102630000042656420583A2000203A200A002020F9
:1026400063757272656E745F706F736974696F6EB3
:102650003D005F72656C6174697665290A002C2003
:10266000002C20002C20002C20003E3E3E207072CA
:102670006F62655F707428002066697273740A0067
:102680005A0059005800486F6D6520006563686FF7
:102690003A00453120544845524D414C2052554E48
:1026A000415741590042454420544845524D414C00
:1026B0002052554E4157415900546865726D616C06
:1026C0002052756E61776179005072696E7465721F
:1026D0002068616C7465642E206B696C6C282920FD
:1026E00063616C6C6564210A004572726F723A0016
:1026F000DEA411241FBECFEFD1E2DEBFCDBF00E0CC
:102700000CBF13E0A0E0B2E0E4E7F3E601E00BBFAA
:1027100002C007900D92A633B107D9F72EE0A6E3C9
:10272000B3E001C01D92A73AB207E1F713E1C9E790
:10273000D3E100E006C021970109802FFE010E942D
:102740006FB1C837D10780E00807A9F70E946B90E6
:102750000C94B8B10C940000FC01DB018C91208139
:102760003181382798E0A901220F331F57FD05C09A
:102770009150C9F7318320830895B1E22B27B0E14E
:102780003B27F6CF8150823108F05AC0E82FF0E0A5
:102790008827E253FC4E8F4F0C946FB1EE13F21367
:1027A000E013E613EA132014F513FB13FF130514CB
:1027B00009140D141314171420141B1421142514B8
:1027C000809180008F7780938000089580918000B1
:1027D0008F7DF9CF80918000877FF5CF84B58F778B
:1027E00084BD089584B58F7DFBCF8091B0008F7735
:1027F0008093B00008958091B0008F7DF9CF8091D3
:1028000090008F77809390000895809190008F7D45
:10281000F9CF80919000877FF5CF8091A0008F77CE
:102820008093A00008958091A0008F7DF9CF8091C2
:10283000A000877FF5CF809120018F7780932001C2
:102840000895809120018F7DF9CF80912001877FAD
:10285000F5CFCF93DF93282F30E0F901EF51F04E01
:102860008491F901E556F04ED491F901EB5AF04EFE
:10287000C491CC23A1F081110E94C213EC2FF0E08F
:10288000EE0FFF1FE55CF04EA591B491EC91ED23A6
:1028900081E090E009F480E0DF91CF91089580E03D
:1028A00090E0FACF1F93CF93DF93282F30E0F90108
:1028B000EF51F04E8491F901E556F04ED491F901B3
:1028C000EB5AF04EC491CC23A9F0162F81110E942F
:1028D000C213EC2FF0E0EE0FFF1FEF5DF04EA5915D
:1028E000B4918FB7F894EC91111108C0D095DE2304
:1028F000DC938FBFDF91CF911F910895DE2BF8CF2E
:10290000CF93DF9390E0FC01E556F04E24918B5A73
:10291000904EFC0184918823D1F090E0880F991F9C
:10292000FC01E95FF04EA591B491FC01EF5DF04E22
:10293000C591D49161110EC09FB7F8948C91E22F8C
:10294000E0958E238C932881E223E8839FBFDF915B
:10295000CF9108958FB7F894EC91E22BEC938FBF51
:10296000F6CF1F93CF93DF93182FEB0161E00E9406
:102970008014209739F460E0812FDF91CF911F916F
:102980000C945214CF3FD10511F461E0F5CFE12F43
:10299000F0E0EF51F04EE491E150E23108F0B3C0C5
:1029A000F0E08827E952FB4E8F4F0C946FB1E91489
:1029B000F114F61400150A15831514151C152415A9
:1029C0002E153815421551155B15831565156F15B4
:1029D000791584B5806884BDC7BDDF91CF911F9103
:1029E000089584B5806284BDC8BDF7CF8091800012
:1029F000806880938000D0938900C0938800EDCFD9
:102A000080918000806280938000D0938B00C0937F
:102A10008A00E3CF80918000886080938000D0930B
:102A20008D00C0938C00D9CF8091B00080688093D6
:102A3000B000C093B300D1CF8091B000806280938A
:102A4000B000C093B400C9CF80919000806880939B
:102A50009000D0939900C0939800BFCF80919000D0
:102A6000806280939000D0939B00C0939A00B5CF72
:102A700080919000886080939000D0939D00C093D7
:102A80009C00ABCF8091A00080688093A0008091D3
:102A9000A0008F7B8093A000D093A900C093A800D2
:102AA0009CCF8091A00080628093A000D093AB0067
:102AB000C093AA0092CF8091A00088608093A0006C
:102AC000D093AD00C093AC0088CF80912001806886
:102AD00080932001D0932901C09328017ECF80915B
:102AE0002001806280932001D0932B01C0932A01A2
:102AF00074CF80912001886080932001D0932D01B4
:102B0000C0932C016ACFC038D1050CF03ECF33CF33
:102B1000789484B5826084BD84B5816084BD85B5B8
:102B2000826085BD85B5816085BDEEE6F0E080817F
:102B300081608083E1E8F0E01082808182608083A0
:102B4000808181608083E0E8F0E080818160808323
:102B5000E1EBF0E0808184608083E0EBF0E0808155
:102B600081608083E1E9F0E0808182608083808100
:102B700081608083E0E9F0E0808181608083E1EA28
:102B8000F0E0808182608083808181608083E0EAE0
:102B9000F0E0808181608083E1E2F1E08081826009
:102BA0008083808181608083E0E2F1E080818160C8
:102BB0008083EAE7F0E080818460808380818260A6
:102BC000808380818160808380818068808310928F
:102BD000C10008953FB7F8948091790B90917A0BDA
:102BE000A0917B0BB0917C0B26B5A89B05C02F3F15
:102BF00019F00196A11DB11D3FBFBA2FA92F982F23
:102C00008827BC01CD01620F711D811D911D42E01D
:102C1000660F771F881F991F4A95D1F708958F92E5
:102C20009F92AF92BF92CF92DF92EF92FF926B0191
:102C30007C010E94EA154B015C01C114D104E1043E
:102C4000F104B9F00E94EA15681979098A099B090B
:102C5000683E73408105910580F321E0C21AD108D6
:102C6000E108F10888EE880E83E0981EA11CB11CD3
:102C7000E4CFFF90EF90DF90CF90BF90AF909F9008
:102C80008F9008952FB7F8946091750B7091760B23
:102C90008091770B9091780B2FBF0895CF92DF92A0
:102CA000EF92FF92C0909D0ED0909E0EE0909F0EEE
:102CB000F090A00E60919B0E70919C0E6750710970
:102CC000072E000C880B990B0E94B3A99B01AC0145
:102CD000C701B6010E94ACA987FF21C020E030E007
:102CE00040E050E4C701B6010E9435AE0E94A8AF93
:102CF00070939A0E6093990E0E94421660547B4224
:102D00008E4F9F4F6093950E7093960E8093970E03
:102D10009093980EFF90EF90DF90CF9008951092CF
:102D2000950E1092960E1092970E1092980EF2CF6A
:102D30008F929F92AF92BF92CF92DF92EF92FF92CB
:102D40000F931F93CF93DF93BCE1A0E06A2F70E055
:102D5000AB014B0F511D559547954A1711F0B41310
:102D600019C0E3E9FEE165917491072E000C880B10
:102D7000990B0E94B3A9DF91CF911F910F91FF9002
:102D8000EF90DF90CF90BF90AF909F908F9008957D
:102D9000B42FDECF9A0121503109220F331F220FA9
:102DA000331FF901EB5DF14EE590F490F901E75D19
:102DB000F14EC591D4918E159F0554F3A42FC817D9
:102DC000D9070CF4C3CFF901E95DF14E05911491D7
:102DD000F901E55DF14EC590D490BC016E197F09F3
:102DE000072E000C880B990B0E94B3A94B015C01C4
:102DF000B601601B710B072E000C880B990B0E940B
:102E0000B3A99B01AC01C501B4010E9412AA4B01F8
:102E10005C01BE016E197F09072E000C880B990B0F
:102E20000E94B3A99B01AC01C501B4010E942FAF60
:102E30006B017C01B801110F880B990B0E94B3A99B
:102E40009B01AC01C701B6010E9435AE94CFCF9271
:102E5000DF92EF92FF92C090700BD090710BE090D8
:102E6000720BF090730B6091DB0B7091DC0B665072
:102E70007109072E000C880B990B0E94B3A9A701BA
:102E800096010E9495B018160CF520E030E040E065
:102E900050E4C701B6010E9435AE0E94A8AF7093FE
:102EA000510B6093500B0E9442166058774C8E4F26
:102EB0009F4F60934C0B70934D0B80934E0B9093F0
:102EC0004F0BFF90EF90DF90CF90089510924C0B36
:102ED00010924D0B10924E0B10924F0BF2CF8F921F
:102EE0009F92AF92BF92CF92DF92EF92FF920F9399
:102EF0001F93CF93DF93BCE1A0E06A2F70E0AB019A
:102F00004B0F511D55954795A41711F0B41319C0D7
:102F1000E3E9FEE165917491072E000C880B990B93
:102F20000E94B3A9DF91CF911F910F91FF90EF9075
:102F3000DF90CF90BF90AF909F908F900895B42F67
:102F4000DECF9A0121503109220F331F220F331F88
:102F5000F901EB5DF14EE590F490F901E75DF14E7A
:102F6000C591D4918E159F0554F3A42FC817D90786
:102F70000CF4C3CFF901E95DF14E05911491F9010B
:102F8000E55DF14EC590D490BC016E197F09072E06
:102F9000000C880B990B0E94B3A94B015C01B60190
:102FA000601B710B072E000C880B990B0E94B3A9B4
:102FB0009B01AC01C501B4010E9412AA4B015C0146
:102FC000BE016E197F09072E000C880B990B0E9419
:102FD000B3A99B01AC01C501B4010E942FAF6B01E5
:102FE0007C01B801110F880B990B0E94B3A99B01BA
:102FF000AC01C701B6010E9435AE94CF0F931F9369
:103000008091D50B813019F50E94421600912A0B50
:1030100010912B0B20912C0B30912D0B601B710B01
:10302000820B930B28EE33E040E050E00E94D1ADDC
:103030006091260B7091270B8091280B9091290BA2
:10304000620F731F841F951F1F910F910895609148
:10305000D10B7091D20B8091D30B9091D40BD6CF22
:103060001092D50B10922A0B10922B0B10922C0B56
:1030700010922D0B1092D10B1092D20B1092D30BF9
:103080001092D40B1092260B1092270B1092280B43
:103090001092290B08950F931F93CF93DF93C82F9E
:1030A00080916F00D82FD27081FF05C080916F0092
:1030B0008D7F80936F006091A30B7091A40B809122
:1030C000A50B9091A60B0091A70B1091A80B209136
:1030D000A90B3091AA0BC13039F5601B710B820B23
:1030E000930B0E94B3A920E030E040E05FE30E9430
:1030F00012AA0E94A1AF24E0C29FF0011124E65E53
:10310000F44F608371838283938381E08093190BF2
:10311000DD2329F080916F00826080936F00DF9142
:10312000CF911F910F910895600F711F821F931F00
:10313000D8CF90916F00292F227091FF05C09091F8
:103140006F009D7F90936F0094E0899FF0011124A0
:10315000ED55F44F6081718182819381222329F0A2
:1031600020916F00226020936F000895BC01209190
:10317000170B3091180B4091170B5091180B241717
:10318000350731F481E02617370709F080E008950C
:103190009A01F1CFEF92FF920F931F93E0924303B6
:1031A000F092440300934503109346036093470352
:1031B00070934803809349039FEFFF27621B730BB3
:1031C000840B30F4809570956195790B890B992764
:1031D00090934203A6E06A9F00923603512DEE279A
:1031E0007A9F500DE11D8A9FE00D50933703E093C5
:1031F0003803AFE06A9F00923A03512DEE277A9F81
:10320000500DE11D8A9FE00D50933B03E0933C037A
:10321000AAE06A9F00923E03512DEE277A9F500D3F
:10322000E11D8A9FE00D50933F03E09340031F91FF
:103230000F91FF90EF9008958091D30A80FF27C0EF
:1032400089988FEF8093CF0A8091D30A81FF22C0A3
:103250008F988FEF8093D00A8091D30A82FF1DC090
:1032600080910B018270809309018FEF8093D10AC6
:103270008091D30A83FF19C0169A8FEF8093D20AE8
:103280000000000082E08A950000E9F70895899A1D
:1032900081E0D8CF8F9A81E0DDCF80910B018095BE
:1032A00082708093090181E0E1CF169881E0E6CF3A
:1032B0008091B40B9091B30B891B8F7019F490E03F
:1032C00080E008959091CE0A992351F0833030F434
:1032D0008FEF890F19F08093CE0AF1CF1092CE0AAA
:1032E0008091B30B2DE5829FC001112482509B4F2A
:1032F000FC01208120FDE3CF2091B30B2F5F2F70C5
:103300002093FD043091B30B2091FC04321304C0D0
:103310002091FD042093FC040895CF93C091D50B18
:1033200080E0C13069F1C23069F50E94FE176093F8
:10333000260B7093270B8093280B9093290B81E029
:103340008093D50B0E94421660932A0B70932B0B2F
:1033500080932C0B90932D0BC23089F08091EC045C
:103360009091ED0401969093ED048093EC041092FB
:10337000E8041092E9041092EA041092EB0481E050
:10338000CF9108950E943018DACF9F92AF92BF92EA
:10339000CF92DF92EF92FF920F931F93CF93DF9321
:1033A00000D01F921F92CDB7DEB7ECE8F2E1002704
:1033B000BB27462F572FA82FAA2341F4A52F542F00
:1033C000B85FAA2319F4A52F5527B85FA03138F4A8
:1033D0005295A295452F4F70507FA42BBC5FA0340F
:1033E00028F4550FAA1F550FAA1FBE5FA03818F466
:1033F000550FAA1FB395550FAA1FEA0FF01F44914E
:1034000051E0AA27B85081F1C8F0B0FF02C0440FC4
:10341000551FB1FF04C0440F551F440F551FB2FF85
:1034200006C052954295142F1F70407F512BB3FF59
:103430001BC0A52F542F44270C94341AB195B0FF0C
:1034400002C055954795B1FF04C0559547955595D0
:103450004795B2FF05C05295407F4295452B5F705E
:10346000B3FF02C0452F5527DD24CC24BB24B2E096
:10347000649FD018C108B00AB00B749FC018B1087F
:10348000B00B849FB018B109659FC018B108B00B8C
:10349000759FB018B109859FB0196A9FB018B1091E
:1034A0007A9FB0194D9DA12C992433279927222763
:1034B0005D9DA00C911C301F901F201FAD9D900C96
:1034C000311D901F201F4C9DA00C911C301F901F80
:1034D000201F5C9D900C311D901F201FAC9D300D56
:1034E000911D201F4B9D900C311D901F201F5B9D37
:1034F000300D911D201FAB9D900D211D4B9F300D58
:10350000911D201F5B9F900D211DAB9F200DB1E0F1
:10351000BB24CC24DD24639FD018C108B00AB00BB3
:10352000739FC018B108B00B839FB018B109699F91
:10353000C018B108B00B799FB018B109899FB019B4
:10354000629FB018B109729FB019D61AC70AB80A9B
:1035500020F0B1E03B0F901F201F1124792F632F23
:1035600090E0822F0F900F900F900F900F90DF91AF
:10357000CF911F910F91FF90EF90DF90CF90BF9070
:10358000AF909F9008954F925F926F927F928F922B
:103590009F92AF92BF92EF92FF920F931F93CF93A0
:1035A000DF93C0E0DCE080E6E82E8CE0F82E07EE4A
:1035B0001BE0412C512C32014394699179918991FE
:1035C0009991F70181909190A190B1907F010E9413
:1035D000B1A9A50194010E9412AA0E94A8AFF80106
:1035E00061937193819391938F01461657066806F4
:1035F000790610F42B013C01FCE0C031DF07E9F64D
:103600006FEF7FEFCB01A30192010E94D1AD209318
:10361000BF043093C0044093C1045093C204DF91AF
:10362000CF911F910F91FF90EF90BF90AF909F901F
:103630008F907F906F905F904F900895CF93DF931E
:1036400090916F00292F227091FF05C090916F001B
:103650009D7F90936F0094E0899FA0011124FA014F
:10366000E65EF44F6081718182819381222329F08B
:1036700020916F00226020936F00EA01CD53DB4F51
:103680000E94B3A9288139814A815B810E9412AAD4
:10369000DF91CF910895CF92DF92EF92FF928091C8
:1036A000FF0B882309F457C0C090FB0BD090FC0B94
:1036B000E090FD0BF090FE0B20E030E0A901C70187
:1036C000B6010E94ACA9882309F445C020E030E08F
:1036D00040E05FE3C701B6010E9412AA9B01AC0162
:1036E0000E9412AA2BED3FE049E450E40E9412AA86
:1036F0009B01AC0160E070E080E89FE30E942FAF87
:103700006B017C01C092560CD092570CE092580C81
:10371000F092590C6091350270913602072E000C20
:10372000880B990B0E94B3A92AE037ED43E25CE3D2
:103730000E9412AAA70196010E9412AA6093310268
:10374000709332028093330290933402FF90EF9093
:10375000DF90CF900895C12CD12C80E8E82E8FE324
:10376000F82ED0CFCF93DF938091FA0B811105C053
:103770008091AD04882309F46CC08091AC046599F4
:1037800058C08E7F8093AC04909103018091AC046B
:1037900090FF51C080628093AC048091AC047B990F
:1037A0004CC0877F8093AC048091AC044A9947C099
:1037B0008F7B8093AC04C0910A0BC0FF10C0809136
:1037C000D30A84FF0CC08091AC0480FF08C08091B4
:1037D0004E0E816080934E0E80E00E944B18C1FF18
:1037E00010C08091D30A85FD0CC08091AC0485FF88
:1037F00008C080914E0E806280934E0E81E00E9440
:103800004B18C2FF26C08091D30A82FF1AC0809154
:10381000AD048823F1F08091AC0483FF1AC080913D
:103820004E0E886080934E0E82E0DF91CF910C9413
:103830004B188160A7CF8F7DAECF8860B3CF8064F7
:10384000B8CF8091AC0486FF04C080914E0E806496
:10385000E9CFDF91CF910895CF92DF92EF92FF925F
:10386000CF93DF93EC01C0904A0CD0904B0CE090CA
:103870004C0CF0904D0CA7019601688179818A81EA
:103880009B810E94ACA987FF04C0C882D982EA82CA
:10389000FB82C0904E0CD0904F0CE090500CF090FA
:1038A000510CA70196016C817D818E819F810E94C0
:1038B000ACA987FF04C0CC82DD82EE82FF82C0907B
:1038C0002502D0902602E0902702F0902802A7015E
:1038D0009601688179818A819B810E9495B0181632
:1038E00024F4C882D982EA82FB82C0902902D09057
:1038F0002A02E0902B02F0902C02A70196016C8125
:103900007D818E819F810E9495B0181624F4CC820F
:10391000DD82EE82FF82C090520CD090530CE0907A
:10392000540CF090550CA7019601688579858A851D
:103930009B850E94ACA987FF04C0C886D986EA8609
:10394000FB86C0902D02D0902E02E0902F02F090C6
:103950003002A7019601688579858A859B850E943A
:1039600095B0181624F4C886D986EA86FB86DF91BE
:10397000CF91FF90EF90DF90CF9008954F925F929C
:103980006F927F928F929F92AF92BF92CF92DF926F
:10399000EF92FF92CF934B015C0169017A0120E025
:1039A00030E040E251E40E9434AE2B013C012FE6AE
:1039B00032E143E85AEB0E9495B087FD50C022E403
:1039C00030E04AE753E4C301B2010E94ACA91816E3
:1039D0000CF445C020E030E040E251E4C701B601FC
:1039E0000E9434AE2B013C012FE632E143E85AEB52
:1039F0000E9495B087FD33C022E430E04AE753E4EB
:103A0000C301B2010E94ACA918164CF124EF3DEF9E
:103A100047EC51E4C501B4010E9495B087FD1FC079
:103A200022E430E041E653E4C501B4010E94ACA9B0
:103A30001816ACF024EF3DEF47EC51E4C701B60196
:103A40000E9495B087FD0BC0C1E022E430E041E662
:103A500053E4C701B6010E94ACA918160CF4C0E0EB
:103A60008C2FCF91FF90EF90DF90CF90BF90AF90D1
:103A70009F908F907F906F905F904F9008955F9A86
:103A80008091640E8E7F8093640E8A9A8091640E7A
:103A90008D7F8093640E8091080180958170809362
:103AA00006018091640E8B7F8093640E129A0895B4
:103AB000CF92DF92EF92FF9260919B0B70919C0BE3
:103AC000072E000C880B990B0E94B3A96B017C0197
:103AD0002DEB37E346E855EB0E9495B087FD0BC010
:103AE0002DEB37E346E855E3C701B6010E94ACA9C8
:103AF00018160CF043C0A701960160E070E080E862
:103B00009FE30E942FAF60936704709368048093D3
:103B1000690490936A0460919D0B70919E0B072E2F
:103B2000000C880B990B0E94B3A96B017C012DEB53
:103B300037E346E855EB0E9495B087FD0AC02DEBB0
:103B400037E346E855E3C701B6010E94ACA9181651
:103B5000CCF4A701960160E070E080E89FE30E944A
:103B60002FAF60936B0470936C0480936D049093FB
:103B70006E04FF90EF90DF90CF90089560E070E0CA
:103B8000CB01C1CF60E070E0CB01EBCF90914B0354
:103B9000E92FF0E0E054F34F80839F5F943040F4CE
:103BA00090934B038091500E8F5F8093500E089539
:103BB00010924B03F7CF2FEB280F2A3108F042C0A9
:103BC000E22FF0E08091970B9091980BA091990BC8
:103BD000B0919A0B04C0B695A795979587952A95AD
:103BE000D2F780FD02C081700895E358F44FE08160
:103BF000EE2329F18091510E9091520EE80FF92F8A
:103C0000F11D808190ED980F9A3030F08E3251F492
:103C1000818180538A3098F4F0932D0CE0932C0C22
:103C200081E008958D3211F08B3249F4818190ED5D
:103C3000980F9A3088F38E3211F48281EACFF0E047
:103C4000E0E0EACF80E008950E94DB1D882341F088
:103C500081E020912C0C30912D0C232B09F480E075
:103C6000089580E1EDE7FEE0A3E5BEE001900D924E
:103C70008A95E1F708959091C00095FFFCCF80935D
:103C8000C6000895FF920F931F93CF93DF93809107
:103C9000760E082F0270182F1470982F9170F92E3D
:103CA00080FD11C0CCE8D6E2FE01849121968111FD
:103CB00015C0C6E8D6E2FE0184912196882389F0DA
:103CC0000E943B1EF8CF002369F380E0112351F3DB
:103CD000DF91CF911F910F91FF9008950E943B1E9D
:103CE000E3CFF1100AC0C4E8D6E2FE018491219628
:103CF000882319F00E943B1EF8CF01110AC0C2E8C8
:103D0000D6E2FE0184912196882319F00E943B1E81
:103D1000F8CF11110AC0C0E8D6E2FE0184912196C5
:103D2000882319F00E943B1EF8CFC8E7D6E2FE01B7
:103D300084912196882319F00E943B1EF8CF81E0E0
:103D4000C7CF1F93CF93DF93162FEC01FE01849111
:103D50002196882319F00E943B1EF8CF812FDF9116
:103D6000CF911F910C943B1E0F931F93CF93DF9322
:103D7000162F072FEC01FE0184912196811108C0B6
:103D8000C12FD02F8991882331F00E943B1EFACF9A
:103D90000E943B1EF0CFDF91CF911F910F910895AC
:103DA000CF93DF93CCE8D6E2FE018491219688235D
:103DB00019F00E943B1EF8CF6091510E7091520E87
:103DC0008AEF94E20E94B41E82E20E943B1E8AE0C7
:103DD000DF91CF910C943B1ECF93DF93CCE7D0E1E2
:103DE000FE018491219681110AC0C4E7D0E1FE0151
:103DF00084912196882331F00E943B1EF8CF0E94C7
:103E00003B1EEECF659908C0CCEFD2E089918823A4
:103E100031F00E943B1EFACFC2EFD2E0F7CF8AE02A
:103E20000E943B1ECCE6D0E1FE01849121968823BE
:103E300019F00E943B1EF8CF80910301CCEFD2E035
:103E400080FF02C0C2EFD2E08991882319F00E945E
:103E50003B1EFACF8AE00E943B1EC4E6D0E1FE0181
:103E600084912196882319F00E943B1EF8CF4A9B2B
:103E700008C0C2EFD2E08991882331F00E943B1E36
:103E8000FACFCCEFD2E0F7CF8AE00E943B1ECAE522
:103E9000D0E1FE0184912196882319F00E943B1EF7
:103EA000F8CF7B9B08C0C2EFD2E08991882331F024
:103EB0000E943B1EFACFCCEFD2E0F7CF8AE0DF9131
:103EC000CF910C943B1ECF93DF938B3A9240A1F09D
:103ED000C9EED6E2FE018491219681110AC0CFE19C
:103EE000DDE0FE0184912196882351F00E943B1E63
:103EF000F8CF0E943B1EEECF80E0DF91CF91089576
:103F000081E0FBCFCF93DF93C2E0DDE0FE0184913F
:103F10002196882319F00E943B1EF8CF8AE0DF919A
:103F2000CF910C943B1ECF93DF93C9EED6E2FE01F6
:103F30008491219681110AC0C5E0D8E0FE018491E8
:103F40002196882331F00E943B1EF8CF0E943B1E31
:103F5000EECFDF91CF91089580914104909142047A
:103F60002FEF3FEF981751F0E92FF0E0EF53FC4FA0
:103F7000208130E09F5F9F7790934204C9010895AC
:103F80008091590B90915A0B0E94981660939D0E48
:103F900070939E0E80939F0E9093A00E8091550B70
:103FA0009091560B0E946F176093700B7093710B7A
:103FB0008093720B9093730BA89510925B0B0895EE
:103FC000CF92DF92EF92FF92CF9380916F00C82F34
:103FD000C27081FF05C080916F008D7F80936F005C
:103FE00080E00E9499186B017C0181E00E94991881
:103FF0006C0D7D1D8E1D9F1D0E94B3A920E030E039
:1040000040E05FE30E9412AA9B01AC01CC2329F09F
:1040100080916F00826080936F006091C304709103
:10402000C4048091C5049091C6040E9412AA6093B2
:104030006F04709370048093710490937204809164
:104040006F00C82FC27081FF05C080916F008D7F07
:1040500080936F0080E00E9499186B017C0181E0E1
:104060000E949918A7019601261B370B480B590B84
:10407000CA01B9010E94B3A920E030E040E05FE34B
:104080000E9412AA9B01AC01CC2329F080916F0001
:10409000826080936F006091C7047091C804809122
:1040A000C9049091CA040E9412AA60937304709389
:1040B0007404809375049093760482E00E949918AA
:1040C0000E94B3A99B01AC016091CB047091CC0418
:1040D0008091CD049091CE040E9412AA609377043F
:1040E000709378048093790490937A04CF91FF9031
:1040F000EF90DF90CF900895CF92DF92EF92FF92F2
:104100000F931F93CF93DF93CDB7DEB7A0970FB672
:10411000F894DEBF0FBECDBF611571058105910515
:1041200079F100E0C42ED12CF12CE12CA7019601ED
:104130000E94D1AD11E0100FE1E0F0E0EC0FFD1FA7
:10414000E00FF11D07FDFA956083B901CA01012F47
:10415000611571058105910549F7115010F1E1E0F4
:10416000F0E0EC0FFD1FE10FF11D17FDFA959081B6
:1041700087E39A3008F480E3890F0E943B1EEDCF5D
:1041800080E3A0960FB6F894DEBF0FBECDBFDF91DF
:10419000CF911F910F91FF90EF90DF90CF900C94F3
:1041A0003B1EA0960FB6F894DEBF0FBECDBFDF91C9
:1041B000CF911F910F91FF90EF90DF90CF900895D6
:1041C000CF92DF92EF92FF92CF93DF936A017B0150
:1041D000EC01FE0184912196882319F00E943B1E78
:1041E000F8CF4AE0C701B601DF91CF91FF90EF9081
:1041F000DF90CF900C947C20CF92DF92EF92FF92D1
:104200006B017C01F7FE0BC08DE20E943B1EF09417
:10421000E094D094C094C11CD11CE11CF11C4AE074
:10422000C701B601FF90EF90DF90CF900C947C20F7
:104230000F931F93CF93DF93EB018C01F8018491CF
:104240000F5F1F4F882319F00E943B1EF7CFBE015E
:10425000DD0F880B990BDF91CF911F910F910C947B
:10426000FC20CF93DF938091410480934204C4E00B
:10427000DAE0FE0184912196882319F00E943B1E0A
:10428000F8CF6091790E70917A0E80917B0E9091AB
:104290007C0E6F5F7F4F8F4F9F4F0E94FC208AE004
:1042A0000E943B1EE0914F0EF0E0E054F34F8081FE
:1042B000882321F0DF91CF910C94821FDF91CF9161
:1042C00008950F931F93CF93DF93182F092FC9EEF3
:1042D000D6E2FE018491219681110AC0C12FD02F10
:1042E000FE0184912196882331F00E943B1EF8CF75
:1042F0000E943B1EEECF6091790E70917A0E8091F4
:104300007B0E90917C0E0E94FC208AE00E943B1E56
:104310000E9431211092780E1092770EDF91CF918A
:104320001F910F910895FF920F931F93CF93DF93E7
:10433000082FF92E162FC2EDD9E0FE0184912196A7
:10434000811111C0C02FDF2DFE01849121968111B2
:104350000DC0C0EDD9E0FE0184912196882349F07B
:104360000E943B1EF8CF0E943B1EE7CF0E943B1EDF
:10437000EBCF612F70E090E080E00E94FC208AE0AB
:10438000DF91CF911F910F91FF900C943B1E8F9264
:104390009F92AF92BF92CF92DF92EF92FF92CF9314
:1043A0006B017C01B42E20E030E0A9010E94ACA991
:1043B00087FF07C08DE20E943B1EF7FAF094F7F8E2
:1043C000F094C0E060E070E080E09FE3CB1541F046
:1043D0002DEC3CEC4CEC5DE30E9412AACF5FF6CFD3
:1043E0009B01AC01C701B6010E9435AE6B017C0197
:1043F0000E94A8AF4B015C014AE00E947C20CC23C4
:1044000091F1C501B4010E94B1A99B01AC01C701A2
:10441000B6010E9434AE6B017C018EE20E943B1E0D
:10442000C15008F120E030E040E251E4C701B6019C
:104430000E9412AA4B015C010E94A1AF6B01770F91
:10444000EE08FF08C701B6010E94FC20C701B601B3
:104450000E94B3A99B01AC01C501B4010E9434AE16
:104460006B017C01DDCFCF91FF90EF90DF90CF907B
:10447000BF90AF909F908F900895CF92DF92EF9270
:10448000FF92CF93DF936A017B01EC01FE018491DF
:104490002196882319F00E943B1EF8CF42E0C70105
:1044A000B601DF91CF91FF90EF90DF90CF900C9409
:1044B000C721FF920F931F93CF93DF938C01EB01E2
:1044C000F42E80E20E943B1E8FEFF81609F184E57E
:1044D0000E943B1E8AE30E943B1EF80160817181AD
:1044E0008281938142E00E94C721488159816A817B
:1044F0007B818BEF9EE10E943D2262E070E080E0D4
:1045000090E0DF91CF911F910F91FF900C940F16C7
:1045100082E4DECF0F931F93CF93DF9300D000D0C0
:104520001F921F92CDB7DEB760919B0E70919C0ECB
:10453000072E000C880B990B0E94B3A96D837E8314
:104540008F83988780919D0E90919E0EA0919F0ED3
:10455000B091A00E89839A83AB83BC834DEFBE01DB
:104560006B5F7F4FCE0101960E9459226091DB0B59
:104570007091DC0B072E000C880B990B0E94B3A9DD
:104580006D837E838F8398878091700B9091710BE0
:10459000A091720BB091730B89839A83AB83BC8318
:1045A0004FEFBE016B5F7F4FCE0101960E945922F3
:1045B00003E01FE1F80184910F5F1F4F882319F07A
:1045C0000E943B1EF7CFE0917D0CF0E0E259F44FE2
:1045D000608170E090E080E00E94FC200EEF1EE120
:1045E000F80184910F5F1F4F882319F00E943B1E32
:1045F000F7CF60916F0B70E090E080E00E94FC20AC
:1046000028960FB6F894DEBF0FBECDBFDF91CF91D5
:104610001F910F9108952F923F924F925F926F9248
:104620007F928F929F92AF92BF92CF92DF92EF9242
:10463000FF920F931F93CF93DF93082F10E0E801B1
:10464000CC0FDD1FCC0FDD1FFE01EB53F44F40807C
:10465000518062807380CE018759914F7C01FE01A9
:10466000E25CF34F1F01A30192016081718182819D
:1046700093810E9435AEF7016083718382839383B7
:10468000FE01E555FC4F85909590A590B490FE01F4
:10469000E65BF34F80829182A282B382FE01E954ED
:1046A000FC4FC590D590E590F490CB5DDD4FC8826E
:1046B000D982EA82FB828091750E85FF38C0F801AD
:1046C000E251FD4F60818AE194E00E94A11EF10158
:1046D000408151816281738183E094E00E943D2298
:1046E000B301A2018FEE93E00E943D22B501A40127
:1046F00089ED93E00E943D22B701A60183EC93E08F
:104700000E943D228AE0DF91CF911F910F91FF908F
:10471000EF90DF90CF90BF90AF909F908F907F9061
:104720006F905F904F903F902F900C943B1EDF91C5
:10473000CF911F910F91FF90EF90DF90CF90BF909E
:10474000AF909F908F907F906F905F904F903F9031
:104750002F9008957F928F929F92AF92BF92CF92A7
:10476000DF92EF92FF920F931F93CF93DF93782EF8
:1047700081110AC0CCE8D6E2FE01849121968823FB
:1047800019F00E943B1EF8CFCFE4D0E1FE018491E6
:10479000219681110DC031E5E32E3EE0F32EE701B5
:1047A000FE0184912196882331F00E943B1EF8CFB0
:1047B0000E943B1EEBCF8AE00E943B1E8AE00E94D3
:1047C0003B1E711025C0CCE8D6E28E01F801849121
:1047D0000F5F1F4F81110BC00CE310E1F8018491B2
:1047E0000F5F1F4F882331F00E943B1EF7CF0E94BE
:1047F0003B1EECCF8091FF0B01E310E1882339F1E0
:104800008AE00E943B1EFE01849121968111F9CF1E
:104810004091FB0B5091FC0B6091FD0B7091FE0BD6
:1048200088E290E10E943D228AE00E943B1E809136
:10483000FF0B81111FC0711013C0CCE8D6E2FE013E
:1048400084912196882361F00E943B1EF8CFF801E5
:1048500084910F5F1F4F8823B1F20E943B1EF7CF58
:10486000CDE1D0E1FE0184912196882319F00E94C8
:104870003B1EF8CF71101FC0CCE8D6E28E01F801C4
:1048800084910F5F1F4F81110BC00CE010E1F80104
:1048900084910F5F1F4F882331F00E943B1EF7CF9A
:1048A0000E943B1EECCFFE0184912196882319F0D3
:1048B0000E943B1EF8CF4091600C5091610C6091BA
:1048C000620C7091630C84E090E10E943D22409163
:1048D000640C5091650C6091660C7091670C81E0DE
:1048E00090E10E943D224091680C5091690C6091CA
:1048F0006A0C70916B0C8EEF9FE00E943D224091FC
:104900006C0C50916D0C60916E0C70916F0C8BEF74
:104910009FE00E943D228AE00E943B1E71101FC052
:10492000CCE8D6E28E01F80184910F5F1F4F811110
:104930000BC00DED1FE0F80184910F5F1F4F88231E
:1049400031F00E943B1EF7CF0E943B1EECCFFE01D0
:1049500084912196882319F00E943B1EF8CF409144
:10496000100C5091110C6091120C7091130C84ED8D
:104970009FE00E943D224091140C5091150C6091D3
:10498000160C7091170C81ED9FE00E943D22409122
:10499000180C5091190C60911A0C70911B0C8EEC34
:1049A0009FE00E943D2240911C0C50911D0C609193
:1049B0001E0C70911F0C8BEC9FE00E943D228AE040
:1049C0000E943B1E71101FC0CCE8D6E28E01F80198
:1049D00084910F5F1F4F81110BC009EA1FE0F8019E
:1049E00084910F5F1F4F882331F00E943B1EF7CF49
:1049F0000E943B1EECCFFE0184912196882319F082
:104A00000E943B1EF8CF4091000C5091010C609128
:104A1000020C7091030C80EA9FE00E94E02040911C
:104A2000040C5091050C6091060C7091070C8DE9F7
:104A30009FE00E94E0204091080C5091090C609189
:104A40000A0C70910B0C8AE99FE00E94E0204091D3
:104A50000C0C50910D0C60910E0C70910F0C87E9AD
:104A60009FE00E94E0208AE00E943B1E71101FC060
:104A7000CCE8D6E28E01F80184910F5F1F4F8111BF
:104A80000BC00DE41FE0F80184910F5F1F4F8823D6
:104A900031F00E943B1EF7CF0E943B1EECCFFE017F
:104AA00084912196882319F00E943B1EF8CF4091F3
:104AB000280C5091290C60912A0C70912B0C84E4E5
:104AC0009FE00E943D224091200C5091210C60916A
:104AD000220C7091230C81E49FE00E943D224091C2
:104AE000240C5091250C6091260C7091270C8EE3BC
:104AF0009FE00E943D228AE00E943B1E71102AC066
:104B0000CCE8D6E28E01F80184910F5F1F4F81112E
:104B100013C006EF1EE0F80184910F5F1F4F811153
:104B20000EC009EE1EE0F80184910F5F1F4F88232D
:104B300049F00E943B1EF7CF0E943B1EE4CF0E942B
:104B40003B1EE9CF8AE00E943B1EFE018491219624
:104B50008111F9CF40913A0C50913B0C60913C0C83
:104B600070913D0C80EE9EE00E94E0204091360C5A
:104B70005091370C6091380C7091390C8DED9EE09E
:104B80000E943D224091320C5091330C6091340CC4
:104B90007091350C8AED9EE00E943D2240912E0CD2
:104BA00050912F0C6091300C7091310C87ED9EE08C
:104BB0000E943D228AE00E943B1E71101FC0CCE87B
:104BC000D6E28E01F80184910F5F1F4F81110BC057
:104BD00009EC1EE0F80184910F5F1F4F882331F02C
:104BE0000E943B1EF7CF0E943B1EECCFFE0184913A
:104BF0002196882319F00E943B1EF8CF40913E0C6D
:104C000050913F0C6091400C7091410C80EC9EE003
:104C10000E943D224091420C5091430C6091440C03
:104C20007091450C8DEB9EE00E943D224091460C18
:104C30005091470C6091480C7091490C8AEB9EE0B2
:104C40000E943D228AE00E943B1E71101FC0CCE8EA
:104C5000D6E28E01F80184910F5F1F4F81110BC0C6
:104C600006EA1EE0F80184910F5F1F4F882331F0A0
:104C70000E943B1EF7CF0E943B1EECCFFE018491A9
:104C80002196882319F00E943B1EF8CF6091BF0C3B
:104C900070E08DE99EE00E9418218AE00E943B1E90
:104CA00080919B0B90919C0B892B09F44DC02EE7B2
:104CB000C22E2CE0D22ED0E0C0E0560110E000E081
:104CC00071100EC09CE8892E96E2992EF401849111
:104CD000FFEF8F1A9F0A882319F00E943B1EF6CF20
:104CE000B80183E99EE00E941821BE0180E99EE0A0
:104CF0000E9418218DE8882E8EE0982EF401849170
:104D0000FFEF8F1A9F0A882319F00E943B1EF6CFEF
:104D1000F501608171818281938145E00E94C72104
:104D20008AE00E943B1E0F5F1F4FF0E1AF0EB11CE7
:104D30000430110509F0C4CF219684E0C80ED11CBF
:104D4000C430D10509F0B9CF71101FC0CCE8D6E24C
:104D50008E01F80184910F5F1F4F81110BC00EE788
:104D60001EE0F80184910F5F1F4F882331F00E94ED
:104D70003B1EF7CF0E943B1EECCFFE018491219693
:104D8000882319F00E943B1EF8CF4091780C509177
:104D9000790C60917A0C70917B0C85E79EE00E9403
:104DA0003D222CEA35EC47E25EE36091740C709191
:104DB000750C8091760C9091770C0E942FAFAB010F
:104DC000BC0182E79EE00E943D222CEA35EC47E2DE
:104DD0005EE36091700C7091710C8091720C9091F7
:104DE000730C0E9412AAAB01BC018FE69EE00E94E8
:104DF0003D228AE00E943B1E711033C0CCE8D6E20F
:104E00008E01F80184910F5F1F4F81110BC000E6E6
:104E10001EE0F80184910F5F1F4F882341F00E942C
:104E20003B1EF7CF0E943B1EECCF0E943B1EF701BA
:104E30008491FFEFEF1AFF0A8111F7CF0EE41EE015
:104E4000F80184910F5F1F4F882319F00E943B1EC9
:104E5000F7CFFE0184912196882319F00E943B1E12
:104E6000F8CF4091650E5091660E6091670E70917B
:104E7000680E87E59EE00E943D228AE0DF91CF9197
:104E80001F910F91FF90EF90DF90CF90BF90AF9068
:104E90009F908F907F900C943B1E4F925F926F92E9
:104EA0007F928F929F92AF92BF92CF92DF92EF92BA
:104EB000FF92CF93DF93CDECD9E0FE018491219650
:104EC000882319F00E943B1EF8CF2091690E309183
:104ED0006A0E40916B0E50916C0E60917D0E709138
:104EE0007E0E80917F0E9091800E0E9435AE42E042
:104EF0000E94C721C9ECD9E0FE0184912196882344
:104F000019F00E943B1EF8CF20916D0E30916E0E6D
:104F100040916F0E5091700E6091810E7091820ED3
:104F20008091830E9091840E0E9435AE42E00E94E3
:104F3000C721C5ECD9E0FE0184912196882319F0A0
:104F40000E943B1EF8CF2091710E3091720E40915D
:104F5000730E5091740E6091850E7091860E809143
:104F6000870E9091880E0E9435AE42E00E94C721C4
:104F7000C1ECD9E0FE0184912196882319F00E94AA
:104F80003B1EF8CF6091890E70918A0E80918B0E36
:104F900090918C0E42E00E94C72180916F00982F63
:104FA000927081FF05C080916F008D7F80936F00AC
:104FB0004090A30B5090A40B6090A50B7090A60B93
:104FC0008090A70B9090A80BA090A90BB090AA0B73
:104FD000C090AB0BD090AC0BE090AD0BF090AE0B53
:104FE000992329F080916F00826080936F00C7EB56
:104FF000D9E0FE0184912196882319F00E943B1E7E
:10500000F8CFC301B2010E94FC20C3EBD9E0FE013E
:1050100084912196882319F00E943B1EF8CFC50188
:10502000B4010E94FC20CFEAD9E0FE0184912196D0
:10503000882319F00E943B1EF8CFC701B6010E94D9
:10504000FC208AE0DF91CF91FF90EF90DF90CF902E
:10505000BF90AF909F908F907F906F905F904F9098
:105060000C943B1E7F928F929F92AF92BF92CF92F1
:10507000DF92EF92FF920F931F93CF93DF93C5E8D8
:10508000D5E0FE0184912196882319F00E943B1EF1
:10509000F8CFC12CD12C7601C7E0C15021F080E2BD
:1050A0000E943B1EFACFC701B6010E94FC20FFEF11
:1050B000CF1ADF0AEF0AFF0A84E0C816D104E10420
:1050C000F10451F78AE00E943B1ECEE7DCE0C12CE0
:1050D000D12C760180E20E943B1EC701B6010E94DE
:1050E000FC208E0184E0782E80E20E943B1EF801B5
:1050F00080809180A280B380A5019401C501B40194
:105100000E9427B18823B9F180E20E943B1E8DE303
:105110000E943B1E8DE30E943B1E8DE30E943B1EBE
:105120008DE30E943B1E8DE30E943B1E7A94005F3C
:105130001F4F7110D9CF8AE00E943B1EFFEFCF1A9C
:10514000DF0AEF0AFF0A249684E0C816D104E104BE
:10515000F10409F0BFCF8AE0DF91CF911F910F9149
:10516000FF90EF90DF90CF90BF90AF909F908F9087
:105170007F900C943B1E20E030E0A901C501B401F2
:105180000E9495B087FD03C08BE20E943B1E43E066
:10519000C501B4010E94C721C9CF4F925F926F929F
:1051A0007F92AF92BF92CF92DF92EF92FF920F93D6
:1051B0001F93CF93DF9300D000D0CDB7DEB77E83AF
:1051C0006D8329833A834B835C83270138018C01EB
:1051D000F80184910F5F1F4F882319F00E943B1E36
:1051E000F7CF88E20E943B1E42E069817A818B8181
:1051F0009C810E94C721B301A20185E692E00E9432
:105200003D22B601A50182E692E00E943D2289E29C
:105210000E943B1E2D813E812115310569F03A83A4
:105220002983E981FA8184913196FA83E98388237D
:10523000D1F00E943B1EF5CF8AE026960FB6F89477
:10524000DEBF0FBECDBFDF91CF911F910F91FF90B9
:10525000EF90DF90CF90BF90AF907F906F905F9076
:105260004F900C943B1E26960FB6F894DEBF0FBEEF
:10527000CDBFDF91CF911F910F91FF90EF90DF9005
:10528000CF90BF90AF907F906F905F904F900895B8
:10529000AF92BF92CF92DF92EF92FF920F931F9344
:1052A000EDE7FEE0A084B184C284D384E480F5807D
:1052B0000681178120813181428153810E94CD284E
:1052C0001F910F91FF90EF90DF90CF90BF90AF9024
:1052D00008958091750E85FF06C068E874E081EB43
:1052E00094E00E9448298091B3039091B403A09167
:1052F000B503B091B6038093420290934302A0930A
:105300004402B09345028091B1039091B20390930F
:105310003D0280933C0208958091750E85FF06C082
:1053200060E574E084E794E00E944829809142029D
:1053300090914302A0914402B09145028093B3033F
:105340009093B403A093B503B093B60380913C024D
:1053500090913D029093B2038093B10384E690E074
:1053600090933D0280933C0208954F925F926F921A
:105370007F928F929F92AF92BF92CF92DF92EF92E5
:10538000FF920F931F93CF93DF93EC0160919F0BDC
:105390007091A00B072E000C880B990B0E94B3A9EB
:1053A0009B01AC01688179818A819B810E9434AE26
:1053B0006B017C016091A10B7091A20B072E000C78
:1053C000880B990B0E94B3A99B01AC016C817D8174
:1053D0008E819F810E9434AE4B015C01A701960132
:1053E0006091060270910702809108029091090273
:1053F0000E94ACA9882309F450C0C0920602D09242
:105400000702E0920802F0920902209167043091AD
:1054100068044091690450916A04C701B6010E9472
:1054200012AA2B013C010E94D7AF6B017C0120E046
:1054300030E0A9010E94ACA987FD70C020E030E0F7
:1054400040E050E4C701B6010E9495B018162CF454
:10545000C12CD12CE12CA0E4FA2EA7019601C301A6
:10546000B2010E9434AE609363047093640480932D
:10547000650490936604C701B6010E94A1AF6093D2
:105480006204062E000C770B6F5F7F4F633071054F
:1054900014F063E070E060936104D0910102C09168
:1054A0006204A5019401609102027091030280914F
:1054B0000402909105020E94ACA9811133C0DC1353
:1054C00081C020914304309144044091450450919F
:1054D0004604609163047091640480916504909126
:1054E00066040E9412AA209147043091480440911A
:1054F000490450914A040E9435AEDF91CF911F912B
:105500000F91FF90EF90DF90CF90BF90AF909F9062
:105510008F907F906F905F904F900895C12CD12C09
:1055200076019BCF8092020290920302A092040225
:10553000B092050220916B0430916C0440916D048F
:1055400050916E04C501B4010E9412AA4B015C0186
:105550000E94D7AF6B017C0120E030E0A9010E94DE
:10556000ACA987FDF0C020E030E040E050E4C70186
:10557000B6010E9495B018162CF4C12CD12CE12C48
:10558000F0E4FF2EA7019601C501B4010E9434AEDC
:1055900060935D0470935E0480935F049093600455
:1055A000C701B6010E94A1AF60935C04062E000CF7
:1055B000770B6F5F7F4F6330710514F063E070E02D
:1055C00060935B0400915C04DC1305C080910002D1
:1055D000801709F46DC0C093010200930002002EF1
:1055E000000C110B24E0C202C0011124FC01E00FE9
:1055F000F11FEE0FFF1FEE0FFF1FE258F34F208148
:105600003181428153812093570430935804409351
:10561000590450935A04C0915B040C2E000CDD0B0E
:10562000FC01EC0FFD1FEE0FFF1FEE0FFF1FE258F6
:10563000F34F60817181828193810E9434AE6093C7
:1056400053047093540480935504909356048091AE
:10565000610424E08202C0011124FC01E00FF11F6B
:10566000EE0FFF1FEE0FFF1FE258F34F2081318135
:105670004281538120934F0430935004409351044E
:1056800050935204C80FD91FCC0FDD1FCC0FDD1F64
:10569000C258D34F688179818A819B810E9434AE40
:1056A00060934B0470934C0480934D0490934E048C
:1056B00080905D0490905E04A0905F04B0906004C0
:1056C0002091530430915404409155045091560454
:1056D000C501B4010E9412AA2091570430915804C8
:1056E0004091590450915A040E9435AE6B017C01DF
:1056F000C0924704D0924804E0924904F0924A04D0
:1057000020914B0430914C0440914D0450914E0433
:10571000C501B4010E9412AA20914F043091500497
:1057200040915104509152040E9435AEA701960158
:105730000E9434AE60934304709344048093450404
:1057400090934604BECEC12CD12C76011BCFCF93B3
:10575000DF932091BF0C222379F0EC010E94B52940
:105760009B01AC01688579858A859B850E9434AE52
:10577000688779878A879B87DF91CF9108950F93F8
:105780001F93CF93DF93CDB7DEB72C970FB6F89466
:10579000DEBF0FBECDBF2091BF0C222349F18A018D
:1057A00019861A861B861C86FC0180819181A28144
:1057B000B38189839A83AB83BC83FB018081918110
:1057C000A281B3818D839E83AF83B887CE0101967A
:1057D0000E94B5299B01AC01F80160817181828131
:1057E00093810E9435AEF801608371838283938335
:1057F0002C960FB6F894DEBF0FBECDBFDF91CF91D0
:105800001F910F9108958F929F92AF92BF92CF9266
:10581000DF92EF92FF92CF93DF93C1EAD6E0FE01D1
:1058200084912196811118C0CBE9D6E0FE018491C4
:105830002196811114C0C3E9D6E0FE01849121961E
:10584000811110C0C0E8D6E0FE0184912196882322
:1058500061F00E943B1EF8CF0E943B1EE0CF0E94E9
:105860003B1EE4CF0E943B1EE8CF6AE070E080E779
:1058700096E00E9418216AE070E08CE696E00E94B3
:1058800018214091650E5091660E6091670E7091DF
:10589000680E88E696E00E943D22C0E6D6E0FE0152
:1058A0008491219681110AC0CAE5D6E0FE01849157
:1058B0002196882331F00E943B1EF8CF0E943B1EA8
:1058C000EECFC090650ED090660EE090670EF0901F
:1058D000680E20E030E0A901C701B6010E94ACA922
:1058E00087FF22C0C1E5D6E0FE0184912196811197
:1058F00018C0CEE3D6E0FE0184912196811132C01A
:10590000CDE1D6E0FE018491219681112EC0C4E143
:10591000D6E0FE0184912196882351F10E943B1E1E
:10592000F8CF0E943B1EE0CF20E030E0A901C70184
:10593000B6010E9495B0C1E3D6E0181654F4C8E44D
:10594000D6E0FE0184912196882399F20E943B1EA5
:10595000F8CFFE0184912196882309F4CACF0E94D2
:105960003B1EF7CF0E943B1EC6CF0E943B1ECACFF4
:105970008091BF0CC1EDD5E0882309F4BDC0C8E01B
:10598000D6E0FE0184912196882319F00E943B1EE7
:10599000F8CF60919F0B7091A00B88EF95E00E946B
:1059A00018216091A10B7091A20B85EF95E00E94E8
:1059B000182160919B0B70919C0B82EF95E00E94E7
:1059C000182160919D0B70919E0B8FEE95E00E94C7
:1059D00018218AE00E943B1ECEEDD5E0FE018491A5
:1059E0002196882319F00E943B1EF8CF8DE79EE098
:1059F0000E94B5296B017C0120E030E44CE156E4C3
:105A00000E9412AA4B015C0120E030E0A901C7010D
:105A1000B6010E94ACA920E030E040EA50E487FFE4
:105A200004C020E030E040EA50ECC501B4010E941F
:105A300035AE20E030E040E251E40E942FAF0E94FA
:105A4000A1AF6B017C0180E2C114D104E104F10437
:105A500061F08BE2F7FE09C0F094E094D094C0941A
:105A6000C11CD11CE11CF11C8DE28093B803C7015D
:105A7000B60128EE33E040E050E00E94F3AD8AE04A
:105A8000882E912CA12CB12CCA01B901A501940139
:105A90000E94F3AD605D6093B9038EE28093BA0318
:105AA000C701B60124E630E040E050E00E94F3ADCB
:105AB000CA01B901A50194010E94F3AD605D609334
:105AC000BB03C701B601A50194010E94F3ADC62F27
:105AD000CA01B901A50194010E94F3AD605D609314
