:100000000C9479150C94AA150C94AA150C94AA15A5
:100010000C94AA150C94AA150C94AA150C94AA1564
:100020000C94AA150C94AA150C94AA150C94AA1554
:100030000C94AA150C94AA150C94AA150C94AA1544
:100040000C94AA150C94F79D0C94AA150C94AA155F
:100050000C94AA150C94AA150C94FC930C94FF9084
:100060000C94AA150C94C19E0C94AA150C94AA1574
:100070000C94AA150C94AA150C94AA150C94AA1504
:100080000C94939E0C94AA150C94AA150C94AA1582
:100090000C94AA150C94AA150C94AA150C94AA15E4
:1000A0000C94AA150C94AA150C94659E0C94AA1590
:1000B0000C94AA150C94AA150C94AA150C94379EAE
:1000C0000C94AA150C94AA150C94AA150C94AA15B4
:1000D0000C94AA150C94AA150C94AA150C94AA15A4
:1000E0000C94AA15084AD73B3BCE016E84BCBFFDD9
:1000F000C12F3D6C74319ABD56833DDA3D00C77FF8
:1001000011BED9E4BB4C3E916BAAAABE0000008090
:100110003F05A84CCDB2D44EB93836A9020C50B91F
:10012000918688083CA6AAAA2ABE000000803F004B
:100130000C9414170C94EA150C9496930C940D16C9
:100140000C9479170C945B170C9451170C940A17A4
:100150000C94C8A00C94FB150C941C170C94051659
:100160000C9425160C94F2150C9417160C94F11699
:100170000C942E170C946F170C94D9930C947E93B7
:100180000C9409160C9400170C94EE150C9424177B
:100190000C9472930C94DE930C9421160C94C193DE
:1001A0000C94F6160C94E9160C9465170C94A9930C
:1001B0000C9483170C9413160C9491930C94F29155
:1001C0000C9420160C94AE930C94C6930C94E015EA
:1001D0000C9438170C94EE910C94FF150C94F515B3
:1001E0000C94E6150C941B160C9442174E414E4984
:1001F0004E495459494E46CDCCCC3D0AD7233C17E5
:10020000B7D13877CC2B329595E6241FB14F0A0031
:100210000020410000C84200401C4620BCBE4CCA21
:100220001B0E5AAEC59D7400000000300E0100C0C8
:100230000E0A00500F1400D00F1E0060102800E0BE
:1002400010320070113C00F0114600701250000096
:10025000135A008013640000146E0090147800108C
:1002600015820090158C00101696009016A00010B4
:1002700017AA009017B4001018BE009018C80010FC
:1002800019D2009019DC00101AE600801AF0000064
:100290001BFA00801B0401F01B0E01701C1801F0FA
:1002A0001C2201601D2C01E01D3601501E4001D0B2
:1002B0001E4A01401F5401B01F5E0130206801A09A
:1002C00020720110217C01902186010022900160A2
:1002D00026F401902A5802802EBC0250322003E0FE
:1002E0003584035039E803803C4C044C4556454C5A
:1002F000494E4700434F4D4D554E49434154494F98
:100300004E0044525952554E004552524F525300DE
:10031000494E464F004543484F0025697300256903
:100320006D20256973002569682025696D20256980
:100330007300256964202569682025696D20256979
:10034000730025697920256964202569682025695D
:100350006D20256973002C20002C2000203A20738A
:10036000796E635F706C616E5F706F736974696FD3
:100370006E0A00202063757272656E745F706F7311
:100380006974696F6E3D00656E7175657565696E3E
:10039000672022005072696E7465722073746F70EA
:1003A0007065642064756520746F206572726F7269
:1003B000732E2046697820746865206572726F72AA
:1003C00020616E6420757365204D39393920746F52
:1003D00020726573746172742E202854656D706587
:1003E0007261747572652069732072657365742E0D
:1003F000205365742069742061667465722072658B
:100400007374617274696E67290A004E6F204368C5
:1004100065636B73756D2077697468206C696E65B0
:10042000206E756D6265722C204C617374204C696E
:100430006E653A2000636865636B73756D206D6946
:10044000736D617463682C204C617374204C696E09
:10045000653A20004C696E65204E756D62657220AC
:100460006973206E6F74204C617374204C696E65E3
:10047000204E756D6265722B312C204C6173742097
:100480004C696E653A20004D3131300020496E765E
:10049000616C69642065787472756465722000000F
:1004A00000000000000000000000000080C54300C4
:1004B00000C8430000D2430A20736F66745F656E04
:1004C0006473746F705F6D6178203D20000A207343
:1004D0006F66745F656E6473746F705F6D696E20B4
:1004E0003D20000A20706F736974696F6E5F7368D6
:1004F000696674203D200020617869733A0A20689B
:100500006F6D655F6F6666736574203D2000466F92
:100510007220003C3C3C20646F5F626C6F636B69CF
:100520006E675F6D6F76655F746F0A003E3E3E20BA
:10053000646F5F626C6F636B696E675F6D6F76652A
:100540005F746F00203A2073657475705F666F7218
:100550005F656E6473746F705F6F725F70726F62ED
:10056000655F6D6F76650A00202063757272656E37
:10057000745F706F736974696F6E3D00203A206319
:100580006C65616E5F75705F61667465725F656EE4
:100590006473746F705F6F725F70726F62655F6DAE
:1005A0006F76650A00202063757272656E745F70E5
:1005B0006F736974696F6E3D00646F5F70726F6214
:1005C000655F726169736528006465706C6F793A64
:1005D0002000203A207365745F70726F62655F64FB
:1005E00065706C6F7965640A0020206375727265AE
:1005F0006E745F706F736974696F6E3D00203A208E
:100600003C3C3C20646F5F70726F62655F6D6F761B
:10061000650A00202063757272656E745F706F7377
:100620006974696F6E3D00203A203E3E3E20646F43
:100630005F70726F62655F6D6F76650A0020206380
:10064000757272656E745F706F736974696F6E3DF9
:100650000072657365745F6265645F6C6576656C76
:100660000A002028646F6E65290A0045787472615B
:10067000706F6C617465205B0042696C696E6561C6
:1006800072204C6576656C696E6720477269643AC2
:100690000A003C3C3C20646F5F686F6D696E675F69
:1006A0006D6F766528005B00290A002C20002C2045
:1006B000003E3E3E20646F5F686F6D696E675F6DE0
:1006C0006F76652800202864697361626C6564290F
:1006D0000A0041424C2041646A7573746D656E7402
:1006E000205A0020480020570020590042696C69B8
:1006F0006E65617220477269642058002028656E1B
:1007000061626C6564290A0042494C494E45415278
:10071000004175746F20426564204C6576656C6994
:100720006E673A200020262053616D65205A2061B3
:100730007300204E6F7A7A6C65290A0020262041CA
:10074000626F76650020262042656C6F77002D422F
:1007500061636B002028526967687400205A3A0070
:1007600020593A0050726F6265204F666673657457
:1007700020583A004649585F4D4F554E5445445F06
:1007800050524F42450A0050726F62653A20004352
:100790006F72650A004D616368696E6520547970F7
:1007A000653A20003C3C3C204732390A0020636F08
:1007B00072726563746564205A3A00473239207555
:1007C0006E636F72726563746564205A3A00203AF2
:1007D000203E2070726F62696E6720636F6D706C6F
:1007E0006574650A00202063757272656E745F70AF
:1007F0006F736974696F6E3D0020284452595255D9
:100800004E2900473239204175746F2042656420BB
:100810004C6576656C696E67003F20284C2C522C25
:10082000462C4229206F7574206F6620626F756EAA
:1008300064732E0A003F2856296572626F73652023
:100840006C6576656C20697320696D706C61757379
:1008500069626C652028302D34292E0A00426164BB
:10086000205A2076616C75650A004E6F2062696CB3
:10087000696E65617220677269640A003C3C3C20C5
:100880004732390A003E204175746F2D6C657665DC
:100890006C206E6F74206E65656465642C20736BCC
:1008A00069700A004732380A473239003E204E6FDD
:1008B0007420686F6D65642E20456E717565756571
:1008C000696E672047323820666F6C6C6F7765649D
:1008D000206279204732390A00203A203E3E3E20ED
:1008E0004732390A00202063757272656E745F703A
:1008F0006F736974696F6E3D0050726F74656374D5
:1009000065642050696E0A005374616E646172649C
:1009100020446576696174696F6E3A2000205261E7
:100920006E67653A2000204D61783A2000204D69BD
:100930006E3A20004D65616E3A200046696E69731B
:10094000686564210A002072616E67653A200020A4
:100950006D61783A2000206D696E3A20002073693D
:10096000676D613A2000206D65616E3A20003A2083
:100970007A3A2000206F662000205A00205900207B
:100980005800476F696E6720746F3A00436C6F635D
:100990006B776973650A00436F756E7465722D001D
:1009A00020446972656374696F6E3A2000202020CC
:1009B000616E676C653A20005374617274696E678A
:1009C000207261646975733A2000506F73697469AD
:1009D0006F6E696E67207468652070726F62652E35
:1009E0002E2E0A003F4E756D626572206F66206C78
:1009F00065677320696E206D6F76656D656E742016
:100A00006E6F7420706C61757369626C652028303C
:100A10002D3135292E0A003F2028582C5929206FC6
:100A20007574206F6620626F756E64732E0A003FC6
:100A300053616D706C652073697A65206E6F7420E8
:100A4000706C61757369626C652028342D353029AE
:100A50002E0A004D3438205A2D50726F6265205294
:100A600065706561746162696C697479205465733D
:100A7000740A003F2856296572626F7365206C65A1
:100A800076656C20697320696D706C61757369623D
:100A90006C652028302D34292E0A0020573A00207A
:100AA000573A00205A3A0020423A0020436F756EB0
:100AB0007420413A0020453A00205A3A0020593A21
:100AC00000583A003A004361703A00205A00205919
:100AD00000580020204D61783A2000205A0020590B
:100AE00000580020204D696E3A20004F6E20004FC4
:100AF000666600536F667420656E6473746F7073FE
:100B00003A2000426564204C6576656C696E67200A
:100B1000004661696C656420746F20656E61626C6B
:100B20006520426564204C6576656C696E670A00D5
:100B3000496E76616C69642065787472756465725B
:100B40000A0041637469766520457874727564653E
:100B5000723A2000203A204D6F7665206261636B07
:100B60000A00202064657374696E6174696F6E3D5C
:100B7000002C20636F727265637465642063757204
:100B800072656E745F706F736974696F6E5B5A5FC4
:100B9000415849535D3D0046573A2053746F7020C9
:100BA0005A2063726173682C206578706563746580
:100BB000642063757272656E745F706F73697469B7
:100BC0006F6E5B5A5F415849535D3D00207D0A00BE
:100BD0002C20004F666673657420546F6F6C20582C
:100BE00059206279207B200046573A204368616E85
:100BF00067696E672064657374696E6174696F6E8E
:100C00005B585F415849535D20746F2073746F7057
:100C10002063726173682C2064657374696E6174FB
:100C2000696F6E5B585F415849535D3D002C2073DE
:100C3000746F705F785F63726173683D0046573A06
:100C400020746D705F785F6D6F76653D002C20734A
:100C5000746F705F7A5F63726173683D0046573AE4
:100C600020746D705F7A5F6D6F76653D004E6F200A
:100C70006D6F7665206F6E20746F6F6C6368616E48
:100C800067650A00526573656E643A200020746FD0
:100C90006F206C6F6E6720657874727573696F6E04
:100CA0002070726576656E7465640A0020636F6CEF
:100CB0006420657874727573696F6E2070726576E2
:100CC000656E7465640A00627573793A20706175A7
:100CD00073656420666F7220696E7075740A0062B5
:100CE0007573793A2070617573656420666F722040
:100CF000757365720A00627573793A2070726F635A
:100D0000657373696E670A004B494C4C20636175CB
:100D100073656420627920746F6F206D756368203D
:100D2000696E6163746976652074696D65202D2034
:100D300063757272656E7420636F6D6D616E643A77
:100D400020002020506C616E6E657242756666658B
:100D50007242797465733A20002046726565204DB1
:100D6000656D6F72793A2000436F6D70696C6564D0
:100D70003A2053657020323320323032300A00205E
:100D80007C20417574686F723A20467261636B749F
:100D9000616C20576F726B730A00323032302D3025
:100DA000392D32322031373A323400204C6173749D
:100DB00020557064617465643A20004275696C6402
:100DC0003A20564432305F3230303932325F313778
:100DD00032340A00467261636B74616C20576F7223
:100DE0006B7320566F6C7465727261204475616C10
:100DF0000A00312E312E390A004D61726C696E0085
:100E000020536F6674776172652052657365740A4A
:100E100000205761746368646F672052657365745E
:100E20000A002042726F776E206F757420526573CE
:100E300065740A002045787465726E616C20526595
:100E40007365740A00506F77657255700A00737489
:100E50006172740A003C3C3C207365745F61786980
:100E6000735F69735F61745F686F6D652800203A16
:100E7000200A00202063757272656E745F706F7354
:100E80006974696F6E3D005D203D20003E20686FF3
:100E90006D655F6F66667365745B003E3E3E2073F2
:100EA00065745F617869735F69735F61745F686FB0
:100EB0006D65280000004842000048420000A04143
:100EC000000000005761726E696E673A20486F6DCE
:100ED000696E672042756D702044697669736F7220
:100EE000203C20310A000202040000A0400000A0C3
:100EF00040000000400080C5430000C8430000D20D
:100F0000433C3C3C20686F6D656178697328002024
:100F10003A203E204146544552207365745F617803
:100F200069735F69735F61745F686F6D650A002044
:100F30002063757272656E745F706F736974696F28
:100F40006E3D00486F6D65203220536C6F773A0A12
:100F5000004D6F766520417761793A0A00486F6DE0
:100F600065203120466173743A0A003E3E3E206897
:100F70006F6D65617869732800486F74656E6420D1
:100F80006F6666736574733A006F6B004572726FBB
:100F9000722077726974696E6720746F20454550BE
:100FA000524F4D210A00454550524F4D2064617407
:100FB0006173697A65206572726F722E0A00290A60
:100FC000002062797465733B20637263200053656F
:100FD0007474696E67732053746F7265642028009F
:100FE000290A002062797465733B206372632000D4
:100FF0002073746F7265642073657474696E6773AF
:101000002072657472696576656420280020286303
:10101000616C63756C6174656429210A0020213D4F
:101020002000454550524F4D20435243206D697377
:101030006D61746368202D202873746F7265642954
:1010400020002053697A653A2000496E6465783A39
:101050002000204D61726C696E3D563535290A00BD
:1010600028454550524F4D3D00454550524F4D206B
:1010700076657273696F6E206D69736D61746368F4
:10108000200048617264636F646564204465666132
:10109000756C742053657474696E6773204C6F614E
:1010A0006465640A00DC050000DC05000032000015
:1010B000001027000000009643000096430000A0A7
:1010C00041000034420000C8420000C842F0F7FB73
:1010D0004300000C433A0A0020286D6D29002020AF
:1010E0004D383531205A005A2D50726F6265204FAD
:1010F00066667365740020440020490020204D334B
:101100003031205000204400204900205000202091
:101110004D33303120450050494420736574746963
:101120006E67733A0A00205A00204A002020473296
:1011300039205720490020204D34323020530041BF
:1011400075746F20426564204C6576656C696E67C6
:101150003A0A00205A0020590020580020204D3221
:101160003138205400486F74656E64206F66667372
:101170006574733A0A00205A0020590020204D322D
:101180003036205800486F6D65206F666673657451
:101190003A0A00204A0020540020530020204D32FB
:1011A0003035204200204A3C6A756E635F64657684
:1011B0003E00416476616E6365643A20423C6D692D
:1011C0006E5F7365676D656E745F74696D655F757D
:1011D000733E20533C6D696E5F6665656472617431
:1011E000653E20543C6D696E5F74726176656C5F1C
:1011F00066656564726174653E002054002052008B
:1012000020204D323034205000416363656C65729C
:101210006174696F6E2028756E6974732F7332293B
:101220003A20503C7072696E745F616363656C3E16
:1012300020523C726574726163745F616363656CB4
:101240003E20543C74726176656C5F616363656CCB
:101250003E0A00204500205A0020590020204D322F
:1012600030312058004D6178696D756D20416363A0
:10127000656C65726174696F6E2028756E69747330
:101280002F7332293A0A00204500205A00205900C5
:1012900020204D3230332058004D6178696D756DD6
:1012A000206665656472617465732028756E697463
:1012B000732F73293A0A00204500205A0020590054
:1012C00020204D39322058005374657073207065AA
:1012D0007220756E69743A0A0020204D3230302039
:1012E00044300A0020204D32303020543320440056
:1012F00020204D32303020543220440020204D3206
:10130000303020543120440020204D3230302044F1
:10131000002044697361626C65640A0046696C610F
:101320006D656E742073657474696E67733A00201E
:1013300020473231202020203B007A5F70726F629C
:10134000653A20007A5F6D61783A2000795F6D61BF
:10135000783A2000785F6D696E3A20005265706FB0
:101360007274696E6720656E6473746F7020737435
:10137000617475730A0000000001000000010000A4
:101380008000555555000000400033333300AAAAB1
:101390002A004992240000002000C7711C0099997E
:1013A0001900D1451700555515003BB113002449CC
:1013B000120011111100000010000F0F0F00E33890
:1013C0000E0043790D00CCCC0C00C3300C00E8A219
:1013D0000B0064210B00AAAA0A00703D0A009DD8E8
:1013E0000900427B090092240900DCD308008888A8
:1013F00008001042080000000800F0C107008787BD
:10140000070075500700711C07003EEB0600A1BCE9
:1014100006006990060066660600703E06006118C8
:10142000060017F4050074D105005BB00500B2900A
:101430000500627205005555050078390500B81E93
:101440000500050505004EEC040087D40400A1BD8D
:10145000040090A7040049920400C17D0400EE69D5
:101460000400C7560400444404005C320400082110
:10147000040041100400000004003FF00300F8E005
:10148000030026D20300C3C30300CCB503003AA86F
:1014900003000A9B0300388E0300C08103009F7580
:1014A0000300D0690300505E03001D53030034485D
:1014B0000300913D03003333030016290300381F56
:1014C000030097150300300C0300030303000BFA1D
:1014D000020049F10200BAE802005CE002002DD8E7
:1014E00002002DD0020059C80200B0C0020031B97C
:1014F0000200DAB10200AAAA0200A0A30200BC9C6A
:101500000200FA9502005C8F0200DF8802008282EE
:101510000200457C02002776020027700200436A21
:1015200002007C640200D05E02003F590200C853F2
:10153000020020746F6F206C6F6E67206578747284
:101540007573696F6E2070726576656E7465640A76
:101550000020636F6C6420657874727573696F6EB8
:101560002070726576656E7465640A00FFFDFCFA92
:10157000F8F6F4F2F0EEECEAE9E7E5E3E1E0DEDCD0
:10158000DAD9D7D5D4D2D0CFCDCBCAC8C7C5C3C27C
:10159000C0BFBDBCBAB9B7B6B4B3B2B0AFADACAAF8
:1015A000A9A8A6A5A4A2A1A09E9D9C9A999897954A
:1015B000949392908F8E8D8B8A898887868483827C
:1015C00081807F7E7D7B7A7978777675747372718E
:1015D000706F6E6D6C6B6A69686766656463626183
:1015E000605F5E5D5C5B5A5958585756555453526C
:1015F0005150504F4E4D4C4B4A4A4948474646453C
:101600004443424241403F3E3E3D3C3B3B3A3938F9
:101610003837363535343332323130302F2E2E2DA7
:101620002C2B2B2A2929282727262525242323224A
:10163000212120201F1E1E1D1C1C1B1B1A191918DE
:1016400018171616151514131312121111100F0F67
:101650000E0E0D0D0C0C0B0A0A09090808070706E7
:1016600006050504040303020201000046696C61DB
:101670006D656E7420757365643A200053746174EF
:10168000733A20002C204C6F6E67657374206A6F6C
:10169000623A2000546F74616C2074696D653A2061
:1016A0000053746174733A20002C204661696C65A4
:1016B000643A20002C2046696E69736865643A209C
:1016C000005072696E74733A200053746174733AF7
:1016D000200024F4D43050C38E20C2A24017828B45
:1016E0007011127A910D816CD90AA861E108C7586E
:1016F0006607615143061E4B5D05C145A7041A41AB
:101700001104093D9803713931034036DB0265331A
:101710009102D4305402802E1D02632CEE01752AF2
:10172000C501B028A001102781018F2564012B2459
:101730004B01E0223401AC211F018D200D01801FDF
:10174000FC00841EED00971DDF00B81CD200E61BD4
:10175000C600201BBC00641AB200B219A8000A1906
:10176000A0006A189900D117910040178B00B51698
:10177000840031167E00B31579003A157300C71442
:101780006F0058146A00EE13660088136300251377
:101790005E00C7125B006C12570015125400C11195
:1017A000510070114F0021114B00D61049008D10CF
:1017B00047004610440002104200C00F4000800F56
:1017C0003E00420F3C00060F3B00CB0E3800930E4C
:1017D00037005C0E3500270E3400F30D3200C10DCA
:1017E0003100900D3000600D2E00320D2D00050DE2
:1017F0002C00D90C2B00AE0C2900850C29005C0CA8
:101800002700350C27000E0C2600E80B2400C40B23
:101810002400A00B23007D0B23005A0B2100390B61
:101820002100180B2000F80A1F00D90A1E00BB0A6D
:101830001E009D0A1D00800A1D00630A1C00470A45
:101840001B002C0A1B00110A1A00F7091A00DD09F7
:101850001900C4091900AB091900920917007B0986
:101860001800630917004C091600360916002009F4
:1018700016000A091500F5081500E0081400CC0848
:101880001400B8081400A4081400900813007D0880
:1018900012006B08130058081200460812003408A2
:1018A0001100230811001208110001081100F007AF
:1018B0001000E0071000D0071000C0071000B007AC
:1018C0000F00A107100091070E0083070F00740797
:1018D0000F0065070E0057070E0049070E003B0773
:1018E0000D002E070E0020070D0013070D00060740
:1018F0000D00F9060C00ED060D00E0060C00D40604
:101900000C00C8060C00BC060C00B0060C00A406B7
:101910000B0099060C008D060B0082060B00770663
:101920000B006C060B0061060A0057060B004C0604
:101930000A0042060A0038060A002E060A0024069B
:101940000A001A060A001006090007060A00FD052B
:101950000900F4050900EB050900E2050900D905B5
:101960000900D0050900C7050900BE050900B50535
:101970000800AD050800A50509009C0508009405B0
:1019800008008C050800840508007C050800740523
:1019900008006C050700650508005D050700560591
:1019A00008004E05070047050700400508003805F8
:1019B0000700310507002A050700230507001C055D
:1019C0000600160507000F050700080506000205BA
:1019D0000700FB040600F5040700EE040600E80417
:1019E0000600E2040700DB040600D5040600CF046D
:1019F0000600C9040600C3040600BD040600B704BF
:101A00000600B1040500AC040600A6040600A0040C
:101A100005009B04060095040500900406008A0456
:101A2000050085040500800406007A04050075049D
:101A30000500700405006B040500660405006104E0
:101A400005005C04050057040500520405004D0420
:101A5000050048040500430405003E0404003A0460
:101A6000050035040500300404002C04050027049B
:101A70000400230405001E0404001A0404001604D4
:101A80000500110404000D04040009040500040409
:101A9000040000040400FC030400F8030400F40341
:101AA0000400F0030400EC030400E8030400E40372
:101AB0000400E0030400DC030400D8030400D403A2
:101AC0000400D0030400CC030400C8030300C503D2
:101AD000030024F404D9201BC40C5C0E9804C40930
:101AE0005F0265077101F405F900FB04B3004804C7
:101AF0008700C10369005803550003034500BE0277
:101B00003A008402310053022A002902250004020F
:101B10002000E4011C00C8011900AF011700980162
:101B200014008401130071011000610110005101C3
:101B30000E0043010D0036010B002B010B002001AC
:101B40000B00150109000C01090003010800FB004E
:101B50000800F3000800EB000700E4000600DE00C8
:101B60000600D8000600D2000600CC000500C70021
:101B70000500C2000500BD000400B9000400B50066
:101B80000400B1000400AD000400A9000400A50099
:101B90000300A20003009F0004009B0003009800C4
:101BA00003009500020093000300900003008D00E5
:101BB00002008B00030088000200860002008400FF
:101BC0000300810002007F0002007D0002007B0014
:101BD0000200790002007700010076000200740024
:101BE000020072000100710002006F0002006D002F
:101BF00001006C0002006A00010069000200670039
:101C0000010066000100650001006400020062003E
:101C1000010061000100600001005F0002005D0042
:101C200001005C0001005B0001005A000100590046
:101C30000100580001005700010056000100550046
:101C40000100540001005300000053000100520045
:101C5000010051000100500001004F0001004E0042
:101C600000004E0001004D0001004C0001004B003F
:101C700000004B0001004A0001004900010048003B
:101C80000000480001004700010046000000460037
:101C90000100450000004500010044000100430030
:101CA000000043000100420000004200010041002A
:101CB000000041000100400001003F0000003F0023
:101CC00001003E0000003E0001003D0000003D001C
:101CD00001003C0000003C0000003C0001003B0013
:101CE00000003B0001003A0000003A00010039000A
:101CF0000000390001003800000038000000380002
:101D000001003700000037000100360000003600F7
:101D100000003600010035000000350000003500ED
:101D200001003400000034000000340001003300E2
:101D300000003300000033000100320000003200D8
:101D400000003200010031000000310000003100CD
:101D500001003000000030000000300001002F00C2
:101D600000002F0000002F0000002F0001002E00B7
:101D700000002E0000002E0001002D0000002D00AC
:101D800000002D0000002D0001002C0000002C00A0
:101D900000002C0000002C0001002B0000002B0094
:101DA00000002B0000002B0001002A0000002A0088
:101DB00000002A0000002A0001002900000029007C
:101DC000000029000000290000002900010028006F
:101DD0000000280000002800000028000000280063
:101DE0000100270000002700000027000000270056
:101DF0000000270001002600000026000000260049
:101E0000000026000000260001002500000025003B
:101E1000000025000000250000002500000025002E
:101E20000100240000002400000024000000240021
:101E30000000240001002300000023000000230014
:101E40000000230000002300000023000000230006
:101E500001002200000022000000220000002200F9
:101E600000002200000022000100210000002100EB
:101E700000002100000021000000210000002100DE
:101E800000002100010020000000200000002000D0
:101E900000002000000020000000200000002000C2
:101EA0000000200001001F0000001F0000001F00B4
:101EB00000001F0000001F0000001F0000001F00A6
:101EC00001001E0000001E0000001E0000001E0099
:101ED0000000393000003325000087190000B00FE2
:101EE0000000DB080000BD040000740200003F0198
:101EF000000023646566696E652044454641554C83
:101F0000545F4B64200023646566696E6520444518
:101F10004641554C545F4B69200023646566696EE9
:101F2000652044454641554C545F4B702000504954
:101F300044204175746F74756E652066696E6973AF
:101F4000686564212050757420746865206C617325
:101F500074204B702C204B6920616E64204B6420F0
:101F6000636F6E7374616E74732066726F6D20623E
:101F7000656C6F7720696E746F20436F6E6669675A
:101F800075726174696F6E2E680A00504944204171
:101F900075746F74756E65206661696C6564212067
:101FA00074696D656F75740A004534205448455254
:101FB0004D414C2052554E41574159004533205414
:101FC0004845524D414C2052554E415741590045CC
:101FD0003220544845524D414C2052554E415741B4
:101FE0005900453120544845524D414C2052554EE0
:101FF0004157415900546865726D616C2052756E8D
:10200000617761790045342048656174696E6720A5
:102010006661696C65640045332048656174696E6A
:1020200067206661696C65640045322048656174AB
:10203000696E67206661696C65640045312048659A
:102040006174696E67206661696C656400486561EA
:1020500074696E67206661696C656400504944204C
:102060004175746F74756E65206661696C65642175
:102070002054656D706572617475726520746F6F40
:1020800020686967680A00204B643A2000204B6989
:102090003A2000204B703A20000A20436C61737391
:1020A000696320504944200A002054753A200020DA
:1020B0004B753A2000206D61783A2000206D696EE2
:1020C0003A200020643A200020626961733A2000BF
:1020D000504944204175746F74756E652073746146
:1020E00072740A00504944204175746F74756E65AE
:1020F000206661696C6564212042616420657874A2
:102100007275646572206E756D6265720A00626533
:10211000640A002C2073797374656D2073746F707A
:1021200070656421204865617465725F49443A2096
:10213000004265642068656174696E672066616944
:102140006C65640048656174696E67206661696CDE
:1021500065640045312048656174696E6720666179
:10216000696C65640045342048656174696E672058
:102170006661696C65640045332048656174696E09
:1021800067206661696C656400453220486561744A
:10219000696E67206661696C656400486561746991
:1021A0006E67206661696C65640010006003500111
:1021B0002C0190012201D001180110020E017002C1
:1021C0000401E002FA006003F0000004E600B0043D
:1021D000DC00A005D200B006C8000008BE00A009BF
:1021E000B400800BAA00D00DA00090109600C01380
:1021F0008C0070178200901B780010206E00C024A5
:102200006400E02D500080353C00A03A2800A03D3D
:102210001400003F0000A03FECFF453420457272DF
:102220003A204D415854454D500045332045727277
:102230003A204D415854454D500045322045727268
:102240003A204D415854454D500045312045727259
:102250003A204D415854454D50004572723A204D38
:10226000415854454D5020424544004D4158544535
:102270004D5020747269676765726564004534204B
:102280004572723A204D494E54454D500045332019
:102290004572723A204D494E54454D50004532200A
:1022A0004572723A204D494E54454D5000453120FB
:1022B0004572723A204D494E54454D500045727258
:1022C0003A204D494E54454D5020424544004D4919
:1022D0004E54454D5020747269676765726564009D
:1022E000202F002040002042403A0020403A0000C9
:1022F000002100240027002A002D003000330001B7
:10230000010000040107010A010000220025002845
:10231000002B002E003100340002010000050108EE
:10232000010B01000020002300260029002C002FB3
:102330000032000001000003010601090105050546
:1023400005070508080808020202020A0A0808042C
:10235000040404010101010101010103030303035A
:10236000030303040707070C0C0C0C0C0C0C0C02E9
:1023700002020206060606060606060B0B0B0B0BF0
:102380000B0B0B01021020200808102040102040E9
:102390008002010201080402010102040810204029
:1023A0008080402010080402018004020180402047
:1023B0001008040201080402010102040810204070
:1023C00080010204081020408000000A0B02090C62
:1023D0000D0E0807030401000000000000000000CB
:1023E00000000000000000000000000000000000ED
:1023F00000000000001211100000000000000000AA
:102400000000000000000000000000000000004785
:10241000322F47332062616420706172616D657490
:102420006572730A003C3C3C204732380A003E206B
:10243000686F6D696E67206E6F74206E6565646588
:10244000642C20736B69700A003C3C3C2047323896
:102450000A005261697365205A20286265666F72AE
:102460006520686F6D696E672920746F20003E20BB
:10247000656E6473746F70732E656E61626C65282F
:1024800074727565290A003E3E3E204732380A00C4
:10249000205A3A200020593A200042656420583AD8
:1024A00020004D65736820706F696E742063616EE3
:1024B0006E6F74206265207265736F6C7665640A56
:1024C000005072696E742074696D653A20006F6601
:1024D00066001503100309030203F402EB024445EE
:1024E0004255473A004D3131332053006F6B005451
:1024F0004845524D414C5F50524F54454354494F0B
:102500004E004155544F5245504F52545F53445F13
:1025100053544154555300454D455247454E435938
:102520005F50415253455200434153455F4C494728
:1025300048545F4252494748544E45535300544F04
:1025400047474C455F4C494748545300534F465406
:10255000574152455F504F574552004255494C44F0
:102560005F50455243454E54004C4556454C494EEC
:10257000475F44415441005A5F50524F4245004129
:1025800055544F4C4556454C005052494E545F4AA5
:102590004F420050524F4752455353004155544FFC
:1025A0005245504F52545F54454D5000564F4C5574
:1025B0004D455452494300454550524F4D005345F7
:1025C0005249414C5F584F4E5F584F46460046496E
:1025D000524D574152455F4E414D453A4D61726CE7
:1025E000696E20564432305F3230303932325F31DA
:1025F00037323420534F555243455F434F44455F74
:1026000055524C3A68747470733A2F2F6769746826
:1026100075622E636F6D2F467261636B74616C57C8
:102620006F726B732F4A756C6961323031384D614E
:10263000726C696E3131392050524F544F434F4CB8
:102640005F56455253494F4E3A312E30204D41434B
:1026500048494E455F545950453A566F6C746572FF
:102660007261204475616C2045585452554445525E
:102670005F434F554E543A3420555549443A303112
:102680003038613539392D336239352D34313836AA
:102690002D613633362D3036396562353938373964
:1026A00063300A002F2F2000205400205200416385
:1026B00063656C65726174696F6E3A2050003F4AC1
:1026C000206F7574206F662072616E6765202830F8
:1026D0002E303120746F20302E33290A0000002064
:1026E000C20000C8430000D243546F6F206661727D
:1026F0002066726F6D207265666572656E63652017
:10270000706F696E740A00FF010120466C6F773AA2
:102710002000000136372603FFFFFF353C3D38FF20
:102720000FFFFF312E303EFF13FFFFFF28280C085C
:1027300009FFFFFF1A1C18FFFF2A24221EFFFF2C8F
:1027400024221EFFFF2C24221EFFFFFF2C08440A18
:10275000FF4207FF412CFF432AFF453A2000205348
:102760006572766F2000206F7574206F662072612D
:102770006E67650A00536572766F2000496E766158
:102780006C69642065787472756465720A002064EF
:102790003A0020693A0020703A0043290A00616239
:1027A0006C656420286D696E2074656D702000432F
:1027B0006F6C6420657874727564657320617265EE
:1027C00020004E6F2063617365206C696768740A2E
:1027D000004D65736820706F696E742063616E6E62
:1027E0006F74206265207265736F6C7665640A0091
:1027F0004D34323120696E636F727265637420707C
:102800006172616D657465722075736167650A0038
:10281000454550524F4D204F4B0A003F5A206F758F
:1028200074206F662072616E676520282D3230201B
:10283000746F203230290A003A200050726F6265AE
:10284000205A204F6666736574003C3C3C206763E9
:102850006F64655F540A00203A2041465445520A8D
:1028600000202063757272656E745F706F73697497
:10287000696F6E3D00203A204245464F52450A009E
:10288000202063757272656E745F706F736974690E
:102890006F6E3D003E3E3E2067636F64655F542867
:1028A0000020503A00205A3A0020593A0020583A65
:1028B00000656E6473746F7073206869743A2000E9
:1028C000556E6B6E6F776E20636F6D6D616E643ADF
:1028D000202200203A203C3C3C2072756E5F7A5FDB
:1028E00070726F62650A00202063757272656E7483
:1028F0005F706F736974696F6E3D00204469736324
:10290000726570616E63793A00326E642050726F46
:102910006265205A3A00203A203C3C3C2072756E99
:102920005F7A5F70726F62650A0020206375727251
:10293000656E745F706F736974696F6E3D00534CA0
:102940004F572050726F6265206661696C210A00E2
:102950003173742050726F6265205A3A00203A2019
:102960003C3C3C2072756E5F7A5F70726F62650AE4
:1029700000202063757272656E745F706F73697486
:10298000696F6E3D00464153542050726F6265205E
:102990006661696C210A00203A203E3E3E20727535
:1029A0006E5F7A5F70726F62650A002020637572D5
:1029B00072656E745F706F736974696F6E3D003C11
:1029C0003C3C2070726F62655F70740A0050726FD9
:1029D00062696E67206661696C65640A0050524FD7
:1029E00042494E475F4641494C45440A00205A3A05
:1029F000200020593A200042656420583A200020E7
:102A00003A200A00202063757272656E745F706FE1
:102A1000736974696F6E3D005F72656C617469768D
:102A200065290A002C20002C20002C20002C2000DE
:102A30003E3E3E2070726F62655F707428002066B3
:102A4000697273740A005A0059005800486F6D6526
:102A500020006563686F3A00453420544845524D64
:102A6000414C2052554E415741590045332054485E
:102A700045524D414C2052554E4157415900453227
:102A800020544845524D414C2052554E41574159D2
:102A900000453120544845524D414C2052554E413D
:102AA0005741590042454420544845524D414C201D
:102AB00052554E4157415900546865726D616C2002
:102AC00052756E61776179005072696E746572201B
:102AD00068616C7465642E206B696C6C28292063B6
:102AE000616C6C6564210A004572726F723A000075
:102AF000C8A011241FBECFEFD1E2DEBFCDBF00E0E2
:102B00000CBF13E0A0E0B2E0EEE9F4E801E00BBF97
:102B100002C007900D92A037B107D9F720E1A0E7D6
:102B2000B3E001C01D92A131B207E1F715E1C9E799
:102B3000D5E100E006C021970109802FFE010E9427
:102B400004C2C837D10780E00807A9F70E9403A193
:102B50000C944DC20C940000FC01DB018C9120818F
:102B60003181382798E0A901220F331F57FD05C096
:102B70009150C9F7318320830895B1E22B27B0E14A
:102B80003B27F6CF8150823108F05AC0E82FF0E0A1
:102B90008827E253FA4E8F4F0C9404C2EE15F215BB
:102BA000E015E615EA152016F515FB15FF150516B7
:102BB00009160D161316171620161B1621162516A4
:102BC000809180008F7780938000089580918000AD
:102BD0008F7DF9CF80918000877FF5CF84B58F7787
:102BE00084BD089584B58F7DFBCF8091B0008F7731
:102BF0008093B00008958091B0008F7DF9CF8091CF
:102C000090008F77809390000895809190008F7D41
:102C1000F9CF80919000877FF5CF8091A0008F77CA
:102C20008093A00008958091A0008F7DF9CF8091BE
:102C3000A000877FF5CF809120018F7780932001BE
:102C40000895809120018F7DF9CF80912001877FA9
:102C5000F5CFCF93DF93282F30E0F901E753FC4DF8
:102C60008491F901ED57FC4DD491F901E35CFC4DE1
:102C7000C491CC23A1F081110E94C215EC2FF0E089
:102C8000EE0FFF1FED5DFC4DA591B491EC91ED238E
:102C900081E090E009F480E0DF91CF91089580E039
:102CA00090E0FACF1F93CF93DF93282F30E0F90104
:102CB000E753FC4D8491F901ED57FC4DD491F90196
:102CC000E35CFC4DC491CC23A9F0162F81110E9426
:102CD000C215EC2FF0E0EE0FFF1FE75FFC4DA59152
:102CE000B4918FB7F894EC91111108C0D095DE2300
:102CF000DC938FBFDF91CF911F910895DE2BF8CF2A
:102D0000CF93DF9390E0FC01ED57FC4D2491835C61
:102D10009C4DFC0184918823D1F090E0880F991F8D
:102D2000FC01E151FD4DA591B491FC01E75FFC4D23
:102D3000C591D49161110EC09FB7F8948C91E22F88
:102D4000E0958E238C932881E223E8839FBFDF9157
:102D5000CF9108958FB7F894EC91E22BEC938FBF4D
:102D6000F6CF1F93CF93DF93182FEB0161E00E9402
:102D70008016209739F460E0812FDF91CF911F9169
:102D80000C945216CF3FD10511F461E0F5CFE12F3D
:102D9000F0E0E753FC4DE491E150E23108F0B3C0BC
:102DA000F0E08827E952F94E8F4F0C9404C2E916DF
:102DB000F116F61600170A17831714171C17241795
:102DC0002E173817421751175B17831765176F17A0
:102DD000791784B5806884BDC7BDDF91CF911F91FD
:102DE000089584B5806284BDC8BDF7CF809180000E
:102DF000806880938000D0938900C0938800EDCFD5
:102E000080918000806280938000D0938B00C0937B
:102E10008A00E3CF80918000886080938000D09307
:102E20008D00C0938C00D9CF8091B00080688093D2
:102E3000B000C093B300D1CF8091B0008062809386
:102E4000B000C093B400C9CF809190008068809397
:102E50009000D0939900C0939800BFCF80919000CC
:102E6000806280939000D0939B00C0939A00B5CF6E
:102E700080919000886080939000D0939D00C093D3
:102E80009C00ABCF8091A00080688093A0008091CF
:102E9000A0008F7B8093A000D093A900C093A800CE
:102EA0009CCF8091A00080628093A000D093AB0063
:102EB000C093AA0092CF8091A00088608093A00068
:102EC000D093AD00C093AC0088CF80912001806882
:102ED00080932001D0932901C09328017ECF809157
:102EE0002001806280932001D0932B01C0932A019E
:102EF00074CF80912001886080932001D0932D01B0
:102F0000C0932C016ACFC038D1050CF03ECF33CF2F
:102F1000789484B5826084BD84B5816084BD85B5B4
:102F2000826085BD85B5816085BDEEE6F0E080817B
:102F300081608083E1E8F0E010828081826080839C
:102F4000808181608083E0E8F0E08081816080831F
:102F5000E1EBF0E0808184608083E0EBF0E0808151
:102F600081608083E1E9F0E08081826080838081FC
:102F700081608083E0E9F0E0808181608083E1EA24
:102F8000F0E0808182608083808181608083E0EADC
:102F9000F0E0808181608083E1E2F1E08081826005
:102FA0008083808181608083E0E2F1E080818160C4
:102FB0008083EAE7F0E080818460808380818260A2
:102FC000808380818160808380818068808310928B
:102FD000C10008953FB7F8948091190C90911A0C94
:102FE000A0911B0CB0911C0C26B5A89B05C02F3FCF
:102FF00019F00196A11DB11D3FBFBA2FA92F982F1F
:103000008827BC01CD01620F711D811D911D42E019
:10301000660F771F881F991F4A95D1F708958F92E1
:103020009F92AF92BF92CF92DF92EF92FF926B018D
:103030007C010E94EA174B015C01C114D104E10438
:10304000F104B9F00E94EA17681979098A099B0905
:10305000683E73408105910580F321E0C21AD108D2
:10306000E108F10888EE880E83E0981EA11CB11CCF
:10307000E4CFFF90EF90DF90CF90BF90AF909F9004
:103080008F9008952FB7F8946091150C7091160CDD
:103090008091170C9091180C2FBF08958F929F92DA
:1030A000AF92BF92CF92DF92EF92FF920F931F9356
:1030B000CF93DF93DC0170E0FB01EE0FFF1FE05EBA
:1030C000FC4F20813181645E7C4FFB019081D92EC1
:1030D00080E0E82EF12CB7016D0D711D7595679597
:1030E000681711F0D61222C0492F4150550BFA0132
:1030F000EE0FFF1FEE0FFF1F3296E20FF31F6591D9
:103100007491072E000C880B990B0E943CBADF913A
:10311000CF911F910F91FF90EF90DF90CF90BF90D4
:10312000AF909F908F900895D62ED5CFAB01415090
:103130005109440F551F440F551FF901E40FF51FA6
:1031400005911491FA013496E20FF31FC591D491C1
:10315000A017B1074CF3862FCA17DB070CF4B9CFC1
:10316000FA013296E20FF31FE590F490FA013696D9
:10317000E20FF31FC590D490BD01601B710B072EA9
:10318000000C880B990B0E943CBA4B015C01B60104
:103190006E197F09072E000C880B990B0E943CBA10
:1031A0009B01AC01C501B4010E949BBA4B015C01BB
:1031B000BE01601B710B072E000C880B990B0E943F
:1031C0003CBA9B01AC01C501B4010E94B8BF4B01E0
:1031D0005C01B701FF0C880B990B0E943CBA9B0164
:1031E000AC01C501B4010E94BEBE91CFCF92DF9267
:1031F000EF92FF92C090000CD090010CE090020C76
:10320000F090030C6091610C7091620C6650710932
:10321000072E000C880B990B0E943CBAA70196015F
:103220000E941EC118160CF520E030E040E050E48A
:10323000C701B6010E94BEBE0E9431C07093D80B78
:103240006093D70B0E9442186058774C8E4F9F4F67
:103250006093D30B7093D40B8093D50B9093D60BC4
:10326000FF90EF90DF90CF9008951092D30B1092C3
:10327000D40B1092D50B1092D60BF2CFCF92DF92D7
:10328000EF92FF920F931F93CF93DF93C82FD0E05D
:103290008E01000F111F000F111FF801EC5FF34F9B
:1032A000C080D180E280F380CC0FDD1FFE01EC5A9C
:1032B000F34F6081718167507109072E000C880BF4
:1032C000990B0E943CBAA70196010E941EC10554A9
:1032D000144F181614F5C553D44F20E030E040E0E9
:1032E00050E4C701B6010E94BEBE0E9431C079837E
:1032F00068830E94421860547B428E4F9F4FF801B2
:103300006083718382839383DF91CF911F910F91AB
:10331000FF90EF90DF90CF900895F8011082118216
:1033200012821382F1CF8F929F92AF92BF92CF926F
:10333000DF92EF92FF920F931F93CF93DF93BCE145
:10334000A0E06A2F70E0AB014B0F511D55954795DA
:10335000A41711F0B41319C0E8E1F2E26591749179
:10336000072E000C880B990B0E943CBADF91CF917D
:103370001F910F91FF90EF90DF90CF90BF90AF9093
:103380009F908F900895B42FDECF9A01215031097C
:10339000220F331F220F331FF901E655FE4DE59032
:1033A000F490F901E255FE4DC591D4918E159F051B
:1033B00054F3A42FC817D9070CF4C3CFF901E4556F
:1033C000FE4D05911491F901E055FE4DC590D49044
:1033D000BC016E197F09072E000C880B990B0E9407
:1033E0003CBA4B015C01B601601B710B072E000C4F
:1033F000880B990B0E943CBA9B01AC01C501B4013A
:103400000E949BBA4B015C01BE016E197F09072E19
:10341000000C880B990B0E943CBA9B01AC01C501C2
:10342000B4010E94B8BF6B017C01B801110F880B79
:10343000990B0E943CBA9B01AC01C701B6010E94E6
:10344000BEBE94CF0F931F938091530C813019F51A
:103450000E94421800915D0B10915E0B20915F0B52
:103460003091600B601B710B820B930B28EE33E0E5
:1034700040E050E00E945ABE6091590B70915A0B87
:1034800080915B0B90915C0B620F731F841F951FE3
:103490001F910F91089560914F0C7091500C809185
:1034A000510C9091520CD6CF1092530C10925D0B90
:1034B00010925E0B10925F0B1092600B10924F0CEB
:1034C0001092500C1092510C1092520C1092590BF9
:1034D00010925A0B10925B0B10925C0B08950F9395
:1034E0001F93CF93DF93C82F80916F00D82FD27096
:1034F00081FF05C080916F008D7F80936F00609188
:10350000380F7091390F80913A0F90913B0F0091D5
:103510003C0F10913D0F20913E0F30913F0FC13075
:1035200039F5601B710B820B930B0E943CBA20E0B3
:1035300030E040E05FE30E949BBA0E942AC024E092
:10354000C29FF0011124E35BF44F60837183828397
:10355000938381E080934C0BDD2329F080916F00F1
:10356000826080936F00DF91CF911F910F9108953A
:10357000600F711F821F931FD8CF90916F00292F6A
:10358000227091FF05C090916F009D7F90936F0016
:1035900094E0899FF0011124E85CF04F6081718113
:1035A00082819381222329F020916F002260209351
:1035B0006F000895BC0120914A0B30914B0B409154
:1035C0004A0B50914B0B2417350731F481E0261735
:1035D000370709F080E008959A01F1CFEF92FF924A
:1035E0000F931F93E0927D03F0927E0300937F037D
:1035F000109380036093810370938203809383030D
:103600009FEFFF27621B730B840B30F4809570953E
:103610006195790B890B992790937C03A6E06A9FAB
:1036200000927003512DEE277A9F500DE11D8A9F65
:10363000E00D50937103E0937203AFE06A9F009234
:103640007403512DEE277A9F500DE11D8A9FE00DE6
:1036500050937503E0937603AAE06A9F0092780383
:10366000512DEE277A9F500DE11D8A9FE00D50935A
:103670007903E0937A031F910F91FF90EF900895E3
:103680008091050B80FF2EC089988FEF8093010BEE
:103690008091050B81FF29C08F988FEF8093020BDB
:1036A0008091050B82FF24C080910B018095827070
:1036B000809309018FEF8093030B8091060B90910B
:1036C000050B93FF26C0813011F1CCF48823E9F07B
:1036D0008FEF8093040B0000000082E08A950000C9
:1036E000E9F70895899A81E0D1CF8F9A81E0D6CF0A
:1036F00080910B0182708093090181E0DCCF8230E0
:1037000011F0833029F74398E3CF1698E1CF439A1D
:10371000DFCF813069F024F4882341F081E0D9CFF4
:10372000823011F08330D1F7439AF8CF169AF6CF52
:103730004398F4CF8091750F9091760F891B8F700D
:1037400019F490E080E008959091720F992351F060
:10375000833030F48FEF890F19F08093720FF1CF1F
:103760001092720F8091760F2DE5829FC001112477
:103770008F5C9A4FFC01208120FDE3CF2091760FD2
:103780002F5F2F702093730F3091760F2091740F5D
:10379000321304C02091730F2093740F0895009783
:1037A00081F41092900082E0809391001092950035
:1037B00010929400C19A8091710082608093710090
:1037C00008958130910569F41092A00082E0809301
:1037D000A1001092A5001092A40089BB80937200F2
:1037E0000895029761F41092200182E080932101F4
:1037F00010922501109224018ABB809373000895D2
:10380000AF92BF92CF92DF92EF92FF920F931F93EE
:10381000CF93DF936B017A01EC01C25DDA4F28810F
:103820003CE0389F8001399F100D1124A0900710B3
:10383000B12C27FF1FC0FB011182108288818F5F8E
:10384000888388819801280F311D87FD3A95F601FC
:103850002A153B051CF488818C30C4F1808191814C
:10386000049680349C4908F473C0F60180819181EC
:10387000049670C088819801280F311D87FD3A9504
:103880002A153B05DCF68881A801480F511D87FDEC
:103890005A95FA01EE0FFF1FE40FF51FE556F04FA2
:1038A000808186FFCBCF8881F801E80FF11D87FD6D
:1038B000FA95CF01EE0FFF1FE80FF91FE556F04F05
:1038C000808160E08F730E945216B8CF8081918111
:1038D0002881A801420F511D27FD5A959A01FA012E
:1038E000EE0FFF1FE20FF31FE556F04F21813281EB
:1038F000820F931FF7019183808388819801280F9D
:10390000311D87FD3A95F901EE0FFF1FE20FF31FFE
:10391000E556F04F808186FF22C08881080F111D77
:1039200087FD1A95F801EE0FFF1FE00FF11FE55616
:10393000F04F808161E08F73DF91CF911F910F91E4
:10394000FF90EF90DF90CF90BF90AF900C94521605
:1039500080E49CE9F701918380838FEF8883DF9176
:10396000CF911F910F91FF90EF90DF90CF90BF907C
:10397000AF900895CF93C091530C80E0C13069F1AE
:10398000C23069F50E94221A6093590B70935A0B4A
:1039900080935B0B90935C0B81E08093530C0E94AF
:1039A000421860935D0B70935E0B80935F0B909356
:1039B000600BC23089F080911E0590911F05019621
:1039C00090931F0580931E0510921A0510921B05F7
:1039D00010921C0510921D0581E0CF9108950E9460
:1039E000541ADACF9F92AF92BF92CF92DF92EF92AA
:1039F000FF920F931F93CF93DF9300D01F921F92DC
:103A0000CDB7DEB7ECE6F5E10027BB27462F572FF1
:103A1000A82FAA2341F4A52F542FB85FAA2319F485
:103A2000A52F5527B85FA03138F45295A295452FA0
:103A30004F70507FA42BBC5FA03428F4550FAA1FF1
:103A4000550FAA1FBE5FA03818F4550FAA1FB395D3
:103A5000550FAA1FEA0FF01F449151E0AA27B85052
:103A600081F1C8F0B0FF02C0440F551FB1FF04C080
:103A7000440F551F440F551FB2FF06C05295429583
:103A8000142F1F70407F512BB3FF1BC0A52F542F45
:103A900044270C94611DB195B0FF02C05595479520
:103AA000B1FF04C05595479555954795B2FF05C0A0
:103AB0005295407F4295452B5F70B3FF02C0452F62
:103AC0005527DD24CC24BB24B2E0649FD018C10864
:103AD000B00AB00B749FC018B108B00B849FB01827
:103AE000B109659FC018B108B00B759FB018B10936
:103AF000859FB0196A9FB018B1097A9FB0194D9D82
:103B0000A12C99243327992722275D9DA00C911C75
:103B1000301F901F201FAD9D900C311D901F201F46
:103B20004C9DA00C911C301F901F201F5C9D900C81
:103B3000311D901F201FAC9D300D911D201F4B9DEE
:103B4000900C311D901F201F5B9D300D911D201F7B
:103B5000AB9D900D211D4B9F300D911D201F5B9F34
:103B6000900D211DAB9F200DB1E0BB24CC24DD24A2
:103B7000639FD018C108B00AB00B739FC018B1087A
:103B8000B00B839FB018B109699FC018B108B00B82
:103B9000799FB018B109899FB019629FB018B10917
:103BA000729FB019D61AC70AB80A20F0B1E03B0FCD
:103BB000901F201F1124792F632F90E0822F0F90E8
:103BC0000F900F900F900F90DF91CF911F910F9159
:103BD000FF90EF90DF90CF90BF90AF909F900895AF
:103BE0004F925F926F927F928F929F92AF92BF920D
:103BF000EF92FF920F931F93CF93DF93C2E9DCE024
:103C000088E4E82E8FE0F82E0DE61CE0412C512CC4
:103C1000320143946991799189919991F701819049
:103C20009190A190B1907F010E943ABAA5019401B0
:103C30000E949BBA0E9431C0F801619371938193F5
:103C400091938F01461657066806790610F42B01EA
:103C50003C01FCE0C23ADF07E9F66FEF7FEFCB01F2
:103C6000A30192010E945ABE2093050530930605D8
:103C70004093070550930805DF91CF911F910F9155
:103C8000FF90EF90BF90AF909F908F907F906F903C
:103C90005F904F900895CF93DF9390916F00292FFD
:103CA000227091FF05C090916F009D7F90936F00EF
:103CB00094E0899FA0011124FA01E35BF44F608135
:103CC000718182819381222329F020916F002260EB
:103CD00020936F00EA01C75FDA4F0E943CBA288147
:103CE00039814A815B810E949BBADF91CF9108950F
:103CF0007F928F929F92AF92BF92CF92DF92EF927C
:103D0000FF920F931F93CF93DF937090910CCCE0B1
:103D1000DDE095E5C92E92E0D92E25E4E22E22E0E1
:103D2000F22E01E81CE0772009F45EC0F8018080E3
:103D30009180A280B38020E030E0A901C501B401E8
:103D40000E9435BA882309F44FC020E030E040E0FB
:103D50005FE3C501B4010E949BBA9B01AC010E94C4
:103D60009BBA2BED3FE049E450E40E949BBA9B01D3
:103D7000AC0160E070E080E89FE30E94B8BF4B01B7
:103D80005C0189929992A992B992F601619171911F
:103D90006F01072E000C880B990B0E943CBA2AE099
:103DA00037ED43E25CE30E949BBAA50194010E94B7
:103DB0009BBAF70161937193819391937F010C5F9B
:103DC0001F4FFDE0CC31DF0709F0ADCFDF91CF9180
:103DD0001F910F91FF90EF90DF90CF90BF90AF9029
:103DE0009F908F907F900895812C912C80E8A82E31
:103DF0008FE3B82EC6CFCF93DF938091800C8111D3
:103E000005C08091F304882309F46CC08091F2040A
:103E1000659958C08E7F8093F20490910301809140
:103E2000F20490FF51C080628093F2048091F2040A
:103E300091994CC0877F8093F2048091F2044A9953
:103E400047C08F7B8093F204C0913D0BC0FF10C030
:103E50008091050B84FF0CC08091F20480FF08C0A4
:103E60008091FF0E81608093FF0E80E00E946F1AA8
:103E7000C1FF10C08091050B85FD0CC08091F2043C
:103E800085FF08C08091FF0E80628093FF0E81E065
:103E90000E946F1AC2FF26C08091050B82FF1AC0D4
:103EA0008091F3048823F1F08091F20483FF1AC01B
:103EB0008091FF0E88608093FF0E82E0DF91CF91AA
:103EC0000C946F1A8160A7CF8F7DAECF8860B3CF7F
:103ED0008064B8CF8091F20486FF04C08091FF0E09
:103EE0008064E9CFDF91CF910895CF92DF92EF9276
:103EF000FF92CF93DF93EC01C090E504D090E604ED
:103F0000E090E704F090E804A701960168817981C8
:103F10008A819B810E9435BA87FF04C0C882D982FA
:103F2000EA82FB82C090E904D090EA04E090EB04BE
:103F3000F090EC04A70196016C817D818E819F81B8
:103F40000E9435BA87FF04C0CC82DD82EE82FF82F8
:103F5000C0900A02D0900B02E0900C02F0900D028B
:103F6000A7019601688179818A819B810E941EC187
:103F7000181624F4C882D982EA82FB82C0900E020D
:103F8000D0900F02E0901002F0901102A70196016C
:103F90006C817D818E819F810E941EC1181624F440
:103FA000CC82DD82EE82FF82C090ED04D090EE04E0
:103FB000E090EF04F090F004A70196016885798500
:103FC0008A859B850E9435BA87FF04C0C886D9863A
:103FD000EA86FB86C0901202D0901302E090140291
:103FE000F0901502A7019601688579858A859B85E1
:103FF0000E941EC1181624F4C886D986EA86FB865C
:10400000DF91CF91FF90EF90DF90CF9008954F9286
:104010005F926F927F928F929F92AF92BF92CF9258
:10402000DF92EF92FF92CF934B015C0169017A011D
:1040300020E030E040E251E40E94BDBE2B013C0193
:104040002FE632E143E85AEB0E941EC187FD50C0C3
:1040500021E230E845EC53E4C301B2010E9435BAD5
:1040600018160CF445C020E030E040E251E4C701EE
:10407000B6010E94BDBE2B013C012FE632E143E8B0
:104080005AEB0E941EC187FD33C021E230E048ECAC
:1040900053E4C301B2010E9435BA18164CF124EF63
:1040A0003DEF47EC51E4C501B4010E941EC187FDFC
:1040B0001FC021E230E848EB53E4C501B4010E947F
:1040C00035BA1816ACF024EF3DEF47EC51E4C701C8
:1040D000B6010E941EC187FD0BC0C1E021E230E89D
:1040E0004BEB53E4C701B6010E9435BA18160CF425
:1040F000C0E08C2FCF91FF90EF90DF90CF90BF90DA
:10410000AF909F908F907F906F905F904F900895A9
:10411000129A479A479A479A08955F9A8091150F85
:104120008E7F8093150F8A9A8091150F8D7F8093D3
:10413000150F809108018095817080930601809110
:10414000150F8B7F8093150F0C948820CF92DF92F0
:10415000EF92FF9260913B0C70913C0C072E000C8B
:10416000880B990B0E943CBA6B017C012DEB37E365
:1041700046E855EB0E941EC187FD0BC02DEB37E3CF
:1041800046E855E3C701B6010E9435BA18160CF08F
:1041900043C0A701960160E070E080E89FE30E94C1
:1041A000B8BF6093A1047093A2048093A30490937A
:1041B000A40460913D0C70913E0C072E000C880BFE
:1041C000990B0E943CBA6B017C012DEB37E346E86A
:1041D00055EB0E941EC187FD0AC02DEB37E346E870
:1041E00055E3C701B6010E9435BA1816CCF4A701F1
:1041F000960160E070E080E89FE30E94B8BF6093A2
:10420000A5047093A6048093A7049093A804FF903C
:10421000EF90DF90CF90089560E070E0CB01C1CFC8
:1042200060E070E0CB01EBCF90918503E92FF0E0E7
:10423000EF58F24F80839F5F943040F49093850352
:104240008091010F8F5F8093010F08951092850375
:10425000F7CF2FEB280F2A3108F042C0E22FF0E011
:104260008091370C9091380CA091390CB0913A0C98
:1042700004C0B695A795979587952A95D2F780FDA6
:1042800002C081700895E35EF34FE081EE2329F1CF
:104290008091020F9091030FE80FF92FF11D80819B
:1042A00090ED980F9A3030F08E3251F48181805326
:1042B0008A3098F4F093BF0CE093BE0C81E008952F
:1042C0008D3211F08B3249F4818190ED980F9A3044
:1042D00088F38E3211F48281EACFF0E0E0E0EACF99
:1042E00080E008950E942921882341F081E02091F7
:1042F000BE0C3091BF0C232B09F480E0089580E1BF
:10430000EAE1FFE0A4E0BFE001900D928A95E1F7B9
:1043100008959091C00095FFFCCF8093C60008954A
:10432000FF920F931F93CF93DF938091370F082F46
:104330000270182F1470982F9170F92E80FD11C003
:10434000C2E5DAE2FE0184912196811115C0CCE428
:10435000DAE2FE0184912196882389F00E94892166
:10436000F8CF002369F380E0112351F3DF91CF915F
:104370001F910F91FF9008950E948921E3CFF110C2
:104380000AC0CAE4DAE2FE0184912196882319F07A
:104390000E948921F8CF01110AC0C8E4DAE2FE01C7
:1043A00084912196882319F00E948921F8CF111158
:1043B0000AC0C6E4DAE2FE0184912196882319F04E
:1043C0000E948921F8CFCEE3DAE2FE0184912196A2
:1043D000882319F00E948921F8CF81E0C7CF1F936D
:1043E000CF93DF93162FEC01FE0184912196882351
:1043F00019F00E948921F8CF812FDF91CF911F9171
:104400000C9489210F931F93CF93DF93162F072FBF
:10441000EC01FE0184912196811108C0C12FD02F9B
:104420008991882331F00E948921FACF0E94892145
:10443000F0CFDF91CF911F910F910895CF93DF932C
:10444000C2E5DAE2FE0184912196882319F00E94E8
:104450008921F8CF6091020F7091030F80EC98E2F0
:104460000E94022282E20E9489218AE0DF91CF919C
:104470000C948921CF93DF93CCE5D3E1FE018491A5
:10448000219681110AC0C4E5D3E1FE0184912196F1
:10449000882331F00E948921F8CF0E948921EECF34
:1044A000659908C0C6E3D3E08991882331F00E9462
:1044B0008921FACFCCE2D3E0F7CF8AE00E948921AC
:1044C000CCE4D3E1FE0184912196882319F00E9467
:1044D0008921F8CF80910301C6E3D3E080FF02C0B9
:1044E000CCE2D3E08991882319F00E948921FACF88
:1044F0008AE00E948921C4E4D3E1FE0184912196DF
:10450000882319F00E948921F8CF4A9B08C0CCE289
:10451000D3E08991882331F00E948921FACFC6E344
:10452000D3E0F7CF8AE00E948921CAE3D3E1FE01FC
:1045300084912196882319F00E948921F8CF919BBC
:1045400008C0CCE2D3E08991882331F00E94892110
:10455000FACFC6E3D3E0F7CF8AE0DF91CF910C9496
:104560008921CF93DF938F3C9240A1F0C8EEDAE22D
:10457000FE018491219681110AC0C6EADFE0FE01A6
:1045800084912196882351F00E948921F8CF0E94BE
:104590008921EECF80E0DF91CF91089581E0FBCFBC
:1045A000CF93DF93C9E8DFE0FE0184912196882351
:1045B00019F00E948921F8CF8AE0DF91CF910C9405
:1045C0008921CF93DF93C8EEDAE2FE018491219630
:1045D00081110AC0C9EFD8E0FE0184912196882399
:1045E00031F00E948921F8CF0E948921EECFDF911E
:1045F000CF91089580917B0490917C042FEF3FEF41
:10460000981751F0E92FF0E0E550FC4F208130E0A1
:104610009F5F9F7790937C04C9010895CF92DF92AA
:10462000EF92FF92CF9380916F00C82FC27081FFED
:1046300005C080916F008D7F80936F0080E00E94A5
:10464000BD1A6B017C0181E00E94BD1A6C0D7D1DBD
:104650008E1D9F1D0E943CBA20E030E040E05FE3E9
:104660000E949BBA9B01AC01CC2329F080916F0082
:10467000826080936F006091090570910A058091B6
:104680000B0590910C050E949BBA6093A90470934E
:10469000AA048093AB049093AC0480916F00C82F60
:1046A000C27081FF05C080916F008D7F80936F0085
:1046B00080E00E94BD1A6B017C0181E00E94BD1A5E
:1046C000A7019601261B370B480B590BCA01B901EC
:1046D0000E943CBA20E030E040E05FE30E949BBAD9
:1046E0009B01AC01CC2329F080916F008260809304
:1046F0006F0060910D0570910E0580910F059091EE
:1047000010050E949BBA6093AD047093AE04809331
:10471000AF049093B00482E00E94BD1A0E943CBA9C
:104720009B01AC01609111057091120580911305F8
:10473000909114050E949BBA6093B1047093B204E7
:104740008093B3049093B404CF91FF90EF90DF90E7
:10475000CF900895CF92DF92EF92FF920F931F9325
:10476000CF93DF93CDB7DEB7A0970FB6F894DEBF37
:104770000FBECDBF611571058105910579F100E08E
:10478000C42ED12CF12CE12CA70196010E945ABE17
:1047900011E0100FE1E0F0E0EC0FFD1FE00FF11D64
:1047A00007FDFA956083B901CA01012F61157105F2
:1047B0008105910549F7115010F1E1E0F0E0EC0FAF
:1047C000FD1FE10FF11D17FDFA95908187E39A30E7
:1047D00008F480E3890F0E948921EDCF80E3A09641
:1047E0000FB6F894DEBF0FBECDBFDF91CF911F9102
:1047F0000F91FF90EF90DF90CF900C948921A096BD
:104800000FB6F894DEBF0FBECDBFDF91CF911F91E1
:104810000F91FF90EF90DF90CF900895CF92DF92AD
:10482000EF92FF92CF93DF936A017B01EC01FE01CF
:1048300084912196882319F00E948921F8CF4AE0BB
:10484000C701B601DF91CF91FF90EF90DF90CF903D
:104850000C94AA23CF92DF92EF92FF926B017C011E
:10486000F7FE0BC08DE20E948921F094E094D09471
:10487000C094C11CD11CE11CF11C4AE0C701B60167
:10488000FF90EF90DF90CF900C94AA230F931F938B
:10489000CF93DF93EB018C01F80184910F5F1F4FE1
:1048A000882319F00E948921F7CFBE01DD0F880B04
:1048B000990BDF91CF911F910F910C942A24CF93E4
:1048C000DF9380917B0480937C04C4E8DCE0FE01EC
:1048D00084912196882319F00E948921F8CF609154
:1048E0005A0F70915B0F80915C0F90915D0F6F5F1D
:1048F0007F4F8F4F9F4F0E942A248AE00E94892178
:10490000E091000FF0E0EF58F24F8081882321F012
:10491000DF91CF910C94D022DF91CF9108950F9326
:104920001F93CF93DF93182F092FC8EEDAE2FE0111
:104930008491219681110AC0C12FD02FFE0184914C
:104940002196882331F00E948921F8CF0E94892185
:10495000EECF60915A0F70915B0F80915C0F909138
:104960005D0F0E942A248AE00E9489210E945F2410
:104970001092590F1092580FDF91CF911F910F9104
:104980000895FF920F931F93CF93DF93082FF92E73
:10499000162FC6ECDAE0FE0184912196811111C038
:1049A000C02FDF2DFE018491219681110DC0C4EC32
:1049B000DAE0FE0184912196882349F00E94892142
:1049C000F8CF0E948921E7CF0E948921EBCF612F88
:1049D00070E090E080E00E942A248AE0DF91CF918D
:1049E0001F910F91FF900C9489218F929F92AF920B
:1049F000BF92CF92DF92EF92FF92CF936B017C0137
:104A0000B42E20E030E0A9010E9435BA87FF07C02C
:104A10008DE20E948921F7FAF094F7F8F094C0E053
:104A200060E070E080E09FE3CB1541F02DEC3CECC2
:104A30004CEC5DE30E949BBACF5FF6CF9B01AC01CB
:104A4000C701B6010E94BEBE6B017C010E9431C04D
:104A50004B015C014AE00E94AA23CC2391F1C501DD
:104A6000B4010E943ABA9B01AC01C701B6010E9491
:104A7000BDBE6B017C018EE20E948921C15008F10C
:104A800020E030E040E251E4C701B6010E949BBA49
:104A90004B015C010E942AC06B01770FEE08FF08F2
:104AA000C701B6010E942A24C701B6010E943CBA80
:104AB0009B01AC01C501B4010E94BDBE6B017C012C
:104AC000DDCFCF91FF90EF90DF90CF90BF90AF9070
:104AD0009F908F900895CF92DF92EF92FF92CF93A5
:104AE000DF936A017B01EC01FE018491219688230A
:104AF00019F00E948921F8CF42E0C701B601DF9189
:104B0000CF91FF90EF90DF90CF900C94F524EF922F
:104B1000FF920F931F93CF937C018B01C42F80E2F0
:104B20000E94892184E5CF3F09F482E40E94892113
:104B3000C7FD04C080E38C0F0E9489218AE30E9494
:104B40008921F701608171818281938142E00E9415
:104B5000F524F801408151816281738180EE92E2F7
:104B60000E946B2562E070E080E090E0CF911F91A1
:104B70000F91FF90EF900C940F18AF92BF92CF92CD
:104B8000DF92EF92FF920F931F93CF93DF9300D0AA
:104B900000D01F921F92CDB7DEB700912F0D10E00D
:104BA000F801EE0FFF1FEC5AF34F60817181072E61
:104BB000000C880B990B0E943CBA6D837E838F8317
:104BC0009887F801EE0FFF1FEE0FFF1FEC5FF34F0A
:104BD00080819181A281B38189839A83AB83BC83D5
:104BE0004DEFBE016B5F7F4FCE0101960E9487257E
:104BF0006091610C7091620C072E000C880B990B70
:104C00000E943CBA6D837E838F8398878091000CCD
:104C10009091010CA091020CB091030C89839A83AE
:104C2000AB83BC834FEFBE016B5F7F4FCE0101961C
:104C30000E94872544E5A42E4CE0B42E54E0C52EF6
:104C40005CE0D52EF12CF501619171915F01072E89
:104C5000000C880B990B0E943CBA6D837E838F8376
:104C60009887F60181919191A191B1916F0189830A
:104C70009A83AB83BC834F2DBE016B5F7F4FCE0108
:104C800001960E948725F394F4E0FF12DCCF9BEE9F
:104C9000E92E92E2F92EF7018491FFEFEF1AFF0A55
:104CA000882319F00E948921F6CFF801E550F44FCE
:104CB000608170E090E080E00E942A2406EE12E21B
:104CC000F80184910F5F1F4F882319F00E948921FA
:104CD000F7CF6091FF0B70E090E080E00E942A2403
:104CE0008BEFE82E8BE0F82E10E000E0B80183EEA9
:104CF00092E20E9446248AE30E948921F701619191
:104D00007F0170E090E080E00E942A240F5F1F4F37
:104D10000430110559F728960FB6F894DEBF0FBE80
:104D2000CDBFDF91CF911F910F91FF90EF90DF905A
:104D3000CF90BF90AF9008952F923F924F925F9285
:104D40006F927F928F929F92AF92BF92CF92DF929B
:104D5000EF92FF920F931F93CF93DF93082F10E0F2
:104D6000E801CC0FDD1FCC0FDD1FFE01ED5BF34F23
:104D70004080518062807380CE01865D904F7C01BF
:104D8000FE01E053F34F1F01A30192016081718185
:104D9000828193810E94BEBEF7016083718382830A
:104DA0009383FE01E156FB4F85909590A590B490BA
:104DB000FE01EB51FB4F80829182A282B382FE0101
:104DC000E555FB4FC590D590E590F490C65FDD4F5B
:104DD000C882D982EA82FB828091360F85FF38C073
:104DE000F801E85DFC4F60818EE095E00E94EF21C4
:104DF000F101408151816281738187EF94E00E94CB
:104E00006B25B301A20183EE94E00E946B25B501EE
:104E1000A4018DEC94E00E946B25B701A60187EBFD
:104E200094E00E946B258AE0DF91CF911F910F9152
:104E3000FF90EF90DF90CF90BF90AF909F908F90BA
:104E40007F906F905F904F903F902F900C948921AE
:104E5000DF91CF911F910F91FF90EF90DF90CF9056
:104E6000BF90AF909F908F907F906F905F904F908A
:104E70003F902F9008957F928F929F92AF92BF9212
:104E8000CF92DF92EF92FF920F931F93CF93DF9316
:104E9000782E81110AC0C2E5DAE2FE0184912196E2
:104EA000882319F00E948921F8CFCFE2D3E1FE01D7
:104EB0008491219681110DC038EDE32E30E1F32E5F
:104EC000E701FE0184912196882331F00E94892117
:104ED000F8CF0E948921EBCF8AE00E9489218AE0E5
:104EE0000E948921711025C0C2E5DAE28E01F80125
:104EF00084910F5F1F4F81110BC00CE113E1F8018A
:104F000084910F5F1F4F882331F00E948921F7CFD2
:104F10000E948921ECCF8091910C01E113E188235B
:104F200019F18AE00E948921FE0184912196811164
:104F3000F9CF4091810C5091820C6091830C70915B
:104F4000840C88E093E10E946B258AE00E9489210D
:104F5000711013C0C2E5DAE2FE0184912196882324
:104F600061F00E948921F8CFF80184910F5F1F4FF3
:104F70008823D1F20E948921F7CF4091850C50916E
:104F8000860C6091870C7091880C8CEF92E10E94E6
:104F90006B258AE00E94892171100AC0C2E5DAE21D
:104FA000FE0184912196882319F00E948921F8CF6F
:104FB0004091890C50918A0C60918B0C70918C0CF3
:104FC00080EF92E10E946B258AE00E948921711096
:104FD0000AC0C2E5DAE2FE0184912196882319F025
:104FE0000E948921F8CF40918D0C50918E0C6091D8
:104FF0008F0C7091900C84EE92E10E946B258AE0F8
:105000000E9489218091910C811116C071100AC0F3
:10501000C2E5DAE2FE0184912196882319F00E940C
:105020008921F8CFC9EDD2E1FE0184912196882330
:1050300019F00E948921F8CF71101FC0C2E5DAE291
:105040008E01F80184910F5F1F4F81110BC008EC96
:1050500012E1F80184910F5F1F4F882331F00E9405
:105060008921F7CF0E948921ECCFFE0184912196FE
:10507000882319F00E948921F8CF4091480F509160
:10508000490F60914A0F70914B0F80EC92E10E94A2
:105090006B2540914C0F50914D0F60914E0F7091C8
:1050A0004F0F8DEB92E10E946B254091500F509174
:1050B000510F6091520F7091530F8AEB92E10E9451
:1050C0006B254091540F5091550F6091560F709180
:1050D000570F87EB92E10E946B258AE00E9489219D
:1050E00071101FC0C2E5DAE28E01F80184910F5FF2
:1050F0001F4F81110BC009E912E1F80184910F5F84
:105100001F4F882331F00E948921F7CF0E94892107
:10511000ECCFFE0184912196882319F00E94892109
:10512000F8CF4091A20C5091A30C6091A40C709107
:10513000A50C80E992E10E946B254091A60C50914C
:10514000A70C6091A80C7091A90C8DE892E10E94C7
:105150006B254091AA0C5091AB0C6091AC0C7091F6
:10516000AD0C8AE892E10E946B254091AE0C509103
:10517000AF0C6091B00C7091B10C87E892E10E9485
:105180006B258AE00E94892171101FC0C2E5DAE216
:105190008E01F80184910F5F1F4F81110BC005E64E
:1051A00012E1F80184910F5F1F4F882331F00E94B4
:1051B0008921F7CF0E948921ECCFFE0184912196AD
:1051C000882319F00E948921F8CF4091920C5091C8
:1051D000930C6091940C7091950C8CE592E10E9477
:1051E0000E244091960C5091970C6091980C709100
:1051F000990C89E592E10E940E2440919A0C5091FD
:105200009B0C60919C0C70919D0C86E592E10E9434
:105210000E2440919E0C50919F0C6091A00C7091B7
:10522000A10C83E592E10E940E248AE00E9489216C
:1052300071101FC0C2E5DAE28E01F80184910F5FA0
:105240001F4F81110BC009E012E1F80184910F5F3B
:105250001F4F882331F00E948921F7CF0E948921B6
:10526000ECCFFE0184912196882319F00E948921B8
:10527000F8CF4091BA0C5091BB0C6091BC0C70916E
:10528000BD0C80E092E10E946B254091B20C5091E0
:10529000B30C6091B40C7091B50C8DEF91E10E944C
:1052A0006B254091B60C5091B70C6091B80C709181
:1052B000B90C8AEF91E10E946B258AE00E94892156
:1052C00071102AC0C2E5DAE28E01F80184910F5F05
:1052D0001F4F811113C002EB11E1F80184910F5FA0
:1052E0001F4F81110EC005EA11E1F80184910F5F93
:1052F0001F4F882349F00E948921F7CF0E948921FE
:10530000E4CF0E948921E9CF8AE00E948921FE0131
:10531000849121968111F9CF4091CC0C5091CD0C04
:105320006091CE0C7091CF0C8CE991E10E940E241B
:105330004091C80C5091C90C6091CA0C7091CB0C73
:1053400089E991E10E946B254091C40C5091C50CF4
:105350006091C60C7091C70C86E991E10E946B25A3
:105360004091C00C5091C10C6091C20C7091C30C63
:1053700083E991E10E946B258AE00E9489217110E6
:105380001FC0C2E5DAE28E01F80184910F5F1F4F62
:1053900081110BC005E811E1F80184910F5F1F4FE7
:1053A000882331F00E948921F7CF0E948921ECCF18
:1053B000FE0184912196882319F00E948921F8CF5B
:1053C0004091D00C5091D10C6091D20C7091D30CC3
:1053D0008CE791E10E946B254091D40C5091D50C43
:1053E0006091D60C7091D70C89E791E10E946B25F2
:1053F0004091D80C5091D90C6091DA0C7091DB0C73
:1054000086E791E10E946B258AE00E948921711054
:105410001FC0C2E5DAE28E01F80184910F5F1F4FD1
:1054200081110BC005E611E1F80184910F5F1F4F58
:10543000882331F00E948921F7CF0E948921ECCF87
:10544000FE0184912196882319F00E948921F8CFCA
:1054500000EE1CE0C1E0D0E0BE018CE591E10E94CD
:105460004624F80141915191619171918F0189E533
:1054700091E10E946B25F801448555856685778505
:1054800086E591E10E946B25F801448D558D668D6E
:10549000778D83E591E10E946B258AE00E94892146
:1054A0002196C430D105C1F671101FC0C2E5DAE201
:1054B0008E01F80184910F5F1F4F81110BC00FE324
:1054C00011E1F80184910F5F1F4F882331F00E9492
:1054D0008921F7CF0E948921ECCFFE01849121968A
:1054E000882319F00E948921F8CF6091F40470E0BC
:1054F00086E391E10E9446248AE00E9489218091FE
:105500003B0C90913C0C892B09F44DC020E3C22E3A
:105510002DE0D22ED0E0C0E0560110E000E0711086
:105520000EC092E5892E9AE2992EF4018491FFEF44
:105530008F1A9F0A882319F00E948921F6CFB8019B
:105540008CE291E10E944624BE0189E291E10E9431
:10555000462486E2882E81E1982EF4018491FFEFA3
:105560008F1A9F0A882319F00E948921F6CFF5012E
:10557000608171818281938145E00E94F5248AE0F7
:105580000E9489210F5F1F4FF0E1AF0EB11C043064
:10559000110509F0C4CF219684E0C80ED11CC43097
:1055A000D10509F0B9CF711018C0C2E5DAE28E0159
:1055B000F80184910F5F1F4F81110CC007E111E1C9
:1055C000F80184910F5F1F4F882309F465C00E9482
:1055D0008921F6CF0E948921EBCFD0E0C0E0BE0147
:1055E0008EE091E10E94462440912A0D50912B0DAE
:1055F00060912C0D70912D0D8BE091E10E946B2537
:1056000024EA3CE848E35EE36091260D7091270DA3
:105610008091280D9091290D0E94B8BFAB01BC016B
:1056200088E091E10E946B2524EA3CE848E35EE3D0
:105630006091220D7091230D8091240D9091250D84
:105640000E949BBAAB01BC0185E091E10E946B25F1
:105650008AE00E9489212196C430D10509F0BFCF8C
:105660004091160F5091170F6091180F7091190FFC
:105670008EED90E10E946B258AE0DF91CF911F9122
:105680000F91FF90EF90DF90CF90BF90AF909F90E1
:105690008F907F900C94892102E51AE2F8018491A1
:1056A0000F5F1F4F882319F00E948921F7CF409187
:1056B0002A0D50912B0D60912C0D70912D0D8CEFBA
:1056C00090E10E946B2524EA3CE848E35EE36091A8
:1056D000260D7091270D8091280D9091290D0E9423
:1056E000B8BFAB01BC0189EF90E10E946B2524EAB1
:1056F0003CE848E35EE36091220D7091230D8091B8
:10570000240D9091250D0E949BBAAB01BC0186EF40
:1057100090E10E946B258AE00E94892102E51AE24D
:10572000F80184910F5F1F4F81110BC007EE10E14C
:10573000F80184910F5F1F4F882341F00E94892157
:10574000F7CF0E948921ECCF0E948921F701849133
:10575000FFEFEF1AFF0A8111F7CF05ED10E1F80115
:1057600084910F5F1F4F882319F00E948921F7CF82
:10577000FE0184912196882309F472CF0E94892129
:10578000F7CFCF93DF93C9E7DFE0FE018491219645
:10579000882319F00E948921F8CFCCEDDCE080E26B
:1057A0000E948921699179918991999142E00E94A1
:1057B000F5248CE20E9489216C857D858E859F85EC
:1057C00042E00E94F5248CE20E9489216C8D7D8D3F
:1057D0008E8D9F8D42E00E94F524FCE0CC3EDF07D9
:1057E000F1F68AE0DF91CF910C9489214F925F927C
:1057F0006F927F928F929F92AF92BF92CF92DF92E1
:10580000EF92FF92CF93DF93C1ECDAE0FE01849137
:105810002196882319F00E948921F8CF20912A0F20
:1058200030912B0F40912C0F50912D0F60911A0F3A
:1058300070911B0F80911C0F90911D0F0E94BEBE96
:1058400042E00E94F524CDEBDAE0FE01849121963E
:10585000882319F00E948921F8CF20912E0F3091D2
:105860002F0F4091300F5091310F60911E0F7091AA
:105870001F0F8091200F9091210F0E94BEBE42E029
:105880000E94F524C9EBDAE0FE0184912196882379
:1058900019F00E948921F8CF2091320F3091330FF7
:1058A0004091340F5091350F6091220F7091230F6A
:1058B0008091240F9091250F0E94BEBE42E00E946D
:1058C000F524C5EBDAE0FE0184912196882319F0D6
:1058D0000E948921F8CF6091260F7091270F809147
:1058E000280F9091290F42E00E94F52480916F00CB
:1058F000982F927081FF05C080916F008D7F8093FB
:105900006F004090380F5090390F60903A0F7090B0
:105910003B0F80903C0F90903D0FA0903E0FB090B9
:105920003F0FC090400FD090410FE090420FF09099
:10593000430F992329F080916F00826080936F005C
:10594000CBEADAE0FE0184912196882319F00E94C7
:105950008921F8CFC301B2010E942A24C7EADAE004
:10596000FE0184912196882319F00E948921F8CFA5
:10597000C501B4010E942A24C3EADAE0FE01849141
:105980002196882319F00E948921F8CFC701B6011A
:105990000E942A248AE0DF91CF91FF90EF90DF9060
:1059A000CF90BF90AF909F908F907F906F905F90BF
:1059B0004F900C9489217F928F929F92AF92BF92C9
:1059C000CF92DF92EF92FF920F931F93CF93DF93CB
:1059D000C9E7D6E0FE0184912196882319F00E9440
:1059E0008921F8CFC12CD12C7601C7E0C15021F01C
:1059F00080E20E948921FACFC701B6010E942A24C1
:105A0000FFEFCF1ADF0AEF0AFF0A84E0C816D104BD
:105A1000E104F10451F78AE00E948921C0E3DDE04E
:105A2000C12CD12C760180E20E948921C701B601E8
:105A30000E942A248E0184E0782E80E20E9489212F
:105A4000F80180809180A280B380A5019401C501F6
:105A5000B4010E94B0C18823B9F180E20E9489217B
:105A60008DE30E9489218DE30E9489218DE30E94AC
:105A700089218DE30E9489218DE30E9489217A94F6
:105A8000005F1F4F7110D9CF8AE00E948921FFEF7C
:105A9000CF1ADF0AEF0AFF0A249684E0C816D10461
:105AA000E104F10409F0BFCF8AE0DF91CF911F91AB
:105AB0000F91FF90EF90DF90CF90BF90AF909F90AD
:105AC0008F907F900C94892120E030E0A901C501DE
:105AD000B4010E941EC187FD03C08BE20E94892190
