:100000000C94C9200C94FA200C94FA200C94FA2039
:100010000C94FA200C94FA200C94FA200C94FA20F8
:100020000C94FA200C94FA200C94FA200C94FA20E8
:100030000C94FA200C9473F60C94FA200C94FA2089
:100040000C94FA200C94E5B70C94FA200C94FA2046
:100050000C94FA200C94FA200C9448B00C9470FB89
:100060000C94FA200C94F0880C94FA200C94FA204A
:100070000C94FA200C94FA200C94FA200C94FA2098
:100080000C94FA200C94FA200C94FA200C94FA2088
:100090000C94FA200C94FA200C94FA200C94FA2078
:1000A0000C94FA200C94FA200C94FA200C94FA2068
:1000B0000C94FA200C94FA200C94FA200C94FA2058
:1000C0000C94FA200C94FA200C94FA200C94FA2048
:1000D0000C94FA200C94FA200C94FA200C94FA2038
:1000E0000C94FA20084AD73B3BCE016E84BCBFFD7E
:1000F000C12F3D6C74319ABD56833DDA3D00C77FF8
:1001000011BED9E4BB4C3E916BAAAABE0000008090
:100110003F05A84CCDB2D44EB93836A9020C50B91F
:10012000918688083CA6AAAA2ABE000000803F004B
:100130000C94A69E0C9414F80C9465F80D940C0481
:100140000C940CF80C9423F80C94318E0C9468F7F2
:100150000C94E3F20C94A5F70D94F2010C9478E55D
:100160000C94AEE50C9435930C94D19B0C9437F819
:100170000C94A1EC0C9451990C94BCA20C94B3E592
:100180000C94A5E50C943D8E0C9474F80C94AAF78D
:100190000D94B5020C945BF80C9428EB0C9447F882
:1001A0000C94D7F20C943DE30C94CD990C94AFE5EC
:1001B0000C94139D0C94EBF20C943FE30C94E3210C
:1001C0000C94F0F20C94EE8D0C94C2EE0D947B0026
:1001D0000C944DF70C948DE50C9483E50C94C79822
:1001E0000C9499940C94CDF20C94FB9C0C94E8899B
:1001F0000C94438E0C94D1340C9435A20C944DC6BF
:100200000C9408990D94A6070C9419F80C94F09B83
:100210000D94EB150C9491950C944F8A0C94719657
:100220000C94009A0C94C79B0C9490A00D946609B2
:100230000C9497E50C947AA70D94A10A0C9492F86B
:100240000C9438930C94998D0C940A9F0C944197BC
:100250000C9489E50C9470C80C941B890C9420E5CF
:100260000C94708E0C9451A40C94BCF70C943FF831
:100270000C94C29B0C94DD9C0C94ABB10C94AB9E83
:100280000C9451C30C9421E50C949CF80C942DF81B
:100290000C94A1E50C9472D00C94FDAD0C94BD9B14
:1002A0000C94E0F20C94F8EB0C945CAB0C9471EDB4
:1002B0000C94378E0C947D250C9432890C941BFF82
:1002C0000C94C6F70C94AC8E0C949A990C9451F83B
:1002D0000C9480E50C94C8B00C948D9F0C94A9E507
:1002E0000C949C9E0C94C59E0D94E1050C941A8967
:1002F0000C94DAF20D94AD0B0C9407950C9423E555
:100300000C94838E0C94CC9B0C9409ED0C94718D01
:100310000C94AAE10C94A6F80C94EDF20C94E6F27D
:100320000C947EF80C943B930C94C18D0C9490EB40
:100330000C941D9A0D94720C0C9474E50C947CE54D
:100340000C9460EC0C946EE50D945E080C94C0EA7D
:100350000C94AC8A0C94F4ED0D949E0A0C94C39CFE
:100360000C9493E50C948C8F0C94A19E0C944DEE00
:100370000D9426160C94CDE60C945F890C94D1F75D
:100380000C94DDF20C949BE50C9458EA0C9488F8DC
:100390000C94B6F70C94E4214E414E494E49545901
:1003A000494E46CDCCCC3D0AD7233C17B7D1387740
:1003B000CC2B329595E6241FB14F0A000020410056
:1003C00000C84200401C4620BCBE4CCA1B0E5AAEA0
:1003D000C59D74434F4D4D554E49434154494F4E71
:1003E0000044525952554E004552524F5253004903
:1003F0004E464F004543484F002569730025696DFF
:1004000020256973002569682025696D2025697399
:1004100000256964202569682025696D2025697398
:100420000025697920256964202569682025696D82
:100430002025697300656E7175657565696E672045
:1004400022004B494C4C45442E200053544F5050F1
:1004500045442E20005072696E7465722073746F6B
:10046000707065642064756520746F206572726FAA
:1004700072732E2046697820746865206572726FE9
:100480007220616E6420757365204D39393920748E
:100490006F20726573746172742E202854656D70BC
:1004A0006572617475726520697320726573657415
:1004B0002E20536574206974206166746572207201
:1004C000657374617274696E67290A004E6F204308
:1004D0006865636B73756D2077697468206C696EED
:1004E00065206E756D6265722C204C617374204CB2
:1004F000696E653A20004E6F20436865636B7375C3
:100500006D2077697468206C696E65206E756D6208
:1005100065722C204C617374204C696E653A200022
:10052000636865636B73756D206D69736D6174636A
:10053000682C204C617374204C696E653A20004C25
:10054000696E65204E756D626572206973206E6FED
:1005500074204C617374204C696E65204E756D6219
:1005600065722B312C204C617374204C696E653A96
:1005700020004D313130004D33310053442072653D
:100580006164206572726F720A00446F6E6520703C
:1005900072696E74696E672066696C650A0020492D
:1005A0006E76616C6964206578747275646572201A
:1005B00000000000000000000000000000000048F3
:1005C000430000484300005243486F6D696E672046
:1005D0006661696C656400206E6F7420656E746579
:1005E0007265642E0A0050726F74656374656420CE
:1005F00050696E0A0046696C616D656E7420757392
:1006000065643A200053746174733A20002C204CC6
:100610006F6E67657374206A6F623A2000546F745E
:10062000616C2074696D653A200053746174733A8B
:1006300020002C204661696C65643A20002C20461D
:10064000696E69736865643A20005072696E7473EC
:100650003A200053746174733A200020573A0045E1
:1006600020436F6F6C696E672E2E2E004520486503
:100670006174696E672E2E2E0020573A0042656421
:1006800020636F6F6C696E672E2E2E0042656420AA
:1006900068656174696E672E2E2E00205A3A00201C
:1006A000423A0020436F756E7420413A0020453A6B
:1006B00000205A3A0020593A00583A003A00436163
:1006C000703A00205A00205900580020204D6178CF
:1006D0003A2000205A00205900580020204D696E11
:1006E0003A20004F6E20004F666600536F667420FC
:1006F000656E6473746F70733A2000236465666975
:100700006E652044454641554C545F4B64200023A0
:10071000646566696E652044454641554C545F4B9F
:1007200069200023646566696E652044454641552D
:100730004C545F4B702000504944204175746F74D5
:10074000756E652066696E697368656421205075F1
:100750007420746865206C617374204B702C204B7E
:100760006920616E64204B6420636F6E7374616EE8
:1007700074732066726F6D2062656C6F7720696E8E
:10078000746F20436F6E66696775726174696F6E0E
:100790002E680A00504944204175746F74756E6567
:1007A000206661696C6564212074696D656F75747C
:1007B0000A00453120544845524D414C2052554E77
:1007C0004157415900546865726D616C2052756ED5
:1007D000617761790045312048656174696E6720F1
:1007E0006661696C65640048656174696E6720665E
:1007F00061696C656400504944204175746F74757B
:100800006E65206661696C6564212054656D706554
:1008100072617475726520746F6F20686967680A09
:1008200000204B643A2000204B693A2000204B7096
:100830003A20000A20436C61737369632050494475
:10084000200A002054753A2000204B753A200020E1
:100850006D61783A2000206D696E3A200020643A7C
:10086000200020626961733A20005049442041759C
:10087000746F74756E652073746172740A005049E8
:1008800044204175746F74756E65206661696C658E
:1008900064212042616420657874727564657220F9
:1008A0006E756D6265720A00426564204C657665FE
:1008B0006C696E6720004661696C656420746F2006
:1008C000656E61626C6520426564204C6576656C7E
:1008D000696E670A004D65736820426564204C6547
:1008E00076656C20646174613A0A004D6573682016
:1008F000706F696E742063616E6E6F742062652024
:100900007265736F6C7665640A004D34323120690C
:100910006E636F727265637420706172616D65746D
:1009200065722075736167650A004D3630303A2074
:10093000546F6F20636F6C6400486F74656E642041
:10094000746F6F20636F6C640A00496E7365727414
:100950002066696C616D656E7420616E64207072D2
:1009600065737320627574746F6E0A0050726573DC
:100970007320627574746F6E20746F206865617483
:10098000206E6F7A7A6C650A00496E736572742006
:1009900066696C616D656E7420616E64207072654D
:1009A000737320627574746F6E20286F72204D31DE
:1009B0003038290A00496E736572742066696C616B
:1009C0006D656E7420616E64207072657373206251
:1009D0007574746F6E20286F72204D313038290A7B
:1009E0000047322F47332062616420706172616D6D
:1009F00065746572730A00536C6565702E2E2E0047
:100A0000206F6620004D424C2047323920706F69BC
:100A10006E74200059206F7574206F662072616EAD
:100A200067652028312D33292E0A0058206F7574F0
:100A3000206F662072616E67652028312D33292E64
:100A40000A004D6573682070726F62696E6720647A
:100A50006F6E652E0A005374617274206D65736841
:100A60002070726F62696E67207769746820224710
:100A70003239205331222066697273742E0A00477E
:100A80003239205332004D65736820626564206CF2
:100A90006576656C696E6720686173206E6F20648F
:100AA0006174612E0A0053746174653A200053200A
:100AB0006F7574206F662072616E67652028302D17
:100AC00035292E0A004D65736820706F696E742099
:100AD00063616E6E6F74206265207265736F6C76F1
:100AE00065640A00436C69636B20746F20726573E0
:100AF000756D652E2E2E004E6F206D6F76652E0063
:100B0000456E642066696C65206C6973740A0042E6
:100B10006567696E2066696C65206C6973740A008C
:100B2000286E6F2066696C65290043757272656E68
:100B3000742066696C653A20005344207072696EB7
:100B400074696E67206279746520004E6F7420535B
:100B500044207072696E74696E670A005072696E23
:100B6000742074696D653A20006F666600F403EFC7
:100B700003E803E103D30344454255473A004B4998
:100B80004C4C45442E20004D3131332053006F6BC7
:100B9000004A756C696120496E7465726D6564699F
:100BA000617465204F66662E00544845524D414C95
:100BB0005F50524F54454354494F4E004155544F96
:100BC0005245504F52545F53445F53544154555310
:100BD00000454D455247454E43595F50415253459C
:100BE0005200434153455F4C494748545F42524984
:100BF0004748544E45535300544F47474C455F4C6C
:100C0000494748545300534F4654574152455F504B
:100C10004F574552004255494C445F504552434559
:100C20004E54004C4556454C494E475F4441544153
:100C3000005A5F50524F4245004155544F4C455663
:100C4000454C005052494E545F4A4F420050524F5B
:100C50004752455353004155544F5245504F5254FB
:100C60005F54454D5000564F4C554D4554524943E5
:100C700000454550524F4D0053455249414C5F5835
:100C80004F4E5F584F4646004649524D57415245D8
:100C90005F4E414D453A4D61726C696E204A313864
:100CA00047425F3230303933305F313131305F4865
:100CB0004120534F555243455F434F44455F555282
:100CC0004C3A68747470733A2F2F67697468756250
:100CD0002E636F6D2F61686172736861632F465771
:100CE0004A756C6961323031384D61726C696E20C1
:100CF00050524F544F434F4C5F56455253494F4EFD
:100D00003A312E30204D414348494E455F545950A9
:100D1000453A4A756C696120496E7465726D656407
:100D2000696174652045585452554445525F434F9C
:100D3000554E543A3120555549443A326533303294
:100D40006331362D613361632D346136662D626106
:100D500062632D3734386532633566386461620A00
:100D6000002F2F20007A5F6D61783A2000795F6D47
:100D700061783A2000785F6D696E3A2000526570A4
:100D80006F7274696E6720656E6473746F70207320
:100D900074617475730A004D31343520533C696EAB
:100DA0006465783E206F7574206F662072616E678F
:100DB000652028302D31290A00205400205200419E
:100DC0006363656C65726174696F6E3A2050003FB1
:100DD0004A206F7574206F662072616E67652028E7
:100DE000302E303120746F20302E33290A004F66A8
:100DF0006673657473206170706C69656400457218
:100E0000723A20546F6F206661722100546F6F2018
:100E10006661722066726F6D207265666572656EBE
:100E2000636520706F696E740A0020466C6F773AB4
:100E30002000000136372603FFFFFF353C3D38FF19
:100E40000FFFFF312E303EFF13FFFFFF28FF0C087E
:100E500009FFFFFF1A1C18FFFF2A08440AFF434935
:100E60006E76616C69642065787472756465720A67
:100E70000020643A0020693A0020703A0043290AB1
:100E80000061626C656420286D696E2074656D7008
:100E90002000436F6C6420657874727564657320FC
:100EA00061726520004E6F2063617365206C696715
:100EB00068740A00454550524F4D204F4B0A00417F
:100EC00063746976652045787472756465723A203A
:100ED00000496E76616C696420657874727564652A
:100EE000720A00526573656E643A20006F6B0020D1
:100EF000746F6F206C6F6E6720657874727573699C
:100F00006F6E2070726576656E7465640A0020638A
:100F10006F6C6420657874727573696F6E2070727F
:100F20006576656E7465640A00627573793A20703F
:100F3000617573656420666F7220696E7075740ADE
:100F400000627573793A2070617573656420666F0D
:100F50007220757365720A00627573793A20707237
:100F60006F63657373696E670A004B494C4C454467
:100F70002E20004B494C4C206361757365642062E0
:100F800079204B494C4C20627574746F6E2F7069D8
:100F90006E0A004B494C4C45442E20004B494C4CAA
:100FA0002063617573656420627920746F6F206DB2
:100FB00075636820696E6163746976652074696D14
:100FC00065202D2063757272656E7420636F6D6D80
:100FD000616E643A2000506C6561736520726573C0
:100FE0006574005052494E5445522048414C544576
:100FF00044005072696E7465722068616C74656437
:101000002E206B696C6C28292063616C6C656421EF
:101010000A00000020C100004843000052430000C5
:101020004842000048420000A04100000000576113
:10103000726E696E673A20486F6D696E67204275FF
:101040006D702044697669736F72203C20310A000C
:101050000202040000A0400000A040000000400088
:101060000048430000484300005243FF01017C3C1C
:101070003E5E2B3D3F2F5B5D3B2C2A225C00457280
:10108000726F722077726974696E6720746F204581
:101090004550524F4D210A00454550524F4D206456
:1010A00061746173697A65206572726F722E0A00CD
:1010B000290A002062797465733B20637263200003
:1010C00053657474696E67732053746F726564201E
:1010D0002800290A002062797465733B20637263DB
:1010E00020002073746F7265642073657474696E78
:1010F00067732072657472696576656420280020C4
:101100002863616C63756C6174656429210A002031
:10111000213D2000454550524F4D20435243206D04
:1011200069736D61746368202D202873746F726514
:10113000642920002053697A653A2000496E64656D
:10114000783A2000204D61726C696E3D5635352924
:101150000A0028454550524F4D3D00454550524FDD
:101160004D2076657273696F6E206D69736D617461
:101170006368200048617264636F6465642044653D
:101180006661756C742053657474696E6773204C66
:101190006F616465640A00DC050000DC0500003254
:1011A00000000010270000000048430000484300F2
:1011B00000A041000034420000C8420000C842F0D4
:1011C000F7FB4300000C4320286D6D290020204DC3
:1011D00036303320002055004C0046696C616D6547
:1011E0006E74206C6F61642F756E6C6F6164206C1F
:1011F000656E677468733A0A002044002049002035
:10120000204D3330312050005049442073657474B0
:10121000696E67733A0A00204600204200204800A9
:1012200020204D3134352053004D61746572696161
:101230006C2068656174757020706172616D657491
:101240006572733A0A00205A002059002020473264
:101250003920533320580020204D343230205300A1
:101260004D65736820426564204C6576656C696ED7
:10127000673A0A00205A0020590020204D323036AB
:10128000205800486F6D65206F66667365743A0A72
:1012900000204A0020540020530020204D323035D9
:1012A000204200204A3C6A756E635F6465763E00AA
:1012B000416476616E6365643A20423C6D696E5F9D
:1012C0007365676D656E745F74696D655F75733E98
:1012D00020533C6D696E5F66656564726174653E3E
:1012E00020543C6D696E5F74726176656C5F6665F3
:1012F0006564726174653E00205400205200202015
:101300004D323034205000416363656C6572617406
:10131000696F6E2028756E6974732F7332293A20B5
:10132000503C7072696E745F616363656C3E2052FD
:101330003C726574726163745F616363656C3E20C7
:10134000543C74726176656C5F616363656C3E0AE0
:1013500000204500205A0020590020204D32303115
:101360002058004D6178696D756D20416363656C2F
:1013700065726174696F6E2028756E6974732F735E
:1013800032293A0A00204500205A00205900202026
:101390004D3230332058004D6178696D756D20668F
:1013A00065656472617465732028756E6974732F46
:1013B00073293A0A00204500205A002059002020B5
:1013C0004D39322058005374657073207065722057
:1013D000756E69743A0A0020204D32303020443056
:1013E0000A0020204D3230302044002044697361CF
:1013F000626C65640A0046696C616D656E74207389
:10140000657474696E67733A0020204D3134392059
:1014100043203B20556E69747320696E2043656CD0
:10142000736975730A002020473231202020203B49
:10143000000A4D6561737572656420706F696E7422
:10144000733A0A005A206F66667365743A20004E3C
:10145000756D20582C593A20332C330A00000000B7
:1014600001000000010000800055555500000040BB
:101470000033333300AAAA2A004992240000002036
:1014800000C7711C0099991900D1451700555515D1
:10149000003BB1130024491200111111000000108B
:1014A000000F0F0F00E3380E0043790D00CCCC0C79
:1014B00000C3300C00E8A20B0064210B00AAAA0AAA
:1014C00000703D0A009DD80900427B090092240962
:1014D00000DCD308008888080010420800000008DB
:1014E00000F0C107008787070075500700711C07CF
:1014F000003EEB0600A1BC06006990060066660689
:1015000000703E06006118060017F4050074D1054E
:10151000005BB00500B290050062720500555505EC
:101520000078390500B81E0500050505004EEC04DD
:101530000087D40400A1BD040090A70400499204D0
:1015400000C17D0400EE690400C756040044440451
:10155000005C320400082104004110040000000473
:10156000003FF00300F8E0030026D20300C3C303EA
:1015700000CCB503003AA803000A9B0300388E0391
:1015800000C08103009F750300D0690300505E0313
:10159000001D53030034480300913D03003333031F
:1015A0000016290300381F030097150300300C03B1
:1015B00000030303000BFA020049F10200BAE8023B
:1015C000005CE002002DD802002DD0020059C802B4
:1015D00000B0C0020031B90200DAB10200AAAA02CA
:1015E00000A0A30200BC9C0200FA9502005C8F02DE
:1015F00000DF88020082820200457C02002776021A
:101600000027700200436A02007C640200D05E0280
:10161000003F590200C853020020746F6F206C6FA6
:101620006E6720657874727573696F6E207072656D
:1016300076656E7465640A0020636F6C642065785B
:1016400074727573696F6E2070726576656E7465FD
:10165000640A00FFFDFCFAF8F6F4F2F0EEECEAE9B9
:10166000E7E5E3E1E0DEDCDAD9D7D5D4D2D0CFCDDF
:10167000CBCAC8C7C5C3C2C0BFBDBCBAB9B7B6B470
:10168000B3B2B0AFADACAAA9A8A6A5A4A2A1A09ED2
:101690009D9C9A99989795949392908F8E8D8B8A12
:1016A0008988878684838281807F7E7D7B7A797832
:1016B00077767574737271706F6E6D6C6B6A696832
:1016C00067666564636261605F5E5D5C5B5A595822
:1016D000585756555453525150504F4E4D4C4B4AFB
:1016E0004A4948474646454443424241403F3E3EC0
:1016F0003D3C3B3B3A393838373635353433323276
:101700003130302F2E2E2D2C2B2B2A29292827271C
:1017100026252524232322212120201F1E1E1D1CB7
:101720001C1B1B1A19191818171616151514131344
:1017300012121111100F0F0E0E0D0D0C0C0B0A0AC8
:101740000909080807070606050504040303020241
:1017500001000024F4D43050C38E20C2A24017826E
:101760008B7011127A910D816CD90AA861E108C7BA
:10177000586607615143061E4B5D05C145A7041A13
:10178000411104093D9803713931034036DB02658C
:10179000339102D4305402802E1D02632CEE017569
:1017A0002AC501B028A001102781018F2564012BD3
:1017B000244B01E0223401AC211F018D200D01805A
:1017C0001FFC00841EED00971DDF00B81CD200E650
:1017D0001BC600201BBC00641AB200B219A8000A84
:1017E00019A0006A189900D117910040178B00B515
:1017F00016840031167E00B31579003A157300C7C0
:10180000146F0058146A00EE1366008813630025F5
:10181000135E00C7125B006C12570015125400C112
:1018200011510070114F0021114B00D61049008D4D
:101830001047004610440002104200C00F400080D4
:101840000F3E00420F3C00060F3B00CB0E380093CA
:101850000E37005C0E3500270E3400F30D3200C148
:101860000D3100900D3000600D2E00320D2D000561
:101870000D2C00D90C2B00AE0C2900850C29005C26
:101880000C2700350C27000E0C2600E80B2400C4A2
:101890000B2400A00B23007D0B23005A0B210039E1
:1018A0000B2100180B2000F80A1F00D90A1E00BBEC
:1018B0000A1E009D0A1D00800A1D00630A1C0047C5
:1018C0000A1B002C0A1B00110A1A00F7091A00DD76
:1018D000091900C4091900AB091900920917007B06
:1018E000091800630917004C091600360916002074
:1018F0000916000A091500F5081500E0081400CCC7
:10190000081400B8081400A4081400900813007DFF
:101910000812006B08130058081200460812003421
:10192000081100230811001208110001081100F02D
:10193000071000E0071000D0071000C0071000B02B
:10194000070F00A107100091070E0083070F007416
:10195000070F0065070E0057070E0049070E003BF2
:10196000070D002E070E0020070D0013070D0006BF
:10197000070D00F9060C00ED060D00E0060C00D482
:10198000060C00C8060C00BC060C00B0060C00A437
:10199000060B0099060C008D060B0082060B0077E3
:1019A000060B006C060B0061060A0057060B004C84
:1019B000060A0042060A0038060A002E060A00241B
:1019C000060A001A060A001006090007060A00FDAA
:1019D000050900F4050900EB050900E2050900D935
:1019E000050900D0050900C7050900BE050900B5B5
:1019F000050800AD050800A50509009C0508009430
:101A00000508008C050800840508007C05080074A2
:101A10000508006C050700650508005D0507005610
:101A20000508004E05070047050700400508003877
:101A3000050700310507002A050700230507001CDC
:101A4000050600160507000F050700080506000239
:101A5000050700FB040600F5040700EE040600E895
:101A6000040600E2040700DB040600D5040600CFEC
:101A7000040600C9040600C3040600BD040600B73E
:101A8000040600B1040500AC040600A6040600A08C
:101A90000405009B04060095040500900406008AD6
:101AA00004050085040500800406007A040500751D
:101AB000040500700405006B040500660405006160
:101AC0000405005C04050057040500520405004DA0
:101AD00004050048040500430405003E0404003AE0
:101AE00004050035040500300404002C040500271B
:101AF000040400230405001E0404001A0404001654
:101B0000040500110404000D040400090405000488
:101B100004040000040400FC030400F8030400F4BF
:101B2000030400F0030400EC030400E8030400E4F1
:101B3000030400E0030400DC030400D8030400D421
:101B4000030400D0030400CC030400C8030300C551
:101B500003030024F404D9201BC40C5C0E9804C4B5
:101B6000095F0265077101F405F900FB04B3004841
:101B7000048700C10369005803550003034500BEF4
:101B8000023A008402310053022A0029022500048F
:101B9000022000E4011C00C8011900AF01170098E1
:101BA0000114008401130071011000610110005143
:101BB000010E0043010D0036010B002B010B00202C
:101BC000010B00150109000C01090003010800FBCD
:101BD000000800F3000800EB000700E4000600DE48
:101BE000000600D8000600D2000600CC000500C7A1
:101BF000000500C2000500BD000400B9000400B5E6
:101C0000000400B1000400AD000400A9000400A518
:101C1000000300A20003009F0004009B0003009843
:101C20000003009500020093000300900003008D64
:101C30000002008B0003008800020086000200847E
:101C4000000300810002007F0002007D0002007B93
:101C500000020079000200770001007600020074A3
:101C600000020072000100710002006F0002006DAE
:101C70000001006C0002006A0001006900020067B8
:101C800000010066000100650001006400020062BE
:101C900000010061000100600001005F0002005DC2
:101CA0000001005C0001005B0001005A00010059C6
:101CB00000010058000100570001005600010055C6
:101CC00000010054000100530000005300010052C5
:101CD00000010051000100500001004F0001004EC2
:101CE0000000004E0001004D0001004C0001004BBF
:101CF0000000004B0001004A0001004900010048BB
:101D000000000048000100470001004600000046B6
:101D100000010045000000450001004400010043AF
:101D200000000043000100420000004200010041A9
:101D300000000041000100400001003F0000003FA2
:101D40000001003E0000003E0001003D0000003D9B
:101D50000001003C0000003C0000003C0001003B92
:101D60000000003B0001003A0000003A0001003989
:101D70000000003900010038000000380000003881
:101D80000001003700000037000100360000003677
:101D9000000000360001003500000035000000356D
:101DA0000001003400000034000000340001003362
:101DB0000000003300000033000100320000003258
:101DC000000000320001003100000031000000314D
:101DD0000001003000000030000000300001002F42
:101DE0000000002F0000002F0000002F0001002E37
:101DF0000000002E0000002E0001002D0000002D2C
:101E00000000002D0000002D0001002C0000002C1F
:101E10000000002C0000002C0001002B0000002B13
:101E20000000002B0000002B0001002A0000002A07
:101E30000000002A0000002A0001002900000029FB
:101E400000000029000000290000002900010028EE
:101E500000000028000000280000002800000028E2
:101E600000010027000000270000002700000027D5
:101E700000000027000100260000002600000026C8
:101E800000000026000000260001002500000025BB
:101E900000000025000000250000002500000025AE
:101EA00000010024000000240000002400000024A1
:101EB0000000002400010023000000230000002394
:101EC0000000002300000023000000230000002386
:101ED0000001002200000022000000220000002279
:101EE000000000220000002200010021000000216B
:101EF000000000210000002100000021000000215E
:101F0000000000210001002000000020000000204F
:101F10000000002000000020000000200000002041
:101F2000000000200001001F0000001F0000001F33
:101F30000000001F0000001F0000001F0000001F25
:101F40000001001E0000001E0000001E0000001E18
:101F5000000000393000003325000087190000B070
:101F60000F0000DB080000BD040000740200003F09
:101F70000100006265640A002C2073797374656D3A
:101F80002073746F70706564212048656174657298
:101F90005F49443A20004265642068656174696E57
:101FA00067206661696C65640048656174696E6785
:101FB000206661696C65640045312048656174691B
:101FC0006E67206661696C65640048656174696E5E
:101FD00067206661696C6564001000600350012C25
:101FE0000190012201D001180110020E01700204BB
:101FF00001E002FA006003F0000004E600B004DC37
:1020000000A005D200B006C8000008BE00A009B4B8
:1020100000800BAA00D00DA00090109600C0138C79
:102020000070178200901B780010206E00C024649E
:1020300000E02D500080353C00A03A2800A03D145F
:1020400000003F0000A03FECFF4531204572723A8E
:10205000204D415854454D50004572723A204D4133
:102060005854454D5020424544004D415854454D2B
:102070005020747269676765726564004531204558
:1020800072723A204D494E54454D50004572723A95
:10209000204D494E54454D5020424544004D494E37
:1020A00054454D5020747269676765726564004DD0
:1020B000383420582059205A204500202F00204233
:1020C000403A0020403A0025753A25303275002507
:1020D0003032753A2530327500257564202530324E
:1020E000753A2530327500202020202020005A002B
:1020F0005900202020200058000920000000000086
:1021000000000000000000003FFFF00000000000A1
:102110000000000000000038007000000000000017
:1021200000000000000030FC300000000000000053
:10213000000000000020FC10000000000000000073
:1021400000000000207810000000000000000000E7
:10215000000000203010000000000000000000001F
:1021600000002C00D03FC0000000000000002082D2
:10217000002E31D07FE00000000000000010410080
:102180002F7BD07FE0000000000000001041002FF6
:102190007BD07FE0000000000000002082002E3194
:1021A000D03FC0000000000000004104002C00D01F
:1021B0003FC0000000000000008208002030107FB7
:1021C000E0000000000000008208002078107FE09E
:1021D0000000000000000041040020FC107FE0002F
:1021E00000000000000020820030FC301F80000052
:1021F00000000000000000003800700F0000000028
:1022000000000000FFFFC03FFFF0060000000000DC
:10221000000000FFFFC00000000000000000000000
:1022200000000000003FFFF0000000000000000080
:1022300000000000380070000000000000000000F6
:1022400000000031863000000000000000000000A7
:1022500000002387100000000000000000000000C4
:102260000027879000000000000000000000000030
:102270002F87D00000000000000000000000002FA9
:1022800003D03FC00000000000000020820020308A
:10229000107FE000000000000000104100207810D6
:1022A0007FE0000000000000001041002078107F57
:1022B000E0000000000000002082002030103FC03D
:1022C000000000000000004104002F03D03FC000C8
:1022D0000000000000008208002F87D07FE000008F
:1022E00000000000008208002787907FE0000000C7
:1022F000000000004104002387107FE00000000080
:102300000000002082003186301F800000000000A5
:1023100000000000003800700F0000000000000006
:1023200000FFFFC03FFFF0060000000000000000BB
:10233000FFFFC00000004A756C696120496E74653A
:10234000726D6564696174652052656164792E00FF
:102350005072696E74696E672E2E2E005072696E0F
:102360007420706175736564007265636F76657261
:102370007920696E666F00616E6420666C757368A3
:102380000072657374617274207072696E74657224
:1023900000436C69636B206469616C20746F004654
:1023A00061696C656420726573737572656374200E
:1023B00066696C653A20004D3331004D3234004D72
:1023C0003233202573004F70656E696E6720726529
:1023D000737375726563742066696C653A20005387
:1023E000746F70207072696E7400526573756D65DC
:1023F000207072696E74005072696E742061626F31
:1024000072746564004E6F205344206361726400EF
:102410005072696E742066726F6D2053440053745D
:102420006F70207072696E7400526573756D6520EF
:102430007072696E740041626F7574205072696EBB
:10244000746572005061757365207072696E7400F6
:10245000436F6E74726F6C005072657061726500CC
:1024600054756E65004265642043616C69627261F7
:1024700074696F6E004261627973746570205A00EE
:1024800054756E65204D657368205A00496E666FFD
:102490002073637265656E0054756E65204D6573BB
:1024A00068205A004261627973746570205A004353
:1024B00068616E67652066696C616D656E74004366
:1024C00068616E67652066696C616D656E74004D4C
:1024D000363030204230004261627973746570207A
:1024E0005A00466C6F7700466C6F770046616E202D
:1024F00073706565640046616E2073706565640085
:1025000042656400426564004E6F7A7A6C65004EE5
:102510006F7A7A6C6500426564205A0042656420D7
:102520005A005370656564005370656564004D61C1
:10253000696E005072656865617420504C41204599
:102540006E64005072656865617420504C41204291
:102550006564005072656865617420504C4100509C
:1025600072657061726500507265686561742041C2
:10257000425320456E640050726568656174204165
:102580004253204265640050726568656174204161
:1025900042530050726570617265004C6576656CDF
:1025A000696E6720446F6E6521004D6F7665205A15
:1025B00000473239205332004E65787420506F69DD
:1025C0006E74002569202F2025750047323920536D
:1025D000310047323920533200436C69636B2074F9
:1025E0006F20426567696E00486F6D696E6720589D
:1025F000595A004732380053746F726520736574FE
:1026000074696E6773004C6F6164207365747469DC
:102610006E677300426564205A00426564205A0068
:102620004F6666004F6E2000426564204C657665FB
:102630006C696E67004C6576656C2062656400505D
:10264000726570617265004D343238005072656891
:1026500065617420504C4100436F6F6C646F776EFE
:10266000005072656865617420414253004368619F
:102670006E67652066696C616D656E7400436861A4
:102680006E67652066696C616D656E74004D3630ED
:10269000302042300044697361626C652073746558
:1026A0007070657273004D38340053657420686F24
:1026B0006D65206F66667365747300426564204CB7
:1026C0006576656C696E67004175746F20686F6D23
:1026D0006500473238004D6F766520617869730078
:1026E0004D61696E004D6F76652058004D6F7665BF
:1026F0002059004D6F7665205A00457874727564D4
:102700006572004D6F766520302E316D6D004D6F16
:10271000766520316D6D004D6F76652031306D6DC1
:10272000004D6F7665206178697300457874727525
:10273000646572004D6F7665205A004D6F76652096
:1027400059004D6F76652058004578747275646540
:1027500072004D6F7665205A004D6F7665205900E6
:102760004D6F766520580050726570617265004348
:102770006F6D706C657465642100416476616E6391
:102780006564204C6576656C696E67004732380079
:102790004D343230205330205A30006E657874202A
:1027A0003420706F696E74730074686520646961A9
:1027B0006C20617420746865006E6F7A7A6C652095
:1027C0007768696C65207475726E696E6700536C0A
:1027D000696465206120706170657220756E646542
:1027E0007200436F6D706C6574656421005175698A
:1027F000636B204C6576656C696E67004732380004
:102800004D343230205330205A3000616E642063E2
:102810006C69636B20746865206469616C006B6E21
:102820006F6220636C6F636B77697365004C6F63D5
:102830006B206261636B206C6576656C696E670006
:10284000473120583130302059313937205A300043
:102850004731205831303020593139370047312045
:102860005A323000473120463930303000616E64D2
:1028700020636C69636B20746865206469616C0017
:102880006B6E6F6220636C6F636B77697365004C6E
:102890006F636B206C656674206C6576656C696E21
:1028A00067004731205832352E3620593231205AB0
:1028B00030004731205832352E362059323100470A
:1028C00031205A32300047312046393030300061F3
:1028D0006E6420636C69636B207468652064696151
:1028E0006C006B6E6F6220636C6F636B77697365EE
:1028F000004C6F636B207269676874206C65766545
:102900006C696E67004731205831373120593231B8
:10291000205A3000473120583137312059323100A8
:10292000473120463930303000616E6420636C6975
:10293000636B20746865206469616C006B6E6F6204
:102940007320616E74692D636C6F636B7769736557
:1029500000556E6C6F636B20616C6C206C657665E6
:102960006C696E6700473120583130302059313062
:1029700030205A353000436C69636B20746F2042FD
:102980006567696E00486F6D696E672058595A0017
:102990004732380047323800416476616E636564BF
:1029A000204C6576656C696E6700517569636B20B4
:1029B0004C6576656C696E67004D61696E00496EA5
:1029C000697469616C697A6520454550524F4D00C4
:1029D000436F6E74726F6C00526573746F72652012
:1029E0006661696C73616665004C6F616420736534
:1029F0007474696E677300496E697469616C697A91
:102A00006520454550524F4D0053746F72652073D9
:102A1000657474696E67730046696C616D656E7488
:102A2000004D6F74696F6E0054656D7065726174EE
:102A3000757265004D61696E0050726568656174FC
:102A40002041425320636F6E660050726568656175
:102A50007420504C4120636F6E66005049442D44F1
:102A6000005049442D44005049442D4900504944E8
:102A70002D49005049442D50005049442D5000200C
:102A800008204661637400200820466163740020BA
:102A900008204D6178002008204D61780020082032
:102AA0004D696E002008204D696E004F6666004F2C
:102AB0006E20004175746F74656D700046616E2004
:102AC00073706565640046616E20737065656400AF
:102AD00042656400426564004E6F7A7A6C65004E10
:102AE0006F7A7A6C6500436F6E74726F6C0053740A
:102AF0006F72652073657474696E677300426564F4
:102B000000426564004E6F7A7A6C65004E6F7A7A87
:102B10006C650046616E2073706565640046616E89
:102B20002073706565640054656D706572617475BD
:102B30007265005654726176206D696E005654724B
:102B40006176206D696E00566D696E00566D696E16
:102B500000566D6178204500566D6178204500561D
:102B60006D6178205A00566D6178205A00566D616B
:102B700078205900566D6178205900566D61782093
:102B80005800566D61782058004D6F74696F6E0063
:102B9000416D6178204500416D6178204500416DAF
:102BA0006178205A00416D6178205A00416D61784A
:102BB000205900416D6178205900416D617820589D
:102BC00000416D6178205800412D74726176656C0A
:102BD00000412D74726176656C00412D72657472CE
:102BE00061637400412D72657472616374004163A6
:102BF00063656C00416363656C004D6F74696F6E53
:102C0000004A756E6374696F6E20446576004A757C
:102C10006E6374696F6E20446576004D6F74696FE2
:102C20006E004573746570732F6D6D004573746528
:102C300070732F6D6D005A73746570732F6D6D0016
:102C40005A73746570732F6D6D005973746570736A
:102C50002F6D6D005973746570732F6D6D0058730F
:102C6000746570732F6D6D005873746570732F6D7C
:102C70006D004D6F74696F6E0053746570732F6DC6
:102C80006D004A65726B00416363656C65726174C7
:102C9000696F6E0056656C6F6369747900436F6E7F
:102CA00074726F6C004C6F6164206D6D004C6F61CD
:102CB00064206D6D00556E6C6F6164206D6D005504
:102CC0006E6C6F6164206D6D0046696C2E204469E6
:102CD000612E0046696C2E204469612E004F6666A5
:102CE000004F6E20004520696E206D6D3300436FEC
:102CF0006E74726F6C0043616E6E6F7420656E74DB
:102D00006572207375626469723A2000022E2E008B
:102D10004D61696E00004578747275646564207455
:102D20006F74616C3A2000256C642E25696D00007B
:102D30004C6F6E67657374206A6F622074696D658D
:102D40003A200000546F74616C207072696E7420B8
:102D500074696D653A2000436F6D706C65746564CD
:102D60003A20005072696E7420436F756E743A2079
:102D7000004D61782054656D703A20313530004D3A
:102D8000696E2054656D703A203500544265643A8E
:102D90004D656E64656C2D7061727473004D617861
:102DA0002054656D703A20323735004D696E2054DD
:102DB000656D703A20350054303A204D656E64657B
:102DC0006C2D7061727473005053553A2047656ED4
:102DD000657269630050726F746F636F6C3A203173
:102DE0002E3000426175643A203131353230300086
:102DF0004D4B532047454E203E3D2076312E33002B
:102E00004D657368204C6576656C696E6700457822
:102E1000747275646572733A2031004A31384742E2
:102E20005F3230303933305F313131305F4841000B
:102E30004A756C696120496E7465726D656469617B
:102E400074650068747470733A2F2F667261636BD7
:102E500074616C2E696E00467261636B74616C20E4
:102E6000576F726B73004D61726C696E20312E3139
:102E70002E39005072696E746572205374617473D8
:102E800000546865726D6973746F727300426F618C
:102E9000726420496E666F005072696E74657220AC
:102EA000496E666F004D61696E004D3730322054B7
:102EB0002564004D36303020423020542564004DCA
:102EC000373032203B2564004D37303120542564A3
:102ED000004368616E67652066696C616D656E743C
:102EE00000507265686561742041425300507265FC
:102EF0006865617420504C41004368616E676520CD
:102F000066696C616D656E74005052494E54205074
:102F1000415553454400554E4C4F41442046494C81
:102F2000414D454E54004C4F41442046494C414D83
:102F3000454E54005075726765206D6F7265004391
:102F40006F6E74696E756500524553554D45204F3F
:102F50005054494F4E533A0020204E6F7A7A6C6598
:102F60003A20006368616E6765006F66207468656B
:102F70002066696C616D656E7400576169742066C6
:102F80006F722073746172740020204E6F7A7A6CB5
:102F9000653A2000200066696C616D656E7420756D
:102FA0006E6C6F6164005761697420666F720020F7
:102FB000204E6F7A7A6C653A20002000506C656173
:102FC000736520776169742E2E2E004865617469DF
:102FD0006E67206E6F7A7A6C650020204E6F7A7A69
:102FE0006C653A2000200068656174206E6F7A7A03
:102FF0006C652E00507265737320627574746F6E09
:1030000020746F0020204E6F7A7A6C653A2000742D
:103010006F20636F6E74696E75652E2E2E00616E63
:103020006420707265737320627574746F6E0049EA
:103030006E736572742066696C616D656E740020D4
:10304000204E6F7A7A6C653A2000200066696C61C8
:103050006D656E74206C6F616400576169742066E1
:103060006F720020204E6F7A7A6C653A2000200043
:1030700066696C616D656E74207075726765005766
:1030800061697420666F7200746F20726573756D6C
:1030900065005761697420666F72207072696E7482
:1030A00000436172642072656D6F766564004361F0
:1030B000726420696E73657274656400FFE0FFD10D
:1030C0001000FFFEFFD0FFE0FFC1FFD1E240A0C82B
:1030D000A6A22FF800238127AC00AFFF64A5FF64F0
:1030E000FF64A4FFD0FFFE00002100240027002A77
:1030F000002D003000330001010000040107010A27
:103100000100002200250028002B002E0031003491
:103110000002010000050108010B0100002000234E
:1031200000260029002C002F0032000001000003BF
:10313000010601090105050505070508080808023B
:103140000202020A0A080804040404010101010140
:103150000101010303030303030303040707070C2F
:103160000C0C0C0C0C0C0C020202020606060606E5
:103170000606060B0B0B0B0B0B0B0B010210202092
:1031800008081020401020408002010201080402BB
:103190000101020408102040808040201008040231
:1031A000018004020180402010080402010804028A
:1031B0000101020408102040800102040810204090
:1031C0008000000A0B02090C0D0E08070304010021
:1031D00000000000000000000000000000000000EF
:1031E00000000000000000000000000000121110AC
:1031F00000000000000000000000000000000000CF
:1032000000000000000000020000000000000000BC
:1032100000000000000000000000000000000000AE
:10322000000000000000000000000000000000009E
:1032300000000000000000000000000000001F0F60
:10324000C0000000000000000000000000007F87B8
:10325000F0000000000000000000000000007FC738
:10326000F800000000000000000000000000FFE384
:10327000FC00000000000000000000000001FFF161
:10328000FC00000000000000000000000003FFF050
:10329000FE00000000000000000000000007FFF832
:1032A0007F00000000000000000000000007FFFC9D
:1032B0007F8000000000000000000000000FE1FE21
:1032C0003F8000000000000000000000001F807F21
:1032D0001FC000000000000000000000003F9E3FF3
:1032E0000FE000000000000000000000003F1F3F52
:1032F0008FF000000000000000000000007E3F1F73
:10330000C7F80000000000000000000000FC7F8FF4
:10331000E3F80000000000000000000001F8FF8753
:10332000F1FC0000000000000000000003F9FF07AE
:10333000F0FE0000000000000000000003F00603A3
:10334000F8FF0000000000000000000007F000018E
:10335000FC7F800000000000000000000FF8FE006D
:10336000FE20000000000000000000001FF87F00A9
:103370007E00000000000000000000001FFC7F80B5
:103380007E3F800000000000000000003FFE3F8004
:103390003C7F000000000000000000007FFF1FC015
:1033A00018E000000000000000000000FE7F0FE0B9
:1033B00001C1F8000000000000000000FC3F8FF099
:1033C0000381FC000000000000000001F81FC7F8A6
:1033D0000010FE000000000000000003F18FE3F881
:1033E0000038FF000000000000000007E3C7E1F024
:1033F000003C7F00000000000000000FE7E7F00045
:10340000007E3F80000000000000000FC7F3F07C4A
:10341000007E1FC0000000000000001F8FF1E3FCD1
:10342000007F0FE0000000000000003F1FF0C70019
:10343000003F8FF0000000000000007F3FE04E01E1
:10344000C01FC7F0000000000000007E3FE01E1F0C
:10345000E00FE3F8000000000000007C7FC0100FC8
:10346000E007E1FC0000000000000038F00000C7A9
:10347000F007F1FE0000000000000039800001C3E9
:10348000F803F8FF000000000000001307F003E35A
:10349000FC01FC7F000000000000000307F803F1BE
:1034A000FE00FC3F800000000000000063F803F80D
:1034B000FE007E1FC00000000000000071FC01F84B
:1034C0007F007F1FE000000000000000F0FE00FC15
:1034D0007F803F8FE000000000000001F87F007E49
:1034E0003FC01FC7F000000000000001FC7F807F8C
:1034F0001FC00FC3F800000000000000FE3F803F27
:103500008FE007E3FC000000000000007F1FC01FE9
:1035100087F007F1FC000000000000003F0FE00012
:1035200007F80003FE000000000000003F87F000E5
:1035300007FC0007FF000000000000001FC7FE0F8F
:10354000FFFFFFFFFF000000000000000FE3FFFF90
:10355000FFFFFFFFFF0000000000000007F1FFFF7A
:10356000FFFFFFFFFF0000000000000003F0FFFF6F
:10357000FFFFFFFFFF0000000000000003F83FFF17
:10358000FFFFFFFFFC0000000000000001FC000046
:1035900000000000000000000000000000FF8000AC
:1035A000000000000000000000000000007FFFFF9E
:1035B000FFFFFFFFF000000000000000003FFFFFE2
:1035C000FFFFFFFFF000000000000000001FFFFFF2
:1035D000FFFFFFFFE000000000000000000FFFFF02
:1035E000FFFFFFFFC000000000000000000000001F
:1035F00000000000000000000000000000000000CB
:1036000000000000000000000A00494E56414C49ED
:103610004420444154410A005072696E742052653E
:1036200073746F726520446562756720456E640A25
:10363000007072696E745F6A6F625F656C6170734F
:1036400065643A20007364706F733A200073645F9E
:1036500066696C656E616D653A20003E2000636F9F
:103660006D6D616E64735F696E5F71756575653AE6
:103670002000636D645F71756575655F696E646573
:10368000785F723A200020666164653A20006C65BC
:1036900076656C696E673A20007461726765745F65
:1036A00074656D70657261747572655F6265643AA8
:1036B00020003A200066616E537065656473003ABD
:1036C00020007461726765745F74656D7065726106
:1036D0007475726500666565647261746520253A6B
:1036E00020003A200063757272656E745F706F73AC
:1036F0006974696F6E002076616C69645F666F6FD4
:10370000743A0076616C69645F686561643A005080
:1037100072696E7420526573746F726520446562BD
:1037200075672053746172740A000A004D323700C5
:103730004D3234004D32362053256C75004D3233F6
:10374000202573004D3232302053257300494E56E8
:10375000414C494420524553544F52452042494E12
:10376000004731205A2573004731205925730047FF
:10377000312046313230302058257300473932200D
:103780004525730047393220463230302045350018
:103790004731204632303020453500473932204508
:1037A00030004731205A2573004D343230205331D8
:1037B00000473238004D343230205330205A300028
:1037C0004D3131372052657374617274696E6720B0
:1037D0002573004D3130362050256920532569006E
:1037E0004D31303920532569004D31393020532572
:1037F00069004D31303420532569004D313430207B
:10380000532569004C6F61646564207072696E7441
:103810005F726573746F72655F696E666F0A0049E7
:103820006E6974206A6F62207265636F7665727963
:1038300020696E666F2E2053697A653A20005072B7
:10384000696E7420526573746F72652047636F648C
:10385000652066696C653A20002020506C616E6EB0
:10386000657242756666657242797465733A2000C6
:103870002046726565204D656D6F72793A20004370
:103880006F6D70696C65643A204F6374202031203D
:10389000323032300A00207C20417574686F723AF1
:1038A00020467261636B74616C20576F726B730A90
:1038B00000323032302D30392D33302031313A3131
:1038C0003000204C61737420557064617465643AF3
:1038D00020004275696C643A204A313847425F32B1
:1038E00030303933305F313131305F48410A004682
:1038F0007261636B74616C20576F726B73204A75D1
:103900006C696120496E7465726D65646961746586
:103910000A00312E312E390A004D61726C696E0039
:1039200020536F6674776172652052657365740AFF
:1039300000205761746368646F6720526573657413
:103940000A002042726F776E206F75742052657383
:1039500065740A002045787465726E616C2052654A
:103960007365740A00506F77657255700A0073743E
:103970006172740A006175746F25692E6700456E67
:103980006473746F70732025632025632025632082
:10399000256300205A3A0020593A0020583A006521
:1039A0006E6473746F7073206869743A2000446F9A
:1039B0006E6520736176696E672066696C652E0A94
:1039C000004D3239005265636F7665727920424945
:1039D0004E2064656C657465642E0A005265636FE1
:1039E000766572792042494E2064656C6574652065
:1039F0006661696C65642E0A004D3234004D3233C5
:103A000020257300556E6B6E6F776E20636F6D6D42
:103A1000616E643A202200486F74656E6420746F92
:103A20006F20636F6C640A006572726F7220777228
:103A30006974696E6720746F2066696C650A00445A
:103A4000656C6574696F6E206661696C65642C20B5
:103A500046696C653A200046696C652064656C6552
:103A60007465643A00486F6D65202573257325736E
:103A7000206669727374002066697273740A005A52
:103A80000059005800486F6D652000534420636161
:103A90007264206F6B0A006F70656E526F6F7420D6
:103AA0006661696C65640A00766F6C756D652E6978
:103AB0006E6974206661696C65640A00534420690C
:103AC0006E6974206661696C0A0057726974696E68
:103AD0006720746F2066696C653A20006F70656EB0
:103AE000206661696C65642C2046696C653A20002B
:103AF0006F70656E206661696C65642C2046696C28
:103B0000653A200046696C652073656C6563746571
:103B1000640A002053697A653A200046696C652082
:103B20006F70656E65643A20002066696C653A20A6
:103B300000646F696E67006672657368004E6F7728
:103B40002000454E4420535542524F5554494E454E
:103B50000A002220706F73002220706172656E74FB
:103B60003A2200535542524F5554494E4520434145
:103B70004C4C207461726765743A22004B494C4C7E
:103B800045442E2000747279696E6720746F20633B
:103B9000616C6C207375622D67636F646520666964
:103BA0006C6573207769746820746F6F206D616E27
:103BB00079206C6576656C732E204D4158206C65BC
:103BC00076656C2069733A004572726F723A006FC5
:103BD00070656E206661696C65642C2046696C6551
:103BE0003A200043616E6E6F74206F70656E2073B3
:103BF000756264697220006563686F3A005265639C
:103C00006F766572792042494E207772697465201B
:103C10006661696C65642E0A006F70656E2066616E
:103C2000696C65642C2046696C653A20005772699E
:103C300074696E6720746F2066696C653A20004570
:103C40003120544845524D414C2052554E41574128
:103C5000590042454420544845524D414C2052554C
:103C60004E4157415900546865726D616C20527520
:103C70006E617761790000060900FE070192032159
:103C8000207FFF07FF07FF00000006000001070775
:103C90000602008080808080008003020206010509
:103CA000A0A00507070600005050F850F850500536
:103CB00007070600002078A07028F02005070706F7
:103CC0000000C0C8102040981805070706000060D3
:103CD00090A040A89068020303060104C04080033E
:103CE0000707060100204080808040200307070668
:103CF00001008040202020408005050506000120AD
:103D0000A870A8200505050600012020F820200243
:103D100003030602FFC04080050101060003F8020C
:103D20000202060200C0C0050505060001081020B9
:103D3000408005070706000070888888888870031F
:103D4000070706010040C040404040E00507070665
:103D50000000708808708080F8050707060000F8EA
:103D60001020100808F005070706000010305090DA
:103D7000F81010050707060000F880F008088870A2
:103D8000050707060000708080F088887005070727
:103D9000060000F808102020202005070706000074
:103DA000708888708888700507070600007088880A
:103DB00078080870020505060200C0C000C0C002F5
:103DC00006060602FFC0C000C040800407070600C8
:103DD0000010204080402010050303060002F80078
:103DE000F8040707060100804020102040800507E6
:103DF000070600007088081020002005070706004D
:103E00000070880868A8A870050707060000708879
:103E100088F8888888050707060000F08888F088F9
:103E200088F005070706000070888080808870058C
:103E30000707060000F08888888888F005070706CD
:103E40000000F88080F08080F8050707060000F881
:103E50008080F0808080050707060000708880B8A9
:103E6000888870050707060000888888F888888891
:103E70000107070602008080808080808005070798
:103E800006000038101010109060050707060000AB
:103E90008890A0C0A0908805070706000080808059
:103EA000808080F805070706000088D8A8888888E1
:103EB000880507070600008888C8A898888805072D
:103EC0000706000070888888888870050707060044
:103ED00000F08888F0808080050707060000708861
:103EE0008888A89068050707060000F08888F0A079
:103EF0009088050707060000788080700808F005A4
:103F00000707060000F820202020202005070706CC
:103F10000000888888888888700507070600008860
:103F200088888888502005070706000088888888C8
:103F300088A8500507070600008888502050888808
:103F400005070706000088888850202020050707FD
:103F5000060000F80810204080F80307070601005B
:103F6000E08080808080E00505050600018040201B
:103F70001008030707060100E02020202020E005AC
:103F80000303060004205088050101060000F80222
:103F9000020206020580400505050600007008784B
:103FA00088780507070600008080B0C88888F0057B
:103FB0000505060000708080887005070706000070
:103FC000080868988888780505050600007088F854
:103FD00080700507070600003048E040404040057B
:103FE00006060600FF708888780870050707060037
:103FF000008080B0C888888801070706020080001A
:1040000080808080800308080601FF200020202097
:1040100020A040040707060000808090A0C0A09068
:10402000030707060100C04040404040E005050589
:10403000060000D0A8A8A8A8050505060000B0C87D
:104040008888880505050600007088888870050640
:10405000060600FFF08888F080800506060600FF4F
:10406000788888780808050505060000B0C88080B3
:104070008005050506000070807008F0040707063B
:1040800000004040E0404040300505050600008843
:1040900088889868050505060000888888502005EE
:1040A00005050600008888A8A8500505050600003B
:1040B00088502050880506060600FF888888780802
:1040C00070050505060000F8102040F803070706F4
:1040D0000100204040804040200107070602008088
:1040E0008080808080800307070601008040402098
:1040F00040408005020206000268900000000600B1
:104100000000060900FE000000000001090008FE92
:10411000000005080806000040F0C888889878105C
:10412000050808060000C0F88888888888F8050512
:10413000050600012030F8302005080806000020A0
:1041400070F820202020E00509090600FF2070A853
:10415000A8B8888870200509090600FFE080C0B073
:10416000A8283028280509090600FFF8A8888888AB
:104170008888A8F8050A0A0600FE2050505050888A
:10418000A8A8887003030306000340A04000B801FC
:10419000080111241FBECFEFD1E2DEBFCDBF00E08A
:1041A0000CBF13E0A0E0B2E0E8E1FBE502E00BBFEA
:1041B00002C007900D92A838B107D9F728E1A8E806
:1041C000B3E001C01D92A133B207E1F710E2C8ECE1
:1041D000D0E200E006C021970109802FFE010F9474
:1041E000C52CC73CD10780E00807A9F70F947717C3
:1041F0000D947A2D0C940000CF92DF92EF92FF92F3
:10420000CF93DF93EC01C090960BD090970BE0908A
:10421000980BF090990BA7019601688179818A81AA
:104220009B810F94FC2487FF04C0C882D982EA8254
:10423000FB82C0909A0BD0909B0BE0909C0BF0906F
:104240009D0BA70196016C817D818E819F810F94CA
:10425000FC2487FF04C0CC82DD82EE82FF82C09006
:104260001602D0901702E0901802F0901902A701F0
:104270009601688179818A819B810F94BE2B1816E3
:1042800024F4C882D982EA82FB82C0901A02D090BC
:104290001B02E0901C02F0901D02A70196016C81A8
:1042A0007D818E819F810F94BE2B181624F4CC82C1
:1042B000DD82EE82FF82C0909E0BD0909F0BE0903B
:1042C000A00BF090A10BA7019601688579858A85DE
:1042D0009B850F94FC2487FF04C0C886D986EA8694
:1042E000FB86C0901E02D0901F02E0902002F0904A
:1042F0002102A7019601688579858A859B850F949F
:10430000BE2B181624F4C886D986EA86FB86DF9170
:10431000CF91FF90EF90DF90CF9008950F931F9370
:10432000CF93DF9394E0899FE00111248E0106571B
:10433000144FFE01EA5BF24FDE01A75DBA4F2D91EB
:104340003D914D915C9160817181828193810F9447
:104350005E29F8016083718382839383FE01EF54A9
:10436000FA4F85919591A591B491FE01EA56F44FCB
:1043700080839183A283B383FE01E354FA4F859136
:104380009591A591B491CA5EDD4F88839983AA83E4
:10439000BB83DF91CF911F910F9108959091560D9E
:1043A000E92FF0E0EE5AF24F80839F5F943040F4A3
:1043B0009093560D8091EA0E8F5F8093EA0E0895D8
:1043C0001092560DF7CF089590E080E0089580E1B7
:1043D000E8E5FDE0A5E3B5E001900D928A95E1F7EF
:1043E000089580E1E5E3F5E0A8E5BDE001900D92D8
:1043F0008A95E1F708958091E7049091E8042FEF02
:104400003FEF981751F0E92FF0E0E959FB4F208179
:1044100030E09F5F9F779093E804C90108958F92E1
:104420009F92AF92BF92CF92DF92EF92FF920F9343
:10443000CF93DF931F92CDB7DEB76C017B014901AB
:10444000809145055B01A40EB51E8823A1F0F601FD
:1044500080819181480F591F518340830F90DF91D4
:10446000CF910F91FF90EF90DF90CF90BF90AF90E2
:104470009F908F900895F601808191810F94D928A3
:10448000898390914605992311F0002311F0F701DB
:104490008083BE016F5F7F4FC4010E949EF2F601D0
:1044A00080819181019691838083FFEFEF1AFF0A4B
:1044B000EA14FB0401F7D2CFCF92DF92EF920F9371
:1044C0001F93CF93DF93CDB7DEB760970FB6F89405
:1044D000DEBF0FBECDBFE0900A0FE8E5FDE08085AE
:1044E0009185A285B385448155816681778100815C
:1044F00011812281338109831A832B833C834D836D
:104500005E836F83788789879A87AB87BC871D8690
:104510001E861F86188AAE01475F5F4FBE016B5F24
:104520007F4FCE0101960E9492E1CE010D966C0163
:1045300002E012E024E63DE0AE01475F5F4FBE01BE
:104540006B5F7F4F0C970E9474D060960FB6F89403
:10455000DEBF0FBECDBFDF91CF911F910F91EF90C6
:10456000DF90CF900895AF92BF92CF92DF92EF92FB
:104570000F931F93CF93DF93CDB7DEB760970FB63E
:10458000F894DEBF0FBECDBF5C018B010E94E72116
:10459000E0900A0F85E3C82E85E0D82E84E0E89EDF
:1045A000F0011124E05FFD4F208131814281538170
:1045B000F50160817181828193810F94582AF601FF
:1045C00024853585468557850F945E29F6016487D5
:1045D0007587868797871D861E861F86188A808125
:1045E0009181A281B38189839A83AB83BC838481C7
:1045F0009581A681B7818D839E83AF83B88780859F
:104600009185A285B38589879A87AB87BC87AE01E0
:10461000475F5F4FBE016B5F7F4FCE0101960E94E7
:1046200092E1CE010D966C0121E435E0AE01475FC9
:104630005F4FBE016B5F7F4F0C970E9474D00E944A
:10464000F1210E945EE060960FB6F894DEBF0FBEC7
:10465000CDBFDF91CF911F910F91EF90DF90CF9061
:10466000BF90AF9008952F923F924F925F926F92BA
:104670007F928F929F92AF92BF92CF92DF92EF92F2
:10468000FF920F931F93CF93DF9300D000D000D001
:104690001F92CDB7DEB72B013C012D833E834F83A4
:1046A000588747015801DA86C986809102029091A5
:1046B0000302A0910402B091050289839A83AB831F
:1046C000BC83D6011C9111960C91119712963C90C7
:1046D000129713962C9020E030E0A901612F702FE3
:1046E000832D922D0F94FC2481110AC0E6E2F0E1A3
:1046F00085919591A591B491182F092F3A2E2B2EC3
:10470000A50194016091600D7091610D8091620D21
:104710009091630D0F94FC2487FF16C0812F902F7A
:10472000A32DB22D8093020290930302A093040262
:10473000B09305028092600D9092610DA092620D7F
:10474000B092630D0E945C22E985FA85C080D18019
:10475000E280F38020E030E0A901C701B6010F94A8
:10476000FC24811107C085E5C82EDC2C85E0E82EED
:1047700083E4F82EC0920202D0920302E092040277
:10478000F09205024092580D5092590D60925A0DC8
:1047900070925B0D8D819E81AF81B88580935C0D99
:1047A00090935D0DA0935E0DB0935F0D0E945C220F
:1047B000A50194016091600D7091610D8091620D71
:1047C0009091630D0F94BE2B1816B4F4812F902F87
:1047D000A32DB22D8093020290930302A0930402B2
:1047E000B09305028092600D9092610DA092620DCF
:1047F000B092630D0E945C220E945EE089819A81E2
:10480000AB81BC818093020290930302A0930402C7
:10481000B09305022A960FB6F894DEBF0FBECDBF47
:10482000DF91CF911F910F91FF90EF90DF90CF908C
:10483000BF90AF909F908F907F906F905F904F90C0
:104840003F902F900895CF92DF92EF92FF920F93B7
:104850001F936A01E090600DF090610D0091620D70
:104860001091630DFB012081318142815381FC0154
:1048700060817181828193810E9433231F910F9106
:10488000FF90EF90DF90CF900895CF92DF92EF925C
:10489000FF920F931F936B01FC01E080F180028176
:1048A0001381E8E5FDE024813581468157816081EF
:1048B0007181828193810E9433231F910F91FF9018
:1048C000EF90DF90CF9008958F929F92AF92BF921A
:1048D000CF92DF92EF92FF920F931F93CF93DF93CC
:1048E000CDB7DEB72C970FB6F894DEBF0FBECDBFA5
:1048F0008B0140E050E068EC72E44D835E836F838F
:10490000788740E050E060EA70E449875A876B8717
:104910007C87FC018081813009F1823009F441C03B
:104920008090600D9090610DA090620DB090630D2D
:10493000F801C084D184E284F3849601A701B40114
:10494000C5010F94FC2487FD02C064017501C601F6
:10495000D70189839A83AB83BC8346C0BE01675F5E
:104960007F4FC80108960E944524B8016C5F7F4FB5
:10497000AE014B5F5F4FC8010E9423242C960FB6F7
:10498000F894DEBF0FBECDBFDF91CF911F910F9185
:10499000FF90EF90DF90CF90BF90AF909F908F905F
:1049A0000895F80120853185428553856091600D19
:1049B0007091610D8091620D9091630D0F945E294D
:1049C0006B017C0120E030E042E553E40F94FC24CD
:1049D00087FD06C0C12CD12C82E5E82E83E4F82E99
:1049E000C982DA82EB82FC82BE01675F7F4FCE0113
:1049F0000196B9CF8F929F92AF92BF92FF920F9381
:104A00001F93CF93DF9300D01F92CDB7DEB7F82E60
:104A1000662351F01092210410921D0410921E047E
:104A200010921F04109220040E94DEF84B015C01DA
:104A300080911D0490911E04A0911F04B091200448
:104A4000A5019401281B390B4A0B5B0BDA01C90144
:104A5000B7FD45C020912104F7FC13C04F2D0F2C4A
:104A6000000C550B4C5F5F4F822F022E000C990BF0
:104A700048175907A4F184EF91E0A0E0B0E02F15AA
:104A800024F488EE93E0A0E0B0E0880D991DAA1D03
:104A9000BB1D80931D0490931E04A0931F04B0932C
:104AA0002004022F017010E024E2209FC001219F0A
:104AB000900D901B112480599C4F9C838B8382E323
:104AC00090E09A838983BE016D5F7F4FCE0101968E
:104AD0000E9494F1809121048F5F809321040F90B4
:104AE0000F900F900F90DF91CF911F910F91FF903A
:104AF000BF90AF909F908F9008952F923F924F92CA
:104B00005F926F927F928F929F92AF92BF92CF925D
:104B1000DF92EF92FF920F931F93CF93DF9300D01A
:104B200000D0CDB7DEB79A8389830E94DEF8A981D1
:104B3000BA811696CD90DD90ED90FC901997C11436
:104B4000D104E104F10409F010C31C962C911C97C8
:104B5000222309F44DC01A96EC911A9721501C9605
:104B60002C931C9721E02E0F1A962C931A971D96C2
:104B70003C911D97231302C01A961C92F0E03196C7
:104B8000EE0FFF1FEE0FFF1F29813A81E20FF31F87
:104B9000C284D384E484F584D9011296CD92DD9247
:104BA000ED92FC9215976C0D7D1D811D911DF901F3
:104BB000668377838087918784819581892BC1F073
:104BC000FFB7FD83F894A981BA8112962D903C908D
:104BD00013972101712C612C14960D911C918091D9
:104BE00039028532F1F08F3F09F497C0FD81FFBF94
:104BF00026960FB6F894DEBF0FBECDBFDF91CF91E2
:104C00001F910F91FF90EF90DF90CF90BF90AF90EA
:104C10009F908F907F906F905F904F903F902F90DC
:104C20000895E7E0F2E3B491BE83B7FDDFCF61E022
:104C300085E20E941CF79E81992321F0AE81A2306B
:104C400009F0BEC14801B12CA12C60E072E18AE7F5
:104C500090E0A50198010F94A62C29833A834B83F9
:104C60005C8369017A01B1E0CB1AD108E108F1084F
:104C7000EFEFCE16D104E104F10409F00CF470C199
:104C800060E472E48FE090E0A50198010F94A62CF7
:104C900069017A01F1E0CF1AD108E108F1082E810B
:104CA000223009F011C182E03FEFC316D104E104C4
:104CB000F10409F00CF4B8C260E970ED83E090E013
:104CC000A50198010F94A62C69017A0181E0C81A08
:104CD000D108E108F10883E09FEFC916D104E1048F
:104CE000F10409F00CF4A0C268E478EE81E090E0F1
:104CF000A50198010F94A62C69017A0181E0C81AD8
:104D0000D108E108F1089FEFC916D104E104F104CC
:104D100011F00CF0FDC084E087C285E28093390277
:104D2000E7E0F2E324912E83822F2F3F09F45ECF38
:104D3000223009F469C060F4222381F1213009F4A2
:104D400045C087FD53CF61E085E20E941CF776CF16
:104D50003E81343009F49AC008F478C0353089F7C0
:104D6000109220011092210180912101886080938E
:104D7000210180912101816080932101EAE5F1E325
:104D8000E491F0E0EE0FFF1FEF5FFE4C85919491F0
:104D9000E0EAF1E3E491E093970349CF14BC15BC3A
:104DA00084B5826084BD85B5816085BDEAE5F1E3A7
:104DB000E491F0E0EE0FFF1FEF5FFE4C85919491C0
:104DC000E0EAF1E3E491E0939B0331CF109280009D
:104DD0001092810080918100886080938100809191
:104DE0008100816080938100EAE5F1E3E491F0E0E5
:104DF000EE0FFF1FEF5FFE4C85919491E0EAF1E327
:104E0000E491E0939A0313CF1092B0001092B10096
:104E10008091B00082608093B0008091B100816089
:104E20008093B100EAE5F1E3E491F0E0EE0FFF1FBB
:104E3000EF5FFE4C859194919093250D8093240D06
:104E4000E0EAF1E3E491E093260DF1CE10929000B8
:104E500010929100809191008860809391008091E0
:104E60009100816080939100EAE5F1E3E491F0E044
:104E7000EE0FFF1FEF5FFE4C85919491E0EAF1E3A6
:104E8000E491E093990383E08E83D1CE1092A00049
:104E90001092A1008091A10088608093A100809170
:104EA000A10081608093A100EAE5F1E3E491F0E0E4
:104EB000EE0FFF1FEF5FFE4C85919491E0EAF1E366
:104EC000E491E0939803B3CEAFEFCA16D104E104A6
:104ED000F10409F00CF472C068E478EE81E090E02F
:104EE000A50198010F94A62C69017A01B1E0CB1AB3
:104EF000D108E108F108EE81EE2309F461C1EFEF7A
:104F0000CE16D104E104F10411F00CF062C103CF1C
:104F100064E274EF80E090E0A50194010F94A62C68
:104F200069017A01F1E0CF1AD108E108F10885E0C2
:104F30002FEFC216D104E104F10409F008F474C1A2
:104F400062E17AE780E090E0A50194010F94A62C3D
:104F500069017A01A1E0CA1AD108E108F1084BC140
:104F600081E0AE81A11160C195B5987F892B85BD87
:104F70002FEF3FEFA90145284628472809F059C0DF
:104F8000BE81B23009F4E1C00CF0C8C0BB2309F403
:104F9000CDC0B13009F02ACED0928900C0928800ED
:104FA0002093A8033093A9034093AA035093AB0323
:104FB00080916F00826080936F0018CE82E0D1CF25
:104FC000B12CA12C60E072E18AE790E0A501980184
:104FD0000F94A62C69017A01B1E0CB1AD108E1083F
:104FE000F10891E0C114D104E1E0EE06F10484F08F
:104FF00068E478EE81E090E0A50198010F94A62C7A
:1050000069017A01F1E0CF1AD108E108F10893E0D3
:105010002E812130D9F480918100887F892B809363
:1050200081002FEF3FEFA90145284628472809F4C2
:10503000B3CF9801220F331FD1010F944E2928EED0
:1050400033E040E050E00F9421299ACF3E81333085
:10505000F9F480919100887F892B809391002FEF44
:105060003FEFA90145284628472819F7D092990013
:10507000C09298002093A4033093A5034093A60305
:105080005093A70380917100826080937100AECD30
:105090008E818430F9F48091A100887F892B8093E0
:1050A000A1002FEF3FEFA90145284628472809F620
:1050B000D092A900C092A8002093A0033093A1032E
:1050C0004093A2035093A303809172008260809367
:1050D00072008CCDAE81A53009F04ACF80912101BC
:1050E000887F892B809321012FEF3FEFA90145286D
:1050F0004628472809F09DCFD0922901C092280167
:1051000020939C0330939D0340939E0350939F03F1
:105110008091730082608093730068CDEE81E430EB
:1051200039F20CF4A3CFE53039F360CDC7BC20933E
:10513000AC033093AD034093AE035093AF03809123
:105140006E00826080936E0051CDC092B3002093B8
:10515000270D3093280D4093290D50932A0D8091EF
:10516000700082608093700041CD6C197D098E09BA
:105170009F0997FD3DCD4098A981BA8116961D9251
:105180001D921D921C92199733CD84E0EFEFCE163D
:10519000D104E104F10409F008F4E6CEC980DA8014
:1051A000EB80FC809AE0F594E794D794C7949A95A5
:1051B000D1F7B1E0CB1AD108E108F10885E0D4CEEF
:1051C00083E0BFEFCB16D104E104F10409F00CF445
:1051D000CBCE62E17AE780E090E0A50194010F94E4
:1051E000A62C69017A0181E0C81AD108E108F1080A
:1051F0009E81992351F286E02FEFC216D104E1047B
:10520000F10491F088F0C980DA80EB80FC808AE0BC
:10521000F594E794D794C7948A95D1F7F1E0CF1A23
:10522000D108E108F10887E09091B100987F892BBF
:105230008093B1009DCE8091950390919603009745
:1052400031F04AE050E070E060E00D94FE2160E053
:1052500070E0CB0108950E941B2997FD0CC00E94AD
:105260001B296F3F71058105910509F034F40E94F7
:105270001B29862F089580E008958FEF089580916F
:10528000950390919603892B41F00E942B2991E080
:10529000811101C090E0892F089591E0FCCF8091A9
:1052A000950390919603009731F04AE050E070E04A
:1052B00060E00D942C2360E070E0CB0108952F9204
:1052C0003F924F925F926F927F928F929F92AF9296
:1052D000BF92CF92DF92EF92FF920F931F93CF93E3
:1052E000DF93CDB7DEB76C970FB6F894DEBF0FBE75
:1052F000CDBF8C015B015A834983FC01E95BFF4F01
:105300002081318142815381298B3A8B4B8B5C8B7D
:10531000CA01B9010F9401256B017C01D5012D91C2
:105320003D914D915C910F9462250F943C2A0F940E
:10533000D12A4B015C01E981FA81208131814281CE
:105340005381C701B6010F9462250F943C2A0F9434
:10535000D12A89869A86AB86BC8629853A854B8573
:105360005C85283731054105510540F428E730E0D8
:1053700040E050E029873A874B875C876D837E83C6
:105380008F8398874D815E816F817885483751057D
:105390006105710540F468E770E080E090E06D839E
:1053A0007E838F839887F801ED5AFF4F40805180AC
:1053B00062807380C301B2010F94032569837A83ED
:1053C0008B839C8369857A858B859C850F940125C9
:1053D0006D8B7E8B8F8B988F20E030E0A9016981E7
:1053E0007A818B819C810F94FC24882309F4E1C18C
:1053F000A7019601C701B6010F9462254B015C011C
:105400002D893E894F89588DCA01B9010F946225B3
:105410009B01AC01C501B4010F945D294B015C01F6
:1054200029813A814B815C81CA01B9010F945E29BF
:105430009B01AC01C501B4010F94582A0F943C2A7A
:105440000F94D12A6D877E878F87988B6627772761
:10545000CB0164197509860997090F9403254B013F
:105460005C016D817E818F8198850F9401252B01D0
:105470003C0120E030E0A901C501B4010F94FC24F7
:10548000882309F49AC1A3019201C301B2010F94C8
:105490006225698F7A8F8B8F9C8FA7019601C70138
:1054A000B6010F9462259B01AC01698D7A8D8B8DBD
:1054B0009C8D0F945D296B017C01A5019401C501B0
:1054C000B4010F945E299B01AC01C701B6010F9492
:1054D000582A0F94002BD80195968D909D90AD90F1
:1054E000BC909897750164012D853E854F8558893C
:1054F000C21AD30AE40AF50A0F94D12AC61AD70AA7
:10550000E80AF90AF7FE8EC02D893E894F89588D29
:10551000CA01B9010F9462256B017C0129813A818E
:105520004B815C81CA01B9010F945E29698B7A8B2A
:105530008B8B9C8B20E030E0A90169817A818B8183
:105540009C810F94FC24882309F43BC1C501B4015C
:105550000F94012529893A894B895C890F9462252A
:10556000A70196010F945D296D877E878F87988BA1
:10557000A3019201C301B2010F9462259B01AC010A
:105580006D857E858F8598890F945E292B013C015E
:1055900020E030E040E850E469817A818B819C8191
:1055A0000F9462259B01AC01C301B2010F94582AEC
:1055B0000F943C2A2B013C0120E030E0A9010F941C
:1055C000BE2B18161CF0412C512C3201C301B20124
:1055D0000F94D12A6D877E878F87988B86169706C2
:1055E000A806B90620F48D869E86AF86B88A6D859A
:1055F0007E858F8598890F94012529893A894B8961
:105600005C890F946225A70196010F945E290F947F
:105610000C2C0F94D12A698B7A8B8B8B9C8BC12C91
:10562000D12C760169897A898B899C8929853A856B
:105630004B855C85621B730B840B950B0F940125C6
:1056400029813A814B815C810F94582A20E034E211
:1056500044EF59E40F9462250F94D12A4B015C0169
:1056600069897A898B899C892D813E814F815885F2
:10567000621B730B840B950B0F94012529813A81D2
:105680004B815C810F94582A20E034E244EF59E4C6
:105690000F9462250F94D12A2B013C013FE683161B
:1056A0009104A104B10408F090C0F401EE0FFF1FB3
:1056B000EE0FFF1FE35AFB4E85919591A591B49192
:1056C0008983292E3A2EBD8B4FE64416510461047E
:1056D000710408F083C0F201EE0FFF1FEE0FFF1FF1
:1056E000E35AFB4E45915591659174919A01CB0116
:1056F0004D855E856F857889D8019A964D935D9327
:105700006D937C939D974C0D5D1D6E1D7F1DF80163
:1057100046A757A760AB71ABE55BFF4F49855A853C
:105720006B857C854083518362837383D6968D928B
:105730009D92AD92BC92D997F80142AE53AE64AE41
:1057400075AEFE9649814083218232825D89538302
:105750003496208331838283938369897A898B8904
:105760009C89D2966D937D938D939C93D5973D960E
:105770002D813E814F81588520833183428353831D
:105780006C960FB6F894DEBF0FBECDBFDF91CF9100
:105790001F910F91FF90EF90DF90CF90BF90AF904F
:1057A0009F908F907F906F905F904F903F902F9041
:1057B000089560E070E0CB0141CE60E070E0CB0185
:1057C00088CE60E070E0CB01F3CEC501B4010E9449
:1057D000E9CE6983272E382E9D8B76CFC301B20187
:1057E0000E94E9CE9B0184CF2F923F924F925F920D
:1057F0006F927F928F929F92AF92BF92CF92DF92E1
:10580000EF92FF920F931F93CF93DF93CDB7DEB745
:1058100060970FB6F894DEBF0FBECDBFDC01CD9010
:10582000DD90ED90FC90DB018D919D910D90BC91F0
:10583000A02D8B839C83AD83BE8320E030E040EAC3
:1058400051E4C701B6010F945D292DEC3CEC4CE40A
:105850005CE30F9462250F94CA2A16160CF019C146
:1058600061E0062F660F110B1801BFEF2B1A3B0AE0
:1058700020E030E040EA51E46B817C818D819E81A3
:105880000F945D292DEC3CEC4CE45CE30F94622515
:105890000F94CA2A16160CF000C161E0E62F660FBD
:1058A000FF0BF88BEF87F801EE0FFF1FEE0FFF1FC6
:1058B000E15DFB4E80809180A280B380B801660FCD
:1058C000771F060F171FEF85F889E00FF11FEE0F06
:1058D000FF1FEE0FFF1FE85BFA4F40805180628090
:1058E0007380F101EE0FFF1FEE0FFF1FE15DFB4E16
:1058F000A501940160817181828193810F945D295A
:105900006F83788789879A87A5019401C701B601BB
:105910000F945D296B017C01C101880F991F280E2E
:10592000391EEF85F889E20DF31DEE0FFF1FEE0F14
:10593000FF1FE85BFA4FA3019201608171818281B0
:1059400093810F945D292F81388549855A850F945D
:10595000582AA70196010F946225A30192010F9482
:105960005E296B877C878D879E878F8598890196B6
:105970009A838983080F191FF801EE0FFF1FEE0F9E
:10598000FF1FE85BFA4F80809180A280B380AF85D3
:10599000B889AA0FBB1FAA0FBB1FAD5DBB4E4D90B0
:1059A0005D906D907C90280E391EF101EE0FFF1F67
:1059B000EE0FFF1FE85BFA4FA50194016081718132
:1059C000828193810F945D292F81388549855A857D
:1059D0000F94582AA70196010F946225A5019401FE
:1059E0000F945E292B853C854D855E850F945D293E
:1059F0006B017C01E981FA81EE0FFF1FEE0FFF1FA3
:105A0000ED5DFB4EA30192016081718182819381E2
:105A10000F945D299B01AC01C701B6010F94582A70
:105A20006B017C01A30192016B817C818D819E8140
:105A30000F945D299B01AC01C701B6010F9462254B
:105A40002B853C854D855E850F945E292091860BC4
:105A50003091870B4091880B5091890B0F945E29F0
:105A600060960FB6F894DEBF0FBECDBFDF91CF9129
:105A70001F910F91FF90EF90DF90CF90BF90AF906C
:105A80009F908F907F906F905F904F903F902F905E
:105A9000089567FFE6CE60E0E4CE67FFFFCE60E0EA
:105AA000FDCE80916F00982F927081FF05C080918C
:105AB0006F008D7F80936F0010920E0D10920F0D6E
:105AC0001092100D1092110D992329F080916F0002
:105AD000826080936F0008951092860B1092870B5E
