:100000000C9499140C94CA140C94CA140C94CA1429
:100010000C94CA140C94CA140C94CA140C94CA14E8
:100020000C94CA140C94CA140C94CA140C94CA14D8
:100030000C94CA140C94CA140C94CA140C94CA14C8
:100040000C94CA140C94979A0C94CA140C94CA1465
:100050000C94CA140C94CA140C94B0900C946C8E2A
:100060000C94CA140C94619B0C94CA140C94CA147A
:100070000C94CA140C94CA140C94CA140C94CA1488
:100080000C94339B0C94CA140C94CA140C94CA1488
:100090000C94CA140C94CA140C94CA140C94CA1468
:1000A0000C94CA140C94CA140C94059B0C94CA1496
:1000B0000C94CA140C94CA140C94CA140C94D79AB5
:1000C0000C94CA140C94CA140C94CA140C94CA1438
:1000D0000C94CA140C94CA140C94CA140C94CA1428
:1000E0000C94CA14084AD73B3BCE016E84BCBFFDBA
:1000F000C12F3D6C74319ABD56833DDA3D00C77FF8
:1001000011BED9E4BB4C3E916BAAAABE0000008090
:100110003F05A84CCDB2D44EB93836A9020C50B91F
:10012000918688083CA6AAAA2ABE000000803F004B
:100130000C9429150C9437150C94689D0C943B1560
:100140000C9415150C94A3160C948F900C945816BF
:100150000C9445150C9406150C940E150C94121560
:100160000C9499160C9471160C9416160C94401558
:100170000C9458900C942A160C942D150C94949071
:100180000C9433150C9411160C9462160C941F15D4
:100190000C9425150C942B8F0C9400150C941B8F2C
:1001A0000C9441150C9464900C948F160C944E167C
:1001B0000C9434160C9477900C9420160C947C902C
:1001C0000C940A150C9409160C9444160C943C16C5
:1001D0000C947B160C9485160C941B154E414E49BD
:1001E0004E495459494E46CDCCCC3D0AD7233C17F5
:1001F000B7D13877CC2B329595E6241FB14F0A0042
:100200000020410000C84200401C4620BCBE4CCA31
:100210001B0E5AAEC59D744C4556454C494E470081
:10022000434F4D4D554E49434154494F4E00445262
:100230005952554E004552524F525300494E464F67
:10024000004543484F002569730025696D202569E5
:1002500073002569682025696D202569730025696B
:1002600064202569682025696D202569730025694A
:100270007920256964202569682025696D20256914
:1002800073002C20002C2000203A2073796E635FCD
:10029000706C616E5F706F736974696F6E0A0020B5
:1002A0002063757272656E745F706F736974696FC5
:1002B0006E3D00656E7175657565696E672022001B
:1002C0005072696E7465722073746F70706564200B
:1002D00064756520746F206572726F72732E20468C
:1002E000697820746865206572726F7220616E642F
:1002F00020757365204D39393920746F207265730C
:10030000746172742E202854656D70657261747505
:1003100072652069732072657365742E205365744D
:1003200020697420616674657220726573746172ED
:1003300074696E67290A004E6F20436865636B73AA
:10034000756D2077697468206C696E65206E756DB7
:100350006265722C204C617374204C696E653A2082
:1003600000636865636B73756D206D69736D61748F
:1003700063682C204C617374204C696E653A2000D0
:100380004C696E65204E756D626572206973206ED2
:100390006F74204C617374204C696E65204E756DCE
:1003A0006265722B312C204C617374204C696E6530
:1003B0003A20004D3131300020496E76616C69641D
:1003C000206578747275646572200000000000007A
:1003D000000000000000000000B9430080C5430099
:1003E00000C8430A20736F66745F656E6473746F30
:1003F000705F6D6178203D20000A20736F66745F26
:10040000656E6473746F705F6D696E203D20000AC5
:1004100020706F736974696F6E5F736869667420AA
:100420003D200020617869733A0A20686F6D655F2E
:100430006F6666736574203D2000466F7220003C35
:100440003C3C20646F5F626C6F636B696E675F6DCD
:100450006F76655F746F0A003E3E3E20646F5F6298
:100460006C6F636B696E675F6D6F76655F746F004D
:10047000203A2073657475705F666F725F656E6495
:1004800073746F705F6F725F70726F62655F6D6FB4
:1004900076650A00202063757272656E745F706FF6
:1004A000736974696F6E3D00203A20636C65616EFC
:1004B0005F75705F61667465725F656E6473746F9B
:1004C000705F6F725F70726F62655F6D6F76650AE5
:1004D00000202063757272656E745F706F7369744B
:1004E000696F6E3D00646F5F70726F62655F72610D
:1004F00069736528006465706C6F793A2000203A52
:10050000207365745F70726F62655F6465706C6F95
:100510007965640A00202063757272656E745F707D
:100520006F736974696F6E3D00203A203C3C3C203B
:10053000646F5F70726F62655F6D6F76650A002031
:100540002063757272656E745F706F736974696F22
:100550006E3D00203A203E3E3E20646F5F70726F19
:1005600062655F6D6F76650A002020637572726543
:100570006E745F706F736974696F6E3D007265733E
:1005800065745F6265645F6C6576656C0A0020283F
:10059000646F6E65290A004578747261706F6C61D2
:1005A0007465205B0042696C696E656172204C6500
:1005B00076656C696E6720477269643A0A003C3C54
:1005C0003C20646F5F686F6D696E675F6D6F766505
:1005D00028005B00290A002C20002C20003E3E3E13
:1005E00020646F5F686F6D696E675F6D6F766528F9
:1005F00000202864697361626C6564290A004142C5
:100600004C2041646A7573746D656E74205A0020C5
:10061000480020570020590042696C696E6561727C
:1006200020477269642058002028656E61626C65FD
:1006300064290A0042494C494E45415200417574B3
:100640006F20426564204C6576656C696E673A2060
:100650000020262053616D65205A20617300204ED2
:100660006F7A7A6C65290A0020262041626F7665D0
:100670000020262042656C6F77002D4261636B007D
:100680002028526967687400205A3A0020593A00BD
:1006900050726F6265204F666673657420583A0029
:1006A0004649585F4D4F554E5445445F50524F4256
:1006B000450A0050726F62653A2000436F72650A06
:1006C000004D616368696E6520547970653A200059
:1006D0003C3C3C204732390A0020636F72726563EC
:1006E000746564205A3A0047323920756E636F7220
:1006F000726563746564205A3A00203A203E207087
:10070000726F62696E6720636F6D706C6574650AE5
:1007100000202063757272656E745F706F73697408
:10072000696F6E3D00202844525952554E290047AA
:100730003239204175746F20426564204C657665BE
:100740006C696E67003F20284C2C522C462C4229A5
:10075000206F7574206F6620626F756E64732E0A49
:10076000003F2856296572626F7365206C65766557
:100770006C20697320696D706C61757369626C655A
:100780002028302D34292E0A00426164205A207618
:10079000616C75650A004E6F2062696C696E6561F7
:1007A0007220677269640A003C3C3C204732390A77
:1007B000003E204175746F2D6C6576656C206E6F00
:1007C00074206E65656465642C20736B69700A0023
:1007D0004732380A473239003E204E6F7420686F26
:1007E0006D65642E20456E7175657565696E67204F
:1007F00047323820666F6C6C6F77656420627920B1
:100800004732390A00203A203E3E3E204732390A1C
:1008100000202063757272656E745F706F73697407
:10082000696F6E3D0050726F74656374656420502B
:10083000696E0A005374616E646172642044657667
:10084000696174696F6E3A20002052616E67653A83
:100850002000204D61783A2000204D696E3A20003A
:100860004D65616E3A200046696E69736865642162
:100870000A002072616E67653A2000206D61783A47
:100880002000206D696E3A2000207369676D613A1F
:100890002000206D65616E3A20003A207A3A2000EF
:1008A000206F662000205A00205900205800476F12
:1008B000696E6720746F3A00436C6F636B7769737E
:1008C000650A00436F756E7465722D00204469726D
:1008D000656374696F6E3A2000202020616E676C3A
:1008E000653A20005374617274696E6720726164A6
:1008F0006975733A2000506F736974696F6E696E21
:1009000067207468652070726F62652E2E2E0A0053
:100910003F4E756D626572206F66206C656773204F
:10092000696E206D6F76656D656E74206E6F7420D4
:10093000706C61757369626C652028302D313529C2
:100940002E0A003F2028582C5929206F7574206FDB
:100950006620626F756E64732E0A003F53616D707E
:100960006C652073697A65206E6F7420706C617598
:100970007369626C652028342D3530292E0A004DAC
:100980003438205A2D50726F62652052657065614F
:10099000746162696C69747920546573740A003FEC
:1009A0002856296572626F7365206C6576656C20C8
:1009B000697320696D706C61757369626C6520285C
:1009C000302D34292E0A0020573A0020573A0020B3
:1009D0005A3A0020423A0020436F756E7420413A23
:1009E0000020453A00205A3A0020593A00583A006F
:1009F0003A004361703A00205A0020590058002004
:100A0000204D61783A2000205A00205900580020DB
:100A1000204D696E3A20004F6E20004F66660053ED
:100A20006F667420656E6473746F70733A20004251
:100A30006564204C6576656C696E67200046616967
:100A40006C656420746F20656E61626C6520426520
:100A500064204C6576656C696E670A00496E766144
:100A60006C69642065787472756465720A0041630C
:100A7000746976652045787472756465723A2000F1
:100A8000203A204D6F7665206261636B0A0020205A
:100A900064657374696E6174696F6E3D002C2063C8
:100AA0006F727265637465642063757272656E74CB
:100AB0005F706F736974696F6E5B5A5F4158495319
:100AC0005D3D0046573A2053746F70205A20637280
:100AD0006173682C20657870656374656420637544
:100AE0007272656E745F706F736974696F6E5B5A52
:100AF0005F415849535D3D00207D0A002C20004F86
:100B0000666673657420546F6F6C20585920627943
:100B1000207B200046573A204368616E67696E6704
:100B20002064657374696E6174696F6E5B585F41B0
:100B30005849535D20746F2073746F702063726125
:100B400073682C2064657374696E6174696F6E5B81
:100B5000585F415849535D3D002C2073746F705F9E
:100B6000785F63726173683D0046573A20746D7018
:100B70005F785F6D6F76653D002C2073746F705FDA
:100B80007A5F63726173683D0046573A20746D70F6
:100B90005F7A5F6D6F76653D004E6F206D6F766595
:100BA000206F6E20746F6F6C6368616E67650A00FA
:100BB000526573656E643A200020746F6F206C6F0D
:100BC0006E6720657874727573696F6E20707265D8
:100BD00076656E7465640A0020636F6C64206578C6
:100BE00074727573696F6E2070726576656E746568
:100BF000640A00627573793A2070617573656420C8
:100C0000666F7220696E7075740A00627573793A46
:100C10002070617573656420666F722075736572EC
:100C20000A00627573793A2070726F636573736935
:100C30006E670A004B494C4C2063617573656420F4
:100C4000627920746F6F206D75636820696E6163CF
:100C5000746976652074696D65202D2063757272E4
:100C6000656E7420636F6D6D616E643A20002020A4
:100C7000506C616E6E65724275666665724279741B
:100C800065733A20002046726565204D656D6F7270
:100C9000793A2000436F6D70696C65643A204A753B
:100CA0006C20313520323032300A00207C204175F2
:100CB00074686F723A20467261636B74616C20577E
:100CC0006F726B730A00323032302D30372D313471
:100CD0002031353A343900204C61737420557064EA
:100CE000617465643A20004275696C643A204A3147
:100CF0003850465F3230303731345F313534395F08
:100D000048410A00467261636B74616C20576F72D0
:100D10006B73204A756C69612050726F2044756155
:100D20006C2041424C203234560A00312E312E398B
:100D30000A004D61726C696E0020536F66747761B2
:100D400072652052657365740A0020576174636888
:100D5000646F672052657365740A002042726F7772
:100D60006E206F75742052657365740A0020457893
:100D70007465726E616C2052657365740A00506F01
:100D800077657255700A0073746172740A003C3C96
:100D90003C207365745F617869735F69735F617428
:100DA0005F686F6D652800203A200A002020637577
:100DB0007272656E745F706F736974696F6E3D00F7
:100DC0005D203D20003E20686F6D655F6F66667335
:100DD00065745B003E3E3E207365745F61786973A5
:100DE0005F69735F61745F686F6D6528000000481C
:100DF00042000048420000A041000000005761721C
:100E00006E696E673A20486F6D696E672042756D36
:100E1000702044697669736F72203C20310A0002A9
:100E200002040000A0400000A040000000400000BC
:100E3000B9430080C5430000C8433C3C3C20686F78
:100E40006D65617869732800203A203E2041465440
:100E50004552207365745F617869735F69735F6180
:100E6000745F686F6D650A00202063757272656E2D
:100E7000745F706F736974696F6E3D00486F6D6564
:100E8000203220536C6F773A0A004D6F766520410F
:100E90007761793A0A00486F6D65203120466173A9
:100EA000743A0A003E3E3E20686F6D656178697352
:100EB0002800486F74656E64206F6666736574738E
:100EC0003A003A200020536572766F20006F6B0065
:100ED0004572726F722077726974696E6720746FE1
:100EE00020454550524F4D210A00454550524F4D27
:100EF000206461746173697A65206572726F722E05
:100F00000A00290A002062797465733B20637263CA
:100F1000200053657474696E67732053746F726533
:100F200064202800290A002062797465733B2063DD
:100F3000726320002073746F72656420736574742B
:100F4000696E6773207265747269657665642028BE
:100F500000202863616C63756C6174656429210AE3
:100F60000020213D2000454550524F4D2043524323
:100F7000206D69736D61746368202D202873746F10
:100F80007265642920002053697A653A2000496E11
:100F90006465783A2000204D61726C696E3D56356B
:100FA00035290A0028454550524F4D3D00454550D2
:100FB000524F4D2076657273696F6E206D69736D47
:100FC00061746368200048617264636F64656420C3
:100FD00044656661756C742053657474696E6773DB
:100FE000204C6F616465640A00DC050000DC0500CC
:100FF0000032000000102700000000964300009619
:10100000430000A041000034420000C8420000C874
:1010100042F0F7FB4300000C433A0A0020286D6DB4
:10102000290020204D383531205A005A2D50726F3A
:101030006265204F66667365740020440020490095
:1010400020204D3330312050002044002049002022
:10105000500020204D33303120450050494420734A
:10106000657474696E67733A0A00205A00204A005A
:101070002020473239205720490020204D3432307B
:101080002053004175746F20426564204C6576657D
:101090006C696E673A0A00205A00205900205800F7
:1010A00020204D323138205400486F74656E642022
:1010B0006F6666736574733A0A00205A00205900FF
:1010C00020204D323036205800486F6D65206F6605
:1010D000667365743A0A00204A00205400205300C9
:1010E00020204D323035204200204A3C6A756E6324
:1010F0005F6465763E00416476616E6365643A20A4
:10110000423C6D696E5F7365676D656E745F74698F
:101110006D655F75733E20533C6D696E5F666565F6
:1011200064726174653E20543C6D696E5F747261D7
:1011300076656C5F66656564726174653E00205417
:101140000020520020204D32303420500041636393
:10115000656C65726174696F6E2028756E69747351
:101160002F7332293A20503C7072696E745F61634C
:1011700063656C3E20523C726574726163745F619A
:101180006363656C3E20543C74726176656C5F618C
:101190006363656C3E0A00204500205A0020590018
:1011A00020204D3230312058004D6178696D756DC9
:1011B00020416363656C65726174696F6E20287588
:1011C0006E6974732F7332293A0A00204500205A41
:1011D0000020590020204D3230332058004D6178D6
:1011E000696D756D2066656564726174657320282C
:1011F000756E6974732F73293A0A00204500205ACE
:101200000020590020204D39322058005374657059
:10121000732070657220756E69743A0A0020204D43
:101220003230302044300A0020204D3230302054FB
:101230003120440020204D323030204400204469C9
:101240007361626C65640A0046696C616D656E74F9
:101250002073657474696E67733A002020473231D9
:10126000202020203B007A5F70726F62653A200078
:101270007A5F6D61783A2000795F6D61783A20007D
:10128000785F6D696E3A20005265706F7274696E96
:101290006720656E6473746F702073746174757306
:1012A0000A00000000010000000100008000555508
:1012B00055000000400033333300AAAA2A004992A7
:1012C000240000002000C7711C0099991900D14525
:1012D0001700555515003BB1130024491200111198
:1012E0001100000010000F0F0F00E3380E004379CB
:1012F0000D00CCCC0C00C3300C00E8A20B00642124
:101300000B00AAAA0A00703D0A009DD80900427B82
:10131000090092240900DCD30800888808001042E4
:10132000080000000800F0C107008787070075501B
:101330000700711C07003EEB0600A1BC0600699087
:10134000060066660600703E06006118060017F487
:10135000050074D105005BB00500B2900500627213
:1013600005005555050078390500B81E050005052E
:1013700005004EEC040087D40400A1BD040090A732
:10138000040049920400C17D0400EE690400C756C0
:101390000400444404005C320400082104004110AD
:1013A0000400000004003FF00300F8E0030026D230
:1013B0000300C3C30300CCB503003AA803000A9B93
:1013C0000300388E0300C08103009F750300D069BD
:1013D0000300505E03001D53030034480300913D99
:1013E00003003333030016290300381F0300971549
:1013F0000300300C0300030303000BFA020049F161
:101400000200BAE802005CE002002DD802002DD0F4
:10141000020059C80200B0C0020031B90200DAB1BE
:101420000200AAAA0200A0A30200BC9C0200FA9536
:1014300002005C8F0200DF88020082820200457C8D
:1014400002002776020027700200436A02007C64D3
:101450000200D05E02003F590200C853020020740F
:101460006F6F206C6F6E6720657874727573696F2B
:101470006E2070726576656E7465640A0020636F15
:101480006C6420657874727573696F6E2070726514
:1014900076656E7465640A00FFFDFCFAF8F6F4F2F6
:1014A000F0EEECEAE9E7E5E3E1E0DEDCDAD9D7D516
:1014B000D4D2D0CFCDCBCAC8C7C5C3C2C0BFBDBCB4
:1014C000BAB9B7B6B4B3B2B0AFADACAAA9A8A6A525
:1014D000A4A2A1A09E9D9C9A99989795949392906E
:1014E0008F8E8D8B8A8988878684838281807F7E98
:1014F0007D7B7A797877767574737271706F6E6DA3
:101500006C6B6A696867666564636261605F5E5D93
:101510005C5B5A5958585756555453525150504F76
:101520004E4D4C4B4A4A4948474646454443424241
:1015300041403F3E3E3D3C3B3B3A393838373635FB
:1015400035343332323130302F2E2E2D2C2B2B2AA6
:101550002929282727262525242323222121202045
:101560001F1E1E1D1C1C1B1B1A19191818171616D6
:10157000151514131312121111100F0F0E0E0D0D5D
:101580000C0C0B0A0A0909080807070606050504DA
:10159000040303020201000046696C616D656E740C
:1015A00020757365643A200053746174733A2000A7
:1015B0002C204C6F6E67657374206A6F623A20004E
:1015C000546F74616C2074696D653A2000537461C6
:1015D00074733A20002C204661696C65643A2000DF
:1015E0002C2046696E69736865643A200050726900
:1015F0006E74733A200053746174733A200024F4BB
:10160000D43050C38E20C2A24017828B7011127A40
:10161000910D816CD90AA861E108C758660761512C
:1016200043061E4B5D05C145A7041A411104093D3F
:101630009803713931034036DB0265339102D430AF
:101640005402802E1D02632CEE01752AC501B028BC
:10165000A001102781018F2564012B244B01E0227A
:101660003401AC211F018D200D01801FFC00841E60
:10167000ED00971DDF00B81CD200E61BC600201B42
:10168000BC00641AB200B219A8000A19A0006A18B6
:101690009900D117910040178B00B51684003116C0
:1016A0007E00B31579003A157300C7146F00581403
:1016B0006A00EE1366008813630025135E00C712EC
:1016C0005B006C12570015125400C11151007011CB
:1016D0004F0021114B00D61049008D1047004610D5
:1016E000440002104200C00F4000800F3E00420F35
:1016F0003C00060F3B00CB0E3800930E37005C0E0B
:101700003500270E3400F30D3200C10D3100900D6D
:101710003000600D2E00320D2D00050D2C00D90C6F
:101720002B00AE0C2900850C29005C0C2700350C21
:1017300027000E0C2600E80B2400C40B2400A00B8D
:1017400023007D0B23005A0B2100390B2100180BBD
:101750002000F80A1F00D90A1E00BB0A1E009D0ABD
:101760001D00800A1D00630A1C00470A1B002C0A8A
:101770001B00110A1A00F7091A00DD091900C40933
:101780001900AB091900920917007B0918006309B9
:1017900017004C09160036091600200916000A0920
:1017A0001500F5081500E0081400CC081400B8086E
:1017B0001400A4081400900813007D0812006B08A0
:1017C00013005808120046081200340811002308BC
:1017D00011001208110001081100F0071000E007C5
:1017E0001000D0071000C0071000B0070F00A107BD
:1017F000100091070E0083070F0074070F006507A4
:101800000E0057070E0049070E003B070D002E077C
:101810000E0020070D0013070D0006070D00F90646
:101820000C00ED060D00E0060C00D4060C00C80606
:101830000C00BC060C00B0060C00A4060B009906B8
:101840000C008D060B0082060B0077060B006C0661
:101850000B0061060A0057060B004C060A00420600
:101860000A0038060A002E060A0024060A001A0694
:101870000A001006090007060A00FD050900F40524
:101880000900EB050900E2050900D9050900D005AA
:101890000900C7050900BE050900B5050800AD052A
:1018A0000800A50509009C050800940508008C05A2
:1018B0000800840508007C050800740508006C0514
:1018C0000700650508005D050700560508004E0580
:1018D00007004705070040050800380507003105E7
:1018E00007002A050700230507001C05060016054A
:1018F00007000F0507000805060002050700FB04A6
:101900000600F5040700EE040600E8040600E20401
:101910000700DB040600D5040600CF040600C90456
:101920000600C3040600BD040600B7040600B104A7
:101930000500AC040600A6040600A00405009B04F4
:10194000060095040500900406008A04050085043D
:101950000500800406007A04050075040500700483
:1019600005006B04050066040500610405005C04C5
:10197000050057040500520405004D040500480405
:101980000500430405003E0404003A040500350444
:101990000500300404002C0405002704040023047F
:1019A00005001E0404001A040400160405001104B6
:1019B00004000D04040009040500040404000004EC
:1019C0000400FC030400F8030400F4030400F00323
:1019D0000400EC030400E8030400E4030400E00353
:1019E0000400DC030400D8030400D4030400D00383
:1019F0000400CC030400C8030300C503030024F45F
:101A000004D9201BC40C5C0E9804C4095F0265074E
:101A10007101F405F900FB04B30048048700C10319
:101A200069005803550003034500BE023A008402D2
:101A3000310053022A002902250004022000E4019B
:101A40001C00C8011900AF0117009801140084019F
:101A50001300710110006101100051010E004301DB
:101A60000D0036010B002B010B0020010B001501AE
:101A700009000C01090003010800FB000800F30045
:101A80000800EB000700E4000600DE000600D800B6
:101A90000600D2000600CC000500C7000500C20009
:101AA0000500BD000400B9000400B5000400B10049
:101AB0000400AD000400A9000400A5000300A2007A
:101AC00003009F0004009B000300980003009500A2
:101AD000020093000300900003008D0002008B00C1
:101AE00003008800020086000200840003008100D9
:101AF00002007F0002007D0002007B0002007900EE
:101B000002007700010076000200740002007200FB
:101B10000100710002006F0002006D0001006C0006
:101B200002006A000100690002006700010066000F
:101B30000100650001006400020062000100610014
:101B40000100600001005F0002005D0001005C0018
:101B500001005B0001005A0001005900010058001B
:101B6000010057000100560001005500010054001B
:101B70000100530000005300010052000100510019
:101B80000100500001004F0001004E0000004E0017
:101B900001004D0001004C0001004B0000004B0013
:101BA00001004A000100490001004800000048000F
:101BB000010047000100460000004600010045000A
:101BC0000000450001004400010043000000430004
:101BD00001004200000042000100410000004100FD
:101BE0000100400001003F0000003F0001003E00F6
:101BF00000003E0001003D0000003D0001003C00EF
:101C000000003C0000003C0001003B0000003B00E5
:101C100001003A0000003A000100390000003900DC
:101C200001003800000038000000380001003700D3
:101C300000003700010036000000360000003600CA
:101C400001003500000035000000350001003400BF
:101C500000003400000034000100330000003300B5
:101C600000003300010032000000320000003200AA
:101C7000010031000000310000003100010030009F
:101C8000000030000000300001002F0000002F0095
:101C900000002F0000002F0001002E0000002E0089
:101CA00000002E0001002D0000002D0000002D007E
:101CB00000002D0001002C0000002C0000002C0072
:101CC00000002C0001002B0000002B0000002B0066
:101CD00000002B0001002A0000002A0000002A005A
:101CE00000002A000100290000002900000029004E
:101CF0000000290000002900010028000000280041
:101D00000000280000002800000028000100270033
:101D10000000270000002700000027000000270027
:101D2000010026000000260000002600000026001A
:101D3000000026000100250000002500000025000D
:101D400000002500000025000000250001002400FF
:101D500000002400000024000000240000002400F3
:101D600001002300000023000000230000002300E6
:101D700000002300000023000000230001002200D7
:101D800000002200000022000000220000002200CB
:101D900000002200010021000000210000002100BD
:101DA00000002100000021000000210000002100AF
:101DB00001002000000020000000200000002000A2
:101DC0000000200000002000000020000000200093
:101DD00001001F0000001F0000001F0000001F0086
:101DE00000001F0000001F0000001F0001001E0077
:101DF00000001E0000001E0000001E000000393020
:101E000000003325000087190000B00F0000DB0838
:101E10000000BD040000740200003F0100002364C4
:101E20006566696E652044454641554C545F4B6478
:101E3000200023646566696E652044454641554C23
:101E4000545F4B69200023646566696E65204445D4
:101E50004641554C545F4B70200050494420417519
:101E6000746F74756E652066696E69736865642148
:101E70002050757420746865206C617374204B70F9
:101E80002C204B6920616E64204B6420636F6E735D
:101E900074616E74732066726F6D2062656C6F770B
:101EA00020696E746F20436F6E6669677572617426
:101EB000696F6E2E680A00504944204175746F7432
:101EC000756E65206661696C6564212074696D6555
:101ED0006F75740A00453220544845524D414C20DC
:101EE00052554E4157415900453120544845524DB5
:101EF000414C2052554E4157415900546865726D0E
:101F0000616C2052756E61776179004532204865B9
:101F10006174696E67206661696C65640045312093
:101F200048656174696E67206661696C6564004824
:101F3000656174696E67206661696C65640050490B
:101F400044204175746F74756E65206661696C65B7
:101F500064212054656D70657261747572652074BA
:101F60006F6F20686967680A00204B643A20002080
:101F70004B693A2000204B703A20000A20436C61E4
:101F80007373696320504944200A002054753A2035
:101F900000204B753A2000206D61783A2000206DBA
:101FA000696E3A200020643A200020626961733A29
:101FB0002000504944204175746F74756E6520731C
:101FC000746172740A00504944204175746F7475CD
:101FD0006E65206661696C656421204261642065DC
:101FE00078747275646572206E756D6265720A0030
:101FF0006265640A002C2073797374656D207374B4
:102000006F7070656421204865617465725F494432
:102010003A20004265642068656174696E672066D5
:1020200061696C65640048656174696E672066610A
:10203000696C65640045312048656174696E67208C
:102040006661696C65640045322048656174696E3B
:1020500067206661696C65640048656174696E67D4
:10206000206661696C6564001000600350012C01FA
:1020700090012201D001180110020E01700204012A
:10208000E002FA006003F0000004E600B004DC00A7
:10209000A005D200B006C8000008BE00A009B40028
:1020A000800BAA00D00DA00090109600C0138C00E9
:1020B00070178200901B780010206E00C02464000E
:1020C000E02D500080353C00A03A2800A03D1400CF
:1020D000003F0000A03FECFF4532204572723A20DD
:1020E0004D415854454D50004531204572723A20BB
:1020F0004D415854454D50004572723A204D41585B
:1021000054454D5020424544004D415854454D5092
:102110002074726967676572656400453220457294
:10212000723A204D494E54454D500045312045727C
:10213000723A204D494E54454D50004572723A2036
:102140004D494E54454D5020424544004D494E5452
:10215000454D502074726967676572656400202F71
:10216000002040002042403A0020403A0000002178
:1021700000240027002A002D003000330001010058
:1021800000040107010A0100002200250028002B9D
:10219000002E003100340002010000050108010B8F
:1021A00001000020002300260029002C002F00320F
:1021B00000000100000301060109010505050507EE
:1021C0000508080808020202020A0A0808040404B2
:1021D00004010101010101010103030303030303DE
:1021E00003040707070C0C0C0C0C0C0C0C0202026D
:1021F0000206060606060606060B0B0B0B0B0B0B60
:102200000B010210202008081020401020408002FE
:10221000010201080402010102040810204080802C
:1022200040201008040201800402018040201008B0
:102230000402010804020101020408102040800188
:102240000204081020408000000A0B02090C0D0E49
:102250000807030401000000000000000000000067
:10226000000000000000000000000000000000006E
:10227000000000121110000000000000000000002B
:102280000000000000000000000000000047322FA6
:1022900047332062616420706172616D657465729C
:1022A000730A003C3C3C204732380A003E20686FED
:1022B0006D696E67206E6F74206E65656465642C51
:1022C00020736B69700A003C3C3C204732380A009E
:1022D0005261697365205A20286265666F726520B5
:1022E000686F6D696E672920746F20003E20656EEF
:1022F0006473746F70732E656E61626C652874729E
:102300007565290A003E3E3E204732380A00205AB1
:102310003A200020593A200042656420583A2000B3
:102320004D65736820706F696E742063616E6E6FA7
:1023300074206265207265736F6C7665640A005064
:1023400072696E742074696D653A20006F6666006C
:1023500041023C0235022E0220021702444542553A
:10236000473A004D3131332053006F6B00544845DC
:10237000524D414C5F50524F54454354494F4E00CB
:102380004155544F5245504F52545F53445F53543C
:102390004154555300454D455247454E43595F50B2
:1023A000415253455200434153455F4C49474854BD
:1023B0005F4252494748544E45535300544F474794
:1023C0004C455F4C494748545300534F465457417E
:1023D00052455F504F574552004255494C445F505B
:1023E000455243454E54004C4556454C494E475F77
:1023F00044415441005A5F50524F424500415554A8
:102400004F4C4556454C005052494E545F4A4F423E
:102410000050524F4752455353004155544F524577
:10242000504F52545F54454D5000564F4C554D45FA
:102430005452494300454550524F4D00534552496F
:10244000414C5F584F4E5F584F4646004649524DEB
:10245000574152455F4E414D453A4D61726C696E30
:10246000204A313850465F3230303731345F3135B1
:1024700034395F484120534F555243455F434F44E1
:10248000455F55524C3A68747470733A2F2F6769E0
:10249000746875622E636F6D2F6168617273686115
:1024A000632F46574A756C6961323031384D61721D
:1024B0006C696E2050524F544F434F4C5F564552FB
:1024C00053494F4E3A312E30204D414348494E45F5
:1024D0005F545950453A4A756C69612050726F20BB
:1024E0004475616C2041424C20323456204558548A
:1024F00052554445525F434F554E543A322055553C
:1025000049443A30313038613539392D3362393503
:102510002D343138362D613633362D3036396562FB
:10252000353938373963300A002F2F200020540006
:10253000205200416363656C65726174696F6E3A25
:102540002050003F4A206F7574206F662072616EC4
:1025500067652028302E303120746F20302E3329CB
:102560000A00000020C20080C5430000C843546F29
:102570006F206661722066726F6D2072656665728B
:10258000656E636520706F696E740A00FF0101203B
:10259000466C6F773A2000000136372603FFFFFFB5
:1025A000353C3D38FF0FFFFF312E303EFF13FFFF5C
:1025B000FF28390C0809FFFFFF1A1C18FFFF2A2407
:1025C000221EFFFF2C08440AFF4307FF45206F75BA
:1025D00074206F662072616E67650A0053657276BB
:1025E0006F2000496E76616C69642065787472753D
:1025F0006465720A0020643A0020693A0020703A4B
:102600000043290A0061626C656420286D696E20B0
:1026100074656D702000436F6C642065787472750A
:102620006465732061726520004E6F20636173657D
:10263000206C696768740A004D65736820706F6963
:102640006E742063616E6E6F7420626520726573B4
:102650006F6C7665640A004D34323120696E636FA9
:10266000727265637420706172616D657465722049
:1026700075736167650A00454550524F4D204F4BB9
:102680000A003F5A206F7574206F662072616E6772
:102690006520282D323020746F203230290A003A0C
:1026A000200050726F6265205A204F666673657411
:1026B000003C3C3C2067636F64655F540A00203A2D
:1026C0002041465445520A00202063757272656E9F
:1026D000745F706F736974696F6E3D00203A2042B9
:1026E00045464F52450A00202063757272656E742C
:1026F0005F706F736974696F6E3D003E3E3E206788
:10270000636F64655F54280020503A00205A3A00F5
:1027100020593A0020583A00656E6473746F7073E4
:10272000206869743A2000556E6B6E6F776E206377
:102730006F6D6D616E643A202200203A203C3C3C73
:102740002072756E5F7A5F70726F62650A0020207A
:1027500063757272656E745F706F736974696F6EA2
:102760003D002044697363726570616E63793A005D
:10277000326E642050726F6265205A3A00203A200F
:102780003C3C3C2072756E5F7A5F70726F62650AC6
:1027900000202063757272656E745F706F73697468
:1027A000696F6E3D00534C4F572050726F62652029
:1027B0006661696C210A003173742050726F626522
:1027C000205A3A00203A203C3C3C2072756E5F7AD9
:1027D0005F70726F62650A00202063757272656EA9
:1027E000745F706F736974696F6E3D004641535436
:1027F0002050726F6265206661696C210A00203A80
:10280000203E3E3E2072756E5F7A5F70726F626529
:102810000A00202063757272656E745F706F736951
:1028200074696F6E3D003C3C3C2070726F62655F66
:1028300070740A0050726F62696E67206661696C1D
:1028400065640A0050524F42494E475F4641494C29
:1028500045440A00205A3A200020593A2000426597
:102860006420583A2000203A200A00202063757224
:1028700072656E745F706F736974696F6E3D005F2F
:1028800072656C6174697665290A002C20002C2021
:10289000002C20002C20003E3E3E2070726F6265AE
:1028A0005F707428002066697273740A005A0059B8
:1028B000005800486F6D6520006563686F3A0045F9
:1028C0003220544845524D414C2052554E415741BB
:1028D0005900453120544845524D414C2052554EE7
:1028E000415741590042454420544845524D414CBE
:1028F0002052554E4157415900546865726D616CC4
:102900002052756E61776179005072696E746572DC
:102910002068616C7465642E206B696C6C282920BA
:1029200063616C6C6564210A004572726F723A00D3
:10293000689D11241FBECFEFD1E2DEBFCDBF00E006
:102940000CBF13E0A0E0B2E0EEEBFDE701E00BBF4F
:1029500002C007900D92AE35B107D9F72FE0AEE572
:10296000B3E001C01D92AC38B207E1F714E1C9E948
:10297000D4E100E006C021970109802FFE010E94EA
:1029800094BEC839D10780E00807A9F70E94A39D2B
:102990000C94DDBE0C940000FC01DB018C912081C5
:1029A0003181382798E0A901220F331F57FD05C058
:1029B0009150C9F7318320830895B1E22B27B0E10C
:1029C0003B27F6CF8150823108F05AC0E82FF0E063
:1029D0008827E251FB4E8F4F0C9494BE0E151215B2
:1029E000001506150A15401515151B151F1525157B
:1029F00029152D153315371540153B15411545156E
:102A0000809180008F77809380000895809180006E
:102A10008F7DF9CF80918000877FF5CF84B58F7748
:102A200084BD089584B58F7DFBCF8091B0008F77F2
:102A30008093B00008958091B0008F7DF9CF809190
:102A400090008F77809390000895809190008F7D03
:102A5000F9CF80919000877FF5CF8091A0008F778C
:102A60008093A00008958091A0008F7DF9CF809180
:102A7000A000877FF5CF809120018F778093200180
:102A80000895809120018F7DF9CF80912001877F6B
:102A9000F5CFCF93DF93282F30E0F901E95BFD4DAF
:102AA0008491F901EF5FFD4DD491F901E554FE4D9C
:102AB000C491CC23A1F081110E94E214EC2FF0E02C
:102AC000EE0FFF1FEF55FE4DA591B491EC91ED2354
:102AD00081E090E009F480E0DF91CF91089580E0FB
:102AE00090E0FACF1F93CF93DF93282F30E0F901C6
:102AF000E95BFD4D8491F901EF5FFD4DD491F90142
:102B0000E554FE4DC491CC23A9F0162F81110E94EB
:102B1000E214EC2FF0E0EE0FFF1FE957FE4DA591F8
:102B2000B4918FB7F894EC91111108C0D095DE23C1
:102B3000DC938FBFDF91CF911F910895DE2BF8CFEB
:102B4000CF93DF9390E0FC01EF5FFD4D249185541E
:102B50009E4DFC0184918823D1F090E0880F991F4D
:102B6000FC01E359FE4DA591B491FC01E957FE4DDE
:102B7000C591D49161110EC09FB7F8948C91E22F4A
:102B8000E0958E238C932881E223E8839FBFDF9119
:102B9000CF9108958FB7F894EC91E22BEC938FBF0F
:102BA000F6CF1F93CF93DF93182FEB0161E00E94C4
:102BB000A015209739F460E0812FDF91CF911F910C
:102BC0000C947215CF3FD10511F461E0F5CFE12FE0
:102BD000F0E0E95BFD4DE491E150E23108F0B3C073
:102BE000F0E08827E950FA4E8F4F0C9494BE0916F6
:102BF0001116161620162A16A31634163C1644165D
:102C00004E165816621671167B16A31685168F1669
:102C1000991684B5806884BDC7BDDF91CF911F919F
:102C2000089584B5806284BDC8BDF7CF80918000CF
:102C3000806880938000D0938900C0938800EDCF96
:102C400080918000806280938000D0938B00C0933D
:102C50008A00E3CF80918000886080938000D093C9
:102C60008D00C0938C00D9CF8091B0008068809394
:102C7000B000C093B300D1CF8091B0008062809348
:102C8000B000C093B400C9CF809190008068809359
:102C90009000D0939900C0939800BFCF809190008E
:102CA000806280939000D0939B00C0939A00B5CF30
:102CB00080919000886080939000D0939D00C09395
:102CC0009C00ABCF8091A00080688093A000809191
:102CD000A0008F7B8093A000D093A900C093A80090
:102CE0009CCF8091A00080628093A000D093AB0025
:102CF000C093AA0092CF8091A00088608093A0002A
:102D0000D093AD00C093AC0088CF80912001806843
:102D100080932001D0932901C09328017ECF809118
:102D20002001806280932001D0932B01C0932A015F
:102D300074CF80912001886080932001D0932D0171
:102D4000C0932C016ACFC038D1050CF03ECF33CFF1
:102D5000789484B5826084BD84B5816084BD85B576
:102D6000826085BD85B5816085BDEEE6F0E080813D
:102D700081608083E1E8F0E010828081826080835E
:102D8000808181608083E0E8F0E0808181608083E1
:102D9000E1EBF0E0808184608083E0EBF0E0808113
:102DA00081608083E1E9F0E08081826080838081BE
:102DB00081608083E0E9F0E0808181608083E1EAE6
:102DC000F0E0808182608083808181608083E0EA9E
:102DD000F0E0808181608083E1E2F1E080818260C7
:102DE0008083808181608083E0E2F1E08081816086
:102DF0008083EAE7F0E08081846080838081826064
:102E0000808380818160808380818068808310924C
:102E1000C10008953FB7F8948091C80B9091C90BF9
:102E2000A091CA0BB091CB0B26B5A89B05C02F3F34
:102E300019F00196A11DB11D3FBFBA2FA92F982FE0
:102E40008827BC01CD01620F711D811D911D42E0DB
:102E5000660F771F881F991F4A95D1F708958F92A3
:102E60009F92AF92BF92CF92DF92EF92FF926B014F
:102E70007C010E940A174B015C01C114D104E104DA
:102E8000F104B9F00E940A17681979098A099B09A7
:102E9000683E73408105910580F321E0C21AD10894
:102EA000E108F10888EE880E83E0981EA11CB11C91
:102EB000E4CFFF90EF90DF90CF90BF90AF909F90C6
:102EC0008F9008952FB7F8946091C40B7091C50B43
:102ED0008091C60B9091C70B2FBF08958F929F9240
:102EE000AF92BF92CF92DF92EF92FF920F931F9318
:102EF000CF93DF93DC0170E0FB01EE0FFF1FEE5E6E
:102F0000FC4F20813181605F7C4FFB019081D92E85
:102F100080E0E82EF12CB7016D0D711D7595679558
:102F2000681711F0D61222C0492F4150550BFA01F3
:102F3000EE0FFF1FEE0FFF1F3296E20FF31F65919A
:102F40007491072E000C880B990B0E94CCB6DF9170
:102F5000CF911F910F91FF90EF90DF90CF90BF9096
:102F6000AF909F908F900895D62ED5CFAB01415052
:102F70005109440F551F440F551FF901E40FF51F68
:102F800005911491FA013496E20FF31FC591D49183
:102F9000A017B1074CF3862FCA17DB070CF4B9CF83
:102FA000FA013296E20FF31FE590F490FA0136969B
:102FB000E20FF31FC590D490BD01601B710B072E6B
:102FC000000C880B990B0E94CCB64B015C01B6013A
:102FD0006E197F09072E000C880B990B0E94CCB646
:102FE0009B01AC01C501B4010E942BB74B015C01F0
:102FF000BE01601B710B072E000C880B990B0E9401
:10300000CCB69B01AC01C501B4010E9448BC4B0188
:103010005C01B701FF0C880B990B0E94CCB69B0199
:10302000AC01C501B4010E944EBB91CFCF92DF929B
:10303000EF92FF92C090B70BD090B80BE090B90B15
:10304000F090BA0B60911C0C70911D0C66507109C8
:10305000072E000C880B990B0E94CCB6A701960195
:103060000E94AEBD18160CF520E030E040E050E4C0
:10307000C701B6010E944EBB0E94C1BC7093920B67
:103080006093910B0E9462176058774C8E4F9F4F50
:1030900060938D0B70938E0B80938F0B9093900B9E
:1030A000FF90EF90DF90CF90089510928D0B1092CB
:1030B0008E0B10928F0B1092900BF2CFCF92DF926B
:1030C000EF92FF920F931F93CF93DF93C82FD0E01F
:1030D0008E01000F111F000F111FF801E554F44F6E
:1030E000C080D180E280F380CC0FDD1FFE01ED5E59
:1030F000F34F6081718167507109072E000C880BB6
:10310000990B0E94CCB6A70196010E94AEBD0F5745
:10311000144F181614F5C757D44F20E030E040E0A4
:1031200050E4C701B6010E944EBB0E94C1BC798326
:1031300068830E94621760547B428E4F9F4FF80154
:103140006083718382839383DF91CF911F910F916D
:10315000FF90EF90DF90CF900895F80110821182D8
:1031600012821382F1CF8F929F92AF92BF92CF9231
:10317000DF92EF92FF920F931F93CF93DF93BCE107
:10318000A0E06A2F70E0AB014B0F511D559547959C
:10319000A41711F0B41319C0E6EDF0E26591749133
:1031A000072E000C880B990B0E94CCB6DF91CF91B3
:1031B0001F910F91FF90EF90DF90CF90BF90AF9055
:1031C0009F908F900895B42FDECF9A01215031093E
:1031D000220F331F220F331FF901E859FF4DE590ED
:1031E000F490F901E459FF4DC591D4918E159F05D6
:1031F00054F3A42FC817D9070CF4C3CFF901E6592B
:10320000FF4D05911491F901E259FF4DC590D490FD
:10321000BC016E197F09072E000C880B990B0E94C8
:10322000CCB64B015C01B601601B710B072E000C84
:10323000880B990B0E94CCB69B01AC01C501B4016F
:103240000E942BB74B015C01BE016E197F09072E4E
:10325000000C880B990B0E94CCB69B01AC01C501F8
:10326000B4010E9448BC6B017C01B801110F880BAE
:10327000990B0E94CCB69B01AC01C701B6010E941C
:103280004EBB94CF0F931F938091120C813019F590
:103290000E94621700914B0B10914C0B20914D0B2B
:1032A00030914E0B601B710B820B930B28EE33E0B9
:1032B00040E050E00E94EABA6091470B7091480BE1
:1032C0008091490B90914A0B620F731F841F951FC9
:1032D0001F910F91089560910E0C70910F0C8091C9
:1032E000100C9091110CD6CF1092120C10924B0B27
:1032F00010924C0B10924D0B10924E0B10920E0C24
:1033000010920F0C1092100C1092110C1092470B8F
:103310001092480B1092490B10924A0B08950F938C
:103320001F93CF93DF93C82F80916F00D82FD27057
:1033300081FF05C080916F008D7F80936F00609149
:10334000F20B7091F30B8091F40B9091F50B0091BF
:10335000F60B1091F70B2091F80B3091F90BC1305F
:1033600039F5601B710B820B930B0E94CCB620E0E9
:1033700030E040E05FE30E942BB70E94BABC24E03B
:10338000C29FF0011124E55CF44F60837183828356
:10339000938381E080933A0BDD2329F080916F00C5
:1033A000826080936F00DF91CF911F910F910895FC
:1033B000600F711F821F931FD8CF90916F00292F2C
:1033C000227091FF05C090916F009D7F90936F00D8
:1033D00094E0899FF0011124EE50F44F60817181D7
:1033E00082819381222329F020916F002260209313
:1033F0006F000895BC012091380B3091390B40913A
:10340000380B5091390B2417350731F481E026171A
:10341000370709F080E008959A01F1CFEF92FF920B
:103420000F931F93E0926B03F0926C0300936D0374
:1034300010936E0360936F03709370038093710316
:103440009FEFFF27621B730B840B30F48095709500
:103450006195790B890B992790936A03A6E06A9F7F
:1034600000925E03512DEE277A9F500DE11D8A9F39
:10347000E00D50935F03E0936003AFE06A9F00921A
:103480006203512DEE277A9F500DE11D8A9FE00DBA
:1034900050936303E0936403AAE06A9F009266037B
:1034A000512DEE277A9F500DE11D8A9FE00D50931C
:1034B0006703E09368031F910F91FF90EF900895C9
:1034C0008091F30A80FF2CC0899A8FEF8093EF0AD6
:1034D0008091F30A81FF27C08F9A8FEF8093F00AC3
:1034E0008091F30A82FF22C080910B018095827047
:1034F000809309018FEF8093F10A8091F40A9091F3
:10350000F30A93FF1CC0811118C016988FEF8093A7
:10351000F20A0000000082E08A950000E9F70895B1
:10352000899881E0D3CF8F9881E0D8CF80910B012B
:1035300082708093090181E0DECF439AE7CF811149
:1035400003C0169A81E0E3CF4398FCCF8091F00E40
:103550009091F10E891B8F7019F490E080E008952E
:103560009091ED0E992351F0833030F48FEF890F55
:1035700019F08093ED0EF1CF1092ED0E8091F10EC7
:103580002DE5829FC0011124815E9A4FFC012081AC
:1035900020FDE3CF2091F10E2F5F2F702093EE0ED0
:1035A0003091F10E2091EF0E321304C02091EE0EF7
:1035B0002093EF0E0895009781F41092900082E01E
:1035C000809391001092950010929400C19A80917E
:1035D000710082608093710008958130910569F4D3
:1035E0001092A00082E08093A1001092A50010929A
:1035F000A40089BB809372000895029761F4109231
:10360000200182E080932101109225011092240173
:103610008ABB809373000895AF92BF92CF92DF92DE
:10362000EF92FF920F931F93CF93DF936B017A0179
:10363000EC01C45EDA4F28813CE0389F8001399F5D
:10364000100D1124A090820FB12C27FF1FC0FB0189
:103650001182108288818F5F888388819801280F6A
:10366000311D87FD3A95F6012A153B051CF488812A
:103670008C30C4F180819181049680349C4908F497
:1036800073C0F60180819181049670C08881980191
:10369000280F311D87FD3A952A153B05DCF68881F8
:1036A000A801480F511D87FD5A95FA01EE0FFF1F23
:1036B000E40FF51FEA5EF04F808186FFCBCF888153
:1036C000F801E80FF11D87FDFA95CF01EE0FFF1FFE
:1036D000E80FF91FEA5EF04F808160E08F730E946F
:1036E0007215B8CF808191812881A801420F511DA8
:1036F00027FD5A959A01FA01EE0FFF1FE20FF31F03
:10370000EA5EF04F21813281820F931FF70191838E
:10371000808388819801280F311D87FD3A95F90132
:10372000EE0FFF1FE20FF31FEA5EF04F808186FF6E
:1037300022C08881080F111D87FD1A95F801EE0F30
:10374000FF1FE00FF11FEA5EF04F808161E08F7391
:10375000DF91CF911F910F91FF90EF90DF90CF906D
:10376000BF90AF900C94721580E49CE9F7019183AF
:1037700080838FEF8883DF91CF911F910F91FF900E
:10378000EF90DF90CF90BF90AF900895CF93C0910E
:10379000120C80E0C13069F1C23069F50E94421913
:1037A0006093470B7093480B8093490B90934A0B9F
:1037B00081E08093120C0E94621760934B0B709310
:1037C0004C0B80934D0B90934E0BC23089F080913F
:1037D0000C0590910D05019690930D0580930C05B5
:1037E000109208051092090510920A0510920B0517
:1037F00081E0CF9108950E947419DACF9F92AF9221
:10380000BF92CF92DF92EF92FF920F931F93CF93CD
:10381000DF9300D01F921F92CDB7DEB7E8E9F4E145
:103820000027BB27462F572FA82FAA2341F4A52FE7
:10383000542FB85FAA2319F4A52F5527B85FA031DC
:1038400038F45295A295452F4F70507FA42BBC5F42
:10385000A03428F4550FAA1F550FAA1FBE5FA03829
:1038600018F4550FAA1FB395550FAA1FEA0FF01FA2
:10387000449151E0AA27B85081F1C8F0B0FF02C0CE
:10388000440F551FB1FF04C0440F551F440F551F6F
:10389000B2FF06C052954295142F1F70407F512BE6
:1038A000B3FF1BC0A52F542F44270C946D1CB1955A
:1038B000B0FF02C055954795B1FF04C05595479597
:1038C00055954795B2FF05C05295407F4295452BCF
:1038D0005F70B3FF02C0452F5527DD24CC24BB24E5
:1038E000B2E0649FD018C108B00AB00B749FC01832
:1038F000B108B00B849FB018B109659FC018B1081A
:10390000B00B759FB018B109859FB0196A9FB018A8
:10391000B1097A9FB0194D9DA12C9924332799277D
:1039200022275D9DA00C911C301F901F201FAD9D74
:10393000900C311D901F201F4C9DA00C911C301F1E
:10394000901F201F5C9D900C311D901F201FAC9D6F
:10395000300D911D201F4B9D900C311D901F201F7D
:103960005B9D300D911D201FAB9D900D211D4B9F28
:10397000300D911D201F5B9F900D211DAB9F200DD1
:10398000B1E0BB24CC24DD24639FD018C108B00A69
:10399000B00B739FC018B108B00B839FB018B1096A
:1039A000699FC018B108B00B799FB018B109899F01
:1039B000B019629FB018B109729FB019D61AC70A20
:1039C000B80A20F0B1E03B0F901F201F1124792F7F
:1039D000632F90E0822F0F900F900F900F900F9019
:1039E000DF91CF911F910F91FF90EF90DF90CF90DB
:1039F000BF90AF909F9008954F925F926F927F9289
:103A00008F929F92AF92BF92EF92FF920F931F936C
:103A1000CF93DF93C5E4DCE085EBE82E8CE0F82E55
:103A200008E21CE0412C512C3201439469917991B8
:103A300089919991F70181909190A190B1907F0126
:103A40000E94CAB6A50194010E942BB70E94C1BC76
:103A5000F80161937193819391938F0146165706F4
:103A60006806790610F42B013C01FCE0C535DF0740
:103A7000E9F66FEF7FEFCB01A30192010E94EABA52
:103A80002093F3043093F4044093F5045093F60428
:103A9000DF91CF911F910F91FF90EF90BF90AF906A
:103AA0009F908F907F906F905F904F900895CF93ED
:103AB000DF9390916F00292F227091FF05C09091A4
:103AC0006F009D7F90936F0094E0899FA001112467
:103AD000FA01E55CF44F6081718182819381222338
:103AE00029F020916F00226020936F00EA01C950F5
:103AF000DB4F0E94CCB6288139814A815B810E94CC
:103B00002BB7DF91CF9108957F928F929F92AF92C2
:103B1000BF92CF92DF92EF92FF920F931F93CF93BA
:103B2000DF937090440CC7EADCE09DE3C92E92E07D
:103B3000D92E25E3E22E22E0F22E0CE31CE07720C2
:103B400009F45EC0F80180809180A280B38020E0FB
:103B500030E0A901C501B4010E94C5B6882309F46B
:103B60004FC020E030E040E05FE3C501B4010E94B7
:103B70002BB79B01AC010E942BB72BED3FE049E432
:103B800050E40E942BB79B01AC0160E070E080E83C
:103B90009FE30E9448BC4B015C0189929992A992D3
:103BA000B992F601619171916F01072E000C880B9B
:103BB000990B0E94CCB62AE037ED43E25CE30E9409
:103BC0002BB7A50194010E942BB7F7016193719364
:103BD000819391937F010C5F1F4FFCE0CF3ADF0789
:103BE00009F0ADCFDF91CF911F910F91FF90EF9032
:103BF000DF90CF90BF90AF909F908F907F9008956F
:103C0000812C912C80E8A82E8FE3B82EC6CFCF93BD
:103C1000DF9380913B0C811105C08091E1048823E2
:103C200009F46CC08091E004659958C08E7F809340
:103C3000E004909103018091E00490FF51C0806204
:103C40008093E0048091E0047B994CC0877F80934F
:103C5000E0048091E0044A9947C08F7B8093E004A0
:103C6000C0912B0BC0FF10C08091F30A84FF0CC0E1
:103C70008091E00480FF08C08091A20E8160809353
:103C8000A20E80E00E948F19C1FF10C08091F30A3C
:103C900085FD0CC08091E00485FF08C08091A20ED4
:103CA00080628093A20E81E00E948F19C2FF26C01D
:103CB0008091F30A82FF1AC08091E1048823F1F019
:103CC0008091E00483FF1AC08091A20E88608093E7
:103CD000A20E82E0DF91CF910C948F198160A7CF63
:103CE0008F7DAECF8860B3CF8064B8CF8091E00481
:103CF00086FF04C08091A20E8064E9CFDF91CF914E
:103D00000895CF92DF92EF92FF92CF93DF93EC0171
:103D1000C090D304D090D404E090D504F090D604A1
:103D2000A7019601688179818A819B810E94C5B62D
:103D300087FF04C0C882D982EA82FB82C090D70480
:103D4000D090D804E090D904F090DA04A70196014D
:103D50006C817D818E819F810E94C5B687FF04C0E2
:103D6000CC82DD82EE82FF82C0900A02D0900B02EC
:103D7000E0900C02F0900D02A70196016881798114
:103D80008A819B810E94AEBD181624F4C882D98214
:103D9000EA82FB82C0900E02D0900F02E0901002E7
:103DA000F0901102A70196016C817D818E819F8127
:103DB0000E94AEBD181624F4CC82DD82EE82FF8212
:103DC000C090DB04D090DC04E090DD04F090DE04D1
:103DD000A7019601688579858A859B850E94C5B66D
:103DE00087FF04C0C886D986EA86FB86C090120287
:103DF000D0901302E0901402F0901502A7019601F2
:103E0000688579858A859B850E94AEBD181624F445
:103E1000C886D986EA86FB86DF91CF91FF90EF9026
:103E2000DF90CF9008954F925F926F927F928F9222
:103E30009F92AF92BF92CF92DF92EF92FF92CF9379
:103E40004B015C0169017A0120E030E040E251E47D
:103E50000E944DBB2B013C012FE632E143E85AEBB7
:103E60000E94AEBD87FD50C021E230E049EB53E433
:103E7000C301B2010E94C5B618160CF445C020E07B
:103E800030E040E251E4C701B6010E944DBB2B0176
:103E90003C012FE632E143E85AEB0E94AEBD87FDBC
:103EA00033C021E230E845EC53E4C301B2010E9483
:103EB000C5B618164CF124EF3DEF47EC51E4C501AF
:103EC000B4010E94AEBD87FD1FC021E230E84CEA7C
:103ED00053E4C501B4010E94C5B61816ACF024EF36
:103EE0003DEF47EC51E4C701B6010E94AEBD87FD2E
:103EF0000BC0C1E021E230E848EB53E4C701B60152
:103F00000E94C5B618160CF4C0E08C2FCF91FF901C
:103F1000EF90DF90CF90BF90AF909F908F907F9069
:103F20006F905F904F900895129A479A08955F9A04
:103F30008091B80E8E7F8093B80E8A9A8091B80EC9
:103F40008D7F8093B80E8091080180958170809359
:103F500006018091B80E8B7F8093B80E0C94941F4D
:103F6000CF92DF92EF92FF926091EA0B7091EB0B90
:103F7000072E000C880B990B0E94CCB66B017C01BC
:103F80002DEB37E346E855EB0E94AEBD87FD0BC035
:103F90002DEB37E346E855E3C701B6010E94C5B6ED
:103FA00018160CF043C0A701960160E070E080E8AD
:103FB0009FE30E9448BC60938F04709390048093A9
:103FC0009104909392046091EC0B7091ED0B072E8D
:103FD000000C880B990B0E94CCB66B017C012DEB79
:103FE00037E346E855EB0E94AEBD87FD0AC02DEBD6
:103FF00037E346E855E3C701B6010E94C5B6181677
:10400000CCF4A701960160E070E080E89FE30E9495
:1040100048BC6093930470939404809395049093A8
:104020009604FF90EF90DF90CF90089560E070E0ED
:10403000CB01C1CF60E070E0CB01EBCF9091730377
:10404000E92FF0E0EC5EF24F80839F5F943040F404
:10405000909373038091A40E8F5F8093A40E0895B4
:1040600010927303F7CF2FEB280F2A3108F042C0CC
:10407000E22FF0E08091E60B9091E70BA091E80B26
:10408000B091E90B04C0B695A795979587952A95A9
:10409000D2F780FD02C081700895E453F44FE081AF
:1040A000EE2329F18091A50E9091A60EE80FF92F2D
:1040B000F11D808190ED980F9A3030F08E3251F4DE
:1040C000818180538A3098F4F093720CE093710CE4
:1040D00081E008958D3211F08B3249F4818190EDA9
:1040E000980F9A3088F38E3211F48281EACFF0E093
:1040F000E0E0EACF80E008950E943320882341F079
:1041000081E02091710C3091720C232B09F480E036
:10411000089580E1EDEBFEE0A7EABEE001900D928C
:104120008A95E1F708959091C00095FFFCCF8093A8
:10413000C6000895FF920F931F93CF93DF93809152
:10414000DA0E082F0270182F1470982F9170F92E24
:1041500080FD11C0C9EBD8E2FE0184912196811146
:1041600015C0C3EBD8E2FE0184912196882389F023
:104170000E949320F8CF002369F380E0112351F3CC
:10418000DF91CF911F910F91FF9008950E9493208E
:10419000E3CFF1100AC0C1EBD8E2FE018491219671
:1041A000882319F00E949320F8CF01110AC0CFEAAA
:1041B000D8E2FE0184912196882319F00E94932071
:1041C000F8CF11110AC0CDEAD8E2FE018491219600
:1041D000882319F00E949320F8CFC5EAD8E2FE01A7
:1041E00084912196882319F00E949320F8CF81E0D2
:1041F000C7CF1F93CF93DF93162FEC01FE0184915D
:104200002196882319F00E949320F8CF812FDF9107
:10421000CF911F910C9493200F931F93CF93DF9313
:10422000162F072FEC01FE0184912196811108C001
:10423000C12FD02F8991882331F00E949320FACF8B
:104240000E949320F0CFDF91CF911F910F9108959D
:10425000CF93DF93C9EBD8E2FE01849121968823A6
:1042600019F00E949320F8CF6091A50E7091A60ED0
:1042700087E297E20E940C2182E20E9493208AE06A
:10428000DF91CF910C949320CF93DF93C8E8D2E1D4
:10429000FE018491219681110AC0C0E8D2E1FE019D
:1042A00084912196882331F00E949320F8CF0E94B8
:1042B0009320EECF659908C0C4E2D3E089918823AA
:1042C00031F00E949320FACFCAE1D3E0F7CF8AE021
:1042D0000E949320C8E7D2E1FE01849121968823B1
:1042E00019F00E949320F8CF80910301C4E2D3E03B
:1042F00080FF02C0CAE1D3E08991882319F00E94AF
:104300009320FACF8AE00E949320C0E7D2E1FE0119
:1043100084912196882319F00E949320F8CF4A9B1C
:1043200008C0CAE1D3E08991882331F00E9493202C
:10433000FACFC4E2D3E0F7CF8AE00E949320C6E62A
:10434000D2E1FE0184912196882319F00E949320E6
:10435000F8CF7B9B08C0CAE1D3E08991882331F074
:104360000E949320FACFC4E2D3E0F7CF8AE0DF9136
:10437000CF910C949320CF93DF93873B9240A1F091
:10438000C9E2D9E2FE018491219681110AC0CAEEE8
:10439000DEE0FE0184912196882351F00E94932053
:1043A000F8CF0E949320EECF80E0DF91CF91089567
:1043B00081E0FBCFCF93DF93CDECDEE0FE01849173
:1043C0002196882319F00E949320F8CF8AE0DF918C
:1043D000CF910C949320CF93DF93C9E2D9E2FE01F1
:1043E0008491219681110AC0C5E2D8E0FE01849132
:1043F0002196882331F00E949320F8CF0E949320C9
:10440000EECFDF91CF9108958091690490916A0475
:104410002FEF3FEF981751F0E92FF0E0E751FC4FF5
:10442000208130E09F5F9F7790936A04C9010895CF
:10443000CF92DF92EF92FF92CF9380916F00C82FBF
:10444000C27081FF05C080916F008D7F80936F00E7
:1044500080E00E94DD196B017C0181E00E94DD1982
:104460006C0D7D1D8E1D9F1D0E94CCB620E030E09E
:1044700040E05FE30E942BB79B01AC01CC2329F005
:1044800080916F00826080936F006091F70470915B
:10449000F8048091F9049091FA040E942BB760937C
:1044A0009704709398048093990490939A04809150
:1044B0006F00C82FC27081FF05C080916F008D7F93
:1044C00080936F0080E00E94DD196B017C0181E028
:1044D0000E94DD19A7019601261B370B480B590BCB
:1044E000CA01B9010E94CCB620E030E040E05FE3B1
:1044F0000E942BB79B01AC01CC2329F080916F0067
:10450000826080936F006091FB047091FC04809145
:10451000FD049091FE040E942BB760939B0470935E
:104520009C0480939D0490939E0482E00E94DD1978
:104530000E94CCB69B01AC016091FF047091000514
:1045400080910105909102050E942BB760939F0412
:104550007093A0048093A1049093A204CF91FF9044
:10456000EF90DF90CF900895CF92DF92EF92FF927D
:104570000F931F93CF93DF93CDB7DEB7A0970FB6FE
:10458000F894DEBF0FBECDBF6115710581059105A1
:1045900079F100E0C42ED12CF12CE12CA701960179
:1045A0000E94EABA11E0100FE1E0F0E0EC0FFD1F0D
:1045B000E00FF11D07FDFA956083B901CA01012FD3
:1045C000611571058105910549F7115010F1E1E080
:1045D000F0E0EC0FFD1FE10FF11D17FDFA95908142
:1045E00087E39A3008F480E3890F0E949320EDCF8F
:1045F00080E3A0960FB6F894DEBF0FBECDBFDF916B
:10460000CF911F910F91FF90EF90DF90CF900C947E
:104610009320A0960FB6F894DEBF0FBECDBFDF91FA
:10462000CF911F910F91FF90EF90DF90CF90089561
:10463000CF92DF92EF92FF92CF93DF936A017B01DB
:10464000EC01FE0184912196882319F00E949320A9
:10465000F8CF4AE0C701B601DF91CF91FF90EF900C
:10466000DF90CF900C94B422CF92DF92EF92FF9222
:104670006B017C01F7FE0BC08DE20E949320F09449
:10468000E094D094C094C11CD11CE11CF11C4AE000
:10469000C701B601FF90EF90DF90CF900C94B42249
:1046A0000F931F93CF93DF93EB018C01F80184915B
:1046B0000F5F1F4F882319F00E949320F7CFBE0190
:1046C000DD0F880B990BDF91CF911F910F910C9407
:1046D00034238F929F92AF92BF92CF92DF92EF924C
:1046E000FF92CF93DF93C9EBD8E2FE01849121962C
:1046F000882319F00E949320F8CF70E060E085ECE9
:104700009EE00E9450238091850F58E5C52E52E00F
:10471000D52EC81AD10887FDD394CC0CDD1CCC0C47
:10472000DD1C0D2C000CEE08FF088091840F78E84A
:10473000872E912C881A910887FD9394880C991CD8
:10474000880C991C092C000CAA08BB088091830FC7
:104750008F3F09F442C090E0FC01EE0FFF1FE80F0D
:10476000F91FEA5EF04F8181928133E0880F991F33
:104770003A95E1F7B0E0A0E044E0B595A7959795AC
:1047800087954A95D1F702969C012F5F3F4F032EE4
:10479000000C440B550B281939094A095B09A4EB95
:1047A000B0E00E942BBBA7019601281939094A09DC
:1047B0005B090E940CBBB90182EC9EE00E94502371
:1047C0008AE0DF91CF91FF90EF90DF90CF90BF9084
:1047D000AF909F908F900C94932090E080E0D4CF86
:1047E000CF93DF938091690480936A04C0EBDBE090
:1047F000FE0184912196882319F00E949320F8CF1E
:104800006091DD0E7091DE0E8091DF0E9091E00ED2
:104810006F5F7F4F8F4F9F4F0E9434238AE00E942B
:104820009320E091A30EF0E0EC5EF24F80818823AC
:1048300021F0DF91CF910C94DA21DF91CF9108958F
:104840000F931F93CF93DF93182F092FC9E2D9E25B
:10485000FE018491219681110AC0C12FD02FFE0143
:1048600084912196882331F00E949320F8CF0E94F2
:104870009320EECF6091DD0E7091DE0E8091DF0E01
:104880009091E00E0E9434238AE00E9493200E94BF
:10489000F0231092DC0E1092DB0EDF91CF911F916E
:1048A0000F910895FF920F931F93CF93DF93082FDB
:1048B000F92E162FC2EFD9E0FE01849121968111C5
:1048C00011C0C02FDF2DFE018491219681110DC0F2
:1048D000C0EFD9E0FE0184912196882349F00E941F
:1048E0009320F8CF0E949320E7CF0E949320EBCF34
:1048F000612F70E090E080E00E9434238AE0DF9135
:10490000CF911F910F91FF900C9493208F929F92C3
:10491000AF92BF92CF92DF92EF92FF92CF936B0153
:104920007C01B42E20E030E0A9010E94C5B687FFCB
:1049300007C08DE20E949320F7FAF094F7F8F09404
:10494000C0E060E070E080E09FE3CB1541F02DEC2B
:104950003CEC4CEC5DE30E942BB7CF5FF6CF9B01A4
:10496000AC01C701B6010E944EBB6B017C010E94E5
:10497000C1BC4B015C014AE00E94B422CC2391F1FE
:10498000C501B4010E94CAB69B01AC01C701B601C2
:104990000E944DBB6B017C018EE20E949320C150AE
:1049A00008F120E030E040E251E4C701B6010E9486
:1049B0002BB74B015C010E94BABC6B01770FEE086C
:1049C000FF08C701B6010E943423C701B6010E9447
:1049D000CCB69B01AC01C501B4010E944DBB6B017B
:1049E0007C01DDCFCF91FF90EF90DF90CF90BF9013
:1049F000AF909F908F900895CF92DF92EF92FF92A9
:104A0000CF93DF936A017B01EC01FE018491219633
:104A1000882319F00E949320F8CF42E0C701B60125
:104A2000DF91CF91FF90EF90DF90CF900C94862490
:104A3000EF92FF920F931F93CF937C018B01C42FB2
:104A400080E20E94932084E5CF3F09F482E40E9433
:104A50009320C7FD04C080E38C0F0E9493208AE35B
:104A60000E949320F701608171818281938142E0ED
:104A70000E948624F80140815181628173818EE514
:104A800091E20E94FC2462E070E080E090E0CF912F
:104A90001F910F91FF90EF900C942F17EF92FF92C0
:104AA0000F931F93CF93DF9300D000D01F921F92DC
:104AB000CDB7DEB70091D20C10E0F801EE0FFF1F6A
:104AC000ED5EF34F60817181072E000C880B990B0E
:104AD0000E94CCB66D837E838F839887F801EE0F9A
:104AE000FF1FEE0FFF1FE554F44F80819181A281DB
:104AF000B38189839A83AB83BC834DEFBE016B5F27
:104B00007F4FCE0101960E94182560911C0C709178
:104B10001D0C072E000C880B990B0E94CCB66D83E0
:104B20007E838F8398878091B70B9091B80BA0916B
:104B3000B90BB091BA0B89839A83AB83BC834FEFD7
:104B4000BE016B5F7F4FCE0101960E9418256091D8
:104B5000130C7091140C072E000C880B990B0E94FB
:104B6000CCB66D837E838F8398878091BB0B9091A9
:104B7000BC0BA091BD0BB091BE0B89839A83AB8314
:104B8000BC8340E0BE016B5F7F4FCE0101960E9467
:104B900018256091150C7091160C072E000C880BCF
:104BA000990B0E94CCB66D837E838F83988780910A
:104BB000BF0B9091C00BA091C10BB091C20B898328
:104BC0009A83AB83BC8341E0BE016B5F7F4FCE0114
:104BD00001960E94182529E6E22E21E2F22EF70125
:104BE0008491FFEFEF1AFF0A882319F00E949320A7
:104BF000F6CFF801EC54F44F608170E090E080E073
:104C00000E94342304E611E2F80184910F5F1F4FE4
:104C1000882319F00E949320F7CF6091B60B70E0C3
:104C200090E080E00E94342370E060E081E691E251
:104C30000E9450238AE30E9493206091B40B70E09D
:104C400090E080E00E94342361E070E081E691E230
:104C50000E9450238AE30E9493206091B50B70E07C
:104C600090E080E00E94342328960FB6F894DEBFCF
:104C70000FBECDBFDF91CF911F910F91FF90EF90AD
:104C800008952F923F924F925F926F927F928F92F0
:104C90009F92AF92BF92CF92DF92EF92FF920F93CB
:104CA0001F93CF93DF93082F10E0E801CC0FDD1F97
:104CB000CC0FDD1FFE01EE5FF34F4080518062801C
:104CC0007380CE018353914F7C01FE01ED57F34F6A
:104CD0001F01A301920160817181828193810E94F1
:104CE0004EBBF7016083718382839383FE01E5539A
:104CF000FC4F85909590A590B490FE01ED52FB4F2E
:104D000080829182A282B382FE01E952FC4FC5905B
:104D1000D590E590F490C65FDD4FC882D982EA82D3
:104D2000FB828091D90E85FF38C0F801EA5EFC4F06
:104D300060818AE394E00E94F920F1014081518171
:104D40006281738183E294E00E94FC24B301A2019A
:104D50008FE094E00E94FC24B501A40189EF93E068
:104D60000E94FC24B701A60183EE93E00E94FC247C
:104D70008AE0DF91CF911F910F91FF90EF90DF902C
:104D8000CF90BF90AF909F908F907F906F905F90EB
:104D90004F903F902F900C949320DF91CF911F91D3
:104DA0000F91FF90EF90DF90CF90BF90AF909F90CA
:104DB0008F907F906F905F904F903F902F900895CD
:104DC0007F928F929F92AF92BF92CF92DF92EF929B
:104DD000FF920F931F93CF93DF93782E81110AC018
:104DE000C9EBD8E2FE0184912196882319F00E9434
:104DF0009320F8CFCBE5D2E1FE0184912196811179
:104E00000DC03CE1E32E30E1F32EE701FE01849179
:104E10002196882331F00E949320F8CF0E9493209E
:104E2000EBCF8AE00E9493208AE00E9493207110C9
:104E300025C0C9EBD8E28E01F80184910F5F1F4FA6
:104E400081110BC008E412E1F80184910F5F1F4F3C
:104E5000882331F00E949320F7CF0E949320ECCF5B
:104E60008091440C0DE312E1882319F18AE00E943D
:104E70009320FE01849121968111F9CF40913C0C41
:104E800050913D0C60913E0C70913F0C84E392E197
:104E90000E94FC248AE00E949320711013C0C9EB89
:104EA000D8E2FE0184912196882361F00E9493202C
:104EB000F8CFF80184910F5F1F4F8823D1F20E9431
:104EC0009320F7CF4091400C5091410C6091420CDF
:104ED0007091430C88E292E10E94FC248AE00E94D7
:104EE00093208091440C811116C071100AC0C9EB47
:104EF000D8E2FE0184912196882319F00E94932024
:104F0000F8CFCDE1D2E1FE0184912196882319F0FA
:104F10000E949320F8CF71101FC0C9EBD8E28E0118
:104F2000F80184910F5F1F4F81110BC00CE012E15B
:104F3000F80184910F5F1F4F882331F00E94932066
:104F4000F7CF0E949320ECCFFE0184912196882315
:104F500019F00E949320F8CF4091B50C5091B60CF7
:104F60006091B70C7091B80C84E092E10E94FC242F
:104F70004091B90C5091BA0C6091BB0C7091BC0C73
:104F800081E092E10E94FC244091BD0C5091BE0C46
:104F90006091BF0C7091C00C8EEF91E10E94FC24D7
:104FA0004091C10C5091C20C6091C30C7091C40C23
:104FB0008BEF91E10E94FC248AE00E949320711003
:104FC0001FC0C9EBD8E28E01F80184910F5F1F4F1B
:104FD00081110BC00DED11E1F80184910F5F1F4F9E
:104FE000882331F00E949320F7CF0E949320ECCFCA
:104FF000FE0184912196882319F00E949320F8CF16
:105000004091550C5091560C6091570C7091580C72
:1050100084ED91E10E94FC244091590C50915A0C6E
:1050200060915B0C70915C0C81ED91E10E94FC241D
:1050300040915D0C50915E0C60915F0C7091600C22
:105040008EEC91E10E94FC244091610C5091620C25
:105050006091630C7091640C8BEC91E10E94FC24D4
:105060008AE00E94932071101FC0C9EBD8E28E0124
:10507000F80184910F5F1F4F81110BC009EA11E104
:10508000F80184910F5F1F4F882331F00E94932015
:10509000F7CF0E949320ECCFFE01849121968823C4
:1050A00019F00E949320F8CF4091450C5091460C86
:1050B0006091470C7091480C80EA91E10E9418239E
:1050C0004091490C50914A0C60914B0C70914C0CE2
:1050D0008DE991E10E94182340914D0C50914E0CA6
:1050E00060914F0C7091500C8AE991E10E94182355
:1050F0004091510C5091520C6091530C7091540C92
:1051000087E991E10E9418238AE00E9493207110A0
:105110001FC0C9EBD8E28E01F80184910F5F1F4FC9
:1051200081110BC00DE411E1F80184910F5F1F4F55
:10513000882331F00E949320F7CF0E949320ECCF78
:10514000FE0184912196882319F00E949320F8CFC4
:1051500040916D0C50916E0C60916F0C7091700CC1
:1051600084E491E10E94FC244091650C5091660C0E
:105170006091670C7091680C81E491E10E94FC24BD
:105180004091690C50916A0C60916B0C70916C0CA1
:105190008EE391E10E94FC248AE00E94932071102A
:1051A0002AC0C9EBD8E28E01F80184910F5F1F4F2E
:1051B000811113C006EF10E1F80184910F5F1F4FBA
:1051C00081110EC009EE10E1F80184910F5F1F4FAD
:1051D000882349F00E949320F7CF0E949320E4CFC8
:1051E0000E949320E9CF8AE00E949320FE018491DF
:1051F00021968111F9CF40917F0C5091800C6091E4
:10520000810C7091820C80EE90E10E9418234091F5
:105210007B0C50917C0C60917D0C70917E0C8DED1F
:1052200090E10E94FC244091770C5091780C6091A1
:10523000790C70917A0C8AED90E10E94FC244091E7
:10524000730C5091740C6091750C7091760C87ED15
:1052500090E10E94FC248AE00E94932071101FC0FC
:10526000C9EBD8E28E01F80184910F5F1F4F8111C5
:105270000BC009EC10E1F80184910F5F1F4F8823E8
:1052800031F00E949320F7CF0E949320ECCFFE01D3
:1052900084912196882319F00E949320F8CF4091A1
:1052A000830C5091840C6091850C7091860C80EC7D
:1052B00090E10E94FC244091870C5091880C6091F1
:1052C000890C70918A0C8DEB90E10E94FC24409136
:1052D0008B0C50918C0C60918D0C70918E0C8AEB24
:1052E00090E10E94FC248AE00E94932071105DC12D
:1052F000C9EBD8E28E01F80184910F5F1F4F811135
:105300000BC009EA10E1F80184910F5F1F4F882359
:1053100031F00E949320F7CF0E949320ECCFFE0142
:1053200084912196882309F440C10E949320F7CFED
:105330000E949320FE01849121968111F9CFC3E848
:10534000D0E1FE0184912196882319F00E949320D8
:10535000F8CFF80184910F5F1F4F882309F458C1DB
:105360000E949320F6CFB80180E790E10E9450237D
:10537000BE018DE690E10E9450238AE6882E80E1EE
:10538000982EF4018491FFEF8F1A9F0A882319F059
:105390000E949320F6CFF501608171818281938113
:1053A00045E00E9486248AE00E9493200F5F1F4FF1
:1053B000F0E1AF0EB11C0430110509F043C1219694
:1053C00084E0C80ED11CC430D10509F038C1711079
:1053D00018C0C9EBD8E28E01F80184910F5F1F4F0E
:1053E00081110CC00BE510E1F80184910F5F1F4F94
:1053F000882309F44AC00E949320F6CF0E9493208C
:10540000EBCFD0E0C0E0BE0182E590E10E945023E6
:105410004091CD0C5091CE0C6091CF0C7091D00C7E
:105420008FE490E10E94FC242CEA35EC47E25EE335
:105430006091C90C7091CA0C8091CB0C9091CC0CEE
:105440000E9448BCAB01BC018CE490E10E94FC24AA
:105450002CEA35EC47E25EE36091C50C7091C60C16
:105460008091C70C9091C80C0E942BB7AB01BC0176
:1054700089E490E10E94FC248AE00E949320219715
:1054800009F477C0C1E0D0E0BECF09EB18E2F80123
:1054900084910F5F1F4F882319F00E949320F7CF4C
:1054A0004091CD0C5091CE0C6091CF0C7091D00CEE
:1054B00080E490E10E94FC242CEA35EC47E25EE3B4
:1054C0006091C90C7091CA0C8091CB0C9091CC0C5E
:1054D0000E9448BCAB01BC018DE390E10E94FC241A
:1054E0002CEA35EC47E25EE36091C50C7091C60C86
:1054F0008091C70C9091C80C0E942BB7AB01BC01E6
:105500008AE390E10E94FC248AE00E94932009EB48
:1055100018E2F80184910F5F1F4F81110BC00BE25D
:1055200010E1F80184910F5F1F4F882341F00E9422
:105530009320F7CF0E949320ECCF0E949320F70195
:105540008491FFEFEF1AFF0A8111F7CF09E110E113
:10555000F80184910F5F1F4F882319F00E94932058
:10556000F7CFFE0184912196882319F00E949320A1
:10557000F8CF4091B90E5091BA0E6091BB0E709168
:10558000BC0E82E290E10E94FC248AE0DF91CF9180
:105590001F910F91FF90EF90DF90CF90BF90AF9051
:1055A0009F908F907F900C94932061E070E080EA50
:1055B00090E10E9450234091930C5091940C609183
:1055C000950C7091960C8DE990E10E94FC2440911D
:1055D0009B0C50919C0C60919D0C70919E0C8AE9E3
:1055E00090E10E94FC244091A30C5091A40C609186
:1055F000A50C7091A60C87E990E10E94FC248AE03A
:105600000E94932009EB18E2E801772009F492CE7A
:105610006091E20470E08AE790E10E9450238AE002
:105620000E9493208091EA0B9091EB0B892B09F457
:10563000CECE23EDC22E2CE0D22ED0E0C0E056011B
:1056400010E000E071108FCE99EB892E98E2992E30
:10565000F4018491FFEF8F1A9F0A882309F483CE07
:105660000E949320F5CFCF93DF93C2EBDEE0FE01E3
:1056700084912196882319F00E949320F8CFCFE8D7
:10568000DCE080E20E94932069917991899199915F
:1056900042E00E9486248CE20E9493206C817D81EE
:1056A0008E819F8142E00E9486248CE20E9493209A
:1056B0006C857D858E859F8542E00E948624FCE076
:1056C000C739DF07F1F68AE0DF91CF910C94932080
:1056D0004F925F926F927F928F929F92AF92BF9202
:1056E000CF92DF92EF92FF92CF93DF93CDEED9E08E
:1056F000FE0184912196882319F00E949320F8CF0F
:105700002091CD0E3091CE0E4091CF0E5091D00E03
:105710006091BD0E7091BE0E8091BF0E9091C00E33
:105720000E944EBB42E00E948624C9EED9E0FE01F1
:1057300084912196882319F00E949320F8CF20911C
:10574000D10E3091D20E4091D30E5091D40E609173
:10575000C10E7091C20E8091C30E9091C40E0E9432
:105760004EBB42E00E948624C5EED9E0FE01849142
:105770002196882319F00E949320F8CF2091D50E0E
:105780003091D60E4091D70E5091D80E6091C50E33
:105790007091C60E8091C70E9091C80E0E944EBBAC
:1057A00042E00E948624C1EED9E0FE018491219658
:1057B000882319F00E949320F8CF6091C90E709150
:1057C000CA0E8091CB0E9091CC0E42E00E948624AE
:1057D00080916F00982F927081FF05C080916F00BB
:1057E0008D7F80936F004090F20B5090F30B609090
:1057F000F40B7090F50B8090F60B9090F70BA09047
:10580000F80BB090F90BC090FA0BD090FB0BE09026
:10581000FC0BF090FD0B992329F080916F008260C2
:1058200080936F00C7EDD9E0FE0184912196882313
:1058300019F00E949320F8CFC301B2010E943423D3
:10584000C3EDD9E0FE0184912196882319F00E94CE
:105850009320F8CFC501B4010E943423CFECD9E0E6
:10586000FE0184912196882319F00E949320F8CF9D
:10587000C701B6010E9434238AE0DF91CF91FF90E7
:10588000EF90DF90CF90BF90AF909F908F907F90E0
:105890006F905F904F900C9493207F928F929F9285
:1058A000AF92BF92CF92DF92EF92FF920F931F932E
:1058B000CF93DF93C5EAD5E0FE018491219688233A
:1058C00019F00E949320F8CFC12CD12C7601C7E0AB
:1058D000C15021F080E20E949320FACFC701B601A7
:1058E0000E943423FFEFCF1ADF0AEF0AFF0A84E099
:1058F000C816D104E104F10451F78AE00E94932014
:10590000C3EDDCE0C12CD12C760180E20E94932013
:10591000C701B6010E9434238E0184E0782E80E214
:105920000E949320F80180809180A280B380A5011D
:105930009401C501B4010E9440BE8823B9F180E200
:105940000E9493208DE30E9493208DE30E94932078
:105950008DE30E9493208DE30E9493208DE30E94AB
:1059600093207A94005F1F4F7110D9CF8AE00E9474
:105970009320FFEFCF1ADF0AEF0AFF0A249684E094
:10598000C816D104E104F10409F0BFCF8AE0DF9129
:10599000CF911F910F91FF90EF90DF90CF90BF902C
:1059A000AF909F908F907F900C94932020E030E0F8
:1059B000A901C501B4010E94AEBD87FD03C08BE201
:1059C0000E94932043E0C501B4010E948624C9CF00
:1059D0004F925F926F927F92AF92BF92CF92DF927F
:1059E000EF92FF920F931F93CF93DF9300D000D0DD
:1059F000CDB7DEB77E836D8329833A834B835C8387
:105A0000270138018C01F80184910F5F1F4F882313
:105A100019F00E949320F7CF88E20E94932042E081
:105A200069817A818B819C810E948624B301A201C5
:105A300085E892E00E94FC24B601A50182E892E08C
:105A40000E94FC2489E20E9493202D813E81211531
:105A5000310569F03A832983E981FA81849131968D
:105A6000FA83E9838823D1F00E949320F5CF8AE05E
:105A700026960FB6F894DEBF0FBECDBFDF91CF9153
:105A80001F910F91FF90EF90DF90CF90BF90AF905C
:105A90007F906F905F904F900C94932026960FB656
:105AA000F894DEBF0FBECDBFDF91CF911F910F9154
:105AB000FF90EF90DF90CF90BF90AF907F906F906E
:105AC0005F904F900895AF92BF92CF92DF92EF9286
:105AD000FF920F931F93FA01A084B184C284D384F0
