:100000000C94FB150C942C160C942C160C942C169A
:100010000C942C160C942C160C942C160C942C1658
:100020000C942C160C947F930C947F930C947F93D8
:100030000C942C160C942C160C942C160C942C1638
:100040000C942C160C94D71F0C942C160C942C1674
:100050000C942C160C942C160C94C5950C9435937A
:100060000C942C160C9476870C942C160C942C164D
:100070000C942C160C942C160C942C160C942C16F8
:100080000C9458210C942C160C942C160C942C16B1
:100090000C942C160C942C160C942C160C942C16D8
:1000A0000C942C160C942C160C942A210C942C16BF
:1000B0000C942C160C942C160C942C160C94FC20DE
:1000C0000C942C160C942C160C942C160C942C16A8
:1000D0000C942C160C942C160C942C160C942C1698
:1000E0000C942C16084AD73B3BCE016E84BCBFFD56
:1000F000C12F3D6C74319ABD56833DDA3D00C77FF8
:1001000011BED9E4BB4C3E916BAAAABE0000008090
:100110003F05A84CCDB2D44EB93836A9020C50B91F
:10012000918688083CA6AAAA2ABE000000803F004B
:100130000C945D880C94929A0C94A98E0C94B38EB6
:100140000C9422880C9453880C941E880C94868EF0
:100150000C94769A0C94908E0C94C29A0C94F49809
:100160000C94498E0C942D880C944E8E0C94C88857
:100170000C943D880C94BD9A0C944B880C946C8E16
:100180000C94AA9A0C94588E0C944F880C94458821
:100190000C9437880C9418880C949A8E0C942688AA
:1001A0000C947B9A0C94C78E0C94C7880C94F0988E
:1001B0000C9424890C94AF880C9480A90C945888D2
:1001C0000C94628E0C94639A0C9441880C943C8934
:1001D0000C94748E0C94D18E0C94DB8E0C94A59A96
:1001E0000C94BD8E0C947C8E0C94CD870C94418E17
:1001F0000C9433880C948E9A0C948E890C942A88D3
:100200000C9459880C94589A4E414E494E49545971
:10021000494E46CDCCCC3D0AD7233C17B7D13877D1
:10022000CC2B329595E6241FB14F0A0000204100E7
:1002300000C84200401C4620BCBE4CCA1B0E5AAE31
:10024000C59D742569730025696D20256973002596
:1002500069682025696D202569730025696420255A
:1002600069682025696D2025697300256979202535
:100270006964202569682025696D20256973002C33
:1002800020002C2000203A2073796E635F706C612F
:100290006E5F706F736974696F6E0A0020206375FA
:1002A0007272656E745F706F736974696F6E3D0012
:1002B000656E7175657565696E672022005072699B
:1002C0006E7465722073746F7070656420647565F8
:1002D00020746F206572726F72732E2046697820C9
:1002E000746865206572726F7220616E6420757328
:1002F00065204D39393920746F20726573746172CD
:10030000742E202854656D70657261747572652055
:1003100069732072657365742E2053657420697447
:100320002061667465722072657374617274696E9F
:1003300067290A004E6F20436865636B73756D20F3
:1003400077697468206C696E65206E756D62657280
:100350002C204C617374204C696E653A20006368F0
:1003600065636B73756D206D69736D617463682C63
:10037000204C617374204C696E653A20004C696EA4
:1003800065204E756D626572206973206E6F7420F2
:100390004C617374204C696E65204E756D62657298
:1003A0002B312C204C617374204C696E653A20000F
:1003B0004D3131300020496E76616C69642065787A
:1003C0007472756465722000000000000000000077
:1003D000000000000080C5430000C8430080CF43F8
:1003E0000A20736F66745F656E6473746F705F6DFF
:1003F0006178203D20000A20736F66745F656E642B
:1004000073746F705F6D696E203D20000A20706FFD
:10041000736974696F6E5F7368696674203D20004C
:1004200020617869733A0A20686F6D655F6F666650
:10043000736574203D2000466F7220003C3C3C20D8
:10044000646F5F626C6F636B696E675F6D6F76651B
:100450005F746F0A003E3E3E20646F5F626C6F63A4
:100460006B696E675F6D6F76655F746F00203A2011
:1004700073657475705F666F725F656E6473746FB9
:10048000705F6F725F70726F62655F6D6F76650A25
:1004900000202063757272656E745F706F7369748B
:1004A000696F6E3D00203A20636C65616E5F757008
:1004B0005F61667465725F656E6473746F705F6FA1
:1004C000725F70726F62655F6D6F76650A002020E3
:1004D00063757272656E745F706F736974696F6E45
:1004E0003D00646F5F70726F62655F726169736512
:1004F00028006465706C6F793A2000203A2073659B
:10050000745F70726F62655F6465706C6F7965644B
:100510000A00202063757272656E745F706F736974
:1005200074696F6E3D00203A203C3C3C20646F5F54
:1005300070726F62655F6D6F76650A00202063756B
:100540007272656E745F706F736974696F6E3D006F
:10055000203A203E3E3E20646F5F70726F62655F9E
:100560006D6F76650A00202063757272656E745F28
:10057000706F736974696F6E3D0072657365745F47
:100580006265645F6C6576656C0A002028646F6E36
:1005900065290A004578747261706F6C617465201A
:1005A0005B0042696C696E656172204C6576656CB2
:1005B000696E6720477269643A0A003C3C3C2064DB
:1005C0006F5F686F6D696E675F6D6F766528005B42
:1005D00000290A002C20002C20003E3E3E20646FA3
:1005E0005F686F6D696E675F6D6F766528002028A4
:1005F00064697361626C6564290A0041424C204160
:10060000646A7573746D656E74205A00204800200A
:10061000570020590042696C696E6561722047720B
:1006200069642058002028656E61626C6564290A3F
:100630000042494C494E454152004175746F204279
:100640006564204C6576656C696E673A20002026EB
:100650002053616D65205A20617300204E6F7A7AB5
:100660006C65290A0020262041626F7665002026ED
:100670002042656C6F77002D4261636B0020285229
:100680006967687400205A3A0020593A0050726F26
:100690006265204F666673657420583A0046495873
:1006A0005F4D4F554E5445445F50524F42450A00EE
:1006B00050726F62653A2000436F72650A004D61A7
:1006C0006368696E6520547970653A20003C3C3C53
:1006D000204732390A0020636F7272656374656463
:1006E000205A3A0047323920756E636F7272656323
:1006F000746564205A3A00203A203E2070726F627E
:10070000696E6720636F6D706C6574650A002020E8
:1007100063757272656E745F706F736974696F6E02
:100720003D00202844525952554E29004732392065
:100730004175746F20426564204C6576656C696E06
:1007400067003F20284C2C522C462C4229206F75E4
:1007500074206F6620626F756E64732E0A003F28E6
:1007600056296572626F7365206C6576656C2069C9
:100770007320696D706C61757369626C65202830D7
:100780002D34292E0A00426164205A2076616C754E
:10079000650A004E6F2062696C696E656172206740
:1007A0007269640A003C3C3C204732390A003E2012
:1007B0004175746F2D6C6576656C206E6F74206E5C
:1007C00065656465642C20736B69700A0047323874
:1007D0000A473239003E204E6F7420686F6D6564A1
:1007E0002E20456E7175657565696E6720473238D4
:1007F00020666F6C6C6F77656420627920473239B0
:100800000A00203A203E3E3E204732390A0020208E
:1008100063757272656E745F706F736974696F6E01
:100820003D0050726F7465637465642050696E0A90
:10083000005374616E64617264204465766961740A
:10084000696F6E3A20002052616E67653A20002081
:100850004D61783A2000204D696E3A20004D656167
:100860006E3A200046696E6973686564210A00204B
:1008700072616E67653A2000206D61783A20002031
:100880006D696E3A2000207369676D613A2000201F
:100890006D65616E3A20003A207A3A2000206F663A
:1008A0002000205A00205900205800476F696E67C9
:1008B00020746F3A00436C6F636B776973650A004D
:1008C000436F756E7465722D0020446972656374A0
:1008D000696F6E3A2000202020616E676C653A20B7
:1008E000005374617274696E672072616469757314
:1008F0003A2000506F736974696F6E696E67207477
:1009000068652070726F62652E2E2E0A003F4E754C
:100910006D626572206F66206C65677320696E205A
:100920006D6F76656D656E74206E6F7420706C618E
:10093000757369626C652028302D3135292E0A00C7
:100940003F2028582C5929206F7574206F6620622B
:100950006F756E64732E0A003F53616D706C652075
:1009600073697A65206E6F7420706C61757369624B
:100970006C652028342D3530292E0A004D3438205E
:100980005A2D50726F6265205265706561746162A4
:10099000696C69747920546573740A003F2856297C
:1009A0006572626F7365206C6576656C2069732073
:1009B000696D706C61757369626C652028302D34C7
:1009C000292E0A0020573A0020573A00205A3A00B0
:1009D00020423A0020436F756E7420413A00204552
:1009E0003A00205A3A0020593A00583A003A004357
:1009F00061703A00205A00205900580020204D61B3
:100A0000783A2000205A00205900580020204D69D3
:100A10006E3A20004F6E20004F666600536F66747A
:100A200020656E6473746F70733A2000496E76614E
:100A30006C69642065787472756465720A0020645C
:100A40003A0020693A0020703A00426564204C6503
:100A500076656C696E6720004661696C6564207418
:100A60006F20656E61626C6520426564204C65761E
:100A7000656C696E670A00496E76616C6964206511
:100A8000787472756465720A0041637469766520D2
:100A900045787472756465723A2000203A204D6F73
:100AA0007665206261636B0A002020646573746957
:100AB0006E6174696F6E3D002C20636F72726563A6
:100AC0007465642063757272656E745F706F7369AC
:100AD00074696F6E5B5A5F415849535D3D004657DC
:100AE0003A2053746F70205A2063726173682C200F
:100AF00065787065637465642063757272656E7481
:100B00005F706F736974696F6E5B5A5F41584953C8
:100B10005D3D00207D0A002C20004F6666736574E1
:100B200020546F6F6C205859206279207B2000463A
:100B3000573A204368616E67696E67206465737415
:100B4000696E6174696F6E5B585F415849535D20EF
:100B5000746F2073746F702063726173682C2064EB
:100B6000657374696E6174696F6E5B585F41584953
:100B7000535D3D002C2073746F705F785F6372610A
:100B800073683D0046573A20746D705F785F6D6FF3
:100B900076653D002C2073746F705F7A5F637261BD
:100BA00073683D0046573A20746D705F7A5F6D6FD1
:100BB00076653D004E6F206D6F7665206F6E2074F8
:100BC0006F6F6C6368616E67650A00526573656E6E
:100BD000643A200020746F6F206C6F6E6720657818
:100BE00074727573696F6E2070726576656E746568
:100BF000640A0020636F6C64206578747275736991
:100C00006F6E2070726576656E7465640A00627539
:100C100073793A2070617573656420666F7220691C
:100C20006E7075740A00627573793A20706175731D
:100C3000656420666F7220757365720A0062757351
:100C4000793A2070726F63657373696E670A004B3F
:100C5000494C4C2063617573656420627920746F20
:100C60006F206D75636820696E61637469766520B5
:100C700074696D65202D2063757272656E742063D2
:100C80006F6D6D616E643A20002020506C616E6E55
:100C9000657242756666657242797465733A2000C2
:100CA0002046726565204D656D6F72793A2000436C
:100CB0006F6D70696C65643A204A616E2032352030
:100CC000323032320A00207C20417574686F723AEB
:100CD00020467261636B74616C20576F726B730A8C
:100CE00000323032312D30352D31372031303A3528
:100CF0003800204C61737420557064617465643AE7
:100D000020004275696C643A20563230445F3231BB
:100D1000303531375F313035385F47560A0046721B
:100D200061636B74616C20576F726B7320566F6CCC
:100D3000746572726120343030204475616C2041DA
:100D40006C6C20544D43323230390A00312E312E32
:100D5000390A004D61726C696E0020536F667477BA
:100D60006172652052657365740A0020576174636F
:100D700068646F672052657365740A002042726F61
:100D8000776E206F75742052657365740A00204574
:100D9000787465726E616C2052657365740A0050D8
:100DA0006F77657255700A0073746172740A00205F
:100DB0006472697665722063757272656E743A202A
:100DC000003C3C3C207365745F617869735F6973B4
:100DD0005F61745F686F6D652800203A200A00200B
:100DE0002063757272656E745F706F736974696F7A
:100DF0006E3D005D203D20003E20686F6D655F6F99
:100E000066667365745B003E3E3E207365745F6189
:100E10007869735F69735F61745F686F6D652800DF
:100E200000004842000048420000A04100000000CD
:100E30005761726E696E673A20486F6D696E672000
:100E400042756D702044697669736F72203C203161
:100E50000A000202040000A0400000A040000000C0
:100E6000400080C5430000C8430080CF433C3C3C69
:100E700020686F6D65617869732800203A203E20F4
:100E80004146544552207365745F617869735F69A8
:100E9000735F61745F686F6D650A0020206375720F
:100EA00072656E745F706F736974696F6E3D004830
:100EB0006F6D65203220536C6F773A0A004D6F7664
:100EC0006520417761793A0A00486F6D65203120CD
:100ED000466173743A0A003E3E3E20686F6D65615C
:100EE0007869732800486F74656E64206F66667356
:100EF0006574733A003A200020536572766F2000C3
:100F00006F6B004572726F722077726974696E67D9
:100F100020746F20454550524F4D210A00454550E1
:100F2000524F4D206461746173697A6520657272F5
:100F30006F722E0A00290A002062797465733B20C3
:100F4000637263200053657474696E677320537411
:100F50006F726564202800290A0020627974657325
:100F60003B2063726320002073746F72656420738A
:100F7000657474696E6773207265747269657665ED
:100F800064202800202863616C63756C617465645B
:100F900029210A0020213D2000454550524F4D2077
:100FA000435243206D69736D61746368202D20285E
:100FB00073746F7265642920002053697A653A2042
:100FC00000496E6465783A2000204D61726C696E4C
:100FD0003D563535290A0028454550524F4D3D00B4
:100FE000454550524F4D2076657273696F6E206D86
:100FF00069736D61746368200048617264636F6433
:1010000065642044656661756C7420536574746909
:101010006E6773204C6F616465640A0020030000F2
:1010200020030000320000001027000000004843A9
:101030000000484300008041000034420000C842E4
:101040000000C842F0F7FB4300000C4320204D395C
:101050003036003A0A0020286D6D290020543120D6
:101060004500205430204500205A002059002058C7
:1010700000537465707065722064726976657220C1
:1010800063757272656E743A0A0020204D383531EE
:10109000205A005A2D50726F6265204F6666736544
:1010A000740020440020490020204D33303120506E
:1010B0000020440020490020500020204D333031D2
:1010C0002045005049442073657474696E67733A13
:1010D0000A00205A00204A00202047323920572099
:1010E000490020204D3432302053004175746F2068
:1010F000426564204C6576656C696E673A0A00202B
:101100005A0020590020580020204D3231382054F8
:1011100000486F74656E64206F6666736574733A19
:101120000A00205A0020590020204D323036205825
:1011300000486F6D65206F66667365743A0A00201B
:101140004A0020540020530020204D3230352042E8
:1011500000204A3C6A756E635F6465763E004164B8
:1011600076616E6365643A20423C6D696E5F7365BB
:10117000676D656E745F74696D655F75733E20534E
:101180003C6D696E5F66656564726174653E20548E
:101190003C6D696E5F74726176656C5F66656564EF
:1011A000726174653E0020540020520020204D32B0
:1011B0003034205000416363656C65726174696FFF
:1011C0006E2028756E6974732F7332293A20503C53
:1011D0007072696E745F616363656C3E20523C722D
:1011E0006574726163745F616363656C3E20543C37
:1011F00074726176656C5F616363656C3E0A0020A2
:101200004500205A0020590020204D32303120580E
:10121000004D6178696D756D20416363656C657221
:101220006174696F6E2028756E6974732F7332292B
:101230003A0A00204500205A0020590020204D3253
:1012400030332058004D6178696D756D2066656595
:101250006472617465732028756E6974732F7329C5
:101260003A0A00204500205A0020590020204D391C
:101270003220580053746570732070657220756E4B
:1012800069743A0A0020204D3230302044300A0080
:1012900020204D32303020543320440020204D3265
:1012A000303020543220440020204D323030205441
:1012B0003120440020204D32303020440020446949
:1012C0007361626C65640A0046696C616D656E7479
:1012D0002073657474696E67733A00202047323159
:1012E000202020203B007A5F70726F62653A2000F8
:1012F0007A5F6D61783A2000795F6D61783A2000FD
:10130000785F6D696E3A20005265706F7274696E15
:101310006720656E6473746F702073746174757385
:101320000A00000000010000000100008000555587
:1013300055000000400033333300AAAA2A00499226
:10134000240000002000C7711C0099991900D145A4
:101350001700555515003BB1130024491200111117
:101360001100000010000F0F0F00E3380E0043794A
:101370000D00CCCC0C00C3300C00E8A20B006421A3
:101380000B00AAAA0A00703D0A009DD80900427B02
:10139000090092240900DCD3080088880800104264
:1013A000080000000800F0C107008787070075509B
:1013B0000700711C07003EEB0600A1BC0600699007
:1013C000060066660600703E06006118060017F407
:1013D000050074D105005BB00500B2900500627293
:1013E00005005555050078390500B81E05000505AE
:1013F00005004EEC040087D40400A1BD040090A7B2
:10140000040049920400C17D0400EE690400C7563F
:101410000400444404005C3204000821040041102C
:101420000400000004003FF00300F8E0030026D2AF
:101430000300C3C30300CCB503003AA803000A9B12
:101440000300388E0300C08103009F750300D0693C
:101450000300505E03001D53030034480300913D18
:1014600003003333030016290300381F03009715C8
:101470000300300C0300030303000BFA020049F1E0
:101480000200BAE802005CE002002DD802002DD074
:10149000020059C80200B0C0020031B90200DAB13E
:1014A0000200AAAA0200A0A30200BC9C0200FA95B6
:1014B00002005C8F0200DF88020082820200457C0D
:1014C00002002776020027700200436A02007C6453
:1014D0000200D05E02003F590200C853020020748F
:1014E0006F6F206C6F6E6720657874727573696FAB
:1014F0006E2070726576656E7465640A0020636F95
:101500006C6420657874727573696F6E2070726593
:1015100076656E7465640A00FFFDFCFAF8F6F4F275
:10152000F0EEECEAE9E7E5E3E1E0DEDCDAD9D7D595
:10153000D4D2D0CFCDCBCAC8C7C5C3C2C0BFBDBC33
:10154000BAB9B7B6B4B3B2B0AFADACAAA9A8A6A5A4
:10155000A4A2A1A09E9D9C9A9998979594939290ED
:101560008F8E8D8B8A8988878684838281807F7E17
:101570007D7B7A797877767574737271706F6E6D22
:101580006C6B6A696867666564636261605F5E5D13
:101590005C5B5A5958585756555453525150504FF6
:1015A0004E4D4C4B4A4A49484746464544434242C1
:1015B00041403F3E3E3D3C3B3B3A3938383736357B
:1015C00035343332323130302F2E2E2D2C2B2B2A26
:1015D00029292827272625252423232221212020C5
:1015E0001F1E1E1D1C1C1B1B1A1919181817161656
:1015F000151514131312121111100F0F0E0E0D0DDD
:101600000C0C0B0A0A090908080707060605050459
:10161000040303020201000046696C616D656E748B
:1016200020757365643A200053746174733A200026
:101630002C204C6F6E67657374206A6F623A2000CD
:10164000546F74616C2074696D653A200053746145
:1016500074733A20002C204661696C65643A20005E
:101660002C2046696E69736865643A20005072697F
:101670006E74733A200053746174733A200024F43A
:10168000D43050C38E20C2A24017828B7011127AC0
:10169000910D816CD90AA861E108C75866076151AC
:1016A00043061E4B5D05C145A7041A411104093DBF
:1016B0009803713931034036DB0265339102D4302F
:1016C0005402802E1D02632CEE01752AC501B0283C
:1016D000A001102781018F2564012B244B01E022FA
:1016E0003401AC211F018D200D01801FFC00841EE0
:1016F000ED00971DDF00B81CD200E61BC600201BC2
:10170000BC00641AB200B219A8000A19A0006A1835
:101710009900D117910040178B00B516840031163F
:101720007E00B31579003A157300C7146F00581482
:101730006A00EE1366008813630025135E00C7126B
:101740005B006C12570015125400C111510070114A
:101750004F0021114B00D61049008D104700461054
:10176000440002104200C00F4000800F3E00420FB4
:101770003C00060F3B00CB0E3800930E37005C0E8A
:101780003500270E3400F30D3200C10D3100900DED
:101790003000600D2E00320D2D00050D2C00D90CEF
:1017A0002B00AE0C2900850C29005C0C2700350CA1
:1017B00027000E0C2600E80B2400C40B2400A00B0D
:1017C00023007D0B23005A0B2100390B2100180B3D
:1017D0002000F80A1F00D90A1E00BB0A1E009D0A3D
:1017E0001D00800A1D00630A1C00470A1B002C0A0A
:1017F0001B00110A1A00F7091A00DD091900C409B3
:101800001900AB091900920917007B091800630938
:1018100017004C09160036091600200916000A099F
:101820001500F5081500E0081400CC081400B808ED
:101830001400A4081400900813007D0812006B081F
:10184000130058081200460812003408110023083B
:1018500011001208110001081100F0071000E00744
:101860001000D0071000C0071000B0070F00A1073C
:10187000100091070E0083070F0074070F00650723
:101880000E0057070E0049070E003B070D002E07FC
:101890000E0020070D0013070D0006070D00F906C6
:1018A0000C00ED060D00E0060C00D4060C00C80686
:1018B0000C00BC060C00B0060C00A4060B00990638
:1018C0000C008D060B0082060B0077060B006C06E1
:1018D0000B0061060A0057060B004C060A00420680
:1018E0000A0038060A002E060A0024060A001A0614
:1018F0000A001006090007060A00FD050900F405A4
:101900000900EB050900E2050900D9050900D00529
:101910000900C7050900BE050900B5050800AD05A9
:101920000800A50509009C050800940508008C0521
:101930000800840508007C050800740508006C0593
:101940000700650508005D050700560508004E05FF
:101950000700470507004005080038050700310566
:1019600007002A050700230507001C0506001605C9
:1019700007000F0507000805060002050700FB0425
:101980000600F5040700EE040600E8040600E20481
:101990000700DB040600D5040600CF040600C904D6
:1019A0000600C3040600BD040600B7040600B10427
:1019B0000500AC040600A6040600A00405009B0474
:1019C000060095040500900406008A0405008504BD
:1019D0000500800406007A04050075040500700403
:1019E00005006B04050066040500610405005C0445
:1019F000050057040500520405004D040500480485
:101A00000500430405003E0404003A0405003504C3
:101A10000500300404002C040500270404002304FE
:101A200005001E0404001A04040016040500110435
:101A300004000D040400090405000404040000046B
:101A40000400FC030400F8030400F4030400F003A2
:101A50000400EC030400E8030400E4030400E003D2
:101A60000400DC030400D8030400D4030400D00302
:101A70000400CC030400C8030300C503030024F4DE
:101A800004D9201BC40C5C0E9804C4095F026507CE
:101A90007101F405F900FB04B30048048700C10399
:101AA00069005803550003034500BE023A00840252
:101AB000310053022A002902250004022000E4011B
:101AC0001C00C8011900AF0117009801140084011F
:101AD0001300710110006101100051010E0043015B
:101AE0000D0036010B002B010B0020010B0015012E
:101AF00009000C01090003010800FB000800F300C5
:101B00000800EB000700E4000600DE000600D80035
:101B10000600D2000600CC000500C7000500C20088
:101B20000500BD000400B9000400B5000400B100C8
:101B30000400AD000400A9000400A5000300A200F9
:101B400003009F0004009B00030098000300950021
:101B5000020093000300900003008D0002008B0040
:101B60000300880002008600020084000300810058
:101B700002007F0002007D0002007B00020079006D
:101B8000020077000100760002007400020072007B
:101B90000100710002006F0002006D0001006C0086
:101BA00002006A000100690002006700010066008F
:101BB0000100650001006400020062000100610094
:101BC0000100600001005F0002005D0001005C0098
:101BD00001005B0001005A0001005900010058009B
:101BE000010057000100560001005500010054009B
:101BF0000100530000005300010052000100510099
:101C00000100500001004F0001004E0000004E0096
:101C100001004D0001004C0001004B0000004B0092
:101C200001004A000100490001004800000048008E
:101C30000100470001004600000046000100450089
:101C40000000450001004400010043000000430083
:101C5000010042000000420001004100000041007C
:101C60000100400001003F0000003F0001003E0075
:101C700000003E0001003D0000003D0001003C006E
:101C800000003C0000003C0001003B0000003B0065
:101C900001003A0000003A0001003900000039005C
:101CA0000100380000003800000038000100370053
:101CB000000037000100360000003600000036004A
:101CC000010035000000350000003500010034003F
:101CD0000000340000003400010033000000330035
:101CE000000033000100320000003200000032002A
:101CF000010031000000310000003100010030001F
:101D0000000030000000300001002F0000002F0014
:101D100000002F0000002F0001002E0000002E0008
:101D200000002E0001002D0000002D0000002D00FD
:101D300000002D0001002C0000002C0000002C00F1
:101D400000002C0001002B0000002B0000002B00E5
:101D500000002B0001002A0000002A0000002A00D9
:101D600000002A00010029000000290000002900CD
:101D700000002900000029000100280000002800C0
:101D800000002800000028000000280001002700B3
:101D900000002700000027000000270000002700A7
:101DA000010026000000260000002600000026009A
:101DB000000026000100250000002500000025008D
:101DC000000025000000250000002500010024007F
:101DD0000000240000002400000024000000240073
:101DE0000100230000002300000023000000230066
:101DF0000000230000002300000023000100220057
:101E0000000022000000220000002200000022004A
:101E1000000022000100210000002100000021003C
:101E2000000021000000210000002100000021002E
:101E30000100200000002000000020000000200021
:101E40000000200000002000000020000000200012
:101E500001001F0000001F0000001F0000001F0005
:101E600000001F0000001F0000001F0001001E00F6
:101E700000001E0000001E0000001E00000039309F
:101E800000003325000087190000B00F0000DB08B8
:101E90000000BD040000740200003F0100000000CB
:101EA0000000300E0100C00E0A00500F1400D00FC9
:101EB0001E0060102800E010320070113C00F0118C
:101EC00046007012500000135A0080136400001482
:101ED0006E00901478001015820090158C0010167A
:101EE00096009016A0001017AA009017B4001018C2
:101EF000BE009018C8001019D2009019DC00101A0A
:101F0000E600801AF000001BFA00801B0401F01BA1
:101F10000E01701C1801F01C2201601D2C01E01D37
:101F20003601501E4001D01E4A01401F5401B01F0F
:101F30005E0130206801A020720110217C019021F7
:101F40008601002290016026F401902A5802802E1A
:101F5000BC0250322003E03584035039E803803C52
:101F60004C044534004533004532004531004530CE
:101F7000005A32005932005832005A0059005800B5
:101F80004C4556454C494E4700434F4D4D554E49E3
:101F9000434154494F4E0044525952554E00455208
:101FA000524F525300494E464F004543484F00237D
:101FB000646566696E652044454641554C545F4BE7
:101FC00064200023646566696E652044454641557A
:101FD0004C545F4B69200023646566696E6520443C
:101FE000454641554C545F4B7020005049442041B8
:101FF00075746F74756E652066696E697368656463
:10200000212050757420746865206C617374204BB6
:10201000702C204B6920616E64204B6420636F6ECE
:102020007374616E74732066726F6D2062656C6F7D
:102030007720696E746F20436F6E66696775726191
:1020400074696F6E2E680A00504944204175746FA0
:1020500074756E65206661696C6564212074696DB4
:10206000656F75740A00453420544845524D414C03
:102070002052554E4157415900453320544845524E
:102080004D414C2052554E41574159004532205444
:102090004845524D414C2052554E415741590045FB
:1020A0003120544845524D414C2052554E415741E4
:1020B0005900546865726D616C2052756E6177616C
:1020C000790045342048656174696E6720666169EE
:1020D0006C65640045332048656174696E672066ED
:1020E00061696C65640045322048656174696E679A
:1020F000206661696C6564004531204865617469DA
:102100006E67206661696C65640048656174696E1C
:1021100067206661696C65640050494420417574AC
:102120006F74756E65206661696C65642120546505
:102130006D706572617475726520746F6F20686967
:1021400067680A00204B643A2000204B693A20005F
:10215000204B703A20000A20436C6173736963203E
:10216000504944200A002054753A2000204B753A0B
:102170002000206D61783A2000206D696E3A2000C1
:1021800020643A200020626961733A20005049447B
:10219000204175746F74756E652073746172740A72
:1021A00000504944204175746F74756E65206661F6
:1021B000696C65642120426164206578747275647D
:1021C0006572206E756D6265720A006265640A0050
:1021D0002C2073797374656D2073746F70706564EF
:1021E00021204865617465725F49443A2000426568
:1021F000642068656174696E67206661696C6564F6
:102200000048656174696E67206661696C65640089
:1022100045312048656174696E67206661696C6547
:10222000640045342048656174696E6720666169A1
:102230006C65640045332048656174696E6720668B
:1022400061696C65640045322048656174696E6738
:10225000206661696C65640048656174696E672019
:102260006661696C6564001000600350012C019088
:10227000012201D001180110020E0170020401E0D8
:1022800002FA006003F0000004E600B004DC00A0E5
:1022900005D200B006C8000008BE00A009B4008046
:1022A0000BAA00D00DA00090109600C0138C0070F7
:1022B000178200901B780010206E00C0246400E09C
:1022C0002D500080353C00A03A2800A03D140000AD
:1022D0003F0000A03FECFF4534204572723A204D8C
:1022E000415854454D50004533204572723A204DB7
:1022F000415854454D50004532204572723A204DA8
:10230000415854454D50004531204572723A204D98
:10231000415854454D50004572723A204D41585431
:10232000454D5020424544004D415854454D5020A4
:10233000747269676765726564004534204572721E
:102340003A204D494E54454D500045332045727258
:102350003A204D494E54454D500045322045727249
:102360003A204D494E54454D50004531204572723A
:102370003A204D494E54454D50004572723A204D19
:10238000494E54454D5020424544004D494E544518
:102390004D502074726967676572656400202F0074
:1023A0002040002042403A0020403A007E1F7C1F1F
:1023B0007A1F771F741F711F6E1F6B1F681F651FA9
:1023C000621F747275650066616C736500207465C8
:1023D0006D70657261747572652070726577617277
:1023E0006E207472696767657265643A20002070B8
:1023F00072657761726E20666C616720636C6561DF
:102400007265640A0000002100240027002A002DC4
:10241000003000330001010000040107010A01003F
:10242000002200250028002B002E0031003400027D
:10243000010000050108010B010000200023002617
:102440000029002C002F00320000010000030106CB
:10245000010901050505050705080808080202022B
:10246000020A0A080804040404010101010101012F
:10247000010303030303030303040707070C0C0C06
:102480000C0C0C0C0C0202020206060606060606DE
:10249000060B0B0B0B0B0B0B0B010210202008087B
:1024A00010204010204080020102010804020101B6
:1024B000020408102040808040201008040201809F
:1024C00004020180402010080402010804020101F6
:1024D00002040810204080010204081020408000FF
:1024E000000A0B02090C0D0E08070304010000008E
:1024F00000000000000000000000000000000000DC
:102500000000000000000000000000121110000098
:1025100000000000000000000000000000000000BB
:10252000000000000047322F4733206261642070B2
:102530006172616D65746572730A003C3C3C2047B2
:1025400032380A003E20686F6D696E67206E6F74C6
:10255000206E65656465642C20736B69700A003CAD
:102560003C3C204732380A005261697365205A208A
:10257000286265666F726520686F6D696E672920D5
:10258000746F20003E20656E6473746F70732E65E7
:102590006E61626C652874727565290A003E3E3E64
:1025A000204732380A00205A3A200020593A2000A9
:1025B00042656420583A20004D65736820706F6949
:1025C0006E742063616E6E6F742062652072657335
:1025D0006F6C7665640A005072696E742074696D60
:1025E000653A20006F666600AA1FA51F9E1F971FF1
:1025F000891F801F44454255473A004D31313320F1
:1026000053006F6B00544845524D414C5F50524F40
:1026100054454354494F4E004155544F5245504F35
:1026200052545F53445F53544154555300454D45F4
:102630005247454E43595F50415253455200434122
:1026400053455F4C494748545F4252494748544EAE
:1026500045535300544F47474C455F4C49474854F6
:102660005300534F4654574152455F504F574552C0
:10267000004255494C445F50455243454E54004C2E
:102680004556454C494E475F44415441005A5F50BE
:10269000524F4245004155544F4C4556454C005011
:1026A00052494E545F4A4F420050524F4752455391
:1026B00053004155544F5245504F52545F54454D6D
:1026C0005000564F4C554D455452494300454550D6
:1026D000524F4D0053455249414C5F584F4E5F5841
:1026E0004F4646004649524D574152455F4E414D77
:1026F000453A4D61726C696E20563230445F32311A
:10270000303531375F313035385F475620534F55BC
:102710005243455F434F44455F55524C3A68747489
:1027200070733A2F2F6769746875622E636F6D2F0F
:1027300067616E6573686D65762F4A756C69613285
:102740003031384D61726C696E3131392D566F6C94
:1027500074657272612050524F544F434F4C5F5614
:10276000455253494F4E3A312E30204D414348494E
:102770004E455F545950453A566F6C74657272619C
:1027800020343030204475616C20416C6C20544DF5
:1027900043323230392045585452554445525F43F4
:1027A0004F554E543A3420555549443A303130381B
:1027B000613539392D336239352D343138362D6153
:1027C0003633362D3036396562353938373963302E
:1027D0000A002F2F2000205400205200416363651F
:1027E0006C65726174696F6E3A2050003F4A206FC9
:1027F0007574206F662072616E67652028302E30F8
:102800003120746F20302E33290A00000020C200CE
:1028100000C8430080CF43546F6F2066617220660A
:10282000726F6D207265666572656E636520706F8C
:10283000696E740A00FF010120466C6F773A200030
:10284000000136372603FFFFFF3F3C3D38FF0FFFF7
:10285000FF402E303EFF13FFFFFF41060C0809FF2B
:10286000FFFF1A1C18FFFF4224221EFFFF0C242228
:102870001EFFFF2C24221EFFFFFF2C08440AFF3AF4
:1028800007FF392FFF432DFF45206F7574206F66BA
:102890002072616E67650A00536572766F2000438F
:1028A000290A0061626C656420286D696E20746578
:1028B0006D702000436F6C64206578747275646578
:1028C000732061726520004E6F2063617365206C18
:1028D000696768740A004D65736820706F696E746B
:1028E0002063616E6E6F74206265207265736F6C19
:1028F0007665640A004D34323120696E636F7272FE
:1029000065637420706172616D65746572207573A2
:102910006167650A00454550524F4D204F4B0A00F4
:102920003F5A206F7574206F662072616E67652054
:10293000282D323020746F203230290A003A2000CE
:1029400050726F6265205A204F6666736574003C52
:102950003C3C2067636F64655F540A00203A204165
:10296000465445520A00202063757272656E745F8A
:10297000706F736974696F6E3D00203A204245465E
:102980004F52450A00202063757272656E745F7045
:102990006F736974696F6E3D003E3E3E2067636FE2
:1029A00064655F54280020503A00205A3A002059AC
:1029B0003A0020583A00656E6473746F7073206833
:1029C00069743A2000556E6B6E6F776E20636F6D81
:1029D0006D616E643A202200203A203C3C3C20721B
:1029E000756E5F7A5F70726F62650A002020637592
:1029F0007272656E745F706F736974696F6E3D009B
:102A00002044697363726570616E63793A00326E57
:102A1000642050726F6265205A3A00203A203C3C94
:102A20003C2072756E5F7A5F70726F62650A00207B
:102A30002063757272656E745F706F736974696F0D
:102A40006E3D00534C4F572050726F626520666197
:102A5000696C210A003173742050726F6265205ACC
:102A60003A00203A203C3C3C2072756E5F7A5F70E1
:102A7000726F62650A00202063757272656E745F02
:102A8000706F736974696F6E3D00464153542050F6
:102A9000726F6265206661696C210A00203A203EEF
:102AA0003E3E2072756E5F7A5F70726F62650A00DB
:102AB000202063757272656E745F706F73697469DC
:102AC0006F6E3D003C3C3C2070726F62655F7074BD
:102AD0000A0050726F62696E67206661696C656496
:102AE0000A0050524F42494E475F4641494C4544C7
:102AF0000A00205A3A200020593A200042656420FA
:102B0000583A2000203A200A00202063757272652E
:102B10006E745F706F736974696F6E3D005F72658C
:102B20006C6174697665290A002C20002C20002C29
:102B300020002C20003E3E3E2070726F62655F7068
:102B40007428002066697273740A005A005900588C
:102B500000486F6D6520006563686F3A004534205A
:102B6000544845524D414C2052554E415741590011
:102B7000453320544845524D414C2052554E415703
:102B8000415900453220544845524D414C20525540
:102B90004E4157415900453120544845524D414C12
:102BA0002052554E41574159004245442054484512
:102BB000524D414C2052554E415741590054686581
:102BC000726D616C2052756E617761790050726927
:102BD0006E7465722068616C7465642E206B696C1C
:102BE0006C28292063616C6C6564210A004572724F
:102BF0006F723A0080A911241FBECFEFD1E2DEBF71
:102C0000CDBF00E00CBF13E0A0E0B2E0E6E0FBE9DE
:102C100001E00BBF02C007900D92A838B107D9F7A9
:102C200021E1A8E8B3E001C01D92AE3EB207E1F792
:102C300015E1CBEFD5E100E006C021970109802F17
:102C4000FE010E9402CDCA3FD10780E00807A9F724
:102C50000E94DAAA0C9481CD0C9400000F931F936C
:102C6000CF93DF93C82F80916F00D82FD27081FF50
:102C700005C080916F008D7F80936F006091CC0BB9
:102C80007091CD0B8091CE0B9091CF0B0091D00B1A
:102C90001091D10B2091D20B3091D30BC13039F56B
:102CA000601B710B820B930B0E943AC520E030E051
:102CB00040E05FE30E9499C50E9428CB24E0C29FB8
:102CC000F0011124EB59F44F608371838283938365
:102CD00081E08093640BDD2329F080916F00826096
:102CE00080936F00DF91CF911F910F910895600F36
:102CF000711F821F931FD8CF90916F00292F2270D0
:102D000091FF05C090916F009D7F90936F0094E0BC
:102D1000899FF0011124E453F44F60817181828115
:102D20009381222329F020916F00226020936F006D
:102D30000895BC012091620B3091630B4091620BAE
:102D40005091630B2417350731F481E026173707BC
:102D500009F080E008959A01F1CFEF92FF920F936E
:102D60001F93E0929503F0929603009397031093BC
:102D700098036093990370939A0380939B039FEF4A
:102D8000FF27621B730B840B30F48095709561955F
:102D9000790B890B992790939403A6E06A9F009280
:102DA0008803512DEE277A9F500DE11D8A9FE00D7B
:102DB00050938903E0938A03AFE06A9F00928C03EB
:102DC000512DEE277A9F500DE11D8A9FE00D509303
:102DD0008D03E0938E03AAE06A9F00929003512D29
:102DE000EE277A9F500DE11D8A9FE00D50939103CD
:102DF000E09392031F910F91FF90EF9008958091BF
:102E00001D0B80FF28C089988FEF8093190B80914C
:102E10001D0B81FF23C08F988FEF80931A0B809139
:102E20001D0B82FF1EC080910B01809582708093E4
:102E300009018FEF80931B0B80911E0B90911D0B4E
:102E400093FF20C08130E1F09CF48823B9F08FEF2C
:102E500080931C0B0895899A81E0D7CF8F9A81E0E7
:102E6000DCCF80910B0182708093090181E0E2CF79
:102E7000823011F0833059F74398E9CF1698E7CFA5
:102E8000439AE5CF813069F024F4882341F081E052
:102E9000DFCF823011F08330D1F7439AF8CF169A02
:102EA000F6CF4398F4CF8091531090915410891B22
:102EB0008F7019F490E080E008959091501099235C
:102EC00051F0833030F48FEF890F19F08093501058
:102ED000F1CF10925010809154102DE5829FC001C7
:102EE0001124875B9A4FFC01208120FDE3CF2091C4
:102EF00054102F5F2F702093511030915410209157
:102F00005210321304C02091511020935210089592
:102F1000009781F41092900082E0809391001092CB
:102F2000950010929400C19A809171008260809304
:102F3000710008958130910569F41092A00082E03B
:102F40008093A1001092A5001092A40089BB8093E9
:102F500072000895029761F41092200182E080933C
:102F6000210110922501109224018ABB80937300E5
:102F700008959F92AF92BF92CF92DF92EF92FF920D
:102F80000F931F93CF93DF9300D01F921F92CDB763
:102F9000DEB7E8E1F5E10027BB27462F572FA82F22
:102FA000AA2341F4A52F542FB85FAA2319F4A52F03
:102FB0005527B85FA03138F45295A295452F4F7030
:102FC000507FA42BBC5FA03428F4550FAA1F550FC7
:102FD000AA1FBE5FA03818F4550FAA1FB395550F4E
:102FE000AA1FEA0FF01F449151E0AA27B85081F1BF
:102FF000C8F0B0FF02C0440F551FB1FF04C0440F1A
:10300000551F440F551FB2FF06C052954295142F0D
:103010001F70407F512BB3FF1BC0A52F542F442797
:103020000C942818B195B0FF02C055954795B1FF93
:1030300004C05595479555954795B2FF05C05295E3
:10304000407F4295452B5F70B3FF02C0452F552747
:10305000DD24CC24BB24B2E0649FD018C108B00AA0
:10306000B00B749FC018B108B00B849FB018B109A1
:10307000659FC018B108B00B759FB018B109859F46
:10308000B0196A9FB018B1097A9FB0194D9DA12C53
:1030900099243327992722275D9DA00C911C301F6E
:1030A000901F201FAD9D900C311D901F201F4C9D27
:1030B000A00C911C301F901F201F5C9D900C311D97
:1030C000901F201FAC9D300D911D201F4B9D900C1B
:1030D000311D901F201F5B9D300D911D201FAB9D4A
:1030E000900D211D4B9F300D911D201F5B9F900D5A
:1030F000211DAB9F200DB1E0BB24CC24DD24639FB8
:10310000D018C108B00AB00B739FC018B108B00B3B
:10311000839FB018B109699FC018B108B00B799F9F
:10312000B018B109899FB019629FB018B109729F98
:10313000B019D61AC70AB80A20F0B1E03B0F901FA9
:10314000201F1124792F632F90E0822F0F900F9072
:103150000F900F900F90DF91CF911F910F91FF90E3
:10316000EF90DF90CF90BF90AF909F900895CF9257
:10317000DF92EF92FF926091C40B7091C50B072E06
:10318000000C880B990B0E943AC56B017C012DEB5A
:1031900037E346E855EB0E941CCC87FD0BC02DEBB6
:1031A00037E346E855E3C701B6010E9433C5181658
:1031B0000CF043C0A701960160E070E080E89FE357
:1031C0000E94B6CA6093B9047093BA048093BB049A
:1031D0009093BC046091C60B7091C70B072E000C36
:1031E000880B990B0E943AC56B017C012DEB37E3EC
:1031F00046E855EB0E941CCC87FD0AC02DEB37E357
:1032000046E855E3C701B6010E9433C51816CCF451
:10321000A701960160E070E080E89FE30E94B6CAD3
:103220006093BD047093BE048093BF049093C00468
:10323000FF90EF90DF90CF90089560E070E0CB01B9
:10324000C1CF60E070E0CB01EBCF90919D03E92FFF
:10325000F0E0EA5FF24F80839F5F943040F49093F8
:103260009D038091920E8F5F8093920E089510922D
:103270009D03F7CF80919304909194042FEF3FEF3B
:10328000981751F0E92FF0E0ED5EFB4F208130E020
:103290009F5F9F7790939404C901089583E090E124
:1032A0000E94C49186EB9FE00E94C49189E69FE052
:1032B0000E94C4918CE19FE00E94C4918FEC9EE03B
:1032C0000C94C491CF92DF92EF92FF920F931F93D1
:1032D000CF93DF936B017A01EC01CA5BDA4F28814F
:1032E0003CE0389F8001399F100D112427FF24C036
:1032F000FB011182108288818F5F88838881980109
:10330000280F311D87FD3A95C9012091E510F6017E
:103310002817190629F024F088818C300CF43CC061
:1033200080819181049680349C4908F475C0F6012F
:1033300080819181049672C088819801280F311D87
:1033400087FD3A95C9012091E5102817190699F2D1
:1033500094F28881A801480F511D87FD5A95FA0102
:10336000EE0FFF1FE40FF51FE758FF4E808186FF29
:10337000C2CF8881F801E80FF11D87FDFA95CF01D2
:10338000EE0FFF1FE80FF91FE758FF4E808160E046
:103390008F730E94AA8DAFCF808191812881A8016F
:1033A000420F511D27FD5A959A01FA01EE0FFF1F9A
:1033B000E20FF31FE758FF4E21813281820F931FE6
:1033C000F7019183808388819801280F311D87FD43
:1033D0003A95F901EE0FFF1FE20FF31FE758FF4E7A
:1033E000808186FF20C08881080F111D87FD1A95F6
:1033F000F801EE0FFF1FE00FF11FE758FF4E80812D
:1034000061E08F73DF91CF911F910F91FF90EF904B
:10341000DF90CF900C94AA8D80E49CE9F701918312
:1034200080838FEF8883DF91CF911F910F91FF9061
:10343000EF90DF90CF900895CF92DF92EF92FF92BE
:10344000CF9380916F00C82FC27081FF05C080911B
:103450006F008D7F80936F0080E00E947C166B016F
:103460007C0181E00E947C166C0D7D1D8E1D9F1DD0
:103470000E943AC520E030E040E05FE30E9499C539
:103480009B01AC01CC2329F080916F008260809376
:103490006F00609121057091220580912305909124
:1034A00024050E9499C56093C1047093C20480935F
:1034B000C3049093C40480916F00C82FC27081FF31
:1034C00005C080916F008D7F80936F0080E00E9427
:1034D0007C166B017C0181E00E947C16A70196019D
:1034E000261B370B480B590BCA01B9010E943AC57C
:1034F00020E030E040E05FE30E9499C59B01AC0111
:10350000CC2329F080916F00826080936F006091DE
:1035100025057091260580912705909128050E9428
:1035200099C56093C5047093C6048093C7049093B3
:10353000C80482E00E947C160E943AC59B01AC013F
:103540006091290570912A0580912B0590912C0599
:103550000E9499C56093C9047093CA048093CB04F8
:103560009093CC04CF91FF90EF90DF90CF9008958F
:1035700080913105882341F040E150E063E370E041
:1035800086E395E00C9418C908952F923F924F92CC
:103590005F926F927F928F929F92AF92BF92CF92E3
:1035A000DF92EF92FF920F931F93CF93DF93CDB7EC
:1035B000DEB76C970FB6F894DEBF0FBECDBF8C019F
:1035C0005B015A834983FC01E95BFF4F2081318114
:1035D00042815381298B3A8B4B8B5C8BCA01B90199
:1035E0000E9438C56B017C01D5012D913D914D9113
:1035F0005C910E9499C50E949ACA0E942FCB4B01F0
:103600005C01E981FA812081318142815381C701C6
:10361000B6010E9499C50E949ACA0E942FCB898642
:103620009A86AB86BC8629853A854B855C8528378A
:1036300031054105510540F428E730E040E050E015
:1036400029873A874B875C876D837E838F83988732
:103650004D815E816F81788548375105610571051F
:1036600040F468E770E080E090E06D837E838F83B4
:103670009887F801ED5AFF4F408051806280738037
:10368000C301B2010E943AC569837A838B839C830C
:1036900069857A858B859C850E9438C56D8B7E8B6C
:1036A0008F8B988F20E030E0A90169817A818B812E
:1036B0009C810E9433C5882309F4E1C1A7019601CA
:1036C000C701B6010E9499C54B015C012D893E8955
:1036D0004F89588DCA01B9010E9499C59B01AC015F
:1036E000C501B4010E94BBC94B015C0129813A812B
:1036F0004B815C81CA01B9010E94BCC99B01AC012C
:10370000C501B4010E94B6CA0E949ACA0E942FCB7A
:103710006D877E878F87988B66277727CB01641903
:103720007509860997090E943AC54B015C016D81B4
:103730007E818F8198850E9438C52B013C0120E055
:1037400030E0A901C501B4010E9433C5882309F402
:103750009AC1A3019201C301B2010E9499C5698F68
:103760007A8F8B8F9C8FA7019601C701B6010E94AB
:1037700099C59B01AC01698D7A8D8B8D9C8D0E94C2
:10378000BBC96B017C01A5019401C501B4010E9474
:10379000BCC99B01AC01C701B6010E94B6CA0E9418
:1037A0005ECBD80195968D909D90AD90BC909897EA
:1037B000750164012D853E854F855889C21AD30A4B
:1037C000E40AF50A0E942FCBC61AD70AE80AF90ABA
:1037D000F7FE8EC02D893E894F89588DCA01B901E7
:1037E0000E9499C56B017C0129813A814B815C81E2
:1037F000CA01B9010E94BCC9698B7A8B8B8B9C8BE7
:1038000020E030E0A90169817A818B819C810E944E
:1038100033C5882309F43BC1C501B4010E9438C5F2
:1038200029893A894B895C890E9499C5A70196012B
:103830000E94BBC96D877E878F87988BA3019201F9
:10384000C301B2010E9499C59B01AC016D857E85C3
:103850008F8598890E94BCC92B013C0120E030E093
:1038600040E850E469817A818B819C810E9499C5EE
:103870009B01AC01C301B2010E94B6CA0E949ACA60
:103880002B013C0120E030E0A9010E941CCC18165D
:103890001CF0412C512C3201C301B2010E942FCBEC
:1038A0006D877E878F87988B86169706A806B90640
:1038B00020F48D869E86AF86B88A6D857E858F853D
:1038C00098890E9438C529893A894B895C890E9468
:1038D00099C5A70196010E94BCC90E946ACC0E94AA
:1038E0002FCB698B7A8B8B8B9C8BC12CD12C760147
:1038F00069897A898B899C8929853A854B855C857C
:10390000621B730B840B950B0E9438C529813A8189
:103910004B815C810E94B6CA20E034E244EF59E456
:103920000E9499C50E942FCB4B015C0169897A895D
:103930008B899C892D813E814F815885621B730B39
:10394000840B950B0E9438C529813A814B815C819B
:103950000E94B6CA20E034E244EF59E40E9499C5BF
:103960000E942FCB2B013C013FE683169104A1045A
:10397000B10408F090C0F401EE0FFF1FEE0FFF1F1F
:10398000EE5DFC4E85919591A591B4918983292E88
:103990003A2EBD8B4FE6441651046104710408F0C1
:1039A00083C0F201EE0FFF1FEE0FFF1FEE5DFC4E16
:1039B00045915591659174919A01CB014D855E8534
:1039C0006F857889D8019A964D935D936D937C931A
:1039D0009D974C0D5D1D6E1D7F1DF80146A757A7D5
:1039E00060AB71ABE55BFF4F49855A856B857C8584
:1039F0004083518362837383D6968D929D92AD925C
:103A0000BC92D997F80142AE53AE64AE75AEFE9645
:103A100049814083218232825D8953833496208399
:103A200031838283938369897A898B899C89D29631
:103A30006D937D938D939C93D5973D962D813E817B
:103A40004F81588520833183428353836C960FB610
:103A5000F894DEBF0FBECDBFDF91CF911F910F91C4
:103A6000FF90EF90DF90CF90BF90AF909F908F909E
:103A70007F906F905F904F903F902F90089560E0FF
:103A800070E0CB0141CE60E070E0CB0188CE60E019
:103A900070E0CB01F3CEC501B4010E94B917698370
:103AA000272E382E9D8B76CFC301B2010E94B91705
:103AB0009B0184CF4F925F926F927F928F929F92E1
:103AC000AF92BF92CF92DF92EF92FF920F931F932C
:103AD000CF93DF93EC016091C80B7091C90B072E57
:103AE000000C880B990B0E943AC59B01AC016881C0
:103AF00079818A819B810E94BBC96B017C016091A5
:103B0000CA0B7091CB0B072E000C880B990B0E94EF
:103B10003AC59B01AC016C817D818E819F810E94A1
:103B2000BBC94B015C01A70196016091060270912F
:103B3000070280910802909109020E9433C58823F0
:103B400009F459C0C0920602D0920702E09208021E
:103B5000F09209022091B9043091BA044091BB045B
:103B60005091BC04C701B6010E9499C52B013C01CC
:103B70000E945ECB6B017C0120E030E0A9010E9435
:103B800033C587FD79C020E030E040E450E4C70150
:103B9000B6010E941CCC18162CF4C12CD12CA0E428
:103BA000EA2EFE2CA7019601C301B2010E94BBC9F7
:103BB0002B013C0120E030E0A9010E9433C587FDC4
:103BC0005FC04092B5045092B6046092B704709200
:103BD000B804C701B6010E9428CB6093B404062E36
:103BE000000C770B6F5F7F4F6330710514F063E05B
:103BF00070E06093B304D0910102C091B404A501B8
:103C000094016091020270910302809104029091EC
:103C100005020E9433C581113CC0DC1393C0209182
:103C200095043091960440919704509198046091C6
:103C3000B5047091B6048091B7049091B8040E94C5
:103C400099C52091990430919A0440919B04509118
:103C50009C040E94BCC9DF91CF911F910F91FF90EE
:103C6000EF90DF90CF90BF90AF909F908F907F901C
:103C70006F905F904F900895C12CD12C760192CF18
:103C80001092B5041092B6041092B7041092B804C2
:103C9000A0CF8092020290920302A0920402B092FE
:103CA00005022091BD043091BE044091BF045091A3
:103CB000C004C501B4010E9499C54B015C010E947A
:103CC0005ECB6B017C0120E030E0A9010E9433C58E
:103CD00087FDF9C020E030E040E450E4C701B601C0
:103CE0000E941CCC18162CF4C12CD12CF0E4EF2E21
:103CF000FE2CA7019601C501B4010E94BBC94B016E
:103D00005C0120E030E0A9010E9433C587FDDFC0DF
:103D10008092AF049092B004A092B104B092B20429
:103D2000C701B6010E9428CB6093AE04062E000C9A
:103D3000770B6F5F7F4F6330710514F063E070E0C5
:103D40006093AD040091AE04DC1305C080910002C5
:103D5000801709F46DC0C093010200930002002E89
:103D6000000C110B24E0C202C0011124FC01E00F81
:103D7000F11FEE0FFF1FEE0FFF1FEB53F34F2081DC
:103D80003181428153812093A9043093AA04409346
:103D9000AB045093AC04C091AD040C2E000CDD0BB1
:103DA000FC01EC0FFD1FEE0FFF1FEE0FFF1FEB538B
:103DB000F34F60817181828193810E94BBC96093BE
:103DC000A5047093A6048093A7049093A8048091FF
:103DD000B30424E08202C0011124FC01E00FF11FB2
:103DE000EE0FFF1FEE0FFF1FEB53F34F20813181CA
:103DF000428153812093A1043093A2044093A304F1
:103E00005093A404C80FD91FCC0FDD1FCC0FDD1FAA
:103E1000CB53D34F688179818A819B810E94BBC932
:103E200060939D0470939E0480939F049093A004DC
:103E30008090AF049090B004A090B104B090B20410
:103E40002091A5043091A6044091A7045091A804A4
:103E5000C501B4010E9499C52091A9043091AA041A
:103E60004091AB045091AC040E94BCC96B017C0131
:103E7000C0929904D0929A04E0929B04F0929C0420
:103E800020919D0430919E0440919F045091A00484
:103E9000C501B4010E9499C52091A1043091A204EA
:103EA0004091A3045091A4040E94BCC9A7019601AB
:103EB0000E94BBC960939504709396048093970405
:103EC00090939804ACCEC12CD12C760112CF1092D5
:103ED000AF041092B0041092B1041092B20420CF3B
:103EE000CF93DF9320910C05222379F0EC010E94FF
:103EF0005A1D9B01AC01688579858A859B850E9446
:103F0000BBC9688779878A879B87DF91CF9108959E
:103F10000C94868F8F929F92AF92BF92CF92DF9236
:103F2000EF92FF920F93CF93DF931F92CDB7DEB73F
:103F30006C017B014901809109055B01A40EB51E4E
:103F40008823A1F0F60180819181480F591F518388
:103F500040830F90DF91CF910F91FF90EF90DF9012
:103F6000CF90BF90AF909F908F900895F601808181
:103F700091810E9410C989839091050D992311F0B8
:103F8000002311F0F7018083BE016F5F7F4FC401F2
:103F90000E943E8AF60180819181019691838083FF
:103FA000FFEFEF1AFF0AEA14FB0401F7D2CF0F93D9
:103FB0000FB70F9300916E000F930B7F00936E006D
:103FC00000916F000D7F00936F000F930BB70F935D
:103FD0000CB70F921F922F933F934F935F936F9362
:103FE0007F938F939F93AF93BF93EF93FF9311248E
:103FF0000E940824FF91EF91BF91AF919F918F9103
:104000007F916F915F914F913F912F911F900F90F2
:104010000CBF0F910BBF0F910260F89400936F00DB
:104020000F9100936E000F910FBF0F9118957F9223
:104030008F929F92AF92BF92CF92DF92EF92FF92B8
:104040000F931F93CF93DF93EC016B018881843230
:1040500008F0B4C090E0FC01EE0FFF1FE80FF91F5D
:10406000E758FF4E808161E08F730E94D88D1982DE
:104070001A8288812CE0622F0E94CECC829FB001F0
:10408000112430E020E0AB01420F531FFA01EE0F84
:10409000FF1FE40FF51FE758FF4E908196FD08C003
:1040A0002F5F3F4F2C30310571F790E00E94881749
:1040B0007880E72CF12C8701000F111FF801EE0D1D
:1040C000FF1DE758FF4E80818064808377FC76C0B7
:1040D00080E2C81682E0D8060CF03FC08A8128E54D
:1040E00032E0281B310987FD3395220F331F220F41
:1040F000331F032E000C440B550B898178E8872E63
:10410000912C881A910887FD9394880C991C880C2F
:10411000991C092C000CAA08BB0860E070E0CB01D8
:10412000D7FC0AC0B601653B710514F064EB70E082
:10413000072E000C880B990B281939094A095B09CD
:104140000E9448C924EB30E040E050E00E947AC968
:10415000820E931EA41EB51E640183E28715D8F05B
:10416000298188E890E0821B910927FD9395880FAB
:10417000991F880F991FC816D90674F502972FB793
:10418000F8940E0D1F1DF801E758FF4E880F991F78
:10419000928381832FBF6CED75E080E090E00E94F8
:1041A00034A7E8818E2F90E0FC01EE0FFF1FE80F8F
:1041B000F91FE758FF4E80818F7B8083DF91CF917D
:1041C0001F910F91FF90EF90DF90CF90BF90AF9035
:1041D0009F908F907F9008952A8188E592E0821BBE
:1041E000910927FD9395880F991F880F991FC8166D
:1041F000D90624F6C601C2CF1F920F920FB60F92B6
:1042000011240BB60F922F933F934F935F936F93AD
:104210007F938F939F93AF93BF93EF93FF9348E266
:1042200051E064E271E082E090E00E946219FF9147
:10423000EF91BF91AF919F918F917F916F915F911E
:104240004F913F912F910F900BBE0F900FBE0F908B
:104250001F9018951F920F920FB60F9211240BB654
:104260000F922F933F934F935F936F937F938F930F
:104270009F93AF93BF93EF93FF9348EA50E064EAB4
:1042800070E081E090E00E946219FF91EF91BF9190
:10429000AF919F918F917F916F915F914F913F91DE
:1042A0002F910F900BBE0F900FBE0F901F9018957F
:1042B0001F920F920FB60F9211240BB60F922F93ED
:1042C0003F934F935F936F937F938F939F93AF939E
:1042D000BF93EF93FF9348E950E064E970E090E00A
:1042E00080E00E946219FF91EF91BF91AF919F9181
:1042F0008F917F916F915F914F913F912F910F908F
:104300000BBE0F900FBE0F901F901895CF92DF92AB
:10431000EF92FF928091EC0B8150823008F062C0E6
:104320001092EC0B0E9429936093E80B7093E90BB9
:104330008093EA0B9093EB0B8091380590913905AF
:1043400001969093390580933805C0903205D0903E
:104350003305E0903405F09035050E9457A7AB0176
:10436000BC0140933205509333056093340570933C
:10437000350580913A0590913B05A0913C05B0919F
:104380003D058C199D09AE09BF09840F951FA61F15
:10439000B71F80933A0590933B05A0933C05B093DB
:1043A0003D050E9457A7C0903E05D0903F05E09084
:1043B0004005F0904105C616D706E806F90650F408
:1043C0000E9457A760933E0570933F058093400578
:1043D000909341050E94B81A81E0FF90EF90DF9022
:1043E000CF90089580E0F9CFCF93C091EC0B80E09F
:1043F000C13069F1C23069F50E9457A76093710B13
:104400007093720B8093730B9093740B81E0809385
:10441000EC0B0E9429936093750B7093760B80933D
:10442000770B9093780BC23089F08091360590918C
:104430003705019690933705809336051092320523
:1044400010923305109234051092350581E0CF911A
:1044500008950E9489A7DACF81E08093310580E139
:10446000E6E3F5E0DF011D928A95E9F70E94B81AAC
:1044700066E182E390E00C943AC94F925F926F92AA
:104480007F928F929F92AF92BF92EF92FF920F9383
:104490001F93CF93DF93C9E2DCE083EBE82E8CE03F
:1044A000F82E06E01CE0412C512C32014394699116
:1044B000799189919991F70181909190A190B19012
:1044C0007F010E9438C5A50194010E9499C50E94F0
:1044D0002FCBF80161937193819391938F014616CD
:1044E00057066806790610F42B013C01FCE0C9333D
:1044F000DF07E9F66FEF7FEFCB01A30192010E9486
:1045000058C920931D0530931E0540931F055093F5
:104510002005DF91CF911F910F91FF90EF90BF90F9
:10452000AF909F908F907F906F905F904F90089585
:10453000CF93DF9390916F00292F227091FF05C0D8
:1045400090916F009D7F90936F0094E0899FA001F0
:104550001124FA01EB59F44F6081718182819381BA
:10456000222329F020916F00226020936F00EA013E
:10457000CF5DDA4F0E943AC5288139814A815B813B
:104580000E9499C5DF91CF9108950F931F93CF9308
:10459000DF93CDB7DEB72C970FB6F894DEBF0FBE12
:1045A000CDBF20910C05222349F18A0119861A8674
:1045B0001B861C86FC0180819181A281B381898345
:1045C0009A83AB83BC83FB0180819181A281B381FB
:1045D0008D839E83AF83B887CE0101960E945A1DBA
:1045E0009B01AC01F80160817181828193810E94FD
:1045F000BCC9F80160837183828393832C960FB6C4
:10460000F894DEBF0FBECDBFDF91CF911F910F9108
:1046100008957F928F929F92AF92BF92CF92DF9236
:10462000EF92FF920F931F93CF93DF937090280C1C
:10463000C3EADCE095E5C92E92E0D92E25E4E22E0E
:1046400022E0F22E08E11CE0772009F45EC0F801B8
:1046500080809180A280B38020E030E0A901C50174
:10466000B4010E9433C5882309F44FC020E030E034
:1046700040E05FE3C501B4010E9499C59B01AC0114
:104680000E9499C52BED3FE049E450E40E9499C592
:104690009B01AC0160E070E080E89FE30E94B6CA35
:1046A0004B015C0189929992A992B992F6016191AC
:1046B00071916F01072E000C880B990B0E943AC56F
:1046C0002AE037ED43E25CE30E9499C5A50194011D
:1046D0000E9499C5F70161937193819391937F0132
:1046E0000C5F1F4FFCE0C33BDF0709F0ADCFDF914C
:1046F000CF911F910F91FF90EF90DF90CF90BF90DF
:10470000AF909F908F907F900895812C912C80E89E
:10471000A82E8FE3B82EC6CFCF93DF938091170CCE
:10472000811105C080910B05882309F46EC080912A
:104730000A0565995AC08E7F80930A0590910301FE
:1047400080910A0590FF53C0806280930A05909182
:10475000000180910A0593FD4CC0877F80930A0574
:1047600080910A054A9947C08F7B80930A05C091C2
:10477000550BC0FF10C080911D0B84FF0CC08091B1
:104780000A0580FF08C08091900E81608093900E92
:1047900080E00E942E16C1FF10C080911D0B85FD88
:1047A0000CC080910A0585FF08C08091900E806240
:1047B0008093900E81E00E942E16C2FF26C0809149
:1047C0001D0B82FF1AC080910B058823F1F08091A8
:1047D0000A0583FF1AC08091900E88608093900E26
:1047E00082E0DF91CF910C942E168160A5CF8F7D52
:1047F000ACCF8860B3CF8064B8CF80910A0586FFC4
:1048000004C08091900E8064E9CFDF91CF9108952C
:104810002F923F924F925F926F927F928F929F92D0
:10482000AF92BF92CF92DF92EF92FF920F931F93BE
:10483000CF93DF93CDB7DEB762970FB6F894DEBFA4
:104840000FBECDBFF8948FEF9FEF909389008093B8
:1048500088000AE00983B12CA12C4AE9842E4EE19C
:10486000942E789480915E0B90915F0BA091600BD9
:10487000B091610B892B8A2B8B2B09F0EEC18091B3
:10488000640B8823D1F08091620B9091630B10929E
:10489000640B892B91F01092550B1092630B1092C0
:1048A000620B9091531080915410981731F08091C1
:1048B00054108F5F8F70809354108091620B909191
:1048C000630B892B09F4C9C140915A0B50915B0BC2
:1048D00060915C0B70915D0B8091560B9091570B22
:1048E000A091580BB091590B00914C0B10E030E0A7
:1048F00020E0841B950BA60BB70B081719072A0796
:104900003B0710F4D901C801E82F840F951FA61F9B
:10491000B71F80935A0B90935B0BA0935C0BB093E3
:104920005D0B80918400909185004C964091330BF3
:104930005091340B6091350B7091360B0091230B25
:104940001091240B2091250B3091260B400F511F05
:10495000621F731F4093330B5093340B6093350BDE
:104960007093360B77FD1CC0889A0091CC0B109188
:10497000CD0B2091CE0B3091CF0B4091190B042E13
:10498000000C550B660B770B400F511F621F731FF6
:104990004093CC0B5093CD0B6093CE0B7093CF0B09
:1049A0004091370B5091380B6091390B70913A0B55
:1049B0000091270B1091280B2091290B30912A0B85
:1049C000400F511F621F731F4093370B5093380BDA
:1049D0006093390B70933A0B77FD1CC08E9A00914F
:1049E000D00B1091D10B2091D20B3091D30B409171
:1049F0001A0B042E000C550B660B770B400F511F42
:104A0000621F731F4093D00B5093D10B6093D20B56
:104A10007093D30B40913B0B50913C0B60913D0B3D
:104A200070913E0B00912B0B10912C0B20912D0BB4
:104A300030912E0B400F511F621F731F40933B0B91
:104A400050933C0B60933D0B70933E0B77FD21C060
:104A500020910B0120952870209309010091D40B1F
:104A60001091D50B2091D60B3091D70B40911B0B99
:104A7000042E000C550B660B770B400F511F621F65
:104A8000731F4093D40B5093D50B6093D60B709348
:104A9000D70B40913F0B5091400B6091410B7091AF
:104AA000420B00912F0B1091300B2091310B309164
:104AB000320B400F511F621F731F40933F0B5093E7
:104AC000400B6093410B7093420B77FD25C0209102
:104AD0001E0B213009F4B5C00CF0AEC0222309F43E
:104AE000B2C00091D80B1091D90B2091DA0B309104
:104AF000DB0B40911C0B042E000C550B660B770B47
:104B0000400F511F621F731F4093D80B5093D90B56
:104B10006093DA0B7093DB0B4091330B5091340BA5
:104B20006091350B7091360B77FD15C000911F0B0E
:104B30001091200B2091210B3091220B401B510B27
:104B4000620B730B4093330B5093340B6093350B14
:104B50007093360B88984091370B5091380B6091C9
:104B6000390B70913A0B77FD15C000911F0B109116
:104B7000200B2091210B3091220B401B510B620B1B
:104B8000730B4093370B5093380B6093390B709332
:104B90003A0B8E9840913B0B50913C0B60913D0B32
:104BA00070913E0B77FD19C000911F0B1091200BE7
:104BB0002091210B3091220B401B510B620B730B88
:104BC00040933B0B50933C0B60933D0B70933E0B1B
:104BD00020910B0128702093090140913F0B5091C7
:104BE000400B6091410B7091420B77FD1BC000910F
:104BF0001F0B1091200B2091210B3091220B401B99
:104C0000510B620B730B40933F0B5093400B60931F
:104C1000410B7093420B20911E0B2130D1F0ACF46C
:104C20002223C9F0E150C9F0209184003091850021
:104C300028173907C8F37ACE223019F0233009F04B
:104C400050CF419A4ECF149A4CCF223011F02330DE
:104C500049F74198E7CF1498E5CF80915E0B90918A
:104C60005F0BA091600BB091610B892B8A2B8B2B72
:104C700011F00C94452D8091620B9091630B998BF0
:104C8000888B892B11F40C94BC2D80915A0B909138
:104C90005B0BA0915C0BB0915D0B4091560B50915A
:104CA000570B6091580B7091590B84179507A60705
:104CB000B70708F47DC01092550B1092630B109249
:104CC000620B9091531080915410981711F40C942A
:104CD000BC2D809154108F5F8F708093541030EDF5
:104CE000C32E37E0D32EE12CF12C8091620B9091F2
:104CF000630B892B11F00C943D2D0E945317909358
:104D0000630B8093620B892B11F40C943D2DE09181
:104D1000620BF091630BF98BE88B808183FF3AC5BE
:104D200085899689A789B08D418D528D638D748D4B
:104D30008C019D01040F151F261F371F0093CC0BFC
:104D40001093CD0B2093CE0B3093CF0B841B950B80
:104D5000A60BB70B8093D00B9093D10BA093D20BE3
:104D6000B093D30B858D968DA78DB0A18093D40B76
:104D70009093D50BA093D60BB093D70B81A192A1A2
:104D8000A3A1B4A18093D80B9093D90BA093DA0B75
:104D9000B093DB0B9091531080915410981709F445
:104DA000ACCF809154108F5F8F7080935410A5CF3B
:104DB0004091510B5091520B6091530B7091540BD9
:104DC000481759076A077B0708F410C240914D0B3A
:104DD00050914E0B60914F0B7091500BE889F989FF
:104DE00086A997A9A0ADB1AD481759076A077B07F7
:104DF00008F0D0C1411551056105710509F065C084
:104E00004090990350909A0360909B0370909C038C
:104E10008EE79EE1A1E0FC01059115912591349169
:104E2000041515052605370548F4769467945794BC
:104E30004794AA0F04968816990669F7A0934C0B1D
:104E4000B0E24B1651046104710428F480E2482E4C
:104E5000512C612C712CE0E24E1A51086108710846
:104E60004114F8E05F066104710408F49CC104E099
:104E7000509EC00111248258954EFC013296259116
:104E80003491B42DAA27B39FF001B29FE10DFA1F10
:104E90000694EA1FFA1F11242F01712C612CFC01CA
:104EA000C590D490F12CE12CC418D508E608F70879
:104EB0004C0D5D1D6E1D7F1D40934D0B50934E0B91
:104EC00060934F0B7093500B10CF10E0942F452E32
:104ED000862FBC81AD81FE81EF8138852985FA80DE
:104EE0000B81E0919503E99FA12DFF273091960357
:104EF000399FA00DF11D10909703199EF00DE49DB0
:104F0000A00DF11D349DF00DE89FF00D0A2FBF2F6D
:104F10000A9FE12D332722270F9FE00D311D211F0E
:104F2000BA9FE00D311D211FBF9F300D211D032FA2
:104F3000B22F0A9FF12C332722270F9FF00C311D2F
:104F4000211FBA9FF00C311D211FBF9F300D211D65
:104F5000032FB22FEE279091990340909A038091EE
:104F60009B0300909403012A09F484C030919003BC
:104F7000309FE119910B410A810B20919103209FF1
:104F8000E0199109410A810BF0909203F09E90196B
:104F90004108810B3B9FE0199109410A810B2B9F2E
:104FA00090194108810BFB9E401881090A9FF12C42
:104FB000332722270F9FF00C311D211FBA9FF00CC1
:104FC000311D211FBF9F300D211D032FB22F3091A6
:104FD0008C03309FE10D911F411E811F20918D0395
:104FE000209FE00D911D411E811FF0908E03F09EC9
:104FF000900D411C811F3B9FE00D911D411E811FA3
:105000002B9F900D411C811FFB9E400C811D0A9F10
:10501000F12C332722270F9FF00C311D211FBA9F3F
:10502000F00C311D211FBF9F300D211D032FB22F0A
:1050300030918803309FE119910B410A810B209137
:105040008903209FE0199109410A810BF0908A039E
:10505000F09E90194108810B3B9FE0199109410A8C
:10506000810B2B9F90194108810BFB9E40188109F1
:105070000C94BC2830919003309FE10D911F411E8C
:10508000811F20919103209FE00D911D411E811FE2
:10509000F0909203F09E900D411C811F3B9FE00D0C
:1050A000911D411E811F2B9F900D411C811FFB9E56
:1050B000400C811D0A9FF12C332722270F9FF00CF3
:1050C000311D211FBA9FF00C311D211FBF9F300DD4
:1050D000211D032FB22F30918C03309FE119910BCA
:1050E000410A810B20918D03209FE0199109410A0B
:1050F000810BF0908E03F09E90194108810B3B9F2D
:10510000E0199109410A810B2B9F90194108810BED
:10511000FB9E401881090A9FF12C332722270F9FFD
:10512000F00C311D211FBA9FF00C311D211FBF9FB4
:10513000300D211D032FB22F30918803309FE10DD8
:10514000911F411E811F20918903209FE00D911D19
:10515000411E811FF0908A03F09E900D411C811F1B
:105160003B9FE00D911D411E811F2B9F900D411C07
:10517000811FFB9E400C811D11240B83FA82BC838E
:10518000AD83FE83EF8338872987542C492E712CF9
:10519000682E3ECEA889B989D2964D905D906D90CB
:1051A0007C90D59735CED301C201B695A79597953A
:1051B00087958C7F9C012258394EF90185919491F5
:1051C000F9013296A591B491E42DE770EA9F900120
:1051D000EB9F300D112403E0369527950A95E1F7F2
:1051E000821B930B6C01F12CE12C62CE4091480B99
:1051F0005091490B60914A0B70914B0B481759071E
:105200006A077B0708F032C24090430B5090440B72
:105210006090450B7090460B8091470BE889F989A7
:1052200081117DC0EE5BFF4FE080F1800281138130
:10523000E889F989E15BFF4F208131814281538107
:10524000A889B989D2966D917D918D919C91D597C0
:105250000E94AD16B1E0B093470BE889F989C2A866
:10526000D3A8E4A8F5A88EE79EE121E0FC014591D2
:105270005591659174914C155D056E057F0548F457
:10528000F694E794D794C794220F0496881699064B
:1052900069F720934C0BB0E2CB16D104E104F10482
:1052A00028F4F0E2CF2ED12CE12CF12CE0E2CE1A42
:1052B000D108E108F108C114F8E0DF06E104F104C7
:1052C00008F4B1C104E0D09EC00111248258954E6B
:1052D000FC013296259134917C2D6627739FA001A5
:1052E000729F410D561F0694461F561F112470E0F1
:1052F00060E0FC01C590D490F12CE12CC41AD50AD1
:10530000E60AF70A4C0C5D1C6E1C7F1C4092430B96
:105310005092440B6092450B7092460BE6CC82ADE6
:1053200093ADA4ADB5AD481659066A067B0608F0E4
:1053300070C1411451046104710449F4C09099038F
:10534000D0909A03E0909B03F0909C038CCF70E088
:105350006A85942DE52C862D5B854C85ED853E85F3
:105360002F8520919503299FE12D332720909603C7
:10537000299EE00D311D10909703199E300D2E9D32
:10538000E00D311D2E9C300D289F300D5E2F432FD8
:105390005E9F212D22243324539F200D211C371E74
:1053A0004E9F200D211C371E439F200C311C522D77
:1053B000432D5E9F612D22243324539F600D211CB9
:1053C000371E4E9F600D211C371E439F200C311C41
:1053D000522D432D222790919903E0909A038091BA
:1053E0009B0300909403072A09F484C02090900343
:1053F000259E2119970BE70A870B30909103359E64
:1054000020199109E70A870B60919203659F901913
:10541000E108870B249E20199109E70A870B349E27
:105420009019E108870B649FE01881095E9F612D48
:1054300022243324539F600D211C371E4E9F600D84
:10544000211C371E439F200C311C522D432D2090D0
:105450008C03259E210D971FE71E871F30908D031B
:10546000359E200D911DE71E871F60918E03659F5D
:10547000900DE11C871F249E200D911DE71E871FA4
:10548000349E900DE11C871F649FE00C811D5E9F80
:10549000612D22243324539F600D211C371E4E9F03
:1054A000600D211C371E439F200C311C522D432DB3
:1054B00020908803259E2119970BE70A870B3090CF
:1054C0008903359E20199109E70A870B60918A03A9
:1054D000659F9019E108870B249E20199109E70A1E
:1054E000870B349E9019E108870B649FE0188109AF
:1054F0000C94FC2A20909003259E210D971FE71EF7
:10550000871F30909103359E200D911DE71E871F48
:1055100060919203659F900DE11C871F249E200DD2
:10552000911DE71E871F349E900DE11C871F649F0D
:10553000E00C811D5E9F612D22243324539F600D5A
:10554000211C371E4E9F600D211C371E439F200CCF
:10555000311C522D432D20908C03259E2119970B31
:10556000E70A870B30908D03359E20199109E70AD1
:10557000870B60918E03659F9019E108870B249E2D
:1055800020199109E70A870B349E9019E108870BCF
:10559000649FE01881095E9F612D22243324539F6C
:1055A000600D211C371E4E9F600D211C371E439F2E
:1055B000200C311C522D432D20908803259E210D57
:1055C000971FE71E871F30908903359E200D911D80
:1055D000E71E871F60918A03659F900DE11C871F5E
:1055E000249E200D911DE71E871F349E900DE11C07
:1055F000871F649FE00C811D11246A875B874C879D
:10560000ED873E872F87FE2CE92E6701F12CE82ECF
:105610002ACE88899989815B9F4FDC01CD90DD90EE
:10562000ED90FC9020CED701C601B695A795979531
:1056300087958C7F9C012258394EF9018591949170
:10564000F901329645915491AC2DA770A49F900119
:10565000A59F300D1124E3E036952795EA95E1F7F3
:10566000821B930B6C01F12CE12C4CCE8091230218
:1056700090912402A0912502B0912602B7FF5FC04D
:10568000E889F989E95BFF4F40805180628073802F
:105690008EE79EE121E0FC01459155916591749161
:1056A000441555056605770548F476946794579434
:1056B0004794220F04968816990669F720934C0B9D
:1056C000F0E24F1651046104710428F450E2452EB3
:1056D000512C612C712C00E2401A510861087108AC
:1056E000411428E052066104710408F431C074E0EA
:1056F000579EC00111248258954EFC013296259187
:105700003491A42D6627A39FA001A29F410D561F8F
:105710000694461F561F112470E060E0FC0185913D
:105720009491B0E0A0E0841B950BA60BB70B80937F
:10573000230290932402A0932502B0932602C090E6
:105740002302D0902402E0902502F0902602CDCAD8
:10575000D301C201B695A795979587958C7F8258FE
:10576000994EFC0125913491FC013296459154915A
:10577000B42DB770B49FC001B59F900D112443E0C4
:10578000969587954A95E1F7281B390BC901B0E03A
:10579000A0E0CDCFA889B98955964D915D916D91C5
:1057A0007C91589759964D905D906D907C905C9748
:1057B000FD01EA5BFF4FB081BA8B81E044155505CE
:1057C0006605770509F0B1C180E041155105610515
:1057D000710559F09B2F969591708B2F8095817054
:1057E00089272B2F21709213A0C1E889F989058D93
:1057F000168D278D30A1011511052105310509F000
:1058000084608093550B1092430B1092440B1092BE
:10581000450B1092460B10924D0B10924E0B1092AE
:105820004F0B1092500BE889F98985A196A1A7A189
:10583000B0A58093560B9093570BA093580BB09341
:10584000590BCC24DD247601C81AD90AEA0AFB0ACE
:10585000C0923F0BD092400BE092410BF092420B72
:10586000C0923B0BD0923C0BE0923D0BF0923E0B72
:10587000C092370BD092380BE092390BF0923A0B72
:10588000C092330BD092340BE092350BF092360B72
:10589000440F551F661F771F4093230B5093240B13
:1058A0006093250B7093260B440C551C661C771CCB
:1058B0004092270B5092280B6092290B70922A0B72
:1058C000000F111F221F331F00932B0B10932C0B63
:1058D00020932D0B30932E0B41A152A163A174A1F3
:1058E000440F551F661F771F40932F0B5093300BAB
:1058F0006093310B7093320B880F991FAA1FBB1F47
:1059000080931F0B9093200BA093210BB093220B3D
:1059100010925A0B10925B0B10925C0B10925D0B65
:1059200082A593A5A4A5B5A58093510B9093520B86
:10593000A093530BB093540B86A597A5A0A9B1A92A
:105940008093480B9093490BA0934A0BB0934B0B59
:1059500021A520931E0B80911D0BFA898F1309C07E
:1059600030912202822F022E000C990B3817190653
:1059700039F0FA88F0921D0B209322020E94FF1644
:105980000E948C238FEF9FEFDC0180932302909382
:105990002402A0932502B0932602E889F989FE9695
:1059A000E080F18002811381A889B989D2962D9176
:1059B0003D914D915C91D597A55BBF4FB98BA88B5D
:1059C0006D917D918D919C910E94AD161092470B27
:1059D000E889F98940805180628073808EE79EE17A
:1059E00021E0FC014591559165917491441555054F
:1059F0006605770548F47694679457944794220F88
:105A000004968816990669F720934C0BF0E24F161E
:105A100051046104710428F450E2452E512C612C8C
:105A2000712C00E2401A510861087108411428E005
:105A300052066104710408F47AC074E0579EC001F4
:105A400011248258954EFC01329625913491A42D53
:105A50006627A39FA001A29F410D561F0694461FD3
:105A6000561F112470E060E0FC01C590D490F12C29
:105A7000E12CC41AD50AE60AF70AC0925E0BD0924E
:105A80005F0BE092600BF092610B80915E0B909146
:105A90005F0BA091600BB091610BAC01BD01009751
:105AA000E1E0AE07B10520F04FEF5FEF60E070E09E
:105AB000841B950BA60BB70B80935E0B90935F0B2B
:105AC000A093600BB093610BF89480918400909147
:105AD00085004096F981F150F983FF2309F44AC00B
