:100000000C94410F0C94720F0C94720F0C94720F9D
:100010000C94720F0C94720F0C94720F0C94720F5C
:100020000C94720F0C94720F0C94720F0C94720F4C
:100030000C94720F0C94720F0C94720F0C94720F3C
:100040000C94720F0C944A740C94720F0C94720FEF
:100050000C94720F0C94720F0C946E6A0C947F685F
:100060000C94720F0C948A740C94720F0C94720F8F
:100070000C94720F0C94720F0C94720F0C94720FFC
:100080000C94720F0C94720F0C94720F0C94720FEC
:100090000C94720F0C94720F0C94720F0C94720FDC
:1000A0000C94720F0C94720F0C94720F0C94720FCC
:1000B0000C94720F0C94720F0C94720F0C94720FBC
:1000C0000C94720F0C94720F0C94720F0C94720FAC
:1000D0000C94720F0C94720F0C94720F0C94720F9C
:1000E0000C94720F084AD73B3BCE016E84BCBFFD17
:1000F000C12F3D6C74319ABD56833DDA3D00C77FF8
:1001000011BED9E4BB4C3E916BAAAABE0000008090
:100110003F05A84CCDB2D44EB93836A9020C50B91F
:10012000918688083CA6AAAA2ABE000000803F004B
:100130000C94E30F0C94D2100C94B1100C94A80FF3
:100140000C940A110C94ED0F0C9419110C94DB0F04
:100150000C94B4740C94B9100C94E80F0C94B20F76
:100160000C942D110C94C8100C9400110C94E410F4
:100170000C94BA0F0C944B110C94CD0F0C94BD0F32
:100180000C94C30F0C94BE100C94DF0F0C94C70F8B
:100190000C94DC100C94D10F0C94EC100C94B60F52
:1001A0000C9441110C9437110C94D50F0C94E90F59
:1001B0000C94F6100C94AE0F0C9423114E414E4942
:1001C0004E495459494E46CDCCCC3D0AD7233C1715
:1001D000B7D13877CC2B329595E6241FB14F0A0062
:1001E0000020410000C84200401C4620BCBE4CCA52
:1001F0001B0E5AAEC59D74434F4D4D554E4943415C
:1002000054494F4E0044525952554E004552524F98
:10021000525300494E464F004543484F00256973ED
:100220000025696D20256973002569682025696DA1
:100230002025697300256964202569682025696D7A
:10024000202569730025697920256964202569685E
:100250002025696D2025697300656E71756575656A
:10026000696E672022005072696E74657220737423
:100270006F707065642064756520746F206572729C
:100280006F72732E204669782074686520657272DB
:100290006F7220616E6420757365204D3939392085
:1002A000746F20726573746172742E202854656DAA
:1002B000706572617475726520697320726573650B
:1002C000742E2053657420697420616674657220F1
:1002D00072657374617274696E67290A004E6F20CB
:1002E000436865636B73756D2077697468206C690A
:1002F0006E65206E756D6265722C204C6173742082
:100300004C696E653A2000636865636B73756D2098
:100310006D69736D617463682C204C617374204C3B
:10032000696E653A20004C696E65204E756D626598
:1003300072206973206E6F74204C617374204C6955
:100340006E65204E756D6265722B312C204C617389
:1003500074204C696E653A20004D313130002049DF
:100360006E76616C6964206578747275646572205C
:100370000000000000000000000000000000007A03
:10038000430000794300009643206E6F7420656E31
:1003900074657265642E0A0050726F7465637465CB
:1003A000642050696E0A0020573A00205A3A002013
:1003B000423A0020436F756E7420413A0020453A5E
:1003C00000205A3A0020593A00583A003A00436156
:1003D000703A00426564204C6576656C696E6720F2
:1003E000004661696C656420746F20656E61626CA3
:1003F0006520426564204C6576656C696E670A000D
:100400004D65736820426564204C6576656C206498
:100410006174613A0A00526573656E643A20002087
:10042000746F6F206C6F6E67206578747275736976
:100430006F6E2070726576656E7465640A00206365
:100440006F6C6420657874727573696F6E2070725A
:100450006576656E7465640A00627573793A20701A
:10046000617573656420666F7220696E7075740AB9
:1004700000627573793A2070617573656420666FE8
:100480007220757365720A00627573793A20707212
:100490006F63657373696E670A004B494C4C206348
:1004A000617573656420627920746F6F206D756368
:1004B0006820696E6163746976652074696D652072
:1004C0002D2063757272656E7420636F6D6D616E41
:1004D000643A20002020506C616E6E657242756631
:1004E00066657242797465733A20002046726565CC
:1004F000204D656D6F72793A2000436F6D70696CA5
:1005000065643A2041756720323520323032320A34
:1005100000207C20417574686F723A2046726163D6
:100520006B74616C20576F726B730A003230323219
:100530002D30382D32352031363A343800204C6198
:10054000737420557064617465643A200042756963
:100550006C643A204A313852455F32323038323595
:100560005F313634385F48410A00467261636B740C
:10057000616C20576F726B73204A756C69612045FE
:100580007874656E6465640A00312E312E390A0074
:100590004D61726C696E0020536F6674776172658D
:1005A0002052657365740A00205761746368646F34
:1005B000672052657365740A002042726F776E205F
:1005C0006F75742052657365740A002045787465F0
:1005D000726E616C2052657365740A00506F7765A6
:1005E0007255700A0073746172740A000000484208
:1005F000000048420000A041000000005761726EF8
:10060000696E673A20486F6D696E672042756D703C
:100610002044697669736F72203C20310A0002021F
:10062000040000A0400000A0400000004000007A4C
:100630004300007943000096436F6B004572726F70
:10064000722077726974696E6720746F2045455017
:10065000524F4D210A00454550524F4D2064617460
:100660006173697A65206572726F722E0A00290AB9
:10067000002062797465733B2063726320005365C8
:100680007474696E67732053746F726564202800F8
:10069000290A002062797465733B2063726320002D
:1006A0002073746F7265642073657474696E677308
:1006B000207265747269657665642028002028635D
:1006C000616C63756C6174656429210A0020213DA9
:1006D0002000454550524F4D20435243206D6973D1
:1006E0006D61746368202D202873746F72656429AE
:1006F00020002053697A653A2000496E6465783A93
:100700002000204D61726C696E3D563535290A0016
:1007100028454550524F4D3D00454550524F4D20C4
:1007200076657273696F6E206D69736D617463684D
:10073000200048617264636F64656420446566618B
:10074000756C742053657474696E6773204C6F61A7
:100750006465640A00DC050000DC0500003200006E
:10076000001027000000004843000048430000A09C
:1007700041000034420000204300002043F0F77B9A
:100780004400008C4320286D6D290020440020493E
:100790000020204D333031205000504944207365F3
:1007A0007474696E67733A0A00205A002059002059
:1007B0002047323920533320580020204D34323026
:1007C0002053004D65736820426564204C65766552
:1007D0006C696E673A0A00205A0020590020204DAB
:1007E000323036205800486F6D65206F666673653D
:1007F000743A0A00204A0020540020530020204D63
:10080000323035204200204A3C6A756E635F646571
:10081000763E00416476616E6365643A20423C6DC9
:10082000696E5F7365676D656E745F74696D655F32
:1008300075733E20533C6D696E5F666565647261D9
:1008400074653E20543C6D696E5F74726176656CB0
:100850005F66656564726174653E002054002052D5
:100860000020204D323034205000416363656C65B8
:10087000726174696F6E2028756E6974732F73329C
:10088000293A20503C7072696E745F616363656CD5
:100890003E20523C726574726163745F616363658C
:1008A0006C3E20543C74726176656C5F6163636575
:1008B0006C3E0A00204500205A0020590020204D9F
:1008C0003230312058004D6178696D756D2041637B
:1008D00063656C65726174696F6E2028756E6974EA
:1008E000732F7332293A0A00204500205A002059FC
:1008F0000020204D3230332058004D6178696D75ED
:100900006D206665656472617465732028756E6913
:1009100074732F73293A0A00204500205A00205989
:100920000020204D393220580053746570732070B8
:10093000657220756E69743A0A0020204D3230309D
:100940002044300A0020204D323030204400204422
:10095000697361626C65640A0046696C616D656EFD
:10096000742073657474696E67733A00202047328F
:1009700031202020203B007A5F6D61783A20007999
:100980005F6D61783A2000785F6D696E3A200052A1
:1009900065706F7274696E6720656E6473746F70D2
:1009A000207374617475730A000A4D656173757202
:1009B000656420706F696E74733A0A005A206F661E
:1009C000667365743A20004E756D20582C593A2094
:1009D000332C330A000000000100000001000080F9
:1009E00000555555000000400033333300AAAA2AB1
:1009F000004992240000002000C7711C0099991939
:100A000000D1451700555515003BB113002449127C
:100A10000011111100000010000F0F0F00E3380E3D
:100A20000043790D00CCCC0C00C3300C00E8A20BC5
:100A30000064210B00AAAA0A00703D0A009DD80993
:100A400000427B090092240900DCD3080088880852
:100A5000001042080000000800F0C1070087870767
:100A60000075500700711C07003EEB0600A1BC0694
:100A7000006990060066660600703E060061180672
:100A80000017F4050074D105005BB00500B29005B5
:100A900000627205005555050078390500B81E053D
:100AA00000050505004EEC040087D40400A1BD0438
:100AB0000090A7040049920400C17D0400EE69047F
:100AC00000C7560400444404005C320400082104BA
:100AD0000041100400000004003FF00300F8E003B0
:100AE0000026D20300C3C30300CCB503003AA80319
:100AF000000A9B0300388E0300C08103009F75032A
:100B000000D0690300505E03001D53030034480306
:100B100000913D03003333030016290300381F03FF
:100B20000097150300300C0300030303000BFA02C7
:100B30000049F10200BAE802005CE002002DD80290
:100B4000002DD0020059C80200B0C0020031B90225
:100B500000DAB10200AAAA0200A0A30200BC9C0213
:100B600000FA9502005C8F0200DF88020082820298
:100B700000457C02002776020027700200436A02CB
:100B8000007C640200D05E02003F590200C853029C
:100B90000020746F6F206C6F6E67206578747275BB
:100BA00073696F6E2070726576656E7465640A0095
:100BB00020636F6C6420657874727573696F6E2042
:100BC00070726576656E7465640A00FFFDFCFAF864
:100BD000F6F4F2F0EEECEAE9E7E5E3E1E0DEDCDA98
:100BE000D9D7D5D4D2D0CFCDCBCAC8C7C5C3C2C040
:100BF000BFBDBCBAB9B7B6B4B3B2B0AFADACAAA9B9
:100C0000A8A6A5A4A2A1A09E9D9C9A999897959408
:100C10009392908F8E8D8B8A898887868483828138
:100C2000807F7E7D7B7A7978777675747372717048
:100C30006F6E6D6C6B6A696867666564636261603C
:100C40005F5E5D5C5B5A5958585756555453525124
:100C500050504F4E4D4C4B4A4A49484746464544F2
:100C600043424241403F3E3E3D3C3B3B3A393838AF
:100C700037363535343332323130302F2E2E2D2C5D
:100C80002B2B2A29292827272625252423232221FF
:100C90002120201F1E1E1D1C1C1B1B1A1919181891
:100CA000171616151514131312121111100F0F0E1B
:100CB0000E0D0D0C0C0B0A0A090908080707060699
:100CC000050504040303020201000046696C616D1E
:100CD000656E7420757365643A2000537461747393
:100CE0003A20002C204C6F6E67657374206A6F6227
:100CF0003A2000546F74616C2074696D653A20006D
:100D000053746174733A20002C204661696C6564E9
:100D10003A20002C2046696E69736865643A2000A9
:100D20005072696E74733A200053746174733A2080
:100D30000024F4D43050C38E20C2A24017828B709E
:100D400011127A910D816CD90AA861E108C7586621
:100D500007615143061E4B5D05C145A7041A4111A9
:100D600004093D9803713931034036DB0265339144
:100D700002D4305402802E1D02632CEE01752AC568
:100D800001B028A001102781018F2564012B244B7D
:100D900001E0223401AC211F018D200D01801FFCD8
:100DA00000841EED00971DDF00B81CD200E61BC6B4
:100DB00000201BBC00641AB200B219A8000A19A0D6
:100DC000006A189900D117910040178B00B516845E
:100DD0000031167E00B31579003A157300C7146F01
:100DE0000058146A00EE1366008813630025135E32
:100DF00000C7125B006C12570015125400C111514C
:100E00000070114F0021114B00D61049008D104782
:100E1000004610440002104200C00F4000800F3E08
:100E200000420F3C00060F3B00CB0E3800930E37FC
:100E3000005C0E3500270E3400F30D3200C10D3179
:100E400000900D3000600D2E00320D2D00050D2C90
:100E500000D90C2B00AE0C2900850C29005C0C2756
:100E600000350C27000E0C2600E80B2400C40B24D0
:100E700000A00B23007D0B23005A0B2100390B210E
:100E800000180B2000F80A1F00D90A1E00BB0A1E1A
:100E9000009D0A1D00800A1D00630A1C00470A1BF2
:100EA000002C0A1B00110A1A00F7091A00DD0919A3
:100EB00000C4091900AB091900920917007B091831
:100EC00000630917004C09160036091600200916A0
:100ED000000A091500F5081500E0081400CC0814F4
:100EE00000B8081400A4081400900813007D08122C
:100EF000006B08130058081200460812003408114D
:100F000000230811001208110001081100F0071059
:100F100000E0071000D0071000C0071000B0070F56
:100F200000A107100091070E0083070F0074070F40
:100F30000065070E0057070E0049070E003B070D1E
:100F4000002E070E0020070D0013070D0006070DE9
:100F500000F9060C00ED060D00E0060C00D4060CAE
:100F600000C8060C00BC060C00B0060C00A4060B62
:100F70000099060C008D060B0082060B0077060B0D
:100F8000006C060B0061060A0057060B004C060AAF
:100F90000042060A0038060A002E060A0024060A45
:100FA000001A060A001006090007060A00FD0509D6
:100FB00000F4050900EB050900E2050900D905095F
:100FC00000D0050900C7050900BE050900B50508E0
:100FD00000AD050800A50509009C0508009405085A
:100FE000008C050800840508007C050800740508CD
:100FF000006C050700650508005D0507005605083B
:10100000004E0507004705070040050800380507A2
:1010100000310507002A050700230507001C050607
:1010200000160507000F0507000805060002050762
:1010300000FB040600F5040700EE040600E80406C1
:1010400000E2040700DB040600D5040600CF040616
:1010500000C9040600C3040600BD040600B7040668
:1010600000B1040500AC040600A6040600A00405B7
:10107000009B04060095040500900406008A040500
:101080000085040500800406007A04050075040547
:1010900000700405006B040500660405006104058A
:1010A000005C04050057040500520405004D0405CA
:1010B0000048040500430405003E0404003A04050A
:1010C0000035040500300404002C04050027040446
:1010D00000230405001E0404001A0404001604057D
:1010E00000110404000D04040009040500040404B4
:1010F0000000040400FC030400F8030400F40304EB
:1011000000F0030400EC030400E8030400E403041B
:1011100000E0030400DC030400D8030400D403044B
:1011200000D0030400CC030400C8030300C503037C
:101130000024F404D9201BC40C5C0E9804C4095F7D
:101140000265077101F405F900FB04B30048048748
:1011500000C10369005803550003034500BE023A6D
:10116000008402310053022A0029022500040220D3
:1011700000E4011C00C8011900AF01170098011418
:101180000084011300710110006101100051010E73
:101190000043010D0036010B002B010B0020010B59
:1011A00000150109000C01090003010800FB0008FB
:1011B00000F3000800EB000700E4000600DE000674
:1011C00000D8000600D2000600CC000500C70005CC
:1011D00000C2000500BD000400B9000400B5000411
:1011E00000B1000400AD000400A9000400A5000344
:1011F00000A20003009F0004009B0003009800036E
:10120000009500020093000300900003008D00028F
:10121000008B0003008800020086000200840003A7
:1012200000810002007F0002007D0002007B0002BE
:1012300000790002007700010076000200740002CD
:101240000072000100710002006F0002006D0001D9
:10125000006C0002006A00010069000200670001E2
:1012600000660001006500010064000200620001E8
:101270000061000100600001005F0002005D0001EC
:10128000005C0001005B0001005A000100590001F0
:1012900000580001005700010056000100550001F0
:1012A00000540001005300000053000100520001EF
:1012B0000051000100500001004F0001004E0000ED
:1012C000004E0001004D0001004C0001004B0000E9
:1012D000004B0001004A00010049000100480000E5
:1012E00000480001004700010046000000460001E0
:1012F00000450000004500010044000100430000DB
:1013000000430001004200000042000100410000D3
:101310000041000100400001003F0000003F0001CB
:10132000003E0000003E0001003D0000003D0001C5
:10133000003C0000003C0000003C0001003B0000BD
:10134000003B0001003A0000003A000100390000B3
:1013500000390001003800000038000000380001AA
:1013600000370000003700010036000000360000A2
:101370000036000100350000003500000035000196
:10138000003400000034000000340001003300008D
:101390000033000000330001003200000032000082
:1013A0000032000100310000003100000031000176
:1013B000003000000030000000300001002F00006D
:1013C000002F0000002F0000002F0001002E000061
:1013D000002E0000002E0001002D0000002D000056
:1013E000002D0000002D0001002C0000002C00004A
:1013F000002C0000002C0001002B0000002B00003E
:10140000002B0000002B0001002A0000002A000031
:10141000002A0000002A0001002900000029000025
:101420000029000000290000002900010028000018
:10143000002800000028000000280000002800010B
:101440000027000000270000002700000027000000
:1014500000270001002600000026000000260000F2
:1014600000260000002600010025000000250000E5
:1014700000250000002500000025000000250001D7
:1014800000240000002400000024000000240000CC
:1014900000240001002300000023000000230000BE
:1014A00000230000002300000023000000230001AF
:1014B00000220000002200000022000000220000A4
:1014C0000022000000220001002100000021000095
:1014D0000021000000210000002100000021000088
:1014E000002100010020000000200000002000007A
:1014F000002000000020000000200000002000006C
:1015000000200001001F0000001F0000001F00005D
:10151000001F0000001F0000001F0000001F00014E
:10152000001E0000001E0000001E0000001E000043
:1015300000393000003325000087190000B00F008B
:1015400000DB080000BD040000740200003F010041
:101550000023646566696E652044454641554C54D8
:101560005F4B64200023646566696E6520444546D0
:1015700041554C545F4B69200023646566696E6574
:101580002044454641554C545F4B7020005049441F
:10159000204175746F74756E652066696E69736835
:1015A0006564212050757420746865206C617374C3
:1015B000204B702C204B6920616E64204B642063AB
:1015C0006F6E7374616E74732066726F6D206265E6
:1015D0006C6F7720696E746F20436F6E66696775F4
:1015E000726174696F6E2E680A005049442041751B
:1015F000746F74756E65206661696C656421207412
:10160000696D656F75740A00453120544845524D27
:10161000414C2052554E4157415900546865726DF6
:10162000616C2052756E61776179004531204865A3
:101630006174696E67206661696C65640048656104
:1016400074696E67206661696C6564005049442066
:101650004175746F74756E65206661696C6564218F
:101660002054656D706572617475726520746F6F5A
:1016700020686967680A00204B643A2000204B69A3
:101680003A2000204B703A20000A20436C617373AB
:10169000696320504944200A002054753A200020F4
:1016A0004B753A2000206D61783A2000206D696EFC
:1016B0003A200020643A200020626961733A2000D9
:1016C000504944204175746F74756E652073746160
:1016D00072740A00504944204175746F74756E65C8
:1016E000206661696C6564212042616420657874BC
:1016F0007275646572206E756D6265720A0062654E
:10170000640A002C2073797374656D2073746F7094
:1017100070656421204865617465725F49443A20B0
:10172000004265642068656174696E67206661695E
:101730006C65640048656174696E67206661696CF8
:1017400065640045312048656174696E6720666193
:10175000696C65640048656174696E6720666169DB
:101760006C6564001000600350012C01900122019F
:10177000D001180110020E0170020401E002FA000B
:101780006003F0000004E600B004DC00A005D20015
:10179000B006C8000008BE00A009B400800BAA0073
:1017A000D00DA00090109600C0138C00701782001E
:1017B000901B780010206E00C0246400E02D5000C3
:1017C00080353C00A03A2800A03D1400003F0000F6
:1017D000A03FECFF4531204572723A204D415854EC
:1017E000454D50004572723A204D415854454D5078
:1017F00020424544004D415854454D502074726973
:10180000676765726564004531204572723A204D04
:10181000494E54454D50004572723A204D494E5440
:10182000454D5020424544004D494E54454D5020B1
:1018300074726967676572656400202F00204240FA
:101840003A0020403A0000002100240027002A002E
:101850002D003000330001010000040107010A01DE
:1018600000002200250028002B002E00310034004B
:1018700002010000050108010B0100002000230007
:10188000260029002C002F00320000010000030177
:1018900006010901050505050705080808080202F3
:1018A00002020A0A080804040404010101010101FA
:1018B00001010303030303030303040707070C0CDD
:1018C0000C0C0C0C0C0C02020202060606060606A4
:1018D00006060B0B0B0B0B0B0B0B01021020200849
:1018E000081020401020408002010201080402017B
:1018F00001020408102040808040201008040201EA
:101900008004020180402010080402010804020142
:1019100001020408102040800102040810204080C9
:1019200000000A0B02090C0D0E0807030401000059
:1019300000000000000000000000000000000000A7
:101940000000000000000000000000001211100064
:101950000000000000000000000000000000000087
:1019600000000000000047322F47332062616420EE
:10197000706172616D65746572730A00206F662014
:10198000004D424C2047323920706F696E74200040
:1019900059206F7574206F662072616E676520280C
:1019A000312D33292E0A0058206F7574206F662060
:1019B00072616E67652028312D33292E0A004D652E
:1019C00073682070726F62696E6720646F6E652E37
:1019D0000A005374617274206D6573682070726FB1
:1019E00062696E6720776974682022473239205314
:1019F00031222066697273742E0A004732392053EF
:101A000032004D65736820626564206C6576656C94
:101A1000696E6720686173206E6F20646174612E47
:101A20000A0053746174653A200053206F75742066
:101A30006F662072616E67652028302D35292E0A69
:101A4000004D65736820706F696E742063616E6EFF
:101A50006F74206265207265736F6C7665640A002E
:101A60005072696E742074696D653A20006F666605
:101A700000180213020C020502F7014445425547C3
:101A80003A004D3131332053006F6B0020573A003C
:101A9000544845524D414C5F50524F544543544970
:101AA0004F4E004155544F5245504F52545F53448E
:101AB0005F53544154555300454D455247454E439D
:101AC000595F50415253455200434153455F4C4981
:101AD0004748545F4252494748544E455353005477
:101AE0004F47474C455F4C494748545300534F4676
:101AF00054574152455F504F574552004255494C4B
:101B0000445F50455243454E54004C4556454C4960
:101B10004E475F44415441005A5F50524F42450086
:101B20004155544F4C4556454C005052494E545F18
:101B30004A4F420050524F4752455353004155546B
:101B40004F5245504F52545F54454D5000564F4CE4
:101B5000554D455452494300454550524F4D005351
:101B6000455249414C5F584F4E5F584F46460046DC
:101B700049524D574152455F4E414D453A4D617274
:101B80006C696E204A313852455F32323038323516
:101B90005F313634385F484120534F555243455FDB
:101BA000434F44455F55524C3A68747470733A2FF2
:101BB0002F6769746875622E636F6D2F616861723B
:101BC000736861632F46574A756C696132303138EA
:101BD0004D61726C696E2050524F544F434F4C5FB1
:101BE00056455253494F4E3A312E30204D414348CD
:101BF000494E455F545950453A4A756C69612045D4
:101C00007874656E64656420455854525544455255
:101C10005F434F554E543A3120555549443A386246
:101C20006561313437342D373130622D34623930CB
:101C30002D386135302D3832333765616165633554
:101C400030660A002F2F20002054002052004163EC
:101C500063656C65726174696F6E3A2050003F4A2B
:101C6000206F7574206F662072616E676520283062
:101C70002E303120746F20302E33290A00000020CE
:101C8000C10000794300009643546F6F2066617273
:101C90002066726F6D207265666572656E63652081
:101CA000706F696E740A00FF0101205A002059000C
:101CB000580020204D61783A2000205A0020590019
:101CC000580020204D696E3A20004F6E20004F666C
:101CD0006600536F667420656E6473746F70733A38
:101CE000200020466C6F773A20000001363726032B
:101CF000FFFFFF353C3D38FF0FFFFF312E303EFF29
:101D000013FFFFFF28FF0C0809FFFFFF1A1C18FF35
:101D1000FF2A08440AFF43496E76616C69642065B6
:101D2000787472756465720A0020643A0020693A1A
:101D30000020703A0043290A0061626C6564202823
:101D40006D696E2074656D702000436F6C64206552
:101D5000787472756465732061726520004E6F201F
:101D600063617365206C696768740A004D65736808
:101D700020706F696E742063616E6E6F742062658F
:101D8000207265736F6C7665640A004D34323120C1
:101D9000696E636F727265637420706172616D65E4
:101DA0007465722075736167650A00454550524F2E
:101DB0004D204F4B0A004163746976652045787465
:101DC00072756465723A2000496E76616C696420B0
:101DD00065787472756465720A00205A3A00205959
:101DE0003A0020583A00656E6473746F707320680F
:101DF00069743A2000556E6B6E6F776E20636F6D5D
:101E00006D616E643A2022002066697273740A0064
:101E10005A0059005800486F6D6520006563686F6F
:101E20003A00453120544845524D414C2052554EC0
:101E3000415741590042454420544845524D414C78
:101E40002052554E4157415900546865726D616C7E
:101E50002052756E61776179005072696E74657297
:101E60002068616C7465642E206B696C6C28292075
:101E700063616C6C6564210A004572726F723A008E
:101E8000B47411241FBECFEFD1E2DEBFCDBF00E09E
:101E90000CBF13E0A0E0B2E0EAE7FDE201E00BBF17
:101EA00002C007900D92A430B107D9F72EE0A4E04C
:101EB000B3E001C01D92A533B207E1F71FE0C1E412
:101EC000DFE000E006C021970109802FFE010E949B
:101ED0006696C034D10780E00807A9F70E9406750E
:101EE0000C94BB960C940000FC01DB018C912081CA
:101EF0003181382798E0A901220F331F57FD05C013
:101F00009150C9F7318320830895B1E22B27B0E1C6
:101F10003B27F6CF8150823108F05AC0E82FF0E01D
:101F20008827EA56F04F8F4F0C946696B60FBA0F7B
:101F3000A80FAE0FB20FE80FBD0FC30FC70FCD0F25
:101F4000D10FD50FDB0FDF0FE80FE30FE90FED0F18
:101F5000809180008F778093800008958091800029
:101F60008F7DF9CF80918000877FF5CF84B58F7703
:101F700084BD089584B58F7DFBCF8091B0008F77AD
:101F80008093B00008958091B0008F7DF9CF80914B
:101F900090008F77809390000895809190008F7DBE
:101FA000F9CF80919000877FF5CF8091A0008F7747
:101FB0008093A00008958091A0008F7DF9CF80913B
:101FC000A000877FF5CF809120018F77809320013B
:101FD0000895809120018F7DF9CF80912001877F26
:101FE000F5CFCF93DF93282F30E0F901E05EF64E76
:101FF0008491F901E652F74ED491F901EC56F74E6F
:10200000C491CC23A1F081110E948A0FEC2FF0E043
:10201000EE0FFF1FE658F74EA591B491EC91ED231A
:1020200081E090E009F480E0DF91CF91089580E0B5
:1020300090E0FACF1F93CF93DF93282F30E0F90180
:10204000E05EF64E8491F901E652F74ED491F90123
:10205000EC56F74EC491CC23A9F0162F81110E94A3
:102060008A0FEC2FF0E0EE0FFF1FE05AF74EA5911C
:10207000B4918FB7F894EC91111108C0D095DE237C
:10208000DC938FBFDF91CF911F910895DE2BF8CFA6
:10209000CF93DF9390E0FC01E652F74E24918C56EB
:1020A000974EFC0184918823D1F090E0880F991F0E
:1020B000FC01EA5BF74EA591B491FC01E05AF74EA2
:1020C000C591D49161110EC09FB7F8948C91E22F05
:1020D000E0958E238C932881E223E8839FBFDF91D4
:1020E000CF9108958FB7F894EC91E22BEC938FBFCA
:1020F000F6CF1F93CF93DF93182FEB0161E00E947F
:102100004810209739F460E0812FDF91CF911F9123
:102110000C941A10CF3FD10511F461E0F5CFE12FF7
:10212000F0E0E05EF64EE491E150E23108F0B3C039
:10213000F0E08827E156FF4E8F4F0C946696B11061
:10214000B910BE10C810D2104B11DC10E410EC1006
:10215000F61000110A11191123114B112D1137110D
:10216000411184B5806884BDC7BDDF91CF911F91B7
:10217000089584B5806284BDC8BDF7CF809180008A
:10218000806880938000D0938900C0938800EDCF51
:1021900080918000806280938000D0938B00C093F8
:1021A0008A00E3CF80918000886080938000D09384
:1021B0008D00C0938C00D9CF8091B000806880934F
:1021C000B000C093B300D1CF8091B0008062809303
:1021D000B000C093B400C9CF809190008068809314
:1021E0009000D0939900C0939800BFCF8091900049
:1021F000806280939000D0939B00C0939A00B5CFEB
:1022000080919000886080939000D0939D00C0934F
:102210009C00ABCF8091A00080688093A00080914B
:10222000A0008F7B8093A000D093A900C093A8004A
:102230009CCF8091A00080628093A000D093AB00DF
:10224000C093AA0092CF8091A00088608093A000E4
:10225000D093AD00C093AC0088CF809120018068FE
:1022600080932001D0932901C09328017ECF8091D3
:102270002001806280932001D0932B01C0932A011A
:1022800074CF80912001886080932001D0932D012C
:10229000C0932C016ACFC038D1050CF03ECF33CFAC
:1022A000789484B5826084BD84B5816084BD85B531
:1022B000826085BD85B5816085BDEEE6F0E08081F8
:1022C00081608083E1E8F0E0108280818260808319
:1022D000808181608083E0E8F0E08081816080839C
:1022E000E1EBF0E0808184608083E0EBF0E08081CE
:1022F00081608083E1E9F0E0808182608083808179
:1023000081608083E0E9F0E0808181608083E1EAA0
:10231000F0E0808182608083808181608083E0EA58
:10232000F0E0808181608083E1E2F1E08081826081
:102330008083808181608083E0E2F1E08081816040
:102340008083EAE7F0E0808184608083808182601E
:102350008083808181608083808180688083109207
:10236000C10008953FB7F8948091F10A9091F20A64
:10237000A091F30AB091F40A26B5A89B05C02F3F9F
:1023800019F00196A11DB11D3FBFBA2FA92F982F9B
:102390008827BC01CD01620F711D811D911D42E096
:1023A000660F771F881F991F4A95D1F708958F925E
:1023B0009F92AF92BF92CF92DF92EF92FF926B010A
:1023C0007C010E94B2114B015C01C114D104E104F3
:1023D000F104B9F00E94B211681979098A099B09C0
:1023E000683E73408105910580F321E0C21AD1084F
:1023F000E108F10888EE880E83E0981EA11CB11C4C
:10240000E4CFFF90EF90DF90CF90BF90AF909F9080
:102410008F9008952FB7F8946091ED0A7091EE0AAD
:102420008091EF0A9091F00A2FBF0895CF92DF922A
:10243000EF92FF92C090EA0DD090EB0DE090EC0D82
:10244000F090ED0D6091E80D7091E90D6750710904
:10245000072E000C880B990B0E94B88E9B01AC01D3
:10246000C701B6010E94B18E87FF21C020E030E095
:1024700040E050E4C701B6010E9413930E94869485
:102480007093E70D6093E60D0E940A1260547B4240
:102490008E4F9F4F6093E20D7093E30D8093E40D98
:1024A0009093E50DFF90EF90DF90CF9008951092FC
:1024B000E20D1092E30D1092E40D1092E50DF2CFB3
:1024C0008F929F92AF92BF92CF92DF92EF92FF9244
:1024D0000F931F93CF93DF93BCE1A0E06A2F70E0CE
:1024E000AB014B0F511D559547954A1711F0B41389
:1024F00019C0E2EDF7E165917491072E000C880B8D
:10250000990B0E94B88EDF91CF911F910F91FF9090
:10251000EF90DF90CF90BF90AF909F908F900895F5
:10252000B42FDECF9A0121503109220F331F220F21
:10253000331FF901EC59F84EE590F490F901E85990
:10254000F84EC591D4918E159F0554F3A42FC8174A
:10255000D9070CF4C3CFF901EA59F84E059114914B
:10256000F901E659F84EC590D490BC016E197F0967
:10257000072E000C880B990B0E94B88E4B015C0152
:10258000B601601B710B072E000C880B990B0E9483
:10259000B88E9B01AC01C501B4010E94178F4B019D
:1025A0005C01BE016E197F09072E000C880B990B88
:1025B0000E94B88E9B01AC01C501B4010E940D942C
:1025C0006B017C01B801110F880B990B0E94B88E2A
:1025D0009B01AC01C701B6010E94139394CFCF9227
:1025E000DF92EF92FF92C090400BD090410BE090B1
:1025F000420BF090430B6091440B7091450B665079
:102600007109072E000C880B990B0E94B88EA70148
:1026100096010E94739518160CF520E030E040E01A
:1026200050E4C701B6010E9413930E9486947093F0
:10263000CD0A6093CC0A0E940A126058774C8E4FE4
:102640009F4F6093C80A7093C90A8093CA0A9093F7
:10265000CB0AFF90EF90DF90CF9008951092C80AB8
:102660001092C90A1092CA0A1092CB0AF2CF8F9226
:102670009F92AF92BF92CF92DF92EF92FF920F9311
:102680001F93CF93DF93BCE1A0E06A2F70E0AB0112
:102690004B0F511D55954795A41711F0B41319C050
:1026A000E2EDF7E165917491072E000C880B990B10
:1026B0000E94B88EDF91CF911F910F91FF90EF9004
:1026C000DF90CF90BF90AF909F908F900895B42FE0
:1026D000DECF9A0121503109220F331F220F331F01
:1026E000F901EC59F84EE590F490F901E859F84EEB
:1026F000C591D4918E159F0554F3A42FC817D907FF
:102700000CF4C3CFF901EA59F84E05911491F9017F
:10271000E659F84EC590D490BC016E197F09072E7A
:10272000000C880B990B0E94B88E4B015C01B6011E
:10273000601B710B072E000C880B990B0E94B88E42
:102740009B01AC01C501B4010E94178F4B015C01D4
:10275000BE016E197F09072E000C880B990B0E9491
:10276000B88E9B01AC01C501B4010E940D946B01B0
:102770007C01B801110F880B990B0E94B88E9B0148
:10278000AC01C701B6010E94139394CF0F931F931E
:102790008091360B813019F50E940A120091A60A29
:1027A0001091A70A2091A80A3091A90A601B710B09
:1027B000820B930B28EE33E040E050E00E94D6926B
:1027C0006091A20A7091A30A8091A40A9091A50A2F
:1027D000620F731F841F951F1F910F9108956091C1
:1027E000320B7091330B8091340B9091350BD6CF17
:1027F0001092360B1092A60A1092A70A1092A80AFD
:102800001092A90A1092320B1092330B1092340BD3
:102810001092350B1092A20A1092A30A1092A40AE9
:102820001092A50A08950F931F93CF93DF93C82F9B
:1028300080916F00D82FD27081FF05C080916F000A
:102840008D7F80936F006091160B7091170B8091B4
:10285000180B9091190B00911A0B10911B0B2091E2
:102860001C0B30911D0BC13039F5601B710B820BB5
:10287000930B0E94B88E20E030E040E05FE30E94BE
:10288000178F0E947F9424E0C29FF0011124EA5622
:10289000F54F608371838283938381E08093950AEF
:1028A000DD2329F080916F00826080936F00DF91BB
:1028B000CF911F910F910895600F711F821F931F79
:1028C000D8CF90916F00292F227091FF05C0909171
:1028D0006F009D7F90936F0094E0899FF001112419
:1028E000EA5EF44F6081718182819381222329F015
:1028F00020916F00226020936F000895BC01209109
:10290000930A3091940A4091930A5091940A2417A3
:10291000350731F481E02617370709F080E0089584
:102920009A01F1CFEF92FF920F931F93E092110360
:10293000F092120300931303109314036093150392
:1029400070931603809317039FEFFF27621B730B8F
:10295000840B30F4809570956195790B890B9927DC
:1029600090931003A6E06A9F00920403512DEE2776
:102970007A9F500DE11D8A9FE00D50930503E0936F
:102980000603AFE06A9F00920803512DEE277A9F5D
:10299000500DE11D8A9FE00D50930903E0930A0357
:1029A000AAE06A9F00920C03512DEE277A9F500DEA
:1029B000E11D8A9FE00D50930D03E0930E031F91DC
:1029C0000F91FF90EF90089580914F0A80FF27C0EC
:1029D00089988FEF80934B0A80914F0A81FF22C024
:1029E0008F988FEF80934C0A80914F0A82FF1DC011
:1029F00080910B018270809309018FEF80934D0AC3
:102A000080914F0A83FF19C0169A8FEF80934E0A68
:102A10000000000082E08A950000E9F70895899A95
:102A200081E0D8CF8F9A81E0DDCF80910B01809536
:102A300082708093090181E0E1CF169881E0E6CFB2
:102A40008091F10D9091F20D891B8F7019F490E037
:102A500080E008959091EE0D992351F0833030F489
:102A60008FEF890F19F08093EE0DF1CF1092EE0DDC
:102A70008091F20D2DE5829FC001112485589B4F56
:102A8000FC01208120FDE3CF2091F20D2F5F2F70FC
:102A90002093EF0D3091F20D2091F00D321304C010
:102AA0002091EF0D2093F00D0895CF93C091360B38
:102AB00080E0C13069F1C23069F50E94C6136093AD
:102AC000A20A7093A30A8093A40A9093A50A81E0B6
:102AD0008093360B0E940A126093A60A7093A70A8D
:102AE0008093A80A9093A90AC23089F080916B0460
:102AF00090916C04019690936C0480936B041092F7
:102B00006704109268041092690410926A0481E0CC
:102B1000CF9108950E94F813DACF9F92AF92BF929F
:102B2000CF92DF92EF92FF920F931F93CF93DF9399
:102B300000D01F921F92CDB7DEB7EBECFBE0002771
:102B4000BB27462F572FA82FAA2341F4A52F542F78
:102B5000B85FAA2319F4A52F5527B85FA03138F420
:102B60005295A295452F4F70507FA42BBC5FA03487
:102B700028F4550FAA1F550FAA1FBE5FA03818F4DE
:102B8000550FAA1FB395550FAA1FEA0FF01F4491C6
:102B900051E0AA27B85081F1C8F0B0FF02C0440F3D
:102BA000551FB1FF04C0440F551F440F551FB2FFFE
:102BB00006C052954295142F1F70407F512BB3FFD2
:102BC0001BC0A52F542F44270C94FC15B195B0FFC2
:102BD00002C055954795B1FF04C055954795559549
:102BE0004795B2FF05C05295407F4295452B5F70D7
:102BF000B3FF02C0452F5527DD24CC24BB24B2E00F
:102C0000649FD018C108B00AB00B749FC018B108F7
:102C1000B00B849FB018B109659FC018B108B00B04
:102C2000759FB018B109859FB0196A9FB018B10996
:102C30007A9FB0194D9DA12C9924332799272227DB
:102C40005D9DA00C911C301F901F201FAD9D900C0E
:102C5000311D901F201F4C9DA00C911C301F901FF8
:102C6000201F5C9D900C311D901F201FAC9D300DCE
:102C7000911D201F4B9D900C311D901F201F5B9DAF
:102C8000300D911D201FAB9D900D211D4B9F300DD0
:102C9000911D201F5B9F900D211DAB9F200DB1E06A
:102CA000BB24CC24DD24639FD018C108B00AB00B2C
:102CB000739FC018B108B00B839FB018B109699F0A
:102CC000C018B108B00B799FB018B109899FB0192D
:102CD000629FB018B109729FB019D61AC70AB80A14
:102CE00020F0B1E03B0F901F201F1124792F632F9C
:102CF00090E0822F0F900F900F900F900F90DF9128
:102D0000CF911F910F91FF90EF90DF90CF90BF90E8
:102D1000AF909F9008954F925F926F927F928F92A3
:102D20009F92AF92BF92EF92FF920F931F93CF9318
:102D3000DF93C9E6DBE086EDE82E8BE0F82E00E5B8
:102D40001BE0412C512C3201439469917991899176
:102D50009991F70181909190A190B1907F010E948B
:102D6000B68EA50194010E94178F0E948694F801E7
:102D700061937193819391938F014616570668066C
:102D8000790610F42B013C01FBE0C937DF07E9F6B7
:102D90006FEF7FEFCB01A30192010E94D6922093A7
:102DA0005204309353044093540450935504DF91DC
:102DB000CF911F910F91FF90EF90BF90AF909F9098
:102DC0008F907F906F905F904F900895CF93DF9397
:102DD00090916F00292F227091FF05C090916F0094
:102DE0009D7F90936F0094E0899FA0011124FA01C8
:102DF000EA56F54F6081718182819381222329F007
:102E000020916F00226020936F00EA01CA5ADB4FC5
:102E10000E94B88E288139814A815B810E94178F78
:102E2000DF91CF910895CF92DF92EF92FF92809140
:102E3000680B882309F457C0C090640BD090650BD1
:102E4000E090660BF090670B20E030E0A901C7012D
:102E5000B6010E94B18E882309F445C020E030E01D
:102E600040E05FE3C701B6010E94178F9B01AC01F0
:102E70000E94178F2BED3FE049E450E40E94178F2A
:102E80009B01AC0160E070E080E89FE30E940D943C
:102E90006B017C01C092CB0BD092CC0BE092CD0B9E
:102EA000F092CE0B60912D0270912E02072E000C35
:102EB000880B990B0E94B88E2AE037ED43E25CE361
:102EC0000E94178FA70196010E94178F6093290215
:102ED00070932A0280932B0290932C02FF90EF9024
:102EE000DF90CF900895C12CD12C80E8E82E8FE39D
:102EF000F82ED0CF2F923F924F925F926F927F9297
:102F00008F929F92AF92BF92CF92DF92EF92FF92F9
:102F10000F931F93CF93DF93CDB7DEB760970FB6B4
:102F2000F894DEBF0FBECDBFDC01CD90DD90ED90FB
:102F3000FC90DB018D919D910D90BC91A02D8B8318
:102F40009C83AD83BE8320E030E040EA51E4C701BA
:102F5000B6010E94129321EC39E04CE15CE30E943F
:102F6000178F0E947F9416160CF019C161E0062F8E
:102F7000660F110B1801BFEF2B1A3B0A20E030E05F
:102F800040EA51E46B817C818D819E810E94129385
:102F900029ED39E84DE15CE30E94178F0E947F9490
:102FA00016160CF000C161E0E62F660FFF0BF88BE0
:102FB000EF87F801EE0FFF1FEE0FFF1FED5DF14FE2
:102FC00080809180A280B380B801660F771F060FC2
:102FD000171FEF85F889E00FF11FEE0FFF1FEE0FAF
:102FE000FF1FE850F44F4080518062807380F101F0
:102FF000EE0FFF1FEE0FFF1FED5DF14FA5019401D6
:1030000060817181828193810E9412936F8378879E
:1030100089879A87A5019401C701B6010E9412937E
:103020006B017C01C101880F991F280E391EEF85A5
:10303000F889E20DF31DEE0FFF1FEE0FFF1FE850A2
:10304000F44FA301920160817181828193810E947A
:1030500012932F81388549855A850E940D94A701C6
:1030600096010E94178FA30192010E9413936B8710
:103070007C878D879E878F85988901969A8389831F
:10308000080F191FF801EE0FFF1FEE0FFF1FE8508A
:10309000F44F80809180A280B380AF85B889AA0F59
:1030A000BB1FAA0FBB1FA95EB14F4D905D906D90E5
:1030B0007C90280E391EF101EE0FFF1FEE0FFF1F4F
:1030C000E850F44FA5019401608171818281938160
:1030D0000E9412932F81388549855A850E940D944C
:1030E000A70196010E94178FA50194010E941393D6
:1030F0002B853C854D855E850E9412936B017C017A
:10310000E981FA81EE0FFF1FEE0FFF1FE95EF14F1D
:10311000A301920160817181828193810E94129347
:103120009B01AC01C701B6010E940D946B017C01AB
:10313000A30192016B817C818D819E810E941293FB
:103140009B01AC01C701B6010E94178F2B853C85FE
:103150004D855E850E9413932091E60B3091E70B1D
:103160004091E80B5091E90B0E94139360960FB6C3
:10317000F894DEBF0FBECDBFDF91CF911F910F91AD
:10318000FF90EF90DF90CF90BF90AF909F908F9087
:103190007F906F905F904F903F902F90089567FFC2
:1031A000E6CE60E0E4CE67FFFFCE60E0FDCECF93D9
:1031B000DF9320911D0C222379F0EA010E947A17F7
:1031C0009B01AC01688179818A819B810E94139364
:1031D000688379838A839B83DF91CF910895CF930E
:1031E000DF9380914004659B4DC0816080934004D3
:1031F000909103018091400490FF46C080628093CB
:103200004004809140044A9941C08F7B80934004E0
:10321000C091860AC0FF10C080914F0A84FF0CC085
:103220008091400480FF08C08091AD0D8160809343
:10323000AD0D80E00E941314C1FF10C080914F0AB1
:1032400085FD0CC08091400485FF08C08091AD0DC4
:1032500080628093AD0D81E00E941314C2FF18C0FC
:1032600080914F0A82FD14C08091400486FF10C0F7
:103270008091AD0D80648093AD0D82E0DF91CF91A0
:103280000C9413148E7FB2CF8F7DB9CF8064BECFE4
:10329000DF91CF910895CF92DF92EF92FF92CF937B
:1032A000DF93EC01C090BF0BD090C00BE090C10B3E
:1032B000F090C20BA7019601688179818A819B8178
:1032C0000E94B18E87FF04C0C882D982EA82FB8245
:1032D000C090C30BD090C40BE090C50BF090C60B10
:1032E000A70196016C817D818E819F810E94B18EA4
:1032F00087FF04C0CC82DD82EE82FF82C0901D0277
:10330000D0901E02E0901F02F0902002A7019601CB
:10331000688179818A819B810E947395181624F4B3
:10332000C882D982EA82FB82C0902102D090220218
:10333000E0902302F0902402A70196016C817D8128
:103340008E819F810E947395181624F4CC82DD82B1
:10335000EE82FF82C090C70BD090C80BE090C90BE3
:10336000F090CA0BA7019601688579858A859B85AF
:103370000E94B18E87FF04C0C886D986EA86FB8684
:10338000C0902502D0902602E0902702F0902802FB
:10339000A7019601688579858A859B850E9473952A
:1033A000181624F4C886D986EA86FB86DF91CF9169
:1033B000FF90EF90DF90CF9008955F9A8091D50BAA
:1033C0008E7F8093D50B8A9A8091D50B8D7F8093C9
:1033D000D50B8091080180958170809306018091C2
:1033E000D50B8B7F8093D50B129A0895CF93DF93E3
:1033F000C8EFDBE020E030E0A901688179818A81B3
:103400009B810E94B18E81111FC020E030E0A90194
:103410006C817D818E819F810E94B18E811114C04B
:1034200020E030E0A901688579858A859B850E9426
:10343000B18E811109C02C968CE0CC31D807D1F621
:1034400080E0DF91CF91089581E0FBCF0F931F9330
:10345000CF93DF9394E0899FE00111248E010D54F6
:10346000144FFE01E955F44FDE01AA5DB44F2D91D2
:103470003D914D915C9160817181828193810E9427
:103480001393F8016083718382839383FE01EF5865
:10349000FC4F85919591A591B491FE01E154F44FB3
:1034A00080839183A283B383FE01E358FC4F85910F
:1034B0009591A591B491C35EDD4F88839983AA83CA
:1034C000BB83DF91CF911F910F91089590911903C4
:1034D000E92FF0E0E25EF34F80839F5F943040F489
:1034E000909319038091AF0D8F5F8093AF0D089576
:1034F00010921903F7CF2FEB280F2A3108F042C0A2
:10350000E22FF0E080910F0B9091100BA091110B26
:10351000B091120B04C0B695A795979587952A95FB
:10352000D2F780FD02C081700895EB50F54FE08125
:10353000EE2329F18091B00D9091B10DE80FF92F94
:10354000F11D808190ED980F9A3030F08E3251F459
:10355000818180538A3098F4F093960BE093950B19
:1035600081E008958D3211F08B3249F4818190ED24
:10357000980F9A3088F38E3211F48281EACFF0E00E
:10358000E0E0EACF80E008950E947B1A882341F0B2
:1035900081E02091950B3091960B232B09F480E06C
:1035A000089580E1E3ECFDE0A2EBBDE001900D9217
:1035B0008A95E1F708959091C00095FFFCCF809324
:1035C000C6000895FF920F931F93CF93DF938091CE
:1035D000D30D082F0270182F1470982F9170F92EA8
:1035E00080FD11C0CCE1DEE1FE01849121968111C4
:1035F00015C0C6E1DEE1FE0184912196882389F0A1
:103600000E94DB1AF8CF002369F380E0112351F305
:10361000DF91CF911F910F91FF9008950E94DB1AC7
:10362000E3CFF1100AC0C4E1DEE1FE0184912196EE
:10363000882319F00E94DB1AF8CF01110AC0C2E1F9
:10364000DEE1FE0184912196882319F00E94DB1AA5
:10365000F8CF11110AC0C0E1DEE1FE01849121968C
:10366000882319F00E94DB1AF8CFC8E0DEE1FE01E2
:1036700084912196882319F00E94DB1AF8CF81E00B
:10368000C7CF0F931F93CF93DF93162F072FEC0114
:10369000FE0184912196811108C0C12FD02F8991FC
:1036A000882331F00E94DB1AFACF0E94DB1AF0CF98
:1036B000DF91CF911F910F910895CF93DF93CCE1CC
:1036C000DEE1FE0184912196882319F00E94DB1A25
:1036D000F8CF6091B00D7091B10D85EF9DE10E9422
:1036E000411B82E20E94DB1A8AE0DF91CF910C94A9
:1036F000DB1ACF93DF93CFE8D9E0FE0184912196C6
:1037000081110AC0C7E8D9E0FE018491219688237F
:1037100031F00E94DB1AF8CF0E94DB1AEECF6599D8
:1037200008C0C0EED2E08991882331F00E94DB1AF4
:10373000FACFC6EDD2E0F7CF8AE00E94DB1ACFE7DE
:10374000D9E0FE0184912196882319F00E94DB1AAA
:10375000F8CF80910301C0EED2E080FF02C0C6ED39
:10376000D2E08991882319F00E94DB1AFACF8AE00F
:103770000E94DB1AC7E7D9E0FE01849121968823D5
:1037800019F00E94DB1AF8CF4A9B08C0C6EDD2E0C0
:103790008991882331F00E94DB1AFACFC0EED2E083
:1037A000F7CF8AE0DF91CF910C94DB1ACF93DF93B0
:1037B0008F389240A1F0C9E7DEE1FE0184912196A5
:1037C00081110AC0C6E5D6E0FE01849121968823C6
:1037D00051F00E94DB1AF8CF0E94DB1AEECF80E096
:1037E000DF91CF91089581E0FBCFCF93DF93C9E3C1
:1037F000D6E0FE0184912196882319F00E94DB1AFD
:10380000F8CF8AE0DF91CF910C94DB1ACF93DF934E
:10381000C9E7DEE1FE018491219681110AC0C8E961
:10382000D3E0FE0184912196882331F00E94DB1AB7
:10383000F8CF0E94DB1AEECFDF91CF910895CF939E
:10384000DF93C9E8D3E0FE0184912196882319F023
:103850000E94DB1AF8CFDF91CF9108958091110477
:10386000909112042FEF3FEF981751F0E92FF0E0FD
:10387000EF56FC4F208130E09F5F9F7790931204BA
:10388000C90108951092E60B1092E70B1092E80B15
:103890001092E90BE8EFFBE084E2DF011D928A95CC
:1038A000E9F708958091D50A9091D60A0E94601296
:1038B0006093EA0D7093EB0D8093EC0D9093ED0DFA
:1038C0008091D10A9091D20A0E9437136093400BE5
:1038D0007093410B8093420B9093430BA8951092E9
:1038E000D70A0895CF92DF92EF92FF920F931F9322
:1038F000CF93DF93CDB7DEB7A0970FB6F894DEBFB6
:103900000FBECDBF611571058105910579F100E00C
:10391000C42ED12CF12CE12CA70196010E94D69245
:1039200011E0100FE1E0F0E0EC0FFD1FE00FF11DE2
:1039300007FDFA956083B901CA01012F6115710570
:103940008105910549F7115010F1E1E0F0E0EC0F2D
:10395000FD1FE10FF11D17FDFA95908187E39A3065
:1039600008F480E3890F0E94DB1AEDCF80E3A09674
:103970000FB6F894DEBF0FBECDBFDF91CF911F9180
:103980000F91FF90EF90DF90CF900C94DB1AA096F0
:103990000FB6F894DEBF0FBECDBFDF91CF911F9160
:1039A0000F91FF90EF90DF90CF900895CF92DF922C
:1039B000EF92FF92CF93DF936A017B01EC01FE014E
:1039C00084912196882319F00E94DB1AF8CF4AE0EF
:1039D000C701B601DF91CF91FF90EF90DF90CF90BC
:1039E0000C94721CCF92DF92EF92FF926B017C01DC
:1039F000F7FE0BC08DE20E94DB1AF094E094D094A5
:103A0000C094C11CD11CE11CF11C4AE0C701B601E5
:103A1000FF90EF90DF90CF900C94721C0F931F9348
:103A2000CF93DF93EB018C01F80184910F5F1F4F5F
:103A3000882319F00E94DB1AF7CFBE01DD0F880B37
:103A4000990BDF91CF911F910F910C94F21CCF93A2
:103A5000DF938091110480931204C6E1D4E0FE014B
:103A600084912196882319F00E94DB1AF8CF609187
:103A7000D60D7091D70D8091D80D9091D90D6F5FB3
:103A80007F4F8F4F9F4F0E94F21C8AE00E94DB1AEB
:103A9000E091AE0DF0E0E25EF34F8081882321F0EB
:103AA000DF91CF910C94F51BDF91CF9108950F9387
:103AB0001F93CF93DF93182F092FC9E7DEE1FE0193
:103AC0008491219681110AC0C12FD02FFE018491CB
:103AD0002196882331F00E94DB1AF8CF0E94DB1A6E
:103AE000EECF6091D60D7091D70D8091D80D909149
:103AF000D90D0E94F21C8AE00E94DB1A0E94271D49
:103B00001092D50D1092D40DDF91CF911F910F918E
:103B10000895FF920F931F93CF93DF93082FF92EF1
:103B2000162FCEECD3E0FE0184912196811111C0B5
:103B3000C02FDF2DFE018491219681110DC0CCECA8
:103B4000D3E0FE0184912196882349F00E94DB1A7C
:103B5000F8CF0E94DB1AE7CF0E94DB1AEBCF612F70
:103B600070E090E080E00E94F21C8AE0DF91CF914B
:103B70001F910F91FF900C94DB1A8F929F92AF923E
:103B8000BF92CF92DF92EF92FF92CF936B017C01B5
:103B9000B42E20E030E0A9010E94B18E87FF07C05B
:103BA0008DE20E94DB1AF7FAF094F7F8F094C0E087
:103BB00060E070E080E09FE3CB1541F02DEC3CEC41
:103BC0004CEC5DE30E94178FCF5FF6CF9B01AC01F9
:103BD000C701B6010E9413936B017C010E94869479
:103BE0004B015C014AE00E94721CCC2391F1C5019B
:103BF000B4010E94B68E9B01AC01C701B6010E94C0
:103C000012936B017C018EE20E94DB1AC15008F115
:103C100020E030E040E251E4C701B6010E94178F76
:103C20004B015C010E947F946B01770FEE08FF0847
:103C3000C701B6010E94F21CC701B6010E94B88EEE
:103C40009B01AC01C501B4010E9412936B017C0180
:103C5000DDCFCF91FF90EF90DF90CF90BF90AF90EE
:103C60009F908F900895CF92DF92EF92FF92CF9323
:103C7000DF936A017B01EC01FE0184912196882388
:103C800019F00E94DB1AF8CF42E0C701B601DF91BC
:103C9000CF91FF90EF90DF90CF900C94BD1DFF92DD
:103CA0000F931F93CF93DF938C01EB01F42E80E2EF
:103CB0000E94DB1A8FEFF81609F184E50E94DB1AE7
:103CC0008AE30E94DB1AF80160817181828193810D
:103CD00042E00E94BD1D488159816A817B818AE34F
:103CE00098E10E94331E62E070E080E090E0DF9196
:103CF000CF911F910F91FF900C94D71182E4DECFEA
:103D00000F931F93CF93DF9300D000D01F921F9289
:103D1000CDB7DEB76091E80D7091E90D072E000C6C
:103D2000880B990B0E94B88E6D837E838F83988752
:103D30008091EA0D9091EB0DA091EC0DB091ED0DFD
:103D400089839A83AB83BC834DEFBE016B5F7F4F4A
:103D5000CE0101960E944F1E6091440B7091450B5D
:103D6000072E000C880B990B0E94B88E6D837E8302
:103D70008F8398878091400B9091410BA091420BCB
:103D8000B091430B89839A83AB83BC834FEFBE0111
:103D90006B5F7F4FCE0101960E944F1E02E418E137
:103DA000F80184910F5F1F4F882319F00E94DB1ADE
:103DB000F7CFE091F70BF0E0E651F54F608170E04E
:103DC00090E080E00E94F21C0DE318E1F80184917C
:103DD0000F5F1F4F882319F00E94DB1AF7CF609105
:103DE000EB0A70E090E080E00E94F21C28960FB68B
:103DF000F894DEBF0FBECDBFDF91CF911F910F9121
:103E000008958F929F92AF92BF92CF92DF92EF92DE
:103E1000FF920F931F93CF93DF93C82F81110BC095
:103E20000CE11EE1F80184910F5F1F4F882319F008
:103E30000E94DB1AF7CF0CE619E0F80184910F5FBE
:103E40001F4F81110BC005E817E0F80184910F5F47
:103E50001F4F882331F00E94DB1AF7CF0E94DB1A34
:103E6000ECCF8AE00E94DB1A8AE00E94DB1AC111C3
:103E70002CC00CE11EE17801F7018491FFEFEF1AED
:103E8000FF0A81110EC089E5E82E89E0F82EF701BE
:103E90008491FFEFEF1AFF0A882331F00E94DB1AAA
:103EA000F6CF0E94DB1AE8CF8091680BDEE4ED2E9E
:103EB000D9E0FD2E882349F18AE00E94DB1AF8013F
:103EC00084910F5F1F4F8111F8CF4091640B509187
:103ED000650B6091660B7091670B85E499E00E9419
:103EE000331E8AE00E94DB1A8091680B811122C088
:103EF000C11115C00CE11EE1F80184910F5F1F4F45
:103F0000882369F00E94DB1AF7CFF7018491FFEF55
:103F1000EF1AFF0A882399F20E94DB1AF6CF0AE310
:103F200019E0F80184910F5F1F4F882319F00E9458
:103F3000DB1AF7CFC11124C00CE11EE17801F701B3
:103F40008491FFEFEF1AFF0A81110EC0B9E2EB2E48
:103F5000B9E0FB2EF7018491FFEFEF1AFF0A8823E7
:103F600031F00E94DB1AF6CF0E94DB1AE8CFF8018D
:103F700084910F5F1F4F882319F00E94DB1AF7CF3F
:103F80004091D60B5091D70B6091D80B7091D90B03
:103F900081E299E00E94331E4091DA0B5091DB0BD5
:103FA0006091DC0B7091DD0B8EE199E00E94331E75
:103FB0004091DE0B5091DF0B6091E00B7091E10BB3
:103FC0008BE199E00E94331E4091E20B5091E30B8C
:103FD0006091E40B7091E50B88E199E00E94331E3B
:103FE0008AE00E94DB1AC11124C00CE11EE17801B5
:103FF000F7018491FFEFEF1AFF0A81110EC0AAEFBB
:10400000EA2EA8E0FA2EF7018491FFEFEF1AFF0ADB
:10401000882331F00E94DB1AF6CF0E94DB1AE8CF2A
:10402000F80184910F5F1F4F882319F00E94DB1A5B
:10403000F7CF4091790B50917A0B60917B0B709187
:104040007C0B81EF98E00E94331E40917D0B5091D4
:104050007E0B60917F0B7091800B8EEE98E00E943A
:10406000331E4091810B5091820B6091830B7091B4
:10407000840B8BEE98E00E94331E4091850B50918B
:10408000860B6091870B7091880B88EE98E00E94F8
:10409000331E8AE00E94DB1AC11124C00CE11EE12C
:1040A0007801F7018491FFEFEF1AFF0A81110EC02A
:1040B000F6ECEF2EF8E0FF2EF7018491FFEFEF1AF8
:1040C000FF0A882331F00E94DB1AF6CF0E94DB1A28
:1040D000E8CFF80184910F5F1F4F882319F00E94E9
:1040E000DB1AF7CF4091690B50916A0B60916B0B13
:1040F00070916C0B8DEB98E00E94D61C40916D0B7B
:1041000050916E0B60916F0B7091700B8AEB98E081
:104110000E94D61C4091710B5091720B6091730BF1
:104120007091740B87EB98E00E94D61C4091750B40
:104130005091760B6091770B7091780B84EB98E03F
:104140000E94D61C8AE00E94DB1AC11124C00CE137
:104150001EE17801F7018491FFEFEF1AFF0A811148
:104160000EC0EAE6EE2EE8E0FE2EF7018491FFEFA6
:10417000EF1AFF0A882331F00E94DB1AF6CF0E9463
:10418000DB1AE8CFF80184910F5F1F4F882319F0E5
:104190000E94DB1AF7CF4091910B5091920B6091E6
:1041A000930B7091940B81E698E00E94331E40912E
:1041B000890B50918A0B60918B0B70918C0B8EE563
:1041C00098E00E94331E40918D0B50918E0B6091B0
:1041D0008F0B7091900B8BE598E00E94331E8AE064
:1041E0000E94DB1AC11132C00CE11EE17801F70117
:1041F0008491FFEFEF1AFF0A811119C073E1E72ED6
:1042000078E0F72EF7018491FFEFEF1AFF0A811192
:1042100011C066E0E62E68E0F62EF7018491FFEF0C
:10422000EF1AFF0A882349F00E94DB1AF6CF0E949A
:10423000DB1ADDCF0E94DB1AE5CF8AE00E94DB1A91
:10424000F80184910F5F1F4F8111F8CF4091A30BAC
:104250005091A40B6091A50B7091A60B8DEF97E088
:104260000E94D61C40919F0B5091A00B6091A10B16
:104270007091A20B8AEF97E00E94331E40919B0B36
:1042800050919C0B60919D0B70919E0B87EF97E076
:104290000E94331E4091970B5091980B6091990B9F
:1042A00070919A0B84EF97E00E94331E8AE00E947F
:1042B000DB1AC11124C00CE11EE17801F7018491E1
:1042C000FFEFEF1AFF0A81110EC056EEE52E57E000
:1042D000F52EF7018491FFEFEF1AFF0A882331F0E2
:1042E0000E94DB1AF6CF0E94DB1AE8CFF801849116
:1042F0000F5F1F4F882319F00E94DB1AF7CF409100
:10430000A70B5091A80B6091A90B7091AA0B8DED92
:1043100097E00E94331E4091AB0B5091AC0B609123
:10432000AD0B7091AE0B8AED97E00E94331E409169
:10433000AF0B5091B00B6091B10B7091B20B87ED48
:1043400097E00E94331E8AE00E94DB1AC11124C04C
:104350000CE11EE17801F7018491FFEFEF1AFF0AEB
:1043600081110EC043ECE42E47E0F42EF701849156
:10437000FFEFEF1AFF0A882331F00E94DB1AF6CF15
:104380000E94DB1AE8CFF80184910F5F1F4F88234A
:1043900019F00E94DB1AF7CF60911D0C70E08AEBD8
:1043A00097E00E940E1D8AE00E94DB1A0E94F61917
:1043B000882309F451C038EFC32E3BE0D32E01E02F
:1043C00010E05601EE24E394F12CC1110EC09CE1E3
:1043D000892E9EE1992EF4018491FFEF8F1A9F0A96
:1043E000882319F00E94DB1AF6CFB7018FEA97E015
:1043F0000E940E1DB8018CEA97E00E940E1D89EA0A
:10440000882E87E0982EF4018491FFEF8F1A9F0A7F
:10441000882319F00E94DB1AF6CFF50160817181C3
:104420008281938145E00E94BD1D8AE00E94DB1AD3
:10443000FFEFEF1AFF0A8CE0A80EB11C94E0E9161A
:10444000F10409F0C2CF0F5F1F4FE4E0CE0ED11C84
:104450000430110509F0B5CFC1111EC00CE11EE1F9
:10446000E801FE018491219681110AC0CAE9D7E0D2
:10447000FE0184912196882331F00E94DB1AF8CF47
:104480000E94DB1AEECFF80184910F5F1F4F882343
:1044900019F00E94DB1AF7CF4091F20B5091F30B09
:1044A0006091F40B7091F50B81E997E00E94331E47
:1044B0002CEA35EC47E25EE36091EE0B7091EF0B76
:1044C0008091F00B9091F10B0E940D94AB01BC0117
:1044D0008EE897E00E94331E2CEA35EC47E25EE35B
:1044E0006091EA0B7091EB0B8091EC0B9091ED0BCE
:1044F0000E94178FAB01BC018BE897E00E94331E2E
:104500008AE0DF91CF911F910F91FF90EF90DF90A4
:10451000CF90BF90AF909F908F900C94DB1A7F92BA
:104520008F929F92AF92BF92CF92DF92EF92FF92C3
:104530000F931F93CF93DF93C7ECD9E0FE018491D3
:10454000219681110AC0CCEBD9E0FE01849121961D
:10455000882331F00E94DB1AF8CF0E94DB1AEECFDD
:104560006091E60B7091E70B8091E80B9091E90B5D
:1045700045E00E94BD1DC9EAD9E0FE018491219663
:10458000882319F00E94DB1AF8CFC12CD12C7601B8
:10459000C9E0C15021F080E20E94DB1AFACFC701C6
:1045A000B6010E94F21CFFEFCF1ADF0AEF0AFF0AE2
:1045B00083E0C816D104E104F10451F78AE00E94B7
:1045C000DB1AC8EFDBE0C12CD12C760180E20E941F
:1045D000DB1AC701B6010E94F21C8E0183E0782E1F
:1045E00080E20E94DB1AF80180809180A280B38073
:1045F000A5019401C501B4010E940596811135C041
:1046000020E030E0A901C501B4010E94739587FD47
:1046100003C08BE20E94DB1A45E0C501B4010E9491
:10462000BD1D7A94045F1F4F7110DACF8AE00E949B
:10463000DB1A8FEFC81AD80AE80AF80A249693E022
:10464000C916D104E104F10409F68AE0DF91CF91A3
:104650001F910F91FF90EF90DF90CF90BF90AF90A0
:104660009F908F907F900C94DB1AB12C80E20E9477
:10467000DB1AB3948DE3F8E0BF12F9CFD2CF4F929B
:104680005F926F927F928F929F92AF92BF92CF92E2
:10469000DF92EF92FF92CF93DF93C9ECD3E0FE015C
:1046A00084912196882319F00E94DB1AF8CF20917B
:1046B000B30B3091B40B4091B50B5091B60B609198
:1046C000C30D7091C40D8091C50D9091C60D0E94CF
:1046D000139342E00E94BD1DC5ECD3E0FE0184911E
:1046E0002196882319F00E94DB1AF8CF2091B70B8E
:1046F0003091B80B4091B90B5091BA0B6091C70D36
:104700007091C80D8091C90D9091CA0D0E941393AC
:1047100042E00E94BD1DC1ECD3E0FE0184912196D0
:10472000882319F00E94DB1AF8CF2091BB0B30913F
:10473000BC0B4091BD0B5091BE0B6091CB0D7091A5
:10474000CC0D8091CD0D9091CE0D0E94139342E03F
:104750000E94BD1DCDEBD3E0FE01849121968823FC
:1047600019F00E94DB1AF8CF6091CF0D7091D00D37
:104770008091D10D9091D20D42E00E94BD1D80919B
:104780006F00982F927081FF05C080916F008D7F20
:1047900080936F004090160B5090170B6090180B91
:1047A0007090190B80901A0B90901B0BA0901C0B13
:1047B000B0901D0BC0901E0BD0901F0BE090200BF3
:1047C000F090210B992329F080916F0082608093F3
:1047D0006F00C3EBD3E0FE0184912196882319F08A
:1047E0000E94DB1AF8CFC301B2010E94F21CCFEA8B
:1047F000D3E0FE0184912196882319F00E94DB1AF0
:10480000F8CFC501B4010E94F21CCBEAD3E0FE014F
:1048100084912196882319F00E94DB1AF8CFC701F2
:10482000B6010E94F21C8AE0DF91CF91FF90EF90D9
:10483000DF90CF90BF90AF909F908F907F906F90C0
:104840005F904F900C94DB1A80916604882341F0AE
:1048500040E150E063E370E08BE694E00C949692C4
:104860000895CF92DF92EF92FF928091360B8150A4
:10487000823008F062C01092360B0E940A126093D8
:10488000320B7093330B8093340B9093350B8091E4
:104890006D0490916E04019690936E0480936D0464
:1048A000C0906704D0906804E0906904F0906A04B6
:1048B0000E94C613AB01BC01409367045093680487
:1048C0006093690470936A0480916F0490917004FE
:1048D000A0917104B09172048C199D09AE09BF09B1
:1048E000840F951FA61FB71F80936F0490937004C9
:1048F000A0937104B09372040E94C613C090730415
:10490000D0907404E0907504F0907604C616D70633
:10491000E806F90650F40E94C6136093730470937E
:10492000740480937504909376040E94242481E09B
:10493000FF90EF90DF90CF90089580E0F9CF109234
:10494000CE0A1092E90D1092E80D0E9416121092F4
:10495000450B1092440B0E94EF120E9431241092DA
:10496000E90D1092E80D0E9416121092EA0A2C9896
:104970001092450B1092440B1092EB0A80910201A9
:104980008072809300010895C9E7DEE1FE01849101
:10499000219681110AC0C9E5DEE1FE0184912196CC
:1049A000882331F00E94DB1AF8CF0E94DB1AEECF89
:1049B0000E949F240E94DD19FFEF2BE48DE1F1504E
:1049C00020408040E1F700C00000F8949FEFE4E34E
:1049D000FCE09150E040F040E1F700C000000E9490
:1049E0009F24A895FECFFF920F931F93CF93DF9341
:1049F000182F062FF72E80913102882351F1C9E735
:104A0000DEE1FE0184912196811111C0C02FDF2DBE
:104A1000FE018491219681110DC0C3E0D7E1FE0112
:104A200084912196882349F00E94DB1AF8CF0E94D6
:104A3000DB1AE7CF0E94DB1AEBCFCEEFD6E11111E4
:104A400013C060E070E0CB010E94F21C8AE00E947B
:104A5000DB1A8091AA0A81110FC01092310281E005
:104A60008093AA0A0E94C424FE018491219688237F
:104A700081F30E94DB1AF8CFDF91CF911F910F9144
:104A8000FF900C949F243F924F925F926F927F927F
:104A90008F929F92AF92BF92CF92DF92EF92FF924E
:104AA0000F931F93CF93DF936C014B015A01302E6C
:104AB000C1E0D0E0011102C0D0E0C0E0F9014080C7
:104AC000518062807380CC0FDD1FCC0FDD1F8E0103
:104AD0000652124FA3019201F80160817181828117
:104AE00093810E94B18E882391F0F8014082518217
:104AF0006282738211E020E030E0A901C301B201BB
:104B00000E94739518160CF010E0F6011083F60160
:104B100080818230C1F0833009F460C08130E1F5DA
:104B2000FE01E652F24F2081318142815381F5012D
:104B300060817181828193810E94B18E87FD2CC03A
:104B400082E0F6018083C652D24F20E030E040E799
:104B500051E4688179818A819B810E9412939B0133
:104B6000AC01F50160817181828193810E9473950E
:104B700087FD24C00E940A122B013C019701A8EE78
:104B8000B3E00E940393460E571E681E791EF4017F
:104B90004082518262827382DF91CF911F910F9187
:104BA000FF90EF90DF90CF90BF90AF909F908F904D
:104BB0007F906F905F904F903F9008950E940A12EF
:104BC000F4010081118122813381601B710B820B02
:104BD000930B97FDE1CF83E0F6018083FFEF42E284
:104BE0005EE13F1202C045E35EE169E47EE1832DB0
:104BF000DF91CF911F910F91FF90EF90DF90CF90B9
:104C0000BF90AF909F908F907F906F905F904F90EC
:104C10003F900C94F3244F925F926F927F928F9209
:104C20009F92AF92BF92CF92DF92EF92FF920F933B
:104C30001F93CF93DF93CDB7DEB760970FB6F8948D
:104C4000DEBF0FBECDBF8091D70A811117C060961D
:104C50000FB6F894DEBF0FBECDBFDF91CF911F918D
:104C60000F91FF90EF90DF90CF90BF90AF909F900B
:104C70008F907F906F905F904F9008950E94521C8C
:104C80000E940A124B015C016091E80D7091E90DE0
:104C9000072E000C880B990B0E94B88E69837A83CB
:104CA0008B839C8320E5E22EF12C00E09E012F5F98
:104CB0003F4F4AEE5DE063EC7AE087EC9AE00E94B9
:104CC0004325C090EA0DD090EB0DE090EC0DF090F4
:104CD000ED0D6091C10A7091C20A072E000C880B7D
:104CE000990B0E94B88E9B01AC01C701B6010E94CE
:104CF000739518160CF01EC160911102709112028A
:104D0000072E000C880B990B0E94B88E9B01AC01FA
:104D1000C701B6010E94B18E87FF0CC10091E80D5A
:104D20001091E90DB801012E000C880B990B0E941F
:104D3000B88EA70196010E9412936D837E838F83A4
:104D4000988720ED3CEC4CE45DE36091EA0B7091B8
:104D5000EB0B8091EC0B9091ED0B0E94178F2B01C8
:104D60003C012091B40A3091B50A4091B60A5091A5
:104D7000B70AC701B6010E9412939B01AC01C3019F
:104D8000B2010E94178F2B013C0123E333E343E779
:104D90005FE36091B00A7091B10A8091B20A90917C
:104DA000B30A0E94178F9B01AC01C301B2010E949C
:104DB00013932B013C014092B00A5092B10A6092C9
:104DC000B20A7092B30AC092B40AD092B50AE092C5
:104DD000B60AF092B70A20E030E040E251E46D817B
:104DE0007E818F8198850E94739518160CF482C17C
:104DF00020E030E040E251EC6D817E818F8198852A
:104E00000E94B18E87FD7BC1012B09F478C180918E
:104E1000AF0A81117AC12091AB0A3091AC0A40915E
:104E2000AD0A5091AE0A29873A874B875C8720915B
:104E3000F20B3091F30B4091F40B5091F50B6D8117
:104E40007E818F8198850E94178F6D877E878F87DF
:104E5000988B29853A854B855C856D817E818F8114
:104E600098850E94139369877A878B879C876093C4
:104E7000AB0A7093AC0A8093AD0A9093AE0A20916E
:104E8000EE0B3091EF0B4091F00B5091F10B0E9423
:104E9000178F2D853E854F8558890E941393A30156
:104EA00092010E9412932B013C0120E030E04FE779
:104EB00053E40E94739520E030E0A90118160CF02D
:104EC0002BC16D817E818F8198850E947395181604
:104ED00094F42D813E814F81588569857A858B8533
:104EE0009C850E9412936093AB0A7093AC0A8093E6
:104EF000AD0A9093AE0A6FE71EC020E030E0A90132
:104F00006D817E818F8198850E94B18E87FF12C04E
:104F10002D813E814F81588569857A858B859C8559
:104F20000E9412936093AB0A7093AC0A8093AD0A0F
:104F30009093AE0A60E06093EA0A8091E20D90914E
:104F4000E30DA091E40DB091E50D0097A105B10529
:104F500009F1A5019401281B390B4A0B5B0BDA01FF
:104F6000C901B7FD17C06091E60D7091E70D90E0A3
:104F700080E00E94B68E9B01AC01C701B6010E9481
:104F8000B18E87FFB1C043E457E165E577E180E08A
:104F90000E94F3248091C80A9091C90AA091CA0A7C
:104FA000B091CB0A0097A105B10539F1A501940193
:104FB000281B390B4A0B5B0BDA01C901B7FD1DC079
:104FC0006091CC0A7091CD0A90E080E00E94B68E8C
:104FD0009B01AC016091400B7091410B8091420BA1
:104FE0009091430B0E94B18E87FF81C041E257E14F
:104FF00064E377E18FEF0E94F3248091BD0A9091E2
:10500000BE0AA091BF0AB091C00AA5019401281B55
:10501000390B4A0B5B0BDA01C901B7FD18CE38E832
:10502000830E33E1931EA11CB11C8092BD0A9092A5
:10503000BE0AA092BF0AB092C00A6091440B709160
:10504000450B072E000C880B990B0E94B88E6983C4
:105050007A838B839C8388E2E82EF12C0FEF9E01EC
:105060002F5F3F4F40E45BE068EB7AE08CEB9AE027
:105070000E944325C090400BD090410BE090420B22
:10508000F090430B20E030E040EA50E4C701B60165
:105090000E94739587FD20C020E030E046E153E494
:1050A000C701B6010E94B18E1816B4F06091440B8E
:1050B0007091450B072E000C880B990B0E94B88E3F
:1050C0009B01AC01C701B6010E94B18E87FD1BC0D8
:1050D00080E08093EB0ABBCD1092EB0A8091020135
:1050E000807280930001B3CD0E94161253CF0E94AC
:1050F000EF1283CF81E08093AF0A6FE71CCF81E08E
:105100008093AF0A17CF8FE7E4CF1092AF0A1986CA
:105110001A861B861C868BCEC301B2010E94B18EFB
:1051200087FDEBCEC301B2010E947F947595679510
:1051300002CF2F923F924F925F926F927F928F9207
:105140009F92AF92BF92CF92DF92EF92FF920F9316
:105150001F93CF93DF93CDB7DEB7C254D1090FB6FB
:10516000F894DEBF0FBECDBF9A8389836F834B83D4
:105170002BAF0E940A126B877C878D879E874F809A
:10518000411015C0A981BA814D905D906D907C90C1
:105190004FAA58AE69AE7AAE00EC16E1F8018491E0
:1051A0000F5F1F4F882399F00E94DB1AF7CFE4EDC1
:1051B000F6E1FA83E983E981FA8184913196FA83F1
:1051C000E983882309F42EC30E94DB1AF4CF2B85D0
:1051D0003C854D855E8520543B424E4F5F4F2EA748
:1051E0003FA748AB59AB0E949F248FE78093EA0A00
:1051F00081E0809332024B845C846D847E8449A27A
:105200005AA26BA27CA24AA65BA66CA67DA619A692
:105210001AAA1BAA1CAA1DAA1D8A20E42E8B3CE1F7
:105220003F8B46E4488F198A1A8A1B8A1C8A1D8E76
:105230001E8E1F8E18A2198E1A8E1B8E1C8E812C0C
:10524000912C54017FE7472E512C612C712C4F82F9
:10525000588669867A86EFE7CE2ED12CE12CF12C88
:105260001DA21EA21FA218A621E02EAF188A1F861B
:10527000212C312C00E010E04B80042C000C550850
:105280005DAE4CAE80913202882309F4E5C20E94E3
:105290000A126B837C838D839E835090D70A5EAA0B
:1052A000552009F47EC00E94521C2090EA0D3090D7
:1052B000EB0D0091EC0D1091ED0D9101A8016989A4
:1052C0007A898B899C890E94B18E87FF04C0298AC4
:1052D0003A8A0B8B1C8B9101A8016D897E898F897D
:1052E000988D0E947395181624F42D8A3E8A0F8B90
:1052F000188FA981BA814C9011965C9011971296E3
:105300006C90129713967C90BEAD9101A801B201EA
:10531000C301BB2309F4BBC20E94B18E87FF41C009
:105320002B813C814D815E8189A19AA1ABA1BCA159
:10533000281B390B4A0B5B0B23962CAF3DAF4EAFAE
:105340005FAF2397DA01C90188589341A109B109D8
:10535000B7FD27C0D701C6012F81388549855A85F9
:10536000821B930BA40BB50BB595A79597958795C5
:105370008093EA0A23968CAD9DADAEADBFAD239769
:105380008DA39EA3AFA3B8A7498A5A8A6B8A7C8A49
:105390004B805C806D807E804B865C866D867E86D1
:1053A0001EAE20E030E040EA51E4A981BA816D915F
:1053B0007D918D919C910E9413939101A8010E946F
:1053C000B18E87FF14C1ECE4F6E1FA83E983E98149
:1053D000FA8184913196FA83E983882309F43CC2E7
:1053E0000E94DB1AF4CF44E1C42ED12CE12CF12C25
:1053F00024E130E040E050E02F83388749875A8726
:10540000A9C2CF82D886E986FA86A4C2C701B601AE
:105410000E94F21C23EB36E13AA329A3E9A1FAA1E9
:1054200084913196FAA3E9A3882319F00E94DB1A2C
:10543000F5CF6F81788589859A850E94F21C4D8908
:105440005E896F89788D8CEA96E10E94331E4989C6
:105450005A896B897C8985EA96E10E94331E2F85E3
:105460003889233031050CF492C06F8178858985A5
:105470009A850E94B88E20E030E040E850E40E9417
:10548000178F4B015C012D893E894F89588D6989A1
:105490007A898B899C890E9412932BED3FE049E425
:1054A00050E40E94178F20E030E040E05FE30E946C
:1054B000178F9B01AC01C501B4010E940D944B01F3
:1054C0005C01C301B2010E94B88E2FE632E143E8CD
:1054D0005AE30E94178F2B013C01B501A4018FE90B
:1054E00096E10E94331EB301A20189E996E10E9470
:1054F000331E2AE939E949E15FE3C501B4010E949D
:10550000178F4B015C01AC019B010E941393A30117
:1055100092010E940D94698F7A8F8B8F9C8FA501C9
:105520009401C301B2010E94178F20E030E040E0F7
:105530005EE30E94178F6D8F7E8F8F8F98A349E84F
:1055400056E15AA349A3E9A1FAA184913196FAA39D
:10555000E9A3882319F00E94DB1AF5CFB501A40155
:1055600083E896E10E94331E498D5A8D6B8D7C8DA8
:105570008DE796E10E94331E4D8D5E8D6F8D78A173
:1055800087E796E10E94331E8AE00E94DB1A8F8132
:105590009885A985BA858C0D9D1DAE1DBF1DB5953D
:1055A000A795979587958093EA0A2F8538892F5F6D
:1055B0003F4F388B2F87A981BA81BC91BD8BE98180
:1055C000FA81F181FE8BA981BA811296BC91BF8BC1
:1055D000E981FA81F381F88F4B805C806D807E8059
:1055E00049A25AA26BA27CA25EA85EAEDACE8B81E3
:1055F0009C81AD81BE814AA45BA46CA47DA4841966
:105600009509A609B709B7FD4CC00E94801E8AE023
:105610000E94DB1A2B813C814D815E812053384FE3
:105620004F4F5F4F2AA73BA74CA75DA749A4411046
:105630007CC02AA93BA94CA95DA9B101C8010E945F
:10564000739518160CF05BC020E030E040E050E4A9
:10565000B101C8010E9413936AAB7BAB8CAB9DABCD
:105660002B813C814D815E8120543B424E4F5F4FE8
:105670002EA73FA748AB59AB20E030E040EE50E406
:105680006FA978AD89AD9AAD0E9412939B01AC01D0
:1056900081E089A7B101C8010E94739518160CF02A
:1056A00019A68B819C81AD81BE81880F991FAA1F8D
:1056B000BB1F4B855C856D857E8549A05AA06BA07C
:1056C0007CA0440D551D661D771D841B950BA60BF4
:1056D000B70B81389F44A241B10508F43EC04AEEA1
:1056E00055E15A834983E981FA8184913196FA839D
:1056F000E983882309F4B0C00E94DB1AF4CF8B81C0
:105700009C81AD81BE814EA45FA468A879A884194C
:105710009509A609B7094BE256E16DE376E1B7FDBD
:10572000C0CF80E00E94F324BCCF20E030E040EA0C
:1057300051E4A981BA816D917D918D919C910E94D6
:1057400012939101A8010E94739518160CF0A9CF2D
:1057500048E056E16BE176E1E4CF4CAC5DAC6F84A0
:105760007888461457040CF08DCD2DE835E13A8346
:105770002983E981FA8184913196FA83E983882328
:1057800019F00E94DB1AF5CFB501A40189E795E174
:105790000E94331E8AE00E94DB1A498D5A8D6B8D60
:1057A0007C8D85E695E10E94331E8AE00E94DB1A1B
:1057B0004D8D5E8D6F8D78A181E595E10E94331E40
:1057C0008AE00E94DB1A4BAC442061F18092F20B1C
:1057D0009092F30BA092F40BB092F50B2CEA35ECFF
:1057E00047E25EE3698D7A8D8B8D9C8D0E94178FC9
:1057F0006093EE0B7093EF0B8093F00B9093F10B93
:105800002CEA35EC47E25EE36D8D7E8D8F8D98A19D
:105810000E940D946093EA0B7093EB0B8093EC0B5A
:105820009093ED0BCE5BDF4F0FB6F894DEBF0FBE4B
:10583000CDBFDF91CF911F910F91FF90EF90DF903F
:10584000CF90BF90AF909F908F907F906F905F9020
:105850004F903F902F900895CE5BDF4F0FB6F89496
:10586000DEBF0FBECDBFDF91CF911F910F91FF9093
:10587000EF90DF90CF90BF90AF909F908F907F90F0
:105880006F905F904F903F902F900C949F240E94B8
:10589000739518160CF085CD8B819C81AD81BE81EE
:1058A0004B845C846D847E8484199509A609B709AC
:1058B000AC01BD01485853416109710977FD71CDB3
:1058C0006F847888672809F462CE4DA05EA06FA02F
:1058D00078A4480E591E6A1E7B1E2DA13EA14FA121
:1058E00058A5281B390B4A0B5B0B6F81788589857E
:1058F0009A850E94C692A30192010E944796DA01FE
:10590000C9018C0D9D1DAE1DBF1D84319105A105E2
:10591000B1050CF468CD6C017D012CEEC216D104EA
:10592000E104F1042CF05BEEC52ED12CE12CF12C1E
:1059300080389105A105B1050CF463CD8EEF90E0A0
:10594000A0E0B0E08C199D09AE09BF098F8398874C
:10595000A987BA8748EB56E15AA349A3E9A1FAA15E
:1059600084913196FAA3E9A3882309F44FCD0E94CC
:10597000DB1AF4CF81E08093660480E1EBE6F4E08B
:10598000DF011D928A95E9F70E94242466E182E3F3
:1059900090E00C94B8922F923F924F925F926F9248
:1059A0007F928F929F92AF92BF92CF92DF92EF92AF
:1059B000FF920F931F93CF93DF93CDB7DEB76C9712
:1059C0000FB6F894DEBF0FBECDBF8C015B015A83CA
:1059D0004983FC01E95BFF4F208131814281538182
:1059E000298B3A8B4B8B5C8BCA01B9010E94B68E16
:1059F0006B017C01D5012D913D914D915C910E94EF
:105A0000178F0E94F1930E9486944B015C01E981FB
:105A1000FA812081318142815381C701B6010E9400
:105A2000178F0E94F1930E94869489869A86AB868E
:105A3000BC8629853A854B855C852837310541052B
:105A4000510540F428E730E040E050E029873A87EC
:105A50004B875C876D837E838F8398874D815E81C2
:105A60006F817885483751056105710540F468E715
:105A700070E080E090E06D837E838F839887F801EB
:105A8000ED5AFF4F4080518062807380C301B201A4
:105A90000E94B88E69837A838B839C8369857A851B
:105AA0008B859C850E94B68E6D8B7E8B8F8B988F9D
:105AB00020E030E0A90169817A818B819C810E947C
:105AC000B18E882309F4E1C1A7019601C701B6018F
:105AD0000E94178F4B015C012D893E894F89588D9B
